:020000040000FA
:0400000007EF00F016
:0A000800428211ED0FF020EF11F01D
:10080000003132334134353642373839434630458A
:10081000440300020001000000436F756E74646FB2
:10082000776E3A004C45443A4F6E20004C45443AAE
:100830004F66660056696E3A00002150800B2A6EA2
:10084000215021242C6E20AE28EF04F02AEF04F072
:100850002BEF04F02C802C50D8B431EF04F033EFA0
:1008600004F048EF04F02C28D8A439EF04F03BEF53
:1008700004F043EF04F0000E1E6E000E1F6E000E1B
:10088000206E000E216E208E000E216E50EF04F0BF
:10089000000E1E6E000E1F6E000E206E000E216EEA
:1008A0002550800B2B6E2A502B18D8B45AEF04F029
:1008B0005CEF04F05DEF04F02A8C255025242B6EAC
:1008C00024AE65EF04F067EF04F068EF04F02B80CE
:1008D0002B50D8B46EEF04F070EF04F085EF04F005
:1008E0002B28D8A476EF04F078EF04F080EF04F022
:1008F000000E226E000E236E000E246E000E256E7A
:10090000248E000E256E8DEF04F0000E226E000E78
:10091000236E000E246E000E256E2C502B5CD8B07A
:1009200094EF04F096EF04F0BDEF04F02AAC9BEFD7
:1009300004F09DEF04F09FEF04F0800E2A1A2CC003
:100940002DF02BC02CF02DC02BF01EC02DF022C09E
:100950001EF02DC022F01FC02DF023C01FF02DC0AF
:1009600023F020C02DF024C020F02DC024F021C0A1
:100970002DF025C021F02DC025F0000E2D6E2C503D
:100980002BC026F0276A265E000E275A27BED2EF1C
:1009900004F0275009E11A0E265CD8A0D2EF04F02B
:1009A000D4EF04F00BEF05F01E501F1020102110A3
:1009B000D8A4DDEF04F0E0EF04F0010EE1EF04F065
:1009C000000E2D6E000E1E6E000E1F6E000E206EAD
:1009D000000E216E2BC02CF014EF05F02DA0F3EFCC
:1009E00004F0F5EF04F0FBEF04F0D8902D3001098E
:1009F0002D6EFDEF04F0D8902D321EA002EF05F011
:100A000004EF05F005EF05F02D8E21342132203260
:100A10001F321E322C2A2B502C5CD8A012EF05F06E
:100A200014EF05F0EEEF04F02ABC19EF05F01BEF10
:100A300005F05BEF05F02C50D8A421EF05F023EF73
:100A400005F02DEF05F0000E1E6E000E1F6E000E5D
:100A5000206E000E216E7CEF06F022501E262350E1
:100A60001F22245020222550212221A03AEF05F0F8
:100A70003CEF05F0E8EF05F02DA041EF05F043EF66
:100A800005F049EF05F0D8902D3001092D6E4BEFA0
:100A900005F0D8902D321EA050EF05F052EF05F072
:100AA00053EF05F02D8E2134213220321F321E32B9
:100AB0002C2AE8EF05F022501E5C23501F582450CA
:100AC00020582150800A266E2550800A2658D8B01A
:100AD0006CEF05F06EEF05F099EF05F01E50225C0B
:100AE000266E1F502358276E20502458286E215000
:100AF0002558296EFF0E26241E6EFF0E27201F6E1E
:100B0000FF0E2820206EFF0E2920216E800E2A1A4B
:100B10002D6C2D50D8A48FEF05F091EF05F0A1EFCB
:100B200005F0010E1E26000E1F2220222122A1EF19
:100B300005F022501E5E23501F5A2450205A255083
:100B4000215A1E501F1020102110D8A4AAEF05F022
:100B5000ACEF05F0E1EF05F02D50D8A4B2EF05F0B1
:100B6000B4EF05F0E1EF05F0000E1E6E000E1F6EF3
:100B7000000E206E000E216E7CEF06F0D8901E361F
:100B80001F36203621362DAEC8EF05F0CAEF05F02E
:100B9000CBEF05F01E802DA0D0EF05F0D2EF05F0D1
:100BA000D6EF05F0D8802D36D8EF05F0D8902D3649
:100BB0002C50D8B4DEEF05F0E0EF05F0E1EF05F0E2
:100BC0002C0620AEE6EF05F0E8EF05F0BEEF05F0ED
:100BD000000E2B6E2DAEEFEF05F0F1EF05F009EFF3
:100BE00006F02DC026F07F0E2616D8B4FAEF05F0D9
:100BF000FCEF05F000EF06F0010E2B6E09EF06F09A
:100C00001EA005EF06F007EF06F009EF06F0FCEF77
:100C100005F02B50D8B40FEF06F011EF06F03CEFC3
:100C200006F0010E1E26000E1F222022212221A0E6
:100C30001CEF06F01EEF06F03CEF06F01EC026F09B
:100C40001FC027F020C028F021C029F02934293204
:100C500028322732263226C01EF027C01FF028C0B7
:100C600020F029C021F02C28D8B439EF06F03BEF52
:100C700006F03CEF06F02C2A2C28D8B442EF06F000
:100C800044EF06F04CEF06F02C50D8A44AEF06F0E3
:100C90004CEF06F05EEF06F0000E1E6E000E1F6EAB
:100CA000000E206E000E216E2C50D8A45AEF06F0D4
:100CB0005CEF06F05EEF06F0000E2A6E2CA063EFEC
:100CC00006F065EF06F068EF06F0208E69EF06F09B
:100CD000209ED8902C30216E2AAE71EF06F073EF73
:100CE00006F074EF06F0218E1EC01EF01FC01FF02C
:100CF00020C020F021C021F0120000017051800BB3
:100D0000796F705170257F6F6FAF89EF06F08BEFB1
:100D100006F08CEF06F07F817F51D8B492EF06F099
:100D200094EF06F0A7EF06F07F29D8A49AEF06F01B
:100D30009CEF06F0A4EF06F0000E6D6F000E6E6FD4
:100D4000000E6F6F000E706F6F8FAFEF06F0000E2A
:100D50006D6F000E6E6F000E6F6F000E706F74512E
:100D6000800B791B745174257A6F73AFBAEF06F05C
:100D7000BCEF06F0BDEF06F07A817A51D8B4C3EF2C
:100D800006F0C5EF06F0D8EF06F07A29D8A4CBEF2D
:100D900006F0CDEF06F0D5EF06F0000E716F000EF5
:100DA000726F000E736F000E746F738FE0EF06F0BA
:100DB000000E716F000E726F000E736F000E746F75
:100DC0007A51D8B4E6EF06F0E8EF06F0F0EF06F05F
:100DD0007F51D8A4EEEF06F0F0EF06F0FAEF06F040
:100DE000000E6D6F000E6E6F000E6F6F000E706F55
:100DF00092EF08F073516D03F3CF84F0F4CF85F0D8
:100E000084517B6F7C6B7D6B7E6B8551806F816BBA
:100E1000826B836B72516E03F3CF84F0F4CF85F055
:100E200084517B27000E7C237D237E2385518027E0
:100E3000000E81238223832371516F03F3CF84F04B
:100E4000F4CF85F084517B27000E7C237D237E2305
:100E500085518027000E8123822383237DC07EF06D
:100E60007CC07DF07BC07CF07B6B71516E03F3CF57
:100E700084F0F4CF85F084517B2785517C23000ECC
:100E80007D23000E7E2372516D03F3CF84F0F4CFE7
:100E900085F084517B2785517C23000E7D23000E35
:100EA0007E237DC07EF07CC07DF07BC07CF07B6BC0
:100EB00071516D03F3CF84F0F4CF85F084517B271B
:100EC00085517C23000E7D23000E7E2373516E031B
:100ED000F3CF84F0F4CF85F08451802785518123AE
:100EE000000E8223000E832372516F03F3CF84F030
:100EF000F4CF85F08451802785518123000E822311
:100F0000000E832373516F03F3CF84F0F4CF85F089
:100F10008451756F8551766F776B786B77C078F0F9
:100F200076C077F075C076F0756B75518027765175
:100F3000812377518223785183237BC075F07CC055
:100F400076F07DC077F07EC078F0190EADEF07F037
:100F5000D8907833773376337533E82EA8EF07F0DF
:100F600075518027765181237751822378518323CD
:100F70007DC07EF07CC07DF07BC07CF07B6B7A51C5
:100F80007FC075F0766B7527000E7623820E75256F
:100F9000846FFF0E7621856FE3EF07F0D8908037DE
:100FA0008137823783377EAFD8EF07F0DAEF07F06B
:100FB000DBEF07F08081D8907B377C377D377E3739
:100FC0008407D8A0850782AFE8EF07F0EAEF07F0C3
:100FD000CEEF07F0000E7A6F7EAFF1EF07F0F3EF80
:100FE00007F017EF08F0FF0E7B15756FFF0E7C15ED
:100FF000766FFF0E7D15776F7F0E7E15786F7551BA
:10100000761177117811D8B408EF08F00AEF08F0DC
:101010000EEF08F0010E7A6F17EF08F080A113EFC2
:1010200008F015EF08F017EF08F00AEF08F07A5112
:10103000D8B41DEF08F01FEF08F043EF08F0010EE1
:101040008027000E81238223832383A12AEF08F0C7
:101050002CEF08F043EF08F080C075F081C076F007
:1010600082C077F083C078F0783578337733763381
:10107000753375C080F076C081F077C082F078C09B
:1010800083F0844B852B85BF4EEF08F0855108E136
:101090008429D8A04EEF08F050EF08F05AEF08F07E
:1010A000000E806F000E816F800E826F7F0E836F47
:1010B00088EF08F085BF67EF08F0855106E18405E9
:1010C000D8B065EF08F067EF08F073EF08F0000E96
:1010D000806F000E816F000E826F000E836F000E16
:1010E000796F88EF08F084C07FF0FF0E8017FF0E45
:1010F00081177F0E8217000E83177FA182EF08F001
:1011000084EF08F085EF08F0828FD8907F31836FED
:101110007951831380C06DF081C06EF082C06FF092
:1011200083C070F012002F50800B0001646F2F50AD
:101130002F246B6F2EAE9FEF08F0A1EF08F0A2EF07
:1011400008F06B816B51D8B4A8EF08F0AAEF08F053
:10115000BFEF08F06B29D8A4B0EF08F0B2EF08F0A9
:10116000BAEF08F0000E2C6E000E2D6E000E2E6EE3
:10117000000E2F6E2E8E000E2F6EC7EF08F0000EA1
:101180002C6E000E2D6E000E2E6E000E2F6E335044
:10119000800B641B335033246C6F32AED2EF08F0F7
:1011A000D4EF08F0D5EF08F06C816C51D8B4DBEFC8
:1011B00008F0DDEF08F0F2EF08F06C29D8A4E3EFB7
:1011C00008F0E5EF08F0EDEF08F0000E306E000ECD
:1011D000316E000E326E000E336E328E000E336EA4
:1011E000FAEF08F0000E306E000E316E000E326E17
:1011F000000E336E3050311032103310D8A403EF8C
:1012000009F005EF09F01DEF09F0000E2C6E000E3D
:101210002D6E000E2E6E000E2F6E800E2E127F0E83
:101220002F1264512F122CC02CF02DC02DF02EC087
:101230002EF02FC02FF060EF0AF06B51D8A423EFEF
:1012400009F025EF09F02FEF09F0000E2C6E000ECB
:101250002D6E000E2E6E000E2F6E60EF0AF06C5198
:101260006BC034F0356A345E000E355A7F0E34247C
:10127000656F000E3520666F2CC060F02DC061F0E8
:101280002EC062F02FC063F0000E2C6E000E2D6E8B
:10129000000E2E6E000E2F6E000E676F000E686F30
:1012A000000E696F000E6A6F000E6C6F90EF09F010
:1012B0006C51D8B45EEF09F060EF09F077EF09F0F8
:1012C000D8906037613762376337D8902C362D3627
:1012D0002E362F366AAF6FEF09F071EF09F072EF1B
:1012E00009F02C80D8906737683769376A373050F3
:1012F000605D315061593250625933506359D8A002
:1013000084EF09F086EF09F08FEF09F06A8D305015
:10131000605F3150615B3250625B3350635B6C2BBA
:10132000190E6C6596EF09F098EF09F058EF09F087
:101330006051611162116311D8B4A1EF09F0A3EFFC
:1013400009F0BBEF09F06781BBEF09F0D8902C36AC
:101350002D362E362F366AAFB0EF09F0B2EF09F016
:10136000B3EF09F02C80D8906737683769376A3750
:101370006507D8A066072EAEC0EF09F0C2EF09F0EE
:10138000A6EF09F0000E6C6F6AAFC9EF09F0CBEF62
:1013900009F0EFEF09F0FF0E6715346EFF0E6815C8
:1013A000356EFF0E6915366E7F0E6A15376E345036
:1013B000351036103710D8B4E0EF09F0E2EF09F03D
:1013C000E6EF09F0010E6C6FEFEF09F02CA0EBEFE8
:1013D00009F0EDEF09F0EFEF09F0E2EF09F06C51E1
:1013E000D8B4F5EF09F0F7EF09F01BEF0AF0010EA2
:1013F0002C26000E2D222E222F222FA002EF0AF0E3
:1014000004EF0AF01BEF0AF02CC034F02DC035F0C9
:101410002EC036F02FC037F03734373236323532FF
:10142000343234C02CF035C02DF036C02EF037C029
:101430002FF0654B662B66BF26EF0AF0665108E178
:101440006529D8A026EF0AF028EF0AF033EF0AF05A
:10145000000E666F6569000E2C6E000E2D6E000E7C
:101460002E6E000E2F6E66BF40EF0AF0665106E149
:101470006505D8B03EEF0AF040EF0AF04EEF0AF0F3
:10148000000E666F000E656F000E2C6E000E2D6E46
:10149000000E2E6E000E2F6E000E646F65C06BF096
:1014A0006BA155EF0AF057EF0AF05AEF0AF02E8EB3
:1014B0005BEF0AF02E9ED8906B312F6E11EF09F082
:1014C0001200266E2650D8B468EF0AF06AEF0AF0D0
:1014D0008CEF0AF021BE71EF0AF06FEF0AF08CEF8B
:1014E0000AF01EC022F01FC023F020C024F021C04B
:1014F00025F0221E231E241E251E222A000E232232
:101500002422252222C028F023C029F024C02AF05A
:1015100025C02BF094EF0AF01EC028F01FC029F060
:1015200020C02AF021C02BF01E501F1020102110C7
:10153000D8A49DEF0AF09FEF0AF0A9EF0AF0000E81
:101540001E6E000E1F6E000E206E000E216E3AEF12
:101550000BF0960E276EB3EF0AF0272AD8902B32A5
:101560002A3229322832000E2814226E000E291445
:10157000236E000E2A14246EFE0E2B14256E2250AC
:10158000231024102510D8A4C8EF0AF0CAEF0AF0DF
:10159000ADEF0AF0D8EF0AF0272A010E2826000E38
:1015A00029222A222B22D8902B322A322932283281
:1015B000000E2814226E000E2914236E000E2A1429
:1015C000246EFF0E2B14256E22502310241025109C
:1015D000D8A4EDEF0AF0EFEF0AF0CCEF0AF0F7EF46
:1015E0000AF02706D890283629362A362B362ABE06
:1015F000FCEF0AF0FEEF0AF006EF0BF0020E276098
:1016000004EF0BF006EF0BF0F1EF0AF027B00BEF51
:101610000BF00DEF0BF00EEF0BF02A9ED890273257
:1016200027C022F0236A246A256A22C025F0246A92
:10163000236A226A225028122350291224502A1287
:1016400025502B122650D8B428EF0BF02AEF0BF0C0
:1016500032EF0BF021BE31EF0BF02FEF0BF032EF3A
:101660000BF02B8E28C01EF029C01FF02AC020F0DE
:101670002BC021F01200F29412EC12F021EC12F0C7
:101680001AEC12F002EC12F0EFEC11F0ECEC0BF0B3
:1016900000019A6F30EC10F086C096F087C097F08A
:1016A00088C098F089C099F096C08EF097C08FF0EE
:1016B00098C090F099C091F000019A511CEC0EF086
:1016C00096C01EF097C01FF098C020F099C021F07E
:1016D000000E226E000E236E400E246E400E256E0C
:1016E0009AEC0DF0D8B077EF0BF079EF0BF085EFB7
:1016F0000BF08390C00ED0EC11F02C0E1F6E080E74
:10170000206EB5EC10F08FEF0BF08380C00ED0ECA4
:1017100011F0240E1F6E080E206EB5EC10F00001C3
:101720009B519C11D8B497EF0BF099EF0BF0A9EFF8
:101730000BF0A051A111D8B4A0EF0BF0A2EF0BF069
:10174000A9EF0BF0A007D8A0A107000E9C6F000E18
:101750009B6FA15109E10A0EA05DD8A0B2EF0BF07A
:10176000B4EF0BF0B8EF0BF0000EA16F090EA06FF5
:10177000800ED0EC11F0190E1F6E080E206EB5EC25
:1017800010F0A0C01EF0A1C01FF0000E216E0A0EC6
:10179000206E7BEC10F01E50300F00019D6FA0C03A
:1017A0001EF0A1C01FF0000E216E0A0E206EEEEC9E
:1017B00010F01E50300F00019E6F000E9F6F8A0EBA
:1017C000D0EC11F09D0E1F6E000E206EB5EC10F0E7
:1017D00046EF0BF007EF00F0110EF66E080EF76EF5
:1017E00020EE24F0070E0900F5CFDEFFE806FBE24D
:1017F000000E2D6E000E2C6E2DBE08EF0CF02D503D
:1018000009E1040E2C5CD8A008EF0CF00AEF0CF0F4
:101810000CEF0CF069EF0CF02CC01EF0010E1F6EE7
:101820001E2A15EF0CF0D8901F361E2E13EF0CF069
:101830001F50FF0A8A6E210E1E6E760EE82EFED70E
:101840001E2EFCD700D0000E2F6E000E2E6E2EC066
:101850001EF0040E1E26010E1F6E1E2A32EF0CF023
:10186000D8901F361E2E30EF0CF01F508114000947
:10187000D8A43DEF0CF03FEF0CF06CEF0CF0D890DB
:101880002C34D96E2D34DA6E240ED926000EDA22CD
:10189000DECF1EF0DDCF1FF02EC020F02FC021F0D4
:1018A000D89020362136D89020362136010E226E6F
:1018B000080E236E20502226215023221E5022265D
:1018C0001F50232222C0F6FF23C0F7FF0800F5CFE8
:1018D0003EF03E5080EF0CF02E4A2F2A2FBE7AEFBA
:1018E0000CF02F5009E1040E2E5CD8A07AEF0CF01A
:1018F0007CEF0CF027EF0CF02C4A2D2AFCEF0BF0BC
:101900001200110EF66E080EF76E20EE07F0070EAD
:101910000900F5CFDEFFE806FBE2000E106E000EB8
:101920000F6E10BE9DEF0CF0105009E1040E0F5C1D
:10193000D8A09DEF0CF09FEF0CF0A1EF0CF0FEEFA4
:101940000CF00FC001F0010E026E012AAAEF0CF09C
:10195000D8900236012EA8EF0CF00250FF0A8A6ED2
:10196000210E016E760EE82EFED7012EFCD700D098
:10197000000E126E000E116E11C001F0040E012651
:10198000010E026E012AC7EF0CF0D8900236012E2C
:10199000C5EF0CF0025081140009D8A4D2EF0CF06E
:1019A000D4EF0CF001EF0DF0D8900F34D96E103455
:1019B000DA6E070ED926000EDA22DECF01F0DDCF77
:1019C00002F011C003F012C004F0D89003360436C0
:1019D000D89003360436010E056E080E066E0350CD
:1019E000052604500622015005260250062205C095
:1019F000F6FF06C0F7FF0800F5CF3EF03E5015EFAA
:101A00000DF0114A122A12BE0FEF0DF0125009E12B
:101A1000040E115CD8A00FEF0DF011EF0DF0BCEF2C
:101A20000CF00F4A102A91EF0CF0120000018835DB
:101A30008935396E3950D8A420EF0DF022EF0DF022
:101A40002CEF0DF0000E866F000E876F000E886F72
:101A5000000E896F99EF0DF086C08AF087C08BF079
:101A600088C08CF089C08DF0200E3CEF0DF0D8902E
:101A70008D338C338B338A33E82E37EF0DF08A5158
:101A8000386E888FFF0E8617FF0E8717FF0E881798
:101A9000000E8917960E395E39BE53EF0DF051EFE7
:101AA0000DF069EF0DF03950800A970FD8B05BEF59
:101AB0000DF05DEF0DF05FEF0DF022EF0DF0D8901F
:101AC0008933883387338633393E5FEF0DF081EFFA
:101AD0000DF01F0E39646FEF0DF071EF0DF079EF1F
:101AE0000DF022EF0DF0D890863787378837893789
:101AF00039063950D8A47FEF0DF081EF0DF073EF68
:101B00000DF03850D8B487EF0DF089EF0DF091EF5C
:101B10000DF0891F881F871F866D000E872388237D
:101B2000892386C086F087C087F088C088F089C086
:101B300089F01200000E1E14266E000E1F14276E70
:101B4000800E2014286E7F0E2114296E2650271037
:101B500028102910D8A4AFEF0DF0B1EF0DF0B9EFB8
:101B60000DF0000E1E6E000E1F6E000E206E000E99
:101B7000216E000E2214266E000E2314276E800E96
:101B80002414286E7F0E2514296E26502710281045
:101B90002910D8A4CEEF0DF0D0EF0DF0D8EF0DF056
:101BA000000E226E000E236E000E246E000E256EB7
:101BB00021AEDDEF0DF0DFEF0DF0E8EF0DF01E6C64
:101BC0001F1ED8B01F2A201ED8B0202A800E2156F2
:101BD00025AEEDEF0DF0EFEF0DF0F8EF0DF0226C0C
:101BE000231ED8B0232A241ED8B0242A800E2556BE
:101BF000000E1E1A000E1F1A000E201A800E211A47
:101C0000000E221A000E231A000E241A800E251A26
:101C100022501E5C23501F58245020582550215814
:101C2000D8B015EF0EF017EF0EF01AEF0EF0D890B7
:101C30001BEF0EF0D88012008EC086F08FC087F0A8
:101C400090C088F091C089F016EC0DF086C092F03B
:101C500087C093F0000E0001716F000E726FC80E06
:101C6000736F420E746F92C01EF093C01FF0000E8F
:101C70001FBEFF0E206E216E010E61EC0AF01EC029
:101C800032F01FC033F020C034F021C035F08EC0D8
:101C90002EF08FC02FF090C030F091C031F04BEC9F
:101CA00011F02EC06DF02FC06EF030C06FF031C05B
:101CB00070F07DEC06F06DC086F06EC087F06FC0EE
:101CC00088F070C089F016EC0DF086C094F087C0E3
:101CD00095F0C70ED0EC11F0340E1F6E080E206E7A
:101CE000B5EC10F0CC0ED0EC11F000019251300F99
:101CF000B1EC11F02E0EB1EC11F094C01EF095C0B5
:101D00001FF0000E216E0A0E206E76EC0FF01E50B2
:101D1000300FB1EC11F094C01EF095C01FF0000E12
:101D2000216E0A0E206ED8EC0FF01E50300FB1EC71
:101D300011F012001F6E0F0E83160F0E951696945B
:101D4000969096928D948D908D920AEC12F0300EB2
:101D5000D0EC11F0F9EC11F0F9EC11F0300ED0EC00
:101D600011F0F9EC11F0F9EC11F0320ED0EC11F0A9
:101D70006EEC11F00009D8A4C0EF0EF0C2EF0EF027
:101D8000B8EF0EF06EEC11F00009D8A4CAEF0EF017
:101D9000CCEF0EF0C2EF0EF01F50D0EC11F06EEC55
:101DA00011F00009D8A4D7EF0EF0D9EF0EF0CFEF65
:101DB0000EF0080ED0EC11F06EEC11F00009D8A472
:101DC000E4EF0EF0E6EF0EF0DCEF0EF00F0ED0ECCD
:101DD00011F06EEC11F00009D8A4F1EF0EF0F3EF62
:101DE0000EF0E9EF0EF0010ED0EC11F06EEC11F0F8
:101DF0000009D8A4FEEF0EF000EF0FF0F6EF0EF0A2
:101E0000040ED0EC11F06EEC11F00009D8A40BEF29
:101E10000FF00DEF0FF003EF0FF0800E91EC11F0CB
:101E200012000600D9CF17F0DACF18F0F6CF19F06C
:101E3000F7CF1AF0F8CF1BF0F5CF1CF0F2A423EF88
:101E40000FF025EF0FF040EF0FF0C20ED76EF70E38
:101E5000D66E3A4A3B2A3B5009E10A0E3A5CD8A0BA
:101E600034EF0FF036EF0FF03FEF0FF0000E3B6E48
:101E7000000E3A6E000E00019C6F010E9B6FF294F3
:101E8000F2A045EF0FF047EF0FF068EF0FF081EC95
:101E90000CF01D6ED00E136EFF0E146E1D50156EDD
:101EA000166A1350152614501622165007E10A0E12
:101EB000155CD8B05EEF0FF060EF0FF067EF0FF03A
:101EC000D00E1D240001A06FA16BFF0EA123F29084
:101ED0001CC0F5FF1BC0F8FF1AC0F7FF19C0F6FFC2
:101EE00018C0DAFF17C0D9FF42921100000E236E0E
:101EF00021BE7FEF0FF07DEF0FF085EF0FF0206C2C
:101F0000211ED8B0212A010E236E1FBE8CEF0FF0C8
:101F10008AEF0FF092EF0FF01E6C1F1ED8B01F2A31
:101F2000010E231A000E256E000E246E2050211083
:101F3000D8B49DEF0FF09FEF0FF0C7EF0FF0010E39
:101F4000226EA7EF0FF0D89020362136222A21AE3C
:101F5000ACEF0FF0AEEF0FF0A3EF0FF0D8902436F8
:101F6000253620501E5C21501F58D8A0BAEF0FF024
:101F7000BCEF0FF0C1EF0FF020501E5E21501F5A32
:101F80002480D89021322032222EAEEF0FF0235041
:101F9000D8B4CDEF0FF0CFEF0FF0D3EF0FF0246CEC
:101FA000251ED8B0252A24C01EF025C01FF012001F
:101FB000000E236E1FBEE1EF0FF0DFEF0FF0E7EF33
:101FC0000FF01E6C1F1ED8B01F2A010E236E21BEFB
:101FD000EEEF0FF0ECEF0FF0F2EF0FF0206C211EA0
:101FE000D8B0212A20502110D8B4F9EF0FF0FBEF20
:101FF0000FF01FEF10F0010E226E03EF10F0D890DB
:1020000020362136222A21AE08EF10F00AEF10F018
:10201000FFEF0FF020501E5C21501F58D8A013EF87
:1020200010F015EF10F019EF10F020501E5E215047
:102030001F5AD89021322032222E0AEF10F023505E
:10204000D8B425EF10F027EF10F02BEF10F01E6C36
:102050001F1ED8B01F2A1EC01EF01FC01FF0120086
:10206000C282C2B236EF10F038EF10F031EF10F04C
:10207000C350C4CF38F0396A38C039F0386A3810E4
:1020800000018A6F39508B6F000E306EC00E316EBA
:102090007F0E326E440E336E8AC01EF08BC01FF06E
:1020A000206A216A000E61EC0AF01EC02CF01FC0ED
:1020B0002DF020C02EF021C02FF093EC08F02CC0A2
:1020C0006DF02DC06EF02EC06FF02FC070F0000EBE
:1020D0000001716F000E726FA00E736F400E746F6F
:1020E0007DEC06F06DC086F06EC087F06FC088F0A2
:1020F00070C089F01200000E236E000E226E205078
:102100002110D8B486EF10F088EF10F0B0EF10F087
:10211000010E246E90EF10F0D89020362136242A3C
:1021200021AE95EF10F097EF10F08CEF10F0D890F3
:102130002236233620501E5C21501F58D8A0A3EF12
:1021400010F0A5EF10F0AAEF10F020501E5E215005
:102150001F5A2280D89021322032242E97EF10F07F
:1021600022C01EF023C01FF01200D5EF10F06EEC5D
:1021700011F00009D8A4BFEF10F0C1EF10F0B7EFD5
:1021800010F01FC0F6FF20C0F7FFF86A070EF764D3
:1021900003D00800F55005D0F6CFE9FFF7CFEAFFEE
:1021A000EF50B1EC11F01F4A202A1FC0F6FF20C0EB
:1021B000F7FFF86A070EF76403D00800F55005D062
:1021C000F6CFE9FFF7CFEAFFEF500009D8A4EBEF15
:1021D00010F0EDEF10F0B7EF10F0120020502110CA
:1021E000D8B4F5EF10F0F7EF10F01BEF11F0010E7F
:1021F000226EFFEF10F0D89020362136222A21AE31
:1022000004EF11F006EF11F0FBEF10F020501E5C10
:1022100021501F58D8A00FEF11F011EF11F015EF5A
:1022200011F020501E5E21501F5AD89021322032CA
:10223000222E06EF11F01EC01EF01FC01FF012006C
:102240005C0EF66E240EF76E000EF86E0900F5CFE8
:10225000A0F00900F5CFA1F05A0EF66E240EF76E2D
:10226000000EF86E0900F5CF40F00900F5CF41F0FF
:1022700000019F6B9E6B9D6B9C6B9B6B3F6A3E6AE4
:102280003D6A3C6A3B6A3A6A42904292000EF86E9E
:1022900000013BEF0BF0000E321A000E331A000E55
:1022A000341A800E351A2EC01EF02FC01FF030C019
:1022B00020F031C021F032C022F033C023F034C00E
:1022C00024F035C025F01DEC04F01EC02EF01FC018
:1022D0002FF020C030F021C031F012008D848D909D
:1022E00028EC12F08D8228EC12F083AE7AEF11F018
:1022F0007CEF11F087EF11F08D9228EC12F08D82B7
:1023000028EC12F08D928D94010E90EF11F08D92C9
:1023100028EC12F08D8228EC12F08D928D94000E34
:1023200012001E6E0F0E95160F0E83161E5080099A
:10233000F00B83128D948D9028EC12F08D8228EC96
:1023400012F08D920F0E83161E38F00BF00B8312D5
:1023500028EC12F08D8228EC12F08D92F00E95127E
:1023600012001E6E0F0E95160F0E83161E50F00BE8
:1023700083128D808D9428EC12F08D8228EC12F05F
:102380008D920F0E83161E38F00BF00B831228EC83
:1023900012F08D8228EC12F08D92F00E9512120040
:1023A0001E6E0F0E95160F0E83161E50F00B831225
:1023B0008D948D9028EC12F08D8228EC12F08D9285
:1023C0000F0E83161E38F00BF00B831228EC12F060
:1023D0008D8228EC12F08D92F00E95121200D08EA4
:1023E000F28EF28CF184F28AF294F190F286F290FD
:1023F0001200210E1E6E760EE82EFED71E2EFCD782
:1024000000D01200840ED56EC20ED76EF70ED66EB7
:10241000F2941200620E1E6E660EE82EFED71E2E7D
:10242000FCD71200F00E936E928695909592839051
:1024300083921200280E9AEC0EF0010ED0EC11F0EF
:1024400012000B0EC16E0D0EC26E950EC06E120004
:0E245000210EE82EFED700F012000300090056
:020000040020DA
:08000000FFFFFFFFFFFFFFFF00
:020000040030CA
:0E000000000C191EFF8080FF0FC00FE00F40A4
:00000001FF
