:020000040000FA
:0400000007EF00F016
:1000080055824FED15F012EF16F018EC17F00AC0F4
:1000180086F00BC087F00CC088F00DC089F0000195
:10002800C351865D786FC4518759796FC551885916
:100038007A6FC65189597B6F7B517A1109E1F40EA9
:10004800785D010E7959D8B02CEF00F02EEF00F052
:1000580032EF00F063EF04F063EF04F086C0C3F002
:1000680087C0C4F088C0C5F089C0C6F0010EDDECB9
:1000780016F00D0E0001786FFB0EE82EFED7782FD4
:10008800FCD700D08FEC13F060C08AF061C08BF011
:1000980062C08CF063C08DF0EEEC13F060C08EF09F
:1000A80061C08FF062C090F063C091F04DEC14F025
:1000B80060C092F061C093F062C094F063C095F0A4
:1000C80040EF04F0000E0C6E000E0B6E000E0E6E6C
:1000D800000E0D6E830E0F6E7F0E106E04EC15F081
:1000E8008AC031F08BC032F08CC033F08DC034F050
:1000F8007C0E356E000E366E000E386E010E376EB1
:100108004FEC0DF0000E0C6E000E0B6E000E0E6E16
:10011800060E0D6E7C0E0F6E000E106E04EC15F0C0
:10012800000E0C6E000E0B6E000E0E6E0B0E0D6E9A
:10013800FD0E0F6E7F0E106E04EC15F0000E0C6EA7
:10014800010E0B6E000E0E6E000E0D6EEA0E0F6E97
:100158007F0E106E04EC15F0D0C012F0D1C013F071
:100168007C0E146E000E156E7FEC10F0000E0C6EF7
:10017800010E0B6E000E0E6E040E0D6E7C0E0F6ED1
:10018800000E106E04EC15F063EF04F0000E0C6E18
:10019800000E0B6E000E0E6E000E0D6EE30E0F6E4F
:1001A8007F0E106E04EC15F08EC031F08FC032F067
:1001B80090C033F091C034F07C0E356E000E366E70
:1001C800000E386E010E376E4FEC0DF0000E0C6EFF
:1001D800000E0B6E000E0E6E070E0D6E7C0E0F6E6F
:1001E800000E106E04EC15F0000E0C6E000E0B6E77
:1001F800000E0E6E0C0E0D6EFB0E0F6E7F0E106E47
:1002080004EC15F0000E0C6E010E0B6E000E0E6E57
:10021800000E0D6EEA0E0F6E7F0E106E04EC15F0D8
:10022800CEC012F0CFC013F07C0E146E000E156E07
:100238007FEC10F0BAEF00F0000E0C6E000E0B6EA3
:10024800000E0E6E000E0D6EEF0E0F6E7F0E106E0E
:1002580004EC15F092C031F093C032F094C033F042
:1002680095C034F07C0E356E000E366E000E386E7A
:10027800010E376E4FEC0DF0000E0C6E000E0B6E7B
:10028800000E0E6E050E0D6E7C0E0F6E000E106EBB
:1002980004EC15F0000E0C6E000E0B6E000E0E6EC8
:1002A8000B0E0D6EF40E0F6E7F0E106E04EC15F033
:1002B800000E0C6E010E0B6E000E0E6E000E0D6E13
:1002C800EA0E0F6E7F0E106E04EC15F0CCC012F023
:1002D800CDC013F07C0E146E000E156E7FEC10F07E
:1002E800BAEF00F0000E0C6E000E0B6E000E0E6ED4
:1002F800000E0D6EDA0E0F6E7F0E106E04EC15F008
:10030800D0C00AF0D1C00BF0000E0BBEFF0E0C6E71
:100318000D6E010EA5EC0FF00AC018F00BC019F015
:100328000CC01AF00DC01BF08AC01CF08BC01DF069
:100338008CC01EF08DC01FF034EC12F0D8A0A7EFCF
:1003480001F0A9EF01F003EF02F0CEC00AF0CFC030
:100358000BF0000E0BBEFF0E0C6E0D6E010EA5EC21
:100368000FF00AC018F00BC019F00CC01AF00DC03D
:100378001BF08EC01CF08FC01DF090C01EF091C005
:100388001FF034EC12F0D8A0CCEF01F0CEEF01F062
:1003980003EF02F0CCC00AF0CDC00BF0000E0BBE8C
:1003A800FF0E0C6E0D6E010EA5EC0FF00AC018F0D2
:1003B8000BC019F00CC01AF00DC01BF092C01CF055
:1003C80093C01DF094C01EF095C01FF034EC12F0DD
:1003D800D8A0F1EF01F0F3EF01F003EF02F0000E07
:1003E8000C6E010E0B6E000E0E6E000E0D6EF80EEA
:1003F8000F6E7F0E106E04EC15F063EF04F0504A98
:10040800512A51BE11EF02F0515009E1040E505C1F
:10041800D8A011EF02F013EF02F0B8EF02F0000ECF
:10042800516E000E506EB8EF02F0D0C00AF0D1C085
:100438000BF0000E0BBEFF0E0C6E0D6E010EA5EC40
:100448000FF00AC018F00BC019F00CC01AF00DC05C
:100458001BF08AC01CF08BC01DF08CC01EF08DC034
:100468001FF034EC12F0D8B03CEF02F03EEF02F08F
:1004780030EF00F0000E0C6E010E0B6E000E0E6ECB
:10048800000E0D6E320E0F6E7F0E106E04EC15F01E
:1004980063EF04F0CEC00AF0CFC00BF0000E0BBE25
:1004A800FF0E0C6E0D6E010EA5EC0FF00AC018F0D1
:1004B8000BC019F00CC01AF00DC01BF08EC01CF058
:1004C8008FC01DF090C01EF091C01FF034EC12F0E8
:1004D800D8B071EF02F073EF02F030EF00F0000EC9
:1004E8000C6E010E0B6E000E0E6E000E0D6E220EBF
:1004F8000F6E7F0E106E04EC15F063EF04F0CCC0A5
:100508000AF0CDC00BF0000E0BBEFF0E0C6E0D6E88
:10051800010EA5EC0FF00AC018F00BC019F00CC0C2
:100528001AF00DC01BF092C01CF093C01DF094C0CF
:100538001EF095C01FF034EC12F0D8B0A6EF02F010
:10054800A8EF02F030EF00F0000E0C6E010E0B6EFB
:10055800000E0E6E000E0D6E420E0F6E7F0E106EA8
:1005680004EC15F063EF04F050C078F051C079F056
:1005780000017951000AD8B4C4EF02F063EF04F027
:100588007851000AD8B419EF02F0010AD8B44EEF36
:1005980002F0030AD8B483EF02F063EF04F0000E10
:1005A8000C6E000E0B6E000E0E6E000E0D6ED00E51
:1005B8000F6E7F0E106E04EC15F0D0C00AF0D1C09B
:1005C8000BF0000E0BBEFF0E0C6E0D6E010EA5ECAF
:1005D8000FF00AC018F00BC019F00CC01AF00DC0CB
:1005E8001BF08AC01CF08BC01DF08CC01EF08DC0A3
:1005F8001FF034EC12F0D8A004EF03F006EF03F07C
:1006080060EF03F0CEC00AF0CFC00BF0000E0BBEB7
:10061800FF0E0C6E0D6E010EA5EC0FF00AC018F05F
:100628000BC019F00CC01AF00DC01BF08EC01CF0E6
:100638008FC01DF090C01EF091C01FF034EC12F076
:10064800D8A029EF03F02BEF03F060EF03F0CCC044
:100658000AF0CDC00BF0000E0BBEFF0E0C6E0D6E37
:10066800010EA5EC0FF00AC018F00BC019F00CC071
:100678001AF00DC01BF092C01CF093C01DF094C07E
:100688001EF095C01FF034EC12F0D8A04EEF03F026
:1006980050EF03F060EF03F0000E0C6E010E0B6ECE
:1006A800000E0E6E000E0D6EF80E0F6E7F0E106EA1
:1006B80004EC15F063EF04F00001CA4BCB2BCBBF61
:1006C8006FEF03F0CB5109E1040ECA5DD8A06FEFBC
:1006D80003F071EF03F016EF04F0000ECB6F000E7D
:1006E800CA6F16EF04F0D0C00AF0D1C00BF0000EAC
:1006F8000BBEFF0E0C6E0D6E010EA5EC0FF00AC0BE
:1007080018F00BC019F00CC01AF00DC01BF08AC00D
:100718001CF08BC01DF08CC01EF08DC01FF034EC97
:1007280012F0D8B09AEF03F09CEF03F063EF04F0F7
:10073800000E0C6E010E0B6E000E0E6E000E0D6E8E
:10074800610E0F6E7F0E106E04EC15F063EF04F06F
:10075800CEC00AF0CFC00BF0000E0BBEFF0E0C6E21
:100768000D6E010EA5EC0FF00AC018F00BC019F0C1
:100778000CC01AF00DC01BF08EC01CF08FC01DF00D
:1007880090C01EF091C01FF034EC12F0D8B0CFEF3B
:1007980003F0D1EF03F063EF04F0000E0C6E010ECE
:1007A8000B6E000E0E6E000E0D6E110E0F6E7F0E8C
:1007B800106E04EC15F063EF04F0CCC00AF0CDC065
:1007C8000BF0000E0BBEFF0E0C6E0D6E010EA5ECAD
:1007D8000FF00AC018F00BC019F00CC01AF00DC0C9
:1007E8001BF092C01CF093C01DF094C01EF095C081
:1007F8001FF034EC12F0D8B004EF04F006EF04F068
:1008080063EF04F0000E0C6E010E0B6E000E0E6E00
:10081800000E0D6EAE0E0F6E7F0E106E04EC15F00E
:1008280063EF04F0CAC078F0CBC079F07951000AC0
:10083800D8B421EF04F063EF04F07851000AD8B47B
:1008480077EF03F0010AD8B4ACEF03F0030AD8B489
:10085800E1EF03F063EF04F0000E0C6E000E0B6E78
:10086800000E0E6E000E0D6E890E0F6E7F0E106E4E
:1008780004EC15F063EF04F04AC078F04BC079F04F
:1008880000017951000AD8B44CEF04F030EF04F0BD
:100898007851000AD8B466EF00F0010AD8B4CAEF5C
:1008A80000F0030AD8B420EF01F0010AD8B476EFBB
:1008B80001F0070AD8B4D3EF02F030EF04F01200C9
:1008C8003EEC17F055EC17F058EC16F04FEC17F01B
:1008D8002BEC17F0959095929594000E0001B66F49
:1008E800000EB56F000EB46F000E9A6F000E9B6F6E
:1008F800000E9C6F000E9D6F93EC0EF00001B76F19
:1009080018EC17F00AC09EF00BC09FF00CC0A0F0C6
:100918000DC0A1F000019A519E5D966F9B519F59A1
:10092800976F9C51A059986F9D51A159996F9951F2
:1009380098110BE1F40E965D010E9759D8A0A7EF18
:1009480004F0A9EF04F0B7EF04F0B4C04AF0B5C062
:100958004BF009EC00F09EC09AF09FC09BF0A0C03D
:100968009CF0A1C09DF0450E0001B719D8A4BFEFB7
:1009780004F0C1EF04F0E4EF04F0450EB619D8B462
:10098800C8EF04F0CAEF04F0E4EF04F0B44BB52B61
:10099800B5BFD8EF04F0B55109E1050EB45DD8A094
:1009A800D8EF04F0DAEF04F0DEEF04F0000EB56FD4
:1009B800000EB46FB4C04AF0B5C04BF009EC00F0BB
:1009C800410E0001B719D8A4ECEF04F0EEEF04F0E3
:1009D80033EF05F0410EB619D8B4F5EF04F0F7EF90
:1009E80004F033EF05F07C0E296E7F0E2A6E1FECA3
:1009F80011F029C0B2F02AC0B3F00001B22908E111
:100A0800B329D8B40AEF05F00CEF05F029EF05F08B
:100A1800B2C0D0F0B3C0D1F0000E0C6E010E0B6E58
:100A2800000E0E6E000E0D6E960E0F6E7F0E106E7F
:100A380004EC15F0410E0001966FEE0EE82EFED77D
:100A4800962FFCD700F033EF05F0000EB56F000EBF
:100A5800B46F000E4B6E000E4A6E09EC00F0420EA9
:100A68000001B719D8A43BEF05F03DEF05F076EF8C
:100A780005F0420EB619D8B444EF05F046EF05F07C
:100A880076EF05F0A20E296E7F0E2A6E1FEC11F08C
:100A980029C0AEF02AC0AFF00001AE2908E1AF29A5
:100AA800D8B459EF05F05BEF05F076EF05F0AEC06E
:100AB800CEF0AFC0CFF0000E0C6E010E0B6E000E24
:100AC8000E6E000E0D6E6F0E0F6E7F0E106E04EC24
:100AD80015F0410E0001966FEE0EE82EFED7962F08
:100AE800FCD700F0430E0001B719D8A47EEF05F03B
:100AF80080EF05F0B9EF05F0430EB619D8B487EFCB
:100B080005F089EF05F0B9EF05F0C50E296E7F0EE7
:100B18002A6E1FEC11F029C0B0F02AC0B1F0000114
:100B2800B02908E1B129D8B49CEF05F09EEF05F093
:100B3800B9EF05F0B0C0CCF0B1C0CDF0000E0C6E2E
:100B4800010E0B6E000E0E6E000E0D6EBA0E0F6EBD
:100B58007F0E106E04EC15F0410E0001966FEE0E3C
:100B6800E82EFED7962FFCD700F0440E0001B719E7
:100B7800D8A4C1EF05F0C3EF05F0EFEF05F0440E80
:100B8800B619D8B4CAEF05F0CCEF05F0EFEF05F0D1
:100B9800000ED16F1E0ED06F000ECF6F320ECE6FCB
:100BA800000ECD6F140ECC6F000E0C6E000E0B6E87
:100BB800000E0E6E000E0D6E520E0F6E7F0E106E32
:100BC80004EC15F0410E0001966FEE0EE82EFED7EC
:100BD800962FFCD700F08FEC13F060C0A2F061C034
:100BE800A3F062C0A4F063C0A5F0EEEC13F060C0FF
:100BF800A6F061C0A7F062C0A8F063C0A9F04DECF0
:100C080014F060C0AAF061C0ABF062C0ACF063C081
:100C1800ADF0D0C00AF0D1C00BF0000E0BBEFF0E35
:100C28000C6E0D6E010EA5EC0FF00AC018F00BC08B
:100C380019F00CC01AF00DC01BF0A2C01CF0A3C024
:100C48001DF0A4C01EF0A5C01FF034EC12F0D8A00F
:100C580030EF06F032EF06F07CEF06F0CEC00AF077
:100C6800CFC00BF0000E0BBEFF0E0C6E0D6E010E0A
:100C7800A5EC0FF00AC018F00BC019F00CC01AF060
:100C88000DC01BF0A6C01CF0A7C01DF0A8C01EF028
:100C9800A9C01FF034EC12F0D8A055EF06F057EFBA
:100CA80006F07CEF06F0CCC00AF0CDC00BF0000EC9
:100CB8000BBEFF0E0C6E0D6E010EA5EC0FF00AC0F8
:100CC80018F00BC019F00CC01AF00DC01BF0AAC028
:100CD8001CF0ABC01DF0ACC01EF0ADC01FF034EC72
:100CE80012F0D8B07AEF06F07CEF06F084EF06F049
:100CF800000E0B6E010E0A6E63EC17F08AEF06F019
:100D0800000E0B6E000E0A6E63EC17F0D0C00AF0EE
:100D1800D1C00BF0000E0BBEFF0E0C6E0D6E010E57
:100D2800A5EC0FF00AC018F00BC019F00CC01AF0AF
:100D38000DC01BF0A2C01CF0A3C01DF0A4C01EF083
:100D4800A5C01FF034EC12F0D8B0ADEF06F0AFEF4D
:100D580006F0B3EF06F083808284B5EF06F0839047
:100D68008294CEC00AF0CFC00BF0000E0BBEFF0E6F
:100D78000C6E0D6E010EA5EC0FF00AC018F00BC03A
:100D880019F00CC01AF00DC01BF0A6C01CF0A7C0CB
:100D98001DF0A8C01EF0A9C01FF034EC12F0D8B0A6
:100DA800D8EF06F0DAEF06F0DDEF06F08382DEEF2B
:100DB80006F08392CCC00AF0CDC00BF0000E0BBE3B
:100DC800FF0E0C6E0D6E010EA5EC0FF00AC018F0A8
:100DD8000BC019F00CC01AF00DC01BF0AAC01CF013
:100DE800ABC01DF0ACC01EF0ADC01FF034EC12F06B
:100DF800D8B001EF07F003EF07F006EF07F08384A0
:100E080007EF07F08394B7C0B6F080EF04F007EF60
:100E180000F00D50800B166E0D500D24186E0CAEA0
:100E280018EF07F01AEF07F01BEF07F018801850BB
:100E3800D8B421EF07F023EF07F038EF07F01828B0
:100E4800D8A429EF07F02BEF07F033EF07F0000ED7
:100E58000A6E000E0B6E000E0C6E000E0D6E0C8EE0
:100E6800000E0D6E40EF07F0000E0A6E000E0B6EBE
:100E7800000E0C6E000E0D6E1150800B176E165082
:100E88001718D8B44AEF07F04CEF07F04DEF07F00A
:100E9800168C11501124176E10AE55EF07F057EF4E
:100EA80007F058EF07F017801750D8B45EEF07F037
:100EB80060EF07F075EF07F01728D8A466EF07F082
:100EC80068EF07F070EF07F0000E0E6E000E0F6E61
:100ED800000E106E000E116E108E000E116E7DEF5A
:100EE80007F0000E0E6E000E0F6E000E106E000E54
:100EF800116E1850175CD8B084EF07F086EF07F032
:100F0800ADEF07F016AC8BEF07F08DEF07F08FEF22
:100F180007F0800E161A18C019F017C018F019C07B
:100F280017F00AC019F00EC00AF019C00EF00BC075
:100F380019F00FC00BF019C00FF00CC019F010C059
:100F48000CF019C010F00DC019F011C00DF019C047
:100F580011F0000E196E185017C012F0136A125EC5
:100F6800000E135A13BEC2EF07F0135009E11A0E10
:100F7800125CD8A0C2EF07F0C4EF07F0FBEF07F050
:100F88000A500B100C100D10D8A4CDEF07F0D0EFBD
:100F980007F0010ED1EF07F0000E196E000E0A6E71
:100FA800000E0B6E000E0C6E000E0D6E17C018F0C2
:100FB80004EF08F019A0E3EF07F0E5EF07F0EBEF17
:100FC80007F0D89019300109196EEDEF07F0D890A5
:100FD80019320AA0F2EF07F0F4EF07F0F5EF07F087
:100FE800198E0D340D320C320B320A32182A175072
:100FF800185CD8A002EF08F004EF08F0DEEF07F065
:1010080016BC09EF08F00BEF08F04BEF08F018508A
:10101800D8A411EF08F013EF08F01DEF08F0000E48
:101028000A6E000E0B6E000E0C6E000E0D6E6CEF4D
:1010380009F00E500A260F500B2210500C221150A6
:101048000D220DA02AEF08F02CEF08F0D8EF08F0D9
:1010580019A031EF08F033EF08F039EF08F0D89015
:1010680019300109196E3BEF08F0D89019320AA01F
:1010780040EF08F042EF08F043EF08F0198E0D3406
:101088000D320C320B320A32182AD8EF08F00E5003
:101098000A5C0F500B5810500C580D50800A126EF5
:1010A8001150800A1258D8B05CEF08F05EEF08F0D3
:1010B80089EF08F00A500E5C126E0B500F58136E31
:1010C8000C501058146E0D501158156EFF0E122446
:1010D8000A6EFF0E13200B6EFF0E14200C6EFF0E0F
:1010E80015200D6E800E161A196C1950D8A47FEFB2
:1010F80008F081EF08F091EF08F0010E0A26000EC3
:101108000B220C220D2291EF08F00E500A5E0F50B0
:101118000B5A10500C5A11500D5A0A500B100C1043
:101128000D10D8A49AEF08F09CEF08F0D1EF08F062
:101138001950D8A4A2EF08F0A4EF08F0D1EF08F0F6
:10114800000E0A6E000E0B6E000E0C6E000E0D6E79
:101158006CEF09F0D8900A360B360C360D3619AEFE
:10116800B8EF08F0BAEF08F0BBEF08F00A8019A052
:10117800C0EF08F0C2EF08F0C6EF08F0D8801936C3
:10118800C8EF08F0D89019361850D8B4CEEF08F048
:10119800D0EF08F0D1EF08F018060CAED6EF08F043
:1011A800D8EF08F0AEEF08F0000E176E19AEDFEFBB
:1011B80008F0E1EF08F0F9EF08F019C012F07F0E1F
:1011C8001216D8B4EAEF08F0ECEF08F0F0EF08F0E8
:1011D800010E176EF9EF08F00AA0F5EF08F0F7EF27
:1011E80008F0F9EF08F0ECEF08F01750D8B4FFEF6B
:1011F80008F001EF09F02CEF09F0010E0A26000EA5
:101208000B220C220D220DA00CEF09F00EEF09F0B5
:101218002CEF09F00AC012F00BC013F00CC014F048
:101228000DC015F01534153214321332123212C0B3
:101238000AF013C00BF014C00CF015C00DF01828FC
:10124800D8B429EF09F02BEF09F02CEF09F0182A90
:101258001828D8B432EF09F034EF09F03CEF09F060
:101268001850D8A43AEF09F03CEF09F04EEF09F016
:10127800000E0A6E000E0B6E000E0C6E000E0D6E48
:101288001850D8A44AEF09F04CEF09F04EEF09F0D6
:10129800000E166E18A053EF09F055EF09F058EF3D
:1012A80009F00C8E59EF09F00C9ED89018300D6E8D
:1012B80016AE61EF09F063EF09F064EF09F00D8EE7
:1012C8000AC00AF00BC00BF00CC00CF00DC00DF0FA
:1012D80012001B50800B246E1B501B242A6E1AAE62
:1012E80078EF09F07AEF09F07BEF09F02A802A50AD
:1012F800D8B481EF09F083EF09F096EF09F02A28B6
:10130800D8A489EF09F08BEF09F093EF09F0000EEC
:10131800186E000E196E000E1A6E000E1B6E1A8ED5
:101328009EEF09F0000E186E000E196E000E1A6E70
:10133800000E1B6E1F50800B241A1F501F24256E91
:101348001EAEA9EF09F0ABEF09F0ACEF09F025806C
:101358002550D8B4B2EF09F0B4EF09F0C7EF09F09F
:101368002528D8A4BAEF09F0BCEF09F0C4EF09F0BA
:10137800000E1C6E000E1D6E000E1E6E000E1F6EFF
:101388001E8ECFEF09F0000E1C6E000E1D6E000EB3
:101398001E6E000E1F6E2550D8B4D5EF09F0D7EF9A
:1013A80009F0DFEF09F02A50D8A4DDEF09F0DFEFEC
:1013B80009F0E9EF09F0000E186E000E196E000E24
:1013C8001A6E000E1B6E81EF0BF01E501802F3CF41
:1013D8002FF0F4CF30F02F50266E276A286A296A3A
:1013E80030502B6E2C6A2D6A2E6A1D501902F3CFCD
:1013F8002FF0F4CF30F02F502626000E2722282277
:10140800292230502B26000E2C222D222E221C5051
:101418001A02F3CF2FF0F4CF30F02F502626000E0B
:1014280027222822292230502B26000E2C222D225A
:101438002E2228C029F027C028F026C027F0266AC7
:101448001C501902F3CF2FF0F4CF30F02F5026267E
:1014580030502722000E2822000E29221D50180283
:10146800F3CF2FF0F4CF30F02F502626305027221C
:10147800000E2822000E292228C029F027C028F0B3
:1014880026C027F0266A1C501802F3CF2FF0F4CF9D
:1014980030F02F50262630502722000E2822000E2A
:1014A80029221E501902F3CF2FF0F4CF30F02F501D
:1014B8002B2630502C22000E2D22000E2E221D50DD
:1014C8001A02F3CF2FF0F4CF30F02F502B263050E4
:1014D8002C22000E2D22000E2E221E501A02F3CFAF
:1014E8002FF0F4CF30F02F50206E3050216E226A4A
:1014F800236A22C023F021C022F020C021F0206AF4
:1015080020502B2621502C2222502D2223502E22CF
:1015180026C020F027C021F028C022F029C023F0DF
:10152800190E9CEF0AF0D890233222322132203251
:10153800E82E97EF0AF020502B2621502C2222501B
:101548002D2223502E2228C029F027C028F026C09B
:1015580027F0266A25502AC020F0216A2026000E8E
:101568002122820E20242F6EFF0E2120306ED2EF12
:101578000AF0D8902B362C362D362E3629AEC7EFEA
:101588000AF0C9EF0AF0CAEF0AF02B80D890263685
:101598002736283629362F06D8A030062DAED7EFA5
:1015A8000AF0D9EF0AF0BDEF0AF0000E256E29AE59
:1015B800E0EF0AF0E2EF0AF006EF0BF0FF0E261458
:1015C800206EFF0E2714216EFF0E2814226E7F0E48
:1015D8002914236E2050211022102310D8B4F7EFBD
:1015E8000AF0F9EF0AF0FDEF0AF0010E256E06EF9A
:1015F8000BF02BA002EF0BF004EF0BF006EF0BF053
:10160800F9EF0AF02550D8B40CEF0BF00EEF0BF001
:1016180032EF0BF0010E2B26000E2C222D222E224B
:101628002EA019EF0BF01BEF0BF032EF0BF02BC0D5
:1016380020F02CC021F02DC022F02EC023F023343E
:10164800233222322132203220C02BF021C02CF04C
:1016580022C02DF023C02EF02F4A302A30BE3DEF95
:101668000BF0305008E12F28D8A03DEF0BF03FEFEA
:101678000BF049EF0BF0000E2B6E000E2C6E800E57
:101688002D6E7F0E2E6E77EF0BF030BE56EF0BF0FF
:10169800305006E12F04D8B054EF0BF056EF0BF0A2
:1016A80062EF0BF0000E2B6E000E2C6E000E2D6EEE
:1016B800000E2E6E000E246E77EF0BF02FC02AF06E
:1016C800FF0E2B16FF0E2C167F0E2D16000E2E1653
:1016D8002AA071EF0BF073EF0BF074EF0BF02D8E67
:1016E800D8902A302E6E24502E122BC018F02CC001
:1016F80019F02DC01AF02EC01BF012003450800BC8
:10170800416E34503424486E33AE8DEF0BF08FEFBA
:101718000BF090EF0BF048804850D8B496EF0BF0E0
:1017280098EF0BF0ADEF0BF04828D8A49EEF0BF024
:10173800A0EF0BF0A8EF0BF0000E316E000E326E2A
:10174800000E336E000E346E338E000E346EB5EF1D
:101758000BF0000E316E000E326E000E336E000E6E
:10176800346E3850800B411A38503824496E37AEE1
:10177800C0EF0BF0C2EF0BF0C3EF0BF049804950FC
:10178800D8B4C9EF0BF0CBEF0BF0E0EF0BF0492822
:10179800D8A4D1EF0BF0D3EF0BF0DBEF0BF0000E7A
:1017A800356E000E366E000E376E000E386E378EB0
:1017B800000E386EE8EF0BF0000E356E000E366E38
:1017C800000E376E000E386E355036103710381050
:1017D800D8A4F1EF0BF0F3EF0BF00BEF0CF0000EC9
:1017E800316E000E326E000E336E000E346E800EB7
:1017F80033127F0E34124150341231C031F032C0EE
:1018080032F033C033F034C034F04EEF0DF04850AE
:10181800D8A411EF0CF013EF0CF01DEF0CF0000E34
:10182800316E000E326E000E336E000E346E4EEFC7
:101838000DF0495048C039F03A6A395E000E3A5AFC
:101848007F0E3924426E000E3A20436E31C03DF0BF
:1018580032C03EF033C03FF034C040F0000E316E6D
:10186800000E326E000E336E000E346E000E446EA3
:10187800000E456E000E466E000E476E000E496E55
:101888007EEF0CF04950D8B44CEF0CF04EEF0CF052
:1018980065EF0CF0D8903D363E363F364036D8904E
:1018A800313632363336343647AE5DEF0CF05FEF03
:1018B8000CF060EF0CF03180D8904436453646364F
:1018C800473635503D5C36503E5837503F583850B3
:1018D8004058D8A072EF0CF074EF0CF07DEF0CF0CC
:1018E800478C35503D5E36503E5A37503F5A385037
:1018F800405A492A190E496484EF0CF086EF0CF01F
:1019080046EF0CF03D503E103F104010D8B48FEF1A
:101918000CF091EF0CF0A9EF0CF04480A9EF0CF05B
:10192800D890313632363336343647AE9EEF0CF027
:10193800A0EF0CF0A1EF0CF03180D890443645367A
:10194800463647364206D8A0430633AEAEEF0CF013
:10195800B0EF0CF094EF0CF0000E496E47AEB7EF05
:101968000CF0B9EF0CF0DDEF0CF0FF0E4414396EFB
:10197800FF0E45143A6EFF0E46143B6E7F0E471459
:101988003C6E39503A103B103C10D8B4CEEF0CF0F6
:10199800D0EF0CF0D4EF0CF0010E496EDDEF0CF037
:1019A80031A0D9EF0CF0DBEF0CF0DDEF0CF0D0EF4D
:1019B8000CF04950D8B4E3EF0CF0E5EF0CF009EF68
:1019C8000DF0010E3126000E32223322342234A0CB
:1019D800F0EF0CF0F2EF0CF009EF0DF031C039F038
:1019E80032C03AF033C03BF034C03CF03C343C32B7
:1019F8003B323A32393239C031F03AC032F03BC06A
:101A080033F03CC034F0424A432A43BE14EF0DF091
:101A1800435008E14228D8A014EF0DF016EF0DF05E
:101A280021EF0DF0000E436E4268000E316E000E7D
:101A3800326E000E336E000E346E43BE2EEF0DF084
:101A4800435006E14204D8B02CEF0DF02EEF0DF014
:101A58003CEF0DF0000E436E000E426E000E316E2C
:101A6800000E326E000E336E000E346E000E416EA4
:101A780042C048F048A043EF0DF045EF0DF048EFA5
:101A88000DF0338E49EF0DF0339ED8904830346E08
:101A9800FFEF0BF0120034BE56EF0DF054EF0DF0CF
:101AA80070EF0DF035C0D9FF36C0DAFF2D0EDF6EAE
:101AB800354A362A31C00AF032C00BF033C00CF078
:101AC80034C00DF0FCEC16F00AC031F00BC032F057
:101AD8000CC033F00DC034F031C00AF032C00BF046
:101AE80033C00CF034C00DF0B1EC11F00AC06EF048
:101AF8000BC06FF031C01AF032C01BF033C01CF0BD
:101B080034C01DF06EC00AF06FC00BF0000E0BBEA3
:101B1800FF0E0C6E0D6E010EA5EC0FF00AC01EF044
:101B28000BC01FF00CC020F00DC021F035EC16F0F2
:101B38001AC031F01BC032F01CC033F01DC034F0A5
:101B48006EC072F06FC073F0000E0001776F000E68
:101B5800766F600E7625D96E000E7721DA6E72C028
:101B68000AF073C00BF0000E0D6E0A0E0C6EACEC92
:101B780014F00A50300FDF6E0001764B772B72C0DD
:101B88000AF073C00BF0000E0D6E0A0E0C6E2DECF1
:101B980013F00AC072F00BC073F0000173BFDFEFDF
:101BA8000DF0735106E17205D8B0DDEF0DF0DFEFEF
:101BB8000DF0ADEF0DF0000E756F000E746F01EFB4
:101BC8000EF0600E396E000E3A6E7451395E755122
:101BD8003A5A7651392677513A22FF0E3924D96E6E
:101BE800FF0E3A20DA6E74513524E16E75513620B5
:101BF800E26EDFCFE7FF744B752B7651745D75513C
:101C0800800A396E7751800A3958D8A00EEF0EF045
:101C180010EF0EF0E5EF0DF07651352677513622AC
:101C280035C0D9FF36C0DAFF2E0EDF6E354A362AA8
:101C3800000E6D6F000E6C6F7DEF0EF031C018F066
:101C480032C019F033C01AF034C01BF0000E1C6EFD
:101C5800000E1D6E200E1E6E410E1F6E6DEC09F0FB
:101C680018C031F019C032F01AC033F01BC034F07C
:101C780031C00AF032C00BF033C00CF034C00DF0A4
:101C8800B1EC11F00AC070F00BC071F00001705196
:101C9800300F35C0D9FF36C0DAFFDF6E354A362A35
:101CA80031C01AF032C01BF033C01CF034C01DF034
:101CB80070C00AF071C00BF0000E0BBEFF0E0C6E68
:101CC8000D6E010EA5EC0FF00AC01EF00BC01FF040
:101CD8000CC020F00DC021F035EC16F01AC031F020
:101CE8001BC032F01CC033F01DC034F000016C4B37
:101CF8006D2B37506C5D6D51800A396E3850800AF3
:101D08003958D8A08AEF0EF08CEF0EF022EF0EF0C3
:101D180035C0D9FF36C0DAFF000EDF6E1200090E9B
:101D2800F66E7F0EF76E20EE18F0070E0900F5CF5D
:101D3800DEFFE806FBE218EC17F00AC024F00BC03F
:101D480025F00CC026F00DC027F0000E216E000E05
:101D5800206E21BEB9EF0EF0215009E1040E205C7F
:101D6800D8A0B9EF0EF0BBEF0EF0BDEF0EF09DEF6F
:101D78000FF020C012F0010E136E122AC6EF0EF0FB
:101D8800D8901336122EC4EF0EF01350FF0A8A6E45
:101D9800210E126E760EE82EFED7122EFCD700D03A
:101DA800000E236E000E226E22C012F0040E1226C0
:101DB800010E136E122AE3EF0EF0D8901336122E8E
:101DC800E1EF0EF0135081140009D8A4EEEF0EF0E5
:101DD800F0EF0EF089EF0FF0D8902034D96E21344F
:101DE800DA6E180ED926000EDA22DECF12F0DDCF19
:101DF80013F022C014F023C015F0D890143615360D
:101E0800D89014361536F90E166E7E0E176E1450CD
:101E1800162615501722125016261350172216C0D0
:101E2800F6FF17C0F7FF0800F5CF28F0285000018B
:101E3800B819D8B422EF0FF024EF0FF035EF0FF0F8
:101E480028C0B9F028C0B8F0000EBA6F24C0BBF0A3
:101E580025C0BCF026C0BDF027C0BEF02850A4EFB6
:101E68000FF0BA51D8A43BEF0FF03DEF0FF063EF3E
:101E78000FF0BB51245C126EBC512558136EBD5136
:101E88002658146EBE512758156E155014100BE1C4
:101E9800F50E125C010E1358D8A055EF0FF057EF4E
:101EA8000FF063EF0FF0BA2B24C0BFF025C0C0F0CD
:101EB80026C0C1F027C0C2F02850A4EF0FF0BA51D5
:101EC800D8B469EF0FF06BEF0FF086EF0FF0BF514A
:101ED800245C126EC0512558136EC1512658146ED9
:101EE800C2512758156E15501410131009E1650ECC
:101EF800125CD8A082EF0FF084EF0FF086EF0FF09E
:101F080058EF0FF0000EA4EF0FF0224A232A23BE49
:101F180097EF0FF0235009E1040E225CD8A097EF49
:101F28000FF099EF0FF0D8EF0EF0204A212AADEF0D
:101F38000EF0000E0001B86F000EBA6F86EF0FF0BA
:101F48001200126E1250D8B4ACEF0FF0AEEF0FF0D3
:101F5800D0EF0FF00DBEB5EF0FF0B3EF0FF0D0EFED
:101F68000FF00AC00EF00BC00FF00CC010F00DC03F
:101F780011F00E1E0F1E101E111E0E2A000E0F222B
:101F8800102211220EC014F00FC015F010C016F068
:101F980011C017F0D8EF0FF00AC014F00BC015F0FD
:101FA8000CC016F00DC017F00A500B100C100D10D5
:101FB800D8A4E1EF0FF0E3EF0FF0EDEF0FF0000E14
:101FC8000A6E000E0B6E000E0C6E000E0D6E7EEF8C
:101FD80010F0960E136EF7EF0FF0132AD890173201
:101FE800163215321432000E14140E6E000E15142B
:101FF8000F6E000E1614106EFE0E1714116E0E5092
:102008000F1010101110D8A40CEF10F00EEF10F0F4
:10201800F1EF0FF01CEF10F0132A010E1426000E3A
:10202800152216221722D89017321632153214327A
:10203800000E14140E6E000E15140F6E000E1614FA
:10204800106EFF0E1714116E0E500F101010111095
:10205800D8A431EF10F033EF10F010EF10F03BEF91
:1020680010F01306D890143615361636173616BEE5
:1020780040EF10F042EF10F04AEF10F0020E13603C
:1020880048EF10F04AEF10F035EF10F013B04FEFB3
:1020980010F051EF10F052EF10F0169ED890133256
:1020A80013C00EF00F6A106A116A0EC011F0106AA0
:1020B8000F6A0E6A0E5014120F5015121050161295
:1020C800115017121250D8B46CEF10F06EEF10F0D8
:1020D80076EF10F00DBE75EF10F073EF10F076EF9D
:1020E80010F0178E14C00AF015C00BF016C00CF0D3
:1020F80017C00DF01200000E176E000E166E145069
:102108001510D8A48AEF10F08CEF10F08EEF10F0B5
:102118001EEF11F012501310D8A495EF10F097EF9E
:1021280010F0A7EF10F014C0D9FF15C0DAFF300E79
:10213800DF6E20EE01F01450D9261550DA22000E79
:10214800DF6E1EEF11F013BEAEEF10F0ACEF10F023
:10215800BCEF10F0126C131ED8B0132A14C0D9FFAC
:1021680015C0DAFF2D0EDF6E144A152A164A172AF3
:1021780012C018F013C019F0D2EF10F018C00AF00E
:1021880019C00BF0000E0D6E0A0E0C6E2DEC13F03C
:102198000AC018F00BC019F0164A172A19BEDFEF4B
:1021A80010F0195006E11804D8B0DDEF10F0DFEF99
:1021B80010F0C2EF10F016501424D96E17501520E5
:1021C800DA6E000EDF6E12C018F013C019F011EFAE
:1021D80011F01606D8A0170616501424D96E1750F9
:1021E8001520DA6E18C00AF019C00BF0000E0D6E3B
:1021F8000A0E0C6EACEC14F00A50300FDF6E18C0EB
:102208000AF019C00BF0000E0D6E0A0E0C6E2DECC4
:1022180013F00AC018F00BC019F019BE1EEF11F028
:10222800195006E11804D8B01CEF11F01EEF11F098
:10223800EDEF10F01200000E2D6E000E2E6E000E47
:102248002F6E000E316E000E306E010EDDEC16F0B2
:102258000D0E2B6EFC0EE82EFED72B2EFCD7020E91
:10226800DDEC16F00D0E2B6EFC0EE82EFED72B2E95
:10227800FCD7000E0C6E000E0B6E000E0E6E000EDC
:102288000D6E29C00FF02AC010F004EC15F092EF83
:1022980011F093EC0EF0326E2F0E326456EF11F0FF
:1022A80058EF11F085EF11F03A0E32605EEF11F041
:1022B80060EF11F085EF11F02D0E3024D96E000E6D
:1022C8003120DA6E32C0DFFF000E0C6E010E0B6E8D
:1022D80030C00DF031C00EF02D0E30240F6E000E00
:1022E8003120106E04EC15F0304A312A060E2C6E9F
:1022F800130E2B6EAE0EE82EFED72B2EFCD72C2EEF
:10230800FAD7460E3218D8A48CEF11F08EEF11F0E0
:1023180092EF11F029682A68B0EF11F031BE9EEFF4
:1023280011F0315009E1020E305CD8A09EEF11F097
:10233800A0EF11F04DEF11F02D500A0DF3CF2BF057
:10234800F4CF2CF02E502B26000E2C22F00E2B242E
:10235800296EFD0E2C202A6E12000C340D34136EDB
:102368001350D8A4BAEF11F0BCEF11F0C6EF11F07A
:10237800000E0A6E000E0B6E000E0C6E000E0D6E37
:1023880033EF12F00AC00EF00BC00FF00CC010F0C3
:102398000DC011F0200ED6EF11F0D8901132103286
:1023A8000F320E32E82ED1EF11F00E50126E0C8E55
:1023B800FF0E0A16FF0E0B16FF0E0C16000E0D165A
:1023C800960E135E13BEEDEF11F0EBEF11F003EF75
:1023D80012F01350800A970FD8B0F5EF11F0F7EF0D
:1023E80011F0F9EF11F0BCEF11F0D8900D320C326A
:1023F8000B320A32133EF9EF11F01BEF12F01F0EE9
:10240800136409EF12F00BEF12F013EF12F0BCEFA8
:1024180011F0D8900A360B360C360D3613061350C9
:10242800D8A419EF12F01BEF12F00DEF12F01250B2
:10243800D8B421EF12F023EF12F02BEF12F00D1E9B
:102448000C1E0B1E0A6C000E0B220C220D220AC059
:102458000AF00BC00BF00CC00CF00DC00DF0120010
:10246800000E1814206E000E1914216E800E1A1416
:10247800226E7F0E1B14236E205021102210231071
:10248800D8A449EF12F04BEF12F053EF12F0000E00
:10249800186E000E196E000E1A6E000E1B6E000EDE
:1024A8001C14206E000E1D14216E800E1E14226E48
:1024B8007F0E1F14236E2050211022102310D8A441
:1024C80068EF12F06AEF12F072EF12F0000E1C6E55
:1024D800000E1D6E000E1E6E000E1F6E1BAE77EFF7
:1024E80012F079EF12F082EF12F0186C191ED8B0C2
:1024F800192A1A1ED8B01A2A800E1B561FAE87EF4B
:1025080012F089EF12F092EF12F01C6C1D1ED8B079
:102518001D2A1E1ED8B01E2A800E1F56000E181A1D
:10252800000E191A000E1A1A800E1B1A000E1C1A19
:10253800000E1D1A000E1E1A800E1F1A1C50185C61
:102548001D5019581E501A581F501B58D8B0AFEFBD
:1025580012F0B1EF12F0B4EF12F0D890B5EF12F01C
:10256800D88012000B6E0F0E83160F0E95169694D8
:10257800969096928D948D908D9247EC17F0300E30
:10258800DDEC16F035EC17F035EC17F0300EDDEC1D
:1025980016F035EC17F035EC17F0320EDDEC16F0CE
:1025A8007BEC16F00009D8A4DCEF12F0DEEF12F095
:1025B800D4EF12F07BEC16F00009D8A4E6EF12F085
:1025C800E8EF12F0DEEF12F00B50DDEC16F07BECCA
:1025D80016F00009D8A4F3EF12F0F5EF12F0EBEFC4
:1025E80012F0080EDDEC16F07BEC16F00009D8A40A
:1025F80000EF13F002EF13F0F8EF12F00F0EDDEC1E
:1026080016F07BEC16F00009D8A40DEF13F00FEFCD
:1026180013F005EF13F0010EDDEC16F07BEC16F06D
:102628000009D8A41AEF13F01CEF13F012EF13F0FF
:10263800040EDDEC16F07BEC16F00009D8A427EFA9
:1026480013F029EF13F01FEF13F0800E9EEC16F035
:102658001200000E0F6E0DBE36EF13F034EF13F0BC
:102668003CEF13F00C6C0D1ED8B00D2A010E0F6E46
:102678000BBE43EF13F041EF13F049EF13F00A6C70
:102688000B1ED8B00B2A010E0F1A000E116E000E89
:10269800106E0C500D10D8B454EF13F056EF13F021
:1026A8007EEF13F0010E0E6E5EEF13F0D8900C362D
:1026B8000D360E2A0DAE63EF13F065EF13F05AEFE7
:1026C80013F0D890103611360C500A5C0D500B5888
:1026D800D8A071EF13F073EF13F078EF13F00C50EC
:1026E8000A5E0D500B5A1080D8900D320C320E2E07
:1026F80065EF13F00F50D8B484EF13F086EF13F0A2
:102708008AEF13F0106C111ED8B0112A10C00AF00D
:1027180011C00BF01200000EDBEC15F00AC06CF0D3
:102728000BC06DF0000E356EC00E366E7F0E376E24
:10273800440E386E000E1C6E000E1D6EA00E1E6E2E
:10274800400E1F6E6CC00AF06DC00BF00C6A0D6A6B
:10275800000EA5EC0FF00AC018F00BC019F00CC061
:102768001AF00DC01BF06DEC09F018C031F019C05B
:1027780032F01AC033F01BC034F082EC0BF031C0D9
:1027880068F032C069F033C06AF034C06BF068C0DA
:1027980031F069C032F06AC033F06BC034F00A0E11
:1027A800356ED70E366E230E376E3C0E386E82ECC1
:1027B8000BF031C064F032C065F033C066F034C04D
:1027C80067F064C060F065C061F066C062F067C021
:1027D80063F01200030EDBEC15F00AC06CF00BC0BE
:1027E8006DF0000E356EC00E366E7F0E376E440EDD
:1027F800386E000E1C6E000E1D6EA00E1E6E400E72
:102808001F6E6CC00AF06DC00BF00C6A0D6A000EEA
:10281800A5EC0FF00AC018F00BC019F00CC01AF0A4
:102828000DC01BF06DEC09F018C031F019C032F082
:102838001AC033F01BC034F082EC0BF031C068F0E2
:1028480032C069F033C06AF034C06BF068C018F069
:1028580069C019F06AC01AF06BC01BF0000E1C6E3C
:10286800000E1D6EA00E1E6E410E1F6E6DEC09F05F
:1028780018C064F019C065F01AC066F01BC067F094
:1028880064C060F065C061F066C062F067C063F064
:102898001200020EDBEC15F00AC06CF00BC06DF0F4
:1028A800000E356EC00E366E7F0E376E440E386ED3
:1028B800000E1C6E000E1D6EA00E1E6E400E1F6ECA
:1028C8006CC00AF06DC00BF00C6A0D6A000EA5EC26
:1028D8000FF00AC018F00BC019F00CC01AF00DC0A8
:1028E8001BF06DEC09F018C031F019C032F01AC0B5
:1028F80033F01BC034F082EC0BF031C068F032C00A
:1029080069F033C06AF034C06BF068C018F069C071
:1029180019F06AC01AF06BC01BF0000E1C6E000E96
:102928001D6EA00E1E6E410E1F6E6DEC09F018C0D4
:1029380064F019C065F01AC066F01BC067F064C087
:1029480060F065C061F066C062F067C063F01200B5
:10295800000E0F6E0BBEB5EF14F0B3EF14F0BBEF23
:1029680014F00A6C0B1ED8B00B2A010E0F6E0DBEA8
:10297800C2EF14F0C0EF14F0C6EF14F00C6C0D1E8B
:10298800D8B00D2A0C500D10D8B4CDEF14F0CFEFFD
:1029980014F0F3EF14F0010E0E6ED7EF14F0D89088
:1029A8000C360D360E2A0DAEDCEF14F0DEEF14F007
:1029B800D3EF14F00C500A5C0D500B58D8A0E7EF79
:1029C80014F0E9EF14F0EDEF14F00C500A5E0D501E
:1029D8000B5AD8900D320C320E2EDEEF14F00F5039
:1029E800D8B4F9EF14F0FBEF14F0FFEF14F00A6C11
:1029F8000B1ED8B00B2A0AC00AF00BC00BF012004D
:102A08000B500C10D8B40BEF15F00DEF15F013EFB9
:102A180015F0000E146EC00E136E17EF15F0000EB1
:102A2800146E800E136E0D501324116E0E50142068
:102A3800126E1150DDEC16F036EF15F00FC0F6FFF0
:102A480010C0F7FFF86A070EF76403D00800F550C6
:102A580005D0F6CFE1FFF7CFE2FFE750BEEC16F066
:102A68000F4A102A0FC0F6FF10C0F7FFF86A070ECA
:102A7800F76403D00800F55005D0F6CFE1FFF7CF93
:102A8800E2FFE7500009D8A44CEF15F04EEF15F01F
:102A980022EF15F012000600F2A455EF15F057EFDB
:102AA80015F095EF15F0640ED66E010E4C26000E4B
:102AB8004D224E224F224CC001F04DC002F04EC0B4
:102AC80003F04FC004F0E80E056E030E066E000E0C
:102AD800076E000E086E97EC15F0015002100310F7
:102AE8000410D8A47AEF15F07CEF15F094EF15F0E8
:102AF80053BE88EF15F0535009E1020E525CD8A07E
:102B080088EF15F08AEF15F090EF15F0000E536E70
:102B1800000E526E94EF15F0000E536E010E526EB9
:102B2800F294559211000550061007100810D8B4F9
:102B3800A0EF15F0A2EF15F0D2EF15F0010E096E17
:102B4800ACEF15F0D8900536063607360836092A50
:102B580008AEB1EF15F0B3EF15F0A6EF15F005507C
:102B6800015C065002580750035808500458D8A072
:102B7800C0EF15F0C2EF15F0CAEF15F00550015E71
:102B88000650025A0750035A0850045AD89008327F
:102B9800073206320532092EB3EF15F001C001F0F5
:102BA80002C002F003C003F004C004F01200106E6B
:102BB8000C0E1064E2EF15F0E4EF15F0EAEF15F0F3
:102BC800000E0B6E000E0A6E11EF16F010C00CF01E
:102BD8000C460C46C2500C18C30B0C18C26E0D0ED6
:102BE8000C6EFC0EE82EFED70C2EFCD7C282C2B2A9
:102BF80000EF16F002EF16F0FBEF15F0C350C4CF4C
:102C08000CF00D6A0CC00DF00C6A0C100E6E0D5015
:102C18000F6E0EC00AF00FC00BF01200C00EF66E59
:102C28002E0EF76E000EF86E00EECCF010EE06F0E9
:102C38000900F5CFEEFFE550E150FAE100EEB8F0FB
:102C4800140EEE6AE806FDE100EE4CF0090EEE6A9D
:102C5800E806FDE155905592000EF86E000164EF0C
:102C680004F0000E1E1A000E1F1A000E201A800E05
:102C7800211A1AC00AF01BC00BF01CC00CF01DC0B2
:102C88000DF01EC00EF01FC00FF020C010F021C0C4
:102C980011F00DEC07F00AC01AF00BC01BF00CC0C5
:102CA8001CF00DC01DF01200280EB6EC12F0010E3B
:102CB800DDEC16F0410E0C6EEE0EE82EFED70C2E53
:102CC800FCD700D0020EDDEC16F00D0E0C6EFC0EDB
:102CD800E82EFED70C2EFCD70C0EDDEC16F00D0EF0
:102CE8000C6EFC0EE82EFED70C2EFCD712008D843D
:102CF8008D905BEC17F08D825BEC17F083AE87EF5D
:102D080016F089EF16F094EF16F08D925BEC17F041
:102D18008D825BEC17F08D928D94010E9DEF16F06D
:102D28008D925BEC17F08D825BEC17F08D928D9491
:102D3800000E12000A6E0F0E95160F0E83160A501B
:102D48008009F00B83128D948D905BEC17F08D82C7
:102D58005BEC17F08D920F0E83160A38F00BF00B10
:102D680083125BEC17F08D825BEC17F08D92F00EFE
:102D7800951212000A6E0F0E95160F0E83160A5042
:102D8800F00B83128D808D945BEC17F08D825BECD9
:102D980017F08D920F0E83160A38F00BF00B831282
:102DA8005BEC17F08D825BEC17F08D92F00E9512AC
:102DB80012000A6E0F0E95160F0E83160A50F00BAE
:102DC80083128D948D905BEC17F08D825BEC17F07D
:102DD8008D920F0E83160A38F00BF00B83125BEC02
:102DE80017F08D825BEC17F08D92F00E95121200A1
:102DF8000A500B100C100D10D8B405EF17F007EFA0
:102E080017F00FEF17F0000E0A1A000E0B1A000E3B
:102E18000C1A800E0D1A0AC00AF00BC00BF00CC079
:102E28000CF00DC00DF01200F29E4CC00EF04DC01B
:102E38000FF04EC010F04FC011F0F28E0EC00AF025
:102E48000FC00BF010C00CF011C00DF01200D08EA6
:102E5800F28EF28CF184F28AF294F190F286F2907A
:102E68001200210E0A6E760EE82EFED70A2EFCD727
:102E780000D01200F00E936E9286959095929494DD
:102E8800839083921200620E0A6E660EE82EFED7B9
:102E98000A2EFCD71200C40ED56E640ED66EF294BC
:102EA80012000B0EC16E950EC06EC2801200210E6C
:102EB800E82EFED700F01200140032001E001200A7
:107EF800003132334134353642373839434630451C
:107F080044030002000100000048756D6964696659
:107F1800696361646F72204F4E00485F6C696D2021
:107F280065786365646964612100545F6C696D20DC
:107F380065786365646964612100475F6C696D20D9
:107F4800657863656469646F21004C696D207265AA
:107F580073657461646F7321005265736672696139
:107F6800646F72204F4E0048756D69642053616CD0
:107F7800766F21004C696D6974652054656D703A9F
:107F880000496E76616C6964204D656E75005465B4
:107F98006D702053616C766121004C696D69746560
:107FA8002048756D3A004578617573746F72204F7B
:107FB8004E004761732053616C766F21004C696DE8
:107FC800697465204761730053697374656D6173E3
:107FD8003A004C656974757261730048756D69641F
:107FE8003A004C696D3A004761733A0070706D0051
:087FF8004F4B0025004300007F
:020000040020DA
:08000000FFFFFFFFFFFFFFFF00
:020000040030CA
:0E000000000C191EFF8080FF0FC00FE00F40A4
:00000001FF
