:020000040000FA
:0400000007EF00F016
:1000080055821BED16F0DEEF16F0E4EC17F00AC08F
:1000180086F00BC087F00CC088F00DC089F0000195
:10002800CB51865D786FCC518759796FCD518859FE
:100038007A6FCE5189597B6F7B517A1109E1F40EA1
:10004800785D010E7959D8B02CEF00F02EEF00F052
:1000580032EF00F063EF04F063EF04F086C0CBF0FA
:1000680087C0CCF088C0CDF089C0CEF0010EA9ECD5
:1000780017F00D0E0001786FFB0EE82EFED7782FD3
:10008800FCD700D05BEC14F060C08AF061C08BF044
:1000980062C08CF063C08DF0BAEC14F060C08EF0D2
:1000A80061C08FF062C090F063C091F019EC15F058
:1000B80060C092F061C093F062C094F063C095F0A4
:1000C80040EF04F0000E0C6E000E0B6E000E0E6E6C
:1000D800000E0D6E900E0F6E7F0E106ED0EC15F0A8
:1000E8008AC031F08BC032F08CC033F08DC034F050
:1000F8007C0E356E000E366E000E386E010E376EB1
:100108001DEC0EF0000E0C6E000E0B6E000E0E6E47
:10011800060E0D6E7C0E0F6E000E106ED0EC15F0F4
:10012800000E0C6E000E0B6E000E0E6E0B0E0D6E9A
:10013800FD0E0F6E7F0E106ED0EC15F0000E0C6EDB
:10014800010E0B6E000E0E6E000E0D6EEA0E0F6E97
:100158007F0E106ED0EC15F0D6C012F0D7C013F099
:100168007C0E146E000E156E4BEC11F0000E0C6E2A
:10017800010E0B6E000E0E6E040E0D6E7C0E0F6ED1
:10018800000E106ED0EC15F063EF04F0000E0C6E4C
:10019800000E0B6E000E0E6E000E0D6EE30E0F6E4F
:1001A8007F0E106ED0EC15F08EC031F08FC032F09B
:1001B80090C033F091C034F07C0E356E000E366E70
:1001C800000E386E010E376E1DEC0EF0000E0C6E30
:1001D800000E0B6E000E0E6E070E0D6E7C0E0F6E6F
:1001E800000E106ED0EC15F0000E0C6E000E0B6EAB
:1001F800000E0E6E0C0E0D6EFB0E0F6E7F0E106E47
:10020800D0EC15F0000E0C6E010E0B6E000E0E6E8B
:10021800000E0D6EEA0E0F6E7F0E106ED0EC15F00C
:10022800D4C012F0D5C013F07C0E146E000E156EFB
:100238004BEC11F0BAEF00F0000E0C6E000E0B6ED6
:10024800000E0E6E000E0D6EEF0E0F6E7F0E106E0E
:10025800D0EC15F092C031F093C032F094C033F076
:1002680095C034F07C0E356E000E366E000E386E7A
:10027800010E376E1DEC0EF0000E0C6E000E0B6EAC
:10028800000E0E6E050E0D6E7C0E0F6E000E106EBB
:10029800D0EC15F0000E0C6E000E0B6E000E0E6EFC
:1002A8000B0E0D6EF40E0F6E7F0E106ED0EC15F067
:1002B800000E0C6E010E0B6E000E0E6E000E0D6E13
:1002C800EA0E0F6E7F0E106ED0EC15F0D2C012F051
:1002D800D3C013F07C0E146E000E156E4BEC11F0AB
:1002E800BAEF00F0000E0C6E000E0B6E000E0E6ED4
:1002F800000E0D6EDA0E0F6E7F0E106ED0EC15F03C
:10030800D6C00AF0D7C00BF0000E0BBEFF0E0C6E65
:100318000D6E010E71EC10F00AC018F00BC019F048
:100328000CC01AF00DC01BF08AC01CF08BC01DF069
:100338008CC01EF08DC01FF000EC13F0D8A0A7EF02
:1003480001F0A9EF01F003EF02F0D4C00AF0D5C024
:100358000BF0000E0BBEFF0E0C6E0D6E010E71EC55
:1003680010F00AC018F00BC019F00CC01AF00DC03C
:100378001BF08EC01CF08FC01DF090C01EF091C005
:100388001FF000EC13F0D8A0CCEF01F0CEEF01F095
:1003980003EF02F0D2C00AF0D3C00BF0000E0BBE80
:1003A800FF0E0C6E0D6E010E71EC10F00AC018F005
:1003B8000BC019F00CC01AF00DC01BF092C01CF055
:1003C80093C01DF094C01EF095C01FF000EC13F010
:1003D800D8A0F1EF01F0F3EF01F003EF02F0000E07
:1003E8000C6E010E0B6E000E0E6E000E0D6EF80EEA
:1003F8000F6E7F0E106ED0EC15F063EF04F0504ACC
:10040800512A51BE11EF02F0515009E1040E505C1F
:10041800D8A011EF02F013EF02F0B8EF02F0000ECF
:10042800516E000E506EB8EF02F0D6C00AF0D7C079
:100438000BF0000E0BBEFF0E0C6E0D6E010E71EC74
:1004480010F00AC018F00BC019F00CC01AF00DC05B
:100458001BF08AC01CF08BC01DF08CC01EF08DC034
:100468001FF000EC13F0D8B03CEF02F03EEF02F0C2
:1004780030EF00F0000E0C6E010E0B6E000E0E6ECB
:10048800000E0D6E300E0F6E7F0E106ED0EC15F054
:1004980063EF04F0D4C00AF0D5C00BF0000E0BBE19
:1004A800FF0E0C6E0D6E010E71EC10F00AC018F004
:1004B8000BC019F00CC01AF00DC01BF08EC01CF058
:1004C8008FC01DF090C01EF091C01FF000EC13F01B
:1004D800D8B071EF02F073EF02F030EF00F0000EC9
:1004E8000C6E010E0B6E000E0E6E000E0D6E200EC1
:1004F8000F6E7F0E106ED0EC15F063EF04F0D2C0D3
:100508000AF0D3C00BF0000E0BBEFF0E0C6E0D6E82
:10051800010E71EC10F00AC018F00BC019F00CC0F5
:100528001AF00DC01BF092C01CF093C01DF094C0CF
:100538001EF095C01FF000EC13F0D8B0A6EF02F043
:10054800A8EF02F030EF00F0000E0C6E010E0B6EFB
:10055800000E0E6E000E0D6E400E0F6E7F0E106EAA
:10056800D0EC15F063EF04F050C078F051C079F08A
:1005780000017951000AD8B4C4EF02F063EF04F027
:100588007851000AD8B419EF02F0010AD8B44EEF36
:1005980002F0030AD8B483EF02F063EF04F0000E10
:1005A8000C6E000E0B6E000E0E6E000E0D6ED00E51
:1005B8000F6E7F0E106ED0EC15F0D6C00AF0D7C0C3
:1005C8000BF0000E0BBEFF0E0C6E0D6E010E71ECE3
:1005D80010F00AC018F00BC019F00CC01AF00DC0CA
:1005E8001BF08AC01CF08BC01DF08CC01EF08DC0A3
:1005F8001FF000EC13F0D8A004EF03F006EF03F0AF
:1006080060EF03F0D4C00AF0D5C00BF0000E0BBEAB
:10061800FF0E0C6E0D6E010E71EC10F00AC018F092
:100628000BC019F00CC01AF00DC01BF08EC01CF0E6
:100638008FC01DF090C01EF091C01FF000EC13F0A9
:10064800D8A029EF03F02BEF03F060EF03F0D2C03E
:100658000AF0D3C00BF0000E0BBEFF0E0C6E0D6E31
:10066800010E71EC10F00AC018F00BC019F00CC0A4
:100678001AF00DC01BF092C01CF093C01DF094C07E
:100688001EF095C01FF000EC13F0D8A04EEF03F059
:1006980050EF03F060EF03F0000E0C6E010E0B6ECE
:1006A800000E0E6E000E0D6EF80E0F6E7F0E106EA1
:1006B800D0EC15F063EF04F04E4A4F2A4FBE6EEFB0
:1006C80003F04F5009E1040E4E5CD8A06EEF03F022
:1006D80070EF03F015EF04F0000E4F6E000E4E6E33
:1006E80015EF04F0D6C00AF0D7C00BF0000E0BBE11
:1006F800FF0E0C6E0D6E010E71EC10F00AC018F0B2
:100708000BC019F00CC01AF00DC01BF08AC01CF009
:100718008BC01DF08CC01EF08DC01FF000EC13F0D4
:10072800D8B099EF03F09BEF03F063EF04F0000EED
:100738000C6E010E0B6E000E0E6E000E0D6E6E0E20
:100748000F6E7F0E106ED0EC15F063EF04F0D4C07E
:100758000AF0D5C00BF0000E0BBEFF0E0C6E0D6E2E
:10076800010E71EC10F00AC018F00BC019F00CC0A3
:100778001AF00DC01BF08EC01CF08FC01DF090C089
:100788001EF091C01FF000EC13F0D8B0CEEF03F0CC
:10079800D0EF03F063EF04F0000E0C6E010E0B6E49
:1007A800000E0E6E000E0D6E0F0E0F6E7F0E106E89
:1007B800D0EC15F063EF04F0D2C00AF0D3C00BF010
:1007C800000E0BBEFF0E0C6E0D6E010E71EC10F0DC
:1007D8000AC018F00BC019F00CC01AF00DC01BF0BD
:1007E80092C01CF093C01DF094C01EF095C01FF07D
:1007F80000EC13F0D8B003EF04F005EF04F063EF5A
:1008080004F0000E0C6E010E0B6E000E0E6E000E44
:100818000D6EAE0E0F6E7F0E106ED0EC15F063EFFE
:1008280004F04EC078F04FC079F000017951000A09
:10083800D8B421EF04F063EF04F07851000AD8B47B
:1008480076EF03F0010AD8B4ABEF03F0030AD8B48B
:10085800E0EF03F063EF04F0000E0C6E000E0B6E79
:10086800000E0E6E000E0D6E5F0E0F6E7F0E106E78
:10087800D0EC15F063EF04F076C078F077C079F02B
:1008880000017951000AD8B44CEF04F030EF04F0BD
:100898007851000AD8B466EF00F0010AD8B4CAEF5C
:1008A80000F0030AD8B420EF01F0010AD8B476EFBB
:1008B80001F0070AD8B4D3EF02F030EF04F01200C9
:1008C800000E0001B46F000EB76F000EB66F000E79
:1008D8009A6F000E9B6F000E9C6F000E9D6FF7ECD9
:1008E80017F027EC18F024EC17F021EC18F006ECC0
:1008F80018F095909592959475EC0FF00001B56FEE
:10090800E4EC17F00AC09EF00BC09FF00CC0A0F0FA
:100918000DC0A1F000019A519E5D966F9B519F59A1
:10092800976F9C51A059986F9D51A159996F9951F2
:1009380098110BE1F40E965D010E9759D8A0A7EF18
:1009480004F0A9EF04F0B7EF04F0B6C076F0B7C032
:1009580077F009EC00F09EC09AF09FC09BF0A0C011
:100968009CF0A1C09DF0450E0001B519D8A4BFEFB9
:1009780004F0C1EF04F0E4EF04F0450EB419D8B464
:10098800C8EF04F0CAEF04F0E4EF04F0B64BB72B5D
:10099800B7BFD8EF04F0B75109E1050EB65DD8A08E
:1009A800D8EF04F0DAEF04F0DEEF04F0000EB76FD2
:1009B800000EB66FB6C076F0B7C077F009EC00F05D
:1009C800460E0001B519D8A4ECEF04F0EEEF04F0E0
:1009D8000BEF05F0460EB419D8B4F5EF04F0F7EFB5
:1009E80004F00BEF05F0B607D8A0B707B7BF01EFC3
:1009F80005F0FFEF04F005EF05F0000EB76F040EE9
:100A0800B66FB6C076F0B7C077F009EC00F0410ECB
:100A18000001B519D8A413EF05F015EF05F06BEF39
:100A280005F0410EB419D8B41CEF05F01EEF05F01F
:100A38006BEF05F0890E296E7F0E2A6EEBEC11F034
:100A480029C0AEF02AC0AFF00001AE2908E1AF29F5
:100A5800D8B431EF05F033EF05F05FEF05F0AEC025
:100A6800D6F0AFC0D7F0000E0C6E010E0B6E000E64
:100A78000E6E000E0D6E960E0F6E7F0E106ED0EC81
:100A880015F01A0E0001976F5E0E966F6E0EE82E27
:100A9800FED7962FFCD7972FFAD700F0000E00014B
:100AA800B76F000EB66F000E776F000E766F09EC09
:100AB80000F06BEF05F0AE2906E1AF29D8A467EF87
:100AC80005F069EF05F06BEF05F052EF05F0420E07
:100AD8000001B519D8A473EF05F075EF05F0CBEF59
:100AE80005F0420EB419D8B47CEF05F07EEF05F09E
:100AF800CBEF05F0A20E296E7F0E2A6EEBEC11F0FB
:100B080029C0B0F02AC0B1F00001B02908E1B1292C
:100B1800D8B491EF05F093EF05F0BFEF05F0B0C042
:100B2800D4F0B1C0D5F0000E0C6E010E0B6E000EA5
:100B38000E6E000E0D6E7C0E0F6E7F0E106ED0ECDA
:100B480015F01A0E0001976F5E0E966F6E0EE82E66
:100B5800FED7962FFCD7972FFAD700F0000E00018A
:100B6800B76F000EB66F000E776F000E766F09EC48
:100B780000F0CBEF05F0B02906E1B129D8A4C7EF02
:100B880005F0C9EF05F0CBEF05F0B2EF05F0430E25
:100B98000001B519D8A4D3EF05F0D5EF05F02BEF78
:100BA80006F0430EB419D8B4DCEF05F0DEEF05F01B
:100BB8002BEF06F0C50E296E7F0E2A6EEBEC11F0B6
:100BC80029C0B2F02AC0B3F00001B22908E1B32964
:100BD800D8B4F1EF05F0F3EF05F01FEF06F0B2C05F
:100BE800D2F0B3C0D3F0000E0C6E010E0B6E000EE7
:100BF8000E6E000E0D6EBA0E0F6E7F0E106ED0ECDC
:100C080015F01A0E0001976F5E0E966F6E0EE82EA5
:100C1800FED7962FFCD7972FFAD700F0000E0001C9
:100C2800B76F000EB66F000E776F000E766F09EC87
:100C380000F02BEF06F0B22906E1B329D8A427EF7C
:100C480006F029EF06F02BEF06F012EF06F0440E3F
:100C58000001B519D8A433EF06F035EF06F070EFB0
:100C680006F0440EB419D8B43CEF06F03EEF06F097
:100C780070EF06F0000ED76F1E0ED66F000ED56F00
:100C8800320ED46F000ED36F140ED26F000E0C6E9E
:100C9800000E0B6E000E0E6E000E0D6E500E0F6ED7
:100CA8007F0E106ED0EC15F01A0E0001976F5E0ED5
:100CB800966F6E0EE82EFED7962FFCD7972FFAD791
:100CC80000F0000E0001B76F000EB66F000E776FD0
:100CD800000E766F09EC00F05BEC14F060C0AAF02F
:100CE80061C0ABF062C0ACF063C0ADF0BAEC14F018
:100CF80060C0A2F061C0A3F062C0A4F063C0A5F018
:100D080019EC15F060C0A6F061C0A7F062C0A8F0A9
:100D180063C0A9F0D6C00AF0D7C00BF0000E0BBE16
:100D2800FF0E0C6E0D6E010E71EC10F00AC018F07B
:100D38000BC019F00CC01AF00DC01BF0AAC01CF0B3
:100D4800ABC01DF0ACC01EF0ADC01FF000EC13F03E
:100D5800D8A0B1EF06F0B3EF06F0FDEF06F0D4C06F
:100D68000AF0D5C00BF0000E0BBEFF0E0C6E0D6E18
:100D7800010E71EC10F00AC018F00BC019F00CC08D
:100D88001AF00DC01BF0A2C01CF0A3C01DF0A4C037
:100D98001EF0A5C01FF000EC13F0D8A0D6EF06F0A7
:100DA800D8EF06F0FDEF06F0D2C00AF0D3C00BF082
:100DB800000E0BBEFF0E0C6E0D6E010E71EC10F0E6
:100DC8000AC018F00BC019F00CC01AF00DC01BF0C7
:100DD800A6C01CF0A7C01DF0A8C01EF0A9C01FF037
:100DE80000EC13F0D8B0FBEF06F0FDEF06F005EFCE
:100DF80007F0000E0B6E010E0A6E37EC18F00BEFC1
:100E080007F0000E0B6E000E0A6E37EC18F0D6C015
:100E18000AF0D7C00BF0000E0BBEFF0E0C6E0D6E65
:100E2800010E71EC10F00AC018F00BC019F00CC0DC
:100E38001AF00DC01BF0AAC01CF0ABC01DF0ACC06E
:100E48001EF0ADC01FF000EC13F0D8B02EEF07F085
:100E580030EF07F034EF07F0838082846CEF07F0FF
:100E6800AAC018F0ABC019F0ACC01AF0ADC01BF0A6
:100E7800F60E0001966FFF0E976FD6C098F0D7C098
:100E880099F0965198279751992398C00AF099C0DC
:100E98000BF0000E0BBEFF0E0C6E0D6E010E71EC0A
:100EA80010F00AC01CF00BC01DF00CC01EF00DC0E5
:100EB8001FF000EC13F0D8B064EF07F066EF07F00E
:100EC8006AEF07F0839082946CEF07F08390829426
:100ED800D4C00AF0D5C00BF0000E0BBEFF0E0C6E8E
:100EE8000D6E010E71EC10F00AC018F00BC019F06D
:100EF8000CC01AF00DC01BF0A2C01CF0A3C01DF05E
:100F0800A4C01EF0A5C01FF000EC13F0D8B08FEFFE
:100F180007F091EF07F09AEF07F08382000E0B6E4F
:100F2800010E0A6E35EC18F0A1EF07F08392000E5F
:100F38000B6E000E0A6E35EC18F0D2C00AF0D3C062
:100F48000BF0000E0BBEFF0E0C6E0D6E010E71EC59
:100F580010F00AC018F00BC019F00CC01AF00DC040
:100F68001BF0A6C01CF0A7C01DF0A8C01EF0A9C0A9
:100F78001FF000EC13F0D8B0C4EF07F0C6EF07F08D
:100F8800CEEF07F08384000E0B6E0A6836EC18F07B
:100F9800D5EF07F08394000E0B6E000E0A6E36EC48
:100FA80018F0B5C0B4F080EF04F007EF00F00D5072
:100FB800800B166E0D500D24186E0CAEE6EF07F080
:100FC800E8EF07F0E9EF07F018801850D8B4EFEF12
:100FD80007F0F1EF07F006EF08F01828D8A4F7EFAC
:100FE80007F0F9EF07F001EF08F0000E0A6E000EA7
:100FF8000B6E000E0C6E000E0D6E0C8E000E0D6E3C
:101008000EEF08F0000E0A6E000E0B6E000E0C6E4E
:10101800000E0D6E1150800B176E16501718D8B4AD
:1010280018EF08F01AEF08F01BEF08F0168C1150B3
:101038001124176E10AE23EF08F025EF08F026EF05
:1010480008F017801750D8B42CEF08F02EEF08F0EE
:1010580043EF08F01728D8A434EF08F036EF08F06B
:101068003EEF08F0000E0E6E000E0F6E000E106EB2
:10107800000E116E108E000E116E4BEF08F0000E70
:101088000E6E000E0F6E000E106E000E116E1850D0
:10109800175CD8B052EF08F054EF08F07BEF08F077
:1010A80016AC59EF08F05BEF08F05DEF08F0800E22
:1010B800161A18C019F017C018F019C017F00AC08E
:1010C80019F00EC00AF019C00EF00BC019F00FC0CD
:1010D8000BF019C00FF00CC019F010C00CF019C0BB
:1010E80010F00DC019F011C00DF019C011F0000E6C
:1010F800196E185017C012F0136A125E000E135AB8
:1011080013BE90EF08F0135009E11A0E125CD8A034
:1011180090EF08F092EF08F0C9EF08F00A500B10B2
:101128000C100D10D8A49BEF08F09EEF08F0010EEC
:101138009FEF08F0000E196E000E0A6E000E0B6E7F
:10114800000E0C6E000E0D6E17C018F0D2EF08F0EE
:1011580019A0B1EF08F0B3EF08F0B9EF08F0D89094
:1011680019300109196EBBEF08F0D89019320AA09E
:10117800C0EF08F0C2EF08F0C3EF08F0198E0D3485
:101188000D320C320B320A32182A1750185CD8A0CC
:10119800D0EF08F0D2EF08F0ACEF08F016BCD7EFAC
:1011A80008F0D9EF08F019EF09F01850D8A4DFEFCC
:1011B80008F0E1EF08F0EBEF08F0000E0A6E000E01
:1011C8000B6E000E0C6E000E0D6E3AEF0AF00E500C
:1011D8000A260F500B2210500C2211500D220DA080
:1011E800F8EF08F0FAEF08F0A6EF09F019A0FFEF02
:1011F80008F001EF09F007EF09F0D890193001095C
:10120800196E09EF09F0D89019320AA00EEF09F00B
:1012180010EF09F011EF09F0198E0D340D320C3270
:101228000B320A32182AA6EF09F00E500A5C0F504A
:101238000B5810500C580D50800A126E1150800A2D
:101248001258D8B02AEF09F02CEF09F057EF09F03F
:101258000A500E5C126E0B500F58136E0C5010583B
:10126800146E0D501158156EFF0E12240A6EFF0EE3
:1012780013200B6EFF0E14200C6EFF0E15200D6E42
:10128800800E161A196C1950D8A44DEF09F04FEFBB
:1012980009F05FEF09F0010E0A26000E0B220C225E
:1012A8000D225FEF09F00E500A5E0F500B5A1050D6
:1012B8000C5A11500D5A0A500B100C100D10D8A4CE
:1012C80068EF09F06AEF09F09FEF09F01950D8A408
:1012D80070EF09F072EF09F09FEF09F0000E0A6E47
:1012E800000E0B6E000E0C6E000E0D6E3AEF0AF03B
:1012F800D8900A360B360C360D3619AE86EF09F043
:1013080088EF09F089EF09F00A8019A08EEF09F03B
:1013180090EF09F094EF09F0D880193696EF09F0AC
:10132800D89019361850D8B49CEF09F09EEF09F000
:101338009FEF09F018060CAEA4EF09F0A6EF09F02C
:101348007CEF09F0000E176E19AEADEF09F0AFEFA4
:1013580009F0C7EF09F019C012F07F0E1216D8B4C1
:10136800B8EF09F0BAEF09F0BEEF09F0010E176EF9
:10137800C7EF09F00AA0C3EF09F0C5EF09F0C7EFFE
:1013880009F0BAEF09F01750D8B4CDEF09F0CFEF54
:1013980009F0FAEF09F0010E0A26000E0B220C22C2
:1013A8000D220DA0DAEF09F0DCEF09F0FAEF09F0F1
:1013B8000AC012F00BC013F00CC014F00DC015F0E9
:1013C8001534153214321332123212C00AF013C017
:1013D8000BF014C00CF015C00DF01828D8B4F7EFB6
:1013E80009F0F9EF09F0FAEF09F0182A1828D8B42B
:1013F80000EF0AF002EF0AF00AEF0AF01850D8A43A
:1014080008EF0AF00AEF0AF01CEF0AF0000E0A6E65
:10141800000E0B6E000E0C6E000E0D6E1850D8A448
:1014280018EF0AF01AEF0AF01CEF0AF0000E166E19
:1014380018A021EF0AF023EF0AF026EF0AF00C8E2D
:1014480027EF0AF00C9ED89018300D6E16AE2FEFCD
:101458000AF031EF0AF032EF0AF00D8E0AC00AF0F6
:101468000BC00BF00CC00CF00DC00DF012001B509F
:10147800800B246E1B501B242A6E1AAE46EF0AF00E
:1014880048EF0AF049EF0AF02A802A50D8B44FEF03
:101498000AF051EF0AF064EF0AF02A28D8A457EFAF
:1014A8000AF059EF0AF061EF0AF0000E186E000E0C
:1014B800196E000E1A6E000E1B6E1A8E6CEF0AF073
:1014C800000E186E000E196E000E1A6E000E1B6EBE
:1014D8001F50800B241A1F501F24256E1EAE77EF55
:1014E8000AF079EF0AF07AEF0AF025802550D8B48F
:1014F80080EF0AF082EF0AF095EF0AF02528D8A4C9
:1015080088EF0AF08AEF0AF092EF0AF0000E1C6EDC
:10151800000E1D6E000E1E6E000E1F6E1E8E9DEFBD
:101528000AF0000E1C6E000E1D6E000E1E6E000EE0
:101538001F6E2550D8B4A3EF0AF0A5EF0AF0ADEF5F
:101548000AF02A50D8A4ABEF0AF0ADEF0AF0B7EFD3
:101558000AF0000E186E000E196E000E1A6E000EBC
:101568001B6E4FEF0CF01E501802F3CF2FF0F4CF84
:1015780030F02F50266E276A286A296A30502B6E61
:101588002C6A2D6A2E6A1D501902F3CF2FF0F4CF62
:1015980030F02F502626000E2722282229223050EC
:1015A8002B26000E2C222D222E221C501A02F3CF9D
:1015B8002FF0F4CF30F02F502626000E27222822B5
:1015C800292230502B26000E2C222D222E2228C014
:1015D80029F027C028F026C027F0266A1C501902D7
:1015E800F3CF2FF0F4CF30F02F502626305027229B
:1015F800000E2822000E29221D501802F3CF2FF0CA
:10160800F4CF30F02F50262630502722000E282203
:10161800000E292228C029F027C028F026C027F06C
:10162800266A1C501802F3CF2FF0F4CF30F02F5059
:10163800262630502722000E2822000E29221E506E
:101648001902F3CF2FF0F4CF30F02F502B26305063
:101658002C22000E2D22000E2E221D501A02F3CF2E
:101668002FF0F4CF30F02F502B2630502C22000EC4
:101678002D22000E2E221E501A02F3CF2FF0F4CF87
:1016880030F02F50206E3050216E226A236A22C01B
:1016980023F021C022F020C021F0206A20502B2600
:1016A80021502C2222502D2223502E2226C020F0F9
:1016B80027C021F028C022F029C023F0190E6AEFB4
:1016C8000BF0D8902332223221322032E82E65EFF7
:1016D8000BF020502B2621502C2222502D22235053
:1016E8002E2228C029F027C028F026C027F0266A15
:1016F80025502AC020F0216A2026000E2122820EC1
:1017080020242F6EFF0E2120306EA0EF0BF0D89012
:101718002B362C362D362E3629AE95EF0BF097EF5B
:101728000BF098EF0BF02B80D8902636273628360A
:1017380029362F06D8A030062DAEA5EF0BF0A7EF5F
:101748000BF08BEF0BF0000E256E29AEAEEF0BF011
:10175800B0EF0BF0D4EF0BF0FF0E2614206EFF0E47
:101768002714216EFF0E2814226E7F0E2914236E73
:101778002050211022102310D8B4C5EF0BF0C7EF6A
:101788000BF0CBEF0BF0010E256ED4EF0BF02BA076
:10179800D0EF0BF0D2EF0BF0D4EF0BF0C7EF0BF05C
:1017A8002550D8B4DAEF0BF0DCEF0BF000EF0CF0BB
:1017B800010E2B26000E2C222D222E222EA0E7EF22
:1017C8000BF0E9EF0BF000EF0CF02BC020F02CC071
:1017D80021F02DC022F02EC023F0233423322232F0
:1017E8002132203220C02BF021C02CF022C02DF055
:1017F80023C02EF02F4A302A30BE0BEF0CF03050A9
:1018080008E12F28D8A00BEF0CF00DEF0CF017EF24
:101818000CF0000E2B6E000E2C6E800E2D6E7F0EBF
:101828002E6E45EF0CF030BE24EF0CF0305006E180
:101838002F04D8B022EF0CF024EF0CF030EF0CF0AE
:10184800000E2B6E000E2C6E000E2D6E000E2E6EEE
:10185800000E246E45EF0CF02FC02AF0FF0E2B1659
:10186800FF0E2C167F0E2D16000E2E162AA03FEF07
:101878000CF041EF0CF042EF0CF02D8ED8902A308E
:101888002E6E24502E122BC018F02CC019F02DC02B
:101898001AF02EC01BF012003450800B416E3450E9
:1018A8003424486E33AE5BEF0CF05DEF0CF05EEF66
:1018B8000CF048804850D8B464EF0CF066EF0CF098
:1018C8007BEF0CF04828D8A46CEF0CF06EEF0CF00E
:1018D80076EF0CF0000E316E000E326E000E336E95
:1018E800000E346E338E000E346E83EF0CF0000E53
:1018F800316E000E326E000E336E000E346E3850AC
:10190800800B411A38503824496E37AE8EEF0CF0F0
:1019180090EF0CF091EF0CF049804950D8B497EF54
:101928000CF099EF0CF0AEEF0CF04928D8A49FEF1B
:101938000CF0A1EF0CF0A9EF0CF0000E356E000EC4
:10194800366E000E376E000E386E378E000E386E0B
:10195800B6EF0CF0000E356E000E366E000E376EC8
:10196800000E386E3550361037103810D8A4BFEF37
:101978000CF0C1EF0CF0D9EF0CF0000E316E000E38
:10198800326E000E336E000E346E800E33127F0EF0
:1019980034124150341231C031F032C032F033C009
:1019A80033F034C034F01CEF0EF04850D8A4DFEF09
:1019B8000CF0E1EF0CF0EBEF0CF0000E316E000EC6
:1019C800326E000E336E000E346E1CEF0EF049506E
:1019D80048C039F03A6A395E000E3A5A7F0E392407
:1019E800426E000E3A20436E31C03DF032C03EF0E8
:1019F80033C03FF034C040F0000E316E000E326E3E
:101A0800000E336E000E346E000E446E000E456EEE
:101A1800000E466E000E476E000E496E4CEF0DF03C
:101A28004950D8B41AEF0DF01CEF0DF033EF0DF05C
:101A3800D8903D363E363F364036D890313632362D
:101A48003336343647AE2BEF0DF02DEF0DF02EEF79
:101A58000DF03180D89044364536463647363550F5
:101A68003D5C36503E5837503F5838504058D8A003
:101A780040EF0DF042EF0DF04BEF0DF0478C355075
:101A88003D5E36503E5A37503F5A3850405A492AE0
:101A9800190E496452EF0DF054EF0DF014EF0DF0EC
:101AA8003D503E103F104010D8B45DEF0DF05FEF91
:101AB8000DF077EF0DF0448077EF0DF0D8903136C8
:101AC80032363336343647AE6CEF0DF06EEF0DF02C
:101AD8006FEF0DF03180D89044364536463647369C
:101AE8004206D8A0430633AE7CEF0DF07EEF0DF032
:101AF80062EF0DF0000E496E47AE85EF0DF087EFEF
:101B08000DF0ABEF0DF0FF0E4414396EFF0E4514C7
:101B18003A6EFF0E46143B6E7F0E47143C6E3950EA
:101B28003A103B103C10D8B49CEF0DF09EEF0DF02E
:101B3800A2EF0DF0010E496EABEF0DF031A0A7EF4B
:101B48000DF0A9EF0DF0ABEF0DF09EEF0DF0495041
:101B5800D8B4B1EF0DF0B3EF0DF0D7EF0DF0010EE3
:101B68003126000E32223322342234A0BEEF0DF08B
:101B7800C0EF0DF0D7EF0DF031C039F032C03AF0B8
:101B880033C03BF034C03CF03C343C323B323A3258
:101B9800393239C031F03AC032F03BC033F03CC082
:101BA80034F0424A432A43BEE2EF0DF0435008E1C5
:101BB8004228D8A0E2EF0DF0E4EF0DF0EFEF0DF0C2
:101BC800000E436E4268000E316E000E326E000E3B
:101BD800336E000E346E43BEFCEF0DF0435006E149
:101BE8004204D8B0FAEF0DF0FCEF0DF00AEF0EF05A
:101BF800000E436E000E426E000E316E000E326E05
:101C0800000E336E000E346E000E416E42C048F076
:101C180048A011EF0EF013EF0EF016EF0EF0338E12
:101C280017EF0EF0339ED8904830346ECDEF0CF09D
:101C38001200000E0001756F000E746F34BE29EF9C
:101C48000EF027EF0EF043EF0EF035C0D9FF36C087
:101C5800DAFF2D0EDF6E354A362A31C00AF032C05F
:101C68000BF033C00CF034C00DF0C8EC17F00AC00C
:101C780031F00BC032F00CC033F00DC034F031C07D
:101C88000AF032C00BF033C00CF034C00DF07DEC1C
:101C980012F00AC06EF00BC06FF031C01AF032C0FB
:101CA8001BF033C01CF034C01DF06EC00AF06FC0CA
:101CB8000BF0000E0BBEFF0E0C6E0D6E010E71ECDC
:101CC80010F00AC01EF00BC01FF00CC020F00DC0B1
:101CD80021F001EC17F01AC031F01BC032F01CC023
:101CE80033F01DC034F000016E516F11D8A47FEF9E
:101CF8000EF081EF0EF087EF0EF0300E606F744B30
:101D0800752BC1EF0EF06EC070F06FC071F0000E51
:101D1800756F000E746F600E7425D96E000E7521F4
:101D2800DA6E70C00AF071C00BF0000E0D6E0A0E6C
:101D38000C6E78EC15F00A50300FDF6E0001744B12
:101D4800752B70C00AF071C00BF0000E0D6E0A0EF4
:101D58000C6EF9EC13F00AC070F00BC071F00001C2
:101D680071BFC1EF0EF0715106E17005D8B0BFEF39
:101D78000EF0C1EF0EF08FEF0EF0000E736F000E35
:101D8800726FE3EF0EF0600E396E000E3A6E72510C
:101D9800395E73513A5A7451392675513A22FF0EF9
:101DA8003924D96EFF0E3A20DA6E72513524E16E6D
:101DB80073513620E26EDFCFE7FF724B732B7451FD
:101DC800725D7351800A396E7551800A3958D8A0EE
:101DD800F0EF0EF0F2EF0EF0C7EF0EF0745135266B
:101DE8007551362235C0D9FF36C0DAFF2E0EDF6EA8
:101DF800354A362A000E736F000E726F5FEF0FF0D0
:101E080031C018F032C019F033C01AF034C01BF0DA
:101E1800000E1C6E000E1D6E200E1E6E410E1F6EF3
:101E28003BEC0AF018C031F019C032F01AC033F098
:101E38001BC034F031C00AF032C00BF033C00CF0D4
:101E480034C00DF07DEC12F00AC06CF00BC06DF0E0
:101E580000016C51300F35C0D9FF36C0DAFFDF6E94
:101E6800354A362A31C01AF032C01BF033C01CF094
:101E780034C01DF06CC00AF06DC00BF0000E0BBE34
:101E8800FF0E0C6E0D6E010E71EC10F00AC01EF004
:101E98000BC01FF00CC020F00DC021F001EC17F0B2
:101EA8001AC031F01BC032F01CC033F01DC034F032
:101EB8000001724B732B3750725D7351800A396E73
:101EC8003850800A3958D8A06CEF0FF06EEF0FF039
:101ED80004EF0FF035C0D9FF36C0DAFF000EDF6E11
:101EE8001200070EF66E7F0EF76E20EE18F0070E42
:101EF8000900F5CFDEFFE806FBE2E4EC17F00AC0C4
:101F080020F00BC021F00CC022F00DC023F0000E11
:101F1800256E000E246E25BE9BEF0FF0255009E1BB
:101F2800040E245CD8A09BEF0FF09DEF0FF09FEFFD
:101F38000FF069EF10F024C012F0010E136E122A90
:101F4800A8EF0FF0D8901336122EA6EF0FF013500B
:101F5800FF0A8A6E210E126E760EE82EFED7122E1A
:101F6800FCD700D0000E276E000E266E26C012F099
:101F7800040E1226010E136E122AC5EF0FF0D89028
:101F88001336122EC3EF0FF0135081140009D8A492
:101F9800D0EF0FF0D2EF0FF055EF10F0D8902434B7
:101FA800D96E2534DA6E180ED926000EDA22DECF65
:101FB80012F0DDCF13F026C014F027C015F0D8902A
:101FC80014361536D89014361536F70E166E7E0E62
:101FD800176E145016261550172212501626135035
:101FE800172216C0F6FF17C0F7FF0800F5CF28F034
:101FF80054502818D8B403EF10F005EF10F00FEF85
:1020080010F020C0C7F021C0C8F022C0C9F023C01A
:10201800CAF028C054F00001C751205C126EC851A4
:102028002158136EC9512258146ECA512358156E7F
:1020380015501410131009E1330E125CD8A027EFC5
:1020480010F029EF10F052EF10F0C351205C126E1F
:10205800C4512158136EC5512258146EC6512358C5
:10206800156E155014100BE12D0E125C010E13584D
:10207800D8A041EF10F043EF10F052EF10F020C05D
:10208800C3F021C0C4F022C0C5F023C0C6F028C0E8
:10209800B9F028C0B8F0285070EF10F0000E70EFBB
:1020A80010F0264A272A27BE63EF10F0275009E1CF
:1020B800040E265CD8A063EF10F065EF10F0BAEFBD
:1020C8000FF0244A252A8FEF0FF0000E0001B86F99
:1020D800000E546E52EF10F01200126E1250D8B467
:1020E80078EF10F07AEF10F09CEF10F00DBE81EF52
:1020F80010F07FEF10F09CEF10F00AC00EF00BC04C
:102108000FF00CC010F00DC011F00E1E0F1E101EA7
:10211800111E0E2A000E0F22102211220EC014F0DA
:102128000FC015F010C016F011C017F0A4EF10F092
:102138000AC014F00BC015F00CC016F00DC017F053
:102148000A500B100C100D10D8A4ADEF10F0AFEF23
:1021580010F0B9EF10F0000E0A6E000E0B6E000EB4
:102168000C6E000E0D6E4AEF11F0960E136EC3EF53
:1021780010F0132AD8901732163215321432000E86
:1021880014140E6E000E15140F6E000E1614106E39
:10219800FE0E1714116E0E500F1010101110D8A447
:1021A800D8EF10F0DAEF10F0BDEF10F0E8EF10F014
:1021B800132A010E1426000E152216221722D89073
:1021C8001732163215321432000E14140E6E000E29
:1021D80015140F6E000E1614106EFF0E1714116EE4
:1021E8000E500F1010101110D8A4FDEF10F0FFEFD3
:1021F80010F0DCEF10F007EF11F01306D89014364A
:1022080015361636173616BE0CEF11F00EEF11F014
:1022180016EF11F0020E136014EF11F016EF11F023
:1022280001EF11F013B01BEF11F01DEF11F01EEFCD
:1022380011F0169ED890133213C00EF00F6A106A70
:10224800116A0EC011F0106A0F6A0E6A0E5014124D
:102258000F50151210501612115017121250D8B4F0
:1022680038EF11F03AEF11F042EF11F00DBE41EFE7
:1022780011F03FEF11F042EF11F0178E14C00AF081
:1022880015C00BF016C00CF017C00DF01200000EB0
:10229800176E000E166E14501510D8A456EF11F0D4
:1022A80058EF11F05AEF11F0EAEF11F01250131035
:1022B800D8A461EF11F063EF11F073EF11F014C0BF
:1022C800D9FF15C0DAFF300EDF6E20EE01F0145092
:1022D800D9261550DA22000EDF6EEAEF11F013BE90
:1022E8007AEF11F078EF11F088EF11F0126C131EED
:1022F800D8B0132A14C0D9FF15C0DAFF2D0EDF6E2F
:10230800144A152A164A172A12C018F013C019F0D1
:102318009EEF11F018C00AF019C00BF0000E0D6EF8
:102328000A0E0C6EF9EC13F00AC018F00BC019F085
:10233800164A172A19BEABEF11F0195006E1180416
:10234800D8B0A9EF11F0ABEF11F08EEF11F01650E5
:102358001424D96E17501520DA6E000EDF6E12C0E5
:1023680018F013C019F0DDEF11F01606D8A0170603
:1023780016501424D96E17501520DA6E18C00AF0BA
:1023880019C00BF0000E0D6E0A0E0C6E78EC15F0ED
:102398000A50300FDF6E18C00AF019C00BF0000E9B
:1023A8000D6E0A0E0C6EF9EC13F00AC018F00BC093
:1023B80019F019BEEAEF11F0195006E11804D8B067
:1023C800E8EF11F0EAEF11F0B9EF11F01200000E8A
:1023D8002D6E000E2E6E000E2F6E000E316E000E4A
:1023E800306E010EA9EC17F00D0E2B6EFC0EE82EC8
:1023F800FED72B2EFCD7020EA9EC17F00D0E2B6E74
:10240800FC0EE82EFED72B2EFCD7000E0C6E000E0D
:102418000B6E000E0E6E000E0D6E29C00FF02AC056
:1024280010F0D0EC15F05EEF12F075EC0FF0326E94
:102438002F0E326422EF12F024EF12F051EF12F057
:102448003A0E32602AEF12F02CEF12F051EF12F030
:102458002D0E3024D96E000E3120DA6E32C0DFFF27
:10246800000E0C6E010E0B6E30C00DF031C00EF078
:102478002D0E30240F6E000E3120106ED0EC15F0AA
:10248800304A312A060E2C6E130E2B6EAE0EE82E35
:10249800FED72B2EFCD72C2EFAD7460E3218D8A4EE
:1024A80058EF12F05AEF12F05EEF12F029682A681E
:1024B8007CEF12F031BE6AEF12F0315009E1020EE2
:1024C800305CD8A06AEF12F06CEF12F019EF12F03E
:1024D8002D500A0DF3CF2BF0F4CF2CF02E502B26D5
:1024E800000E2C22F00E2B24296EFD0E2C202A6EB5
:1024F80012000C340D34136E1350D8A486EF12F06A
:1025080088EF12F092EF12F0000E0A6E000E0B6EBA
:10251800000E0C6E000E0D6EFFEF12F00AC00EF0EA
:102528000BC00FF00CC010F00DC011F0200EA2EF80
:1025380012F0D890113210320F320E32E82E9DEF81
:1025480012F00E50126E0C8EFF0E0A16FF0E0B16AE
:10255800FF0E0C16000E0D16960E135E13BEB9EF85
:1025680012F0B7EF12F0CFEF12F01350800A970F66
:10257800D8B0C1EF12F0C3EF12F0C5EF12F088EF38
:1025880012F0D8900D320C320B320A32133EC5EFDE
:1025980012F0E7EF12F01F0E1364D5EF12F0D7EF29
:1025A80012F0DFEF12F088EF12F0D8900A360B36EF
:1025B8000C360D3613061350D8A4E5EF12F0E7EFEA
:1025C80012F0D9EF12F01250D8B4EDEF12F0EFEF8D
:1025D80012F0F7EF12F00D1E0C1E0B1E0A6C000E07
:1025E8000B220C220D220AC00AF00BC00BF00CC003
:1025F8000CF00DC00DF01200000E1814206E000E25
:102608001914216E800E1A14226E7F0E1B14236E6D
:102618002050211022102310D8A415EF13F017EF23
:1026280013F01FEF13F0000E186E000E196E000E57
:102638001A6E000E1B6E000E1C14206E000E1D1468
:10264800216E800E1E14226E7F0E1F14236E2050E2
:10265800211022102310D8A434EF13F036EF13F012
:102668003EEF13F0000E1C6E000E1D6E000E1E6E67
:10267800000E1F6E1BAE43EF13F045EF13F04EEF45
:1026880013F0186C191ED8B0192A1A1ED8B01A2AB5
:10269800800E1B561FAE53EF13F055EF13F05EEF8D
:1026A80013F01C6C1D1ED8B01D2A1E1ED8B01E2A81
:1026B800800E1F56000E181A000E191A000E1A1A4C
:1026C800800E1B1A000E1C1A000E1D1A000E1E1A70
:1026D800800E1F1A1C50185C1D5019581E501A588D
:1026E8001F501B58D8B07BEF13F07DEF13F080EF2D
:1026F80013F0D89081EF13F0D88012000B6E0F0EF4
:1027080083160F0E95169694969096928D948D90AA
:102718008D9219EC18F0300EA9EC17F010EC18F0A7
:1027280010EC18F0300EA9EC17F010EC18F010ECC3
:1027380018F0320EA9EC17F047EC17F00009D8A4EE
:10274800A8EF13F0AAEF13F0A0EF13F047EC17F07F
:102758000009D8A4B2EF13F0B4EF13F0AAEF13F006
:102768000B50A9EC17F047EC17F00009D8A4BFEFFD
:1027780013F0C1EF13F0B7EF13F0080EA9EC17F040
:1027880047EC17F00009D8A4CCEF13F0CEEF13F004
:10279800C4EF13F00F0EA9EC17F047EC17F000097F
:1027A800D8A4D9EF13F0DBEF13F0D1EF13F0010E3B
:1027B800A9EC17F047EC17F00009D8A4E6EF13F0DE
:1027C800E8EF13F0DEEF13F0040EA9EC17F047EC76
:1027D80017F00009D8A4F3EF13F0F5EF13F0EBEFBF
:1027E80013F0800E6AEC17F01200000E0F6E0DBE8B
:1027F80002EF14F000EF14F008EF14F00C6C0D1E4B
:10280800D8B00D2A010E0F6E0BBE0FEF14F00DEFAE
:1028180014F015EF14F00A6C0B1ED8B00B2A010E39
:102828000F1A000E116E000E106E0C500D10D8B459
:1028380020EF14F022EF14F04AEF14F0010E0E6EA0
:102848002AEF14F0D8900C360D360E2A0DAE2FEF65
:1028580014F031EF14F026EF14F0D890103611363A
:102868000C500A5C0D500B58D8A03DEF14F03FEF08
:1028780014F044EF14F00C500A5E0D500B5A1080FF
:10288800D8900D320C320E2E31EF14F00F50D8B410
:1028980050EF14F052EF14F056EF14F0106C111EB4
:1028A800D8B0112A10C00AF011C00BF01200000EA7
:1028B800A7EC16F00AC06CF00BC06DF0000E356E78
:1028C800C00E366E7F0E376E440E386E000E1C6ECC
:1028D800000E1D6EA00E1E6E400E1F6E6CC00AF01C
:1028E8006DC00BF00C6A0D6A000E71EC10F00AC096
:1028F80018F00BC019F00CC01AF00DC01BF03BEC1F
:102908000AF018C031F019C032F01AC033F01BC0F9
:1029180034F050EC0CF031C068F032C069F033C0CC
:102928006AF034C06BF068C031F069C032F06AC038
:1029380033F06BC034F00A0E356ED70E366E230EA8
:10294800376E3C0E386E50EC0CF031C064F032C07B
:1029580065F033C066F034C067F064C060F065C0ED
:1029680061F066C062F067C063F01200030EA7EC66
:1029780016F00AC06CF00BC06DF0000E356EC00E7C
:10298800366E7F0E376E440E386E000E1C6E000ECB
:102998001D6EA00E1E6E400E1F6E6CC00AF06DC03C
:1029A8000BF00C6A0D6A000E71EC10F00AC018F0FA
:1029B8000BC019F00CC01AF00DC01BF03BEC0AF06C
:1029C80018C031F019C032F01AC033F01BC034F00F
:1029D80050EC0CF031C068F032C069F033C06AF0D6
:1029E80034C06BF068C018F069C019F06AC01AF0FA
:1029F8006BC01BF0000E1C6E000E1D6EA00E1E6E2E
:102A0800410E1F6E3BEC0AF018C064F019C065F067
:102A18001AC066F01BC067F064C060F065C061F062
:102A280066C062F067C063F01200020EA7EC16F0F1
:102A38000AC06CF00BC06DF0000E356EC00E366E1D
:102A48007F0E376E440E386E000E1C6E000E1D6E23
:102A5800A00E1E6E400E1F6E6CC00AF06DC00BF00B
:102A68000C6A0D6A000E71EC10F00AC018F00BC069
:102A780019F00CC01AF00DC01BF03BEC0AF018C09E
:102A880031F019C032F01AC033F01BC034F050ECEA
:102A98000CF031C068F032C069F033C06AF034C05D
:102AA8006BF068C018F069C019F06AC01AF06BC002
:102AB8001BF0000E1C6E000E1D6EA00E1E6E410E49
:102AC8001F6E3BEC0AF018C064F019C065F01AC01C
:102AD80066F01BC067F064C060F065C061F066C056
:102AE80062F067C063F01200000E0F6E0BBE81EF3C
:102AF80015F07FEF15F087EF15F00A6C0B1ED8B0B4
:102B08000B2A010E0F6E0DBE8EEF15F08CEF15F02F
:102B180092EF15F00C6C0D1ED8B00D2A0C500D104C
:102B2800D8B499EF15F09BEF15F0BFEF15F0010E33
:102B38000E6EA3EF15F0D8900C360D360E2A0DAE9A
:102B4800A8EF15F0AAEF15F09FEF15F00C500A5CEE
:102B58000D500B58D8A0B3EF15F0B5EF15F0B9EF3D
:102B680015F00C500A5E0D500B5AD8900D320C32ED
:102B78000E2EAAEF15F00F50D8B4C5EF15F0C7EF19
:102B880015F0CBEF15F00A6C0B1ED8B00B2A0AC053
:102B98000AF00BC00BF012000B500C10D8B4D7EF92
:102BA80015F0D9EF15F0DFEF15F0000E146EC00E1A
:102BB800136EE3EF15F0000E146E800E136E0D50B9
:102BC8001324116E0E501420126E1150A9EC17F038
:102BD80002EF16F00FC0F6FF10C0F7FFF86A070EF5
:102BE800F76403D00800F55005D0F6CFE1FFF7CF22
:102BF800E2FFE7508AEC17F00F4A102A0FC0F6FFE1
:102C080010C0F7FFF86A070EF76403D00800F55004
:102C180005D0F6CFE1FFF7CFE2FFE7500009D8A4CF
:102C280018EF16F01AEF16F0EEEF15F01200060086
:102C3800F2A421EF16F023EF16F061EF16F0640E00
:102C4800D66E010E4A26000E4B224C224D224AC057
:102C580001F04BC002F04CC003F04DC004F0E80E88
:102C6800056E030E066E000E076E000E086E63EC0E
:102C780016F00150021003100410D8A446EF16F005
:102C880048EF16F060EF16F053BE54EF16F05350AD
:102C980009E1020E525CD8A054EF16F056EF16F078
:102CA8005CEF16F0000E536E000E526E60EF16F0D9
:102CB800000E536E010E526EF2945592110005509B
:102CC800061007100810D8B46CEF16F06EEF16F067
:102CD8009EEF16F0010E096E78EF16F0D8900536C3
:102CE800063607360836092A08AE7DEF16F07FEF5C
:102CF80016F072EF16F00550015C065002580750A6
:102D0800035808500458D8A08CEF16F08EEF16F030
:102D180096EF16F00550015E0650025A0750035A06
:102D28000850045AD8900832073206320532092E64
:102D38007FEF16F001C001F002C002F003C003F0FB
:102D480004C004F01200106E0C0E1064AEEF16F002
:102D5800B0EF16F0B6EF16F0000E0B6E000E0A6E0E
:102D6800DDEF16F010C00CF00C460C46C2500C18E3
:102D7800C30B0C18C26E0D0E0C6EFC0EE82EFED79F
:102D88000C2EFCD7C282C2B2CCEF16F0CEEF16F0F2
:102D9800C7EF16F0C350C4CF0CF00D6A0CC00DF08D
:102DA8000C6A0C100E6E0D500F6E0EC00AF00FC09C
:102DB8000BF01200640EF66E300EF76E000EF86E11
:102DC80000EED2F010EE06F00900F5CFEEFFE55068
:102DD800E150FAE100EEB8F01A0EEE6AE806FDE1FD
:102DE80000EE4AF00B0EEE6AE806FDE155905592AA
:102DF800000EF86E000164EF04F0000E1E1A000EBB
:102E08001F1A000E201A800E211A1AC00AF01BC0C1
:102E18000BF01CC00CF01DC00DF01EC00EF01FC042
:102E28000FF020C010F021C011F0DBEC07F00AC051
:102E38001AF00BC01BF00CC01CF00DC01DF01200E6
:102E4800280E82EC13F0010EA9EC17F0410E0C6E5F
:102E5800EE0EE82EFED70C2EFCD700D0020EA9EC01
:102E680017F00D0E0C6EFC0EE82EFED70C2EFCD7BC
:102E78000C0EA9EC17F00D0E0C6EFC0EE82EFED70A
:102E88000C2EFCD712008D848D902DEC18F08D82BD
:102E98002DEC18F083AE53EF17F055EF17F060EFF5
:102EA80017F08D922DEC18F08D822DEC18F08D9284
:102EB8008D94010E69EF17F08D922DEC18F08D822C
:102EC8002DEC18F08D928D94000E12000A6E0F0EE4
:102ED80095160F0E83160A508009F00B83128D94F5
:102EE8008D902DEC18F08D822DEC18F08D920F0E30
:102EF80083160A38F00BF00B83122DEC18F08D8234
:102F08002DEC18F08D92F00E951212000A6E0F0E2D
:102F180095160F0E83160A50F00B83128D808D9430
:102F28002DEC18F08D822DEC18F08D920F0E831673
:102F38000A38F00BF00B83122DEC18F08D822DEC73
:102F480018F08D92F00E951212000A6E0F0E95165B
:102F58000F0E83160A50F00B83128D948D902DEC72
:102F680018F08D822DEC18F08D920F0E83160A380A
:102F7800F00BF00B83122DEC18F08D822DEC18F06D
:102F88008D92F00E951212000A500B100C100D10B5
:102F9800D8B4D1EF17F0D3EF17F0DBEF17F0000E2E
:102FA8000A1A000E0B1A000E0C1A800E0D1A0AC00F
:102FB8000AF00BC00BF00CC00CF00DC00DF01200A5
:102FC800F29E4AC00EF04BC00FF04CC010F04DC03E
:102FD80011F0F28E0EC00AF00FC00BF010C00CF00A
:102FE80011C00DF01200F00E936E928692809284BA
:102FF80095909592949294948390839283948292DC
:1030080082941200D08EF28EF28CF184F28AF294BD
:10301800F190F296F2901200210E0A6E760EE82ECA
:10302800FED70A2EFCD700D01200620E0A6E660E7A
:10303800E82EFED70A2EFCD71200C40ED56E640EF9
:10304800D66EF29412000B0EC16E950EC06EC28041
:103058001200210EE82EFED700F0120014003200F4
:083068001E001200120012000C
:107EF600003132334134353642373839434630451E
:107F060044030002000100000048756D696469665B
:107F1600696361646F72204F4E00485F6C696D2023
:107F260065786365646964612100545F6C696D20DE
:107F360065786365646964612100475F6C696D20DB
:107F4600657863656469646F21004C696D207265AC
:107F560073657461646F7321004D656E7520496E9B
:107F660076C3A16C69646F00526573667269616459
:107F76006F72204F4E0048756D69642053616C76B0
:107F86006F21004C696D6974652054656D703A0007
:107F960054656D702053616C766121004C696D6982
:107FA60074652048756D3A004578617573746F7213
:107FB600204F4E004761732053616C766F21004C51
:107FC600696D697465204761730053697374656DE3
:107FD60061733A004C656974757261730048756D1A
:107FE60069643A004C696D3A004761733A007070F3
:0A7FF6006D004F4B00250043000012
:020000040020DA
:08000000FFFFFFFFFFFFFFFF00
:020000040030CA
:0E000000000C191EFF8080FF0FC00FE00F40A4
:00000001FF
