:020000040000FA
:0400000007EF00F016
:100008005682E5ED15F0A8EF16F0AEEC17F00AC031
:1000180086F00BC087F00CC088F00DC089F0000195
:10002800CB51865D786FCC518759796FCD518859FE
:100038007A6FCE5189597B6F7B517A1109E1F40EA1
:10004800785D010E7959D8B02CEF00F02EEF00F052
:1000580032EF00F063EF04F063EF04F086C0CBF0FA
:1000680087C0CCF088C0CDF089C0CEF0010E73EC0B
:1000780017F00D0E0001786FFB0EE82EFED7782FD3
:10008800FCD700D025EC14F060C08AF061C08BF07A
:1000980062C08CF063C08DF084EC14F060C08EF008
:1000A80061C08FF062C090F063C091F0E3EC14F08F
:1000B80060C092F061C093F062C094F063C095F0A4
:1000C80040EF04F0000E0C6E000E0B6E000E0E6E6C
:1000D800000E0D6E8F0E0F6E7F0E106E9AEC15F0DF
:1000E8008AC031F08BC032F08CC033F08DC034F050
:1000F8007C0E356E000E366E000E386E010E376EB1
:10010800E7EC0DF0000E0C6E000E0B6E000E0E6E7E
:10011800060E0D6E7C0E0F6E000E106E9AEC15F02A
:10012800000E0C6E000E0B6E000E0E6E0B0E0D6E9A
:10013800FC0E0F6E7F0E106E9AEC15F0000E0C6E12
:10014800010E0B6E000E0E6E000E0D6EE90E0F6E98
:100158007F0E106E9AEC15F0D6C012F0D7C013F0CF
:100168007C0E146E000E156E15EC11F0000E0C6E60
:10017800010E0B6E000E0E6E040E0D6E7C0E0F6ED1
:10018800000E106E9AEC15F063EF04F0000E0C6E82
:10019800000E0B6E000E0E6E000E0D6EE20E0F6E50
:1001A8007F0E106E9AEC15F08EC031F08FC032F0D1
:1001B80090C033F091C034F07C0E356E000E366E70
:1001C800000E386E010E376EE7EC0DF0000E0C6E67
:1001D800000E0B6E000E0E6E070E0D6E7C0E0F6E6F
:1001E800000E106E9AEC15F0000E0C6E000E0B6EE1
:1001F800000E0E6E0C0E0D6EFA0E0F6E7F0E106E48
:100208009AEC15F0000E0C6E010E0B6E000E0E6EC1
:10021800000E0D6EE90E0F6E7F0E106E9AEC15F043
:10022800D4C012F0D5C013F07C0E146E000E156EFB
:1002380015EC11F0BAEF00F0000E0C6E000E0B6E0C
:10024800000E0E6E000E0D6EEE0E0F6E7F0E106E0F
:100258009AEC15F092C031F093C032F094C033F0AC
:1002680095C034F07C0E356E000E366E000E386E7A
:10027800010E376EE7EC0DF0000E0C6E000E0B6EE3
:10028800000E0E6E050E0D6E7C0E0F6E000E106EBB
:100298009AEC15F0000E0C6E000E0B6E000E0E6E32
:1002A8000B0E0D6EF30E0F6E7F0E106E9AEC15F09E
:1002B800000E0C6E010E0B6E000E0E6E000E0D6E13
:1002C800E90E0F6E7F0E106E9AEC15F0D2C012F088
:1002D800D3C013F07C0E146E000E156E15EC11F0E1
:1002E800BAEF00F0000E0C6E000E0B6E000E0E6ED4
:1002F800000E0D6ED90E0F6E7F0E106E9AEC15F073
:10030800D6C00AF0D7C00BF0000E0BBEFF0E0C6E65
:100318000D6E010E3BEC10F00AC018F00BC019F07E
:100328000CC01AF00DC01BF08AC01CF08BC01DF069
:100338008CC01EF08DC01FF0CAEC12F0D8A0A7EF39
:1003480001F0A9EF01F003EF02F0D4C00AF0D5C024
:100358000BF0000E0BBEFF0E0C6E0D6E010E3BEC8B
:1003680010F00AC018F00BC019F00CC01AF00DC03C
:100378001BF08EC01CF08FC01DF090C01EF091C005
:100388001FF0CAEC12F0D8A0CCEF01F0CEEF01F0CC
:1003980003EF02F0D2C00AF0D3C00BF0000E0BBE80
:1003A800FF0E0C6E0D6E010E3BEC10F00AC018F03B
:1003B8000BC019F00CC01AF00DC01BF092C01CF055
:1003C80093C01DF094C01EF095C01FF0CAEC12F047
:1003D800D8A0F1EF01F0F3EF01F003EF02F0000E07
:1003E8000C6E010E0B6E000E0E6E000E0D6EF70EEB
:1003F8000F6E7F0E106E9AEC15F063EF04F0504A02
:10040800512A51BE11EF02F0515009E1040E505C1F
:10041800D8A011EF02F013EF02F0B8EF02F0000ECF
:10042800516E000E506EB8EF02F0D6C00AF0D7C079
:100438000BF0000E0BBEFF0E0C6E0D6E010E3BECAA
:1004480010F00AC018F00BC019F00CC01AF00DC05B
:100458001BF08AC01CF08BC01DF08CC01EF08DC034
:100468001FF0CAEC12F0D8B03CEF02F03EEF02F0F9
:1004780030EF00F0000E0C6E010E0B6E000E0E6ECB
:10048800000E0D6E300E0F6E7F0E106E9AEC15F08A
:1004980063EF04F0D4C00AF0D5C00BF0000E0BBE19
:1004A800FF0E0C6E0D6E010E3BEC10F00AC018F03A
:1004B8000BC019F00CC01AF00DC01BF08EC01CF058
:1004C8008FC01DF090C01EF091C01FF0CAEC12F052
:1004D800D8B071EF02F073EF02F030EF00F0000EC9
:1004E8000C6E010E0B6E000E0E6E000E0D6E200EC1
:1004F8000F6E7F0E106E9AEC15F063EF04F0D2C009
:100508000AF0D3C00BF0000E0BBEFF0E0C6E0D6E82
:10051800010E3BEC10F00AC018F00BC019F00CC02B
:100528001AF00DC01BF092C01CF093C01DF094C0CF
:100538001EF095C01FF0CAEC12F0D8B0A6EF02F07A
:10054800A8EF02F030EF00F0000E0C6E010E0B6EFB
:10055800000E0E6E000E0D6E400E0F6E7F0E106EAA
:100568009AEC15F063EF04F050C078F051C079F0C0
:1005780000017951000AD8B4C4EF02F063EF04F027
:100588007851000AD8B419EF02F0010AD8B44EEF36
:1005980002F0030AD8B483EF02F063EF04F0000E10
:1005A8000C6E000E0B6E000E0E6E000E0D6ECF0E52
:1005B8000F6E7F0E106E9AEC15F0D6C00AF0D7C0F9
:1005C8000BF0000E0BBEFF0E0C6E0D6E010E3BEC19
:1005D80010F00AC018F00BC019F00CC01AF00DC0CA
:1005E8001BF08AC01CF08BC01DF08CC01EF08DC0A3
:1005F8001FF0CAEC12F0D8A004EF03F006EF03F0E6
:1006080060EF03F0D4C00AF0D5C00BF0000E0BBEAB
:10061800FF0E0C6E0D6E010E3BEC10F00AC018F0C8
:100628000BC019F00CC01AF00DC01BF08EC01CF0E6
:100638008FC01DF090C01EF091C01FF0CAEC12F0E0
:10064800D8A029EF03F02BEF03F060EF03F0D2C03E
:100658000AF0D3C00BF0000E0BBEFF0E0C6E0D6E31
:10066800010E3BEC10F00AC018F00BC019F00CC0DA
:100678001AF00DC01BF092C01CF093C01DF094C07E
:100688001EF095C01FF0CAEC12F0D8A04EEF03F090
:1006980050EF03F060EF03F0000E0C6E010E0B6ECE
:1006A800000E0E6E000E0D6EF70E0F6E7F0E106EA2
:1006B8009AEC15F063EF04F04E4A4F2A4FBE6EEFE6
:1006C80003F04F5009E1040E4E5CD8A06EEF03F022
:1006D80070EF03F015EF04F0000E4F6E000E4E6E33
:1006E80015EF04F0D6C00AF0D7C00BF0000E0BBE11
:1006F800FF0E0C6E0D6E010E3BEC10F00AC018F0E8
:100708000BC019F00CC01AF00DC01BF08AC01CF009
:100718008BC01DF08CC01EF08DC01FF0CAEC12F00B
:10072800D8B099EF03F09BEF03F063EF04F0000EED
:100738000C6E010E0B6E000E0E6E000E0D6E5F0E2F
:100748000F6E7F0E106E9AEC15F063EF04F0D4C0B4
:100758000AF0D5C00BF0000E0BBEFF0E0C6E0D6E2E
:10076800010E3BEC10F00AC018F00BC019F00CC0D9
:100778001AF00DC01BF08EC01CF08FC01DF090C089
:100788001EF091C01FF0CAEC12F0D8B0CEEF03F003
:10079800D0EF03F063EF04F0000E0C6E010E0B6E49
:1007A800000E0E6E000E0D6E0F0E0F6E7F0E106E89
:1007B8009AEC15F063EF04F0D2C00AF0D3C00BF046
:1007C800000E0BBEFF0E0C6E0D6E010E3BEC10F012
:1007D8000AC018F00BC019F00CC01AF00DC01BF0BD
:1007E80092C01CF093C01DF094C01EF095C01FF07D
:1007F800CAEC12F0D8B003EF04F005EF04F063EF91
:1008080004F0000E0C6E010E0B6E000E0E6E000E44
:100818000D6EAD0E0F6E7F0E106E9AEC15F063EF35
:1008280004F04EC078F04FC079F000017951000A09
:10083800D8B421EF04F063EF04F07851000AD8B47B
:1008480076EF03F0010AD8B4ABEF03F0030AD8B48B
:10085800E0EF03F063EF04F0000E0C6E000E0B6E79
:10086800000E0E6E000E0D6E6D0E0F6E7F0E106E6A
:100878009AEC15F063EF04F076C078F077C079F061
:1008880000017951000AD8B44CEF04F030EF04F0BD
:100898007851000AD8B466EF00F0010AD8B4CAEF5C
:1008A80000F0030AD8B420EF01F0010AD8B476EFBB
:1008B80001F0070AD8B4D3EF02F030EF04F01200C9
:1008C800000E0001B46F000EB76F000EB66F000E79
:1008D8009A6F000E9B6F000E9C6F000E9D6FC1EC0F
:1008E80017F0EEEC17F0EEEC16F0E8EC17F0CDECA4
:1008F80017F09590959295943FEC0FF00001B56F25
:10090800AEEC17F00AC09EF00BC09FF00CC0A0F030
:100918000DC0A1F000019A519E5D966F9B519F59A1
:10092800976F9C51A059986F9D51A159996F9951F2
:1009380098110BE1F40E965D010E9759D8A0A7EF18
:1009480004F0A9EF04F0B7EF04F0B6C076F0B7C032
:1009580077F009EC00F09EC09AF09FC09BF0A0C011
:100968009CF0A1C09DF0450E0001B519D8A4BFEFB9
:1009780004F0C1EF04F0E4EF04F0450EB419D8B464
:10098800C8EF04F0CAEF04F0E4EF04F0B64BB72B5D
:10099800B7BFD8EF04F0B75109E1050EB65DD8A08E
:1009A800D8EF04F0DAEF04F0DEEF04F0000EB76FD2
:1009B800000EB66FB6C076F0B7C077F009EC00F05D
:1009C800460E0001B519D8A4ECEF04F0EEEF04F0E0
:1009D8000BEF05F0460EB419D8B4F5EF04F0F7EFB5
:1009E80004F00BEF05F0B607D8A0B707B7BF01EFC3
:1009F80005F0FFEF04F005EF05F0000EB76F040EE9
:100A0800B66FB6C076F0B7C077F009EC00F0410ECB
:100A18000001B519D8A413EF05F015EF05F06BEF39
:100A280005F0410EB419D8B41CEF05F01EEF05F01F
:100A38006BEF05F0880E296E7F0E2A6EB5EC11F06B
:100A480029C0AEF02AC0AFF00001AE2908E1AF29F5
:100A5800D8B431EF05F033EF05F05FEF05F0AEC025
:100A6800D6F0AFC0D7F0000E0C6E010E0B6E000E64
:100A78000E6E000E0D6E950E0F6E7F0E106E9AECB8
:100A880015F01A0E0001976F5E0E966F6E0EE82E27
:100A9800FED7962FFCD7972FFAD700F0000E00014B
:100AA800B76F000EB66F000E776F000E766F09EC09
:100AB80000F06BEF05F0AE2906E1AF29D8A467EF87
:100AC80005F069EF05F06BEF05F052EF05F0420E07
:100AD8000001B519D8A473EF05F075EF05F0CBEF59
:100AE80005F0420EB419D8B47CEF05F07EEF05F09E
:100AF800CBEF05F0A10E296E7F0E2A6EB5EC11F032
:100B080029C0B0F02AC0B1F00001B02908E1B1292C
:100B1800D8B491EF05F093EF05F0BFEF05F0B0C042
:100B2800D4F0B1C0D5F0000E0C6E010E0B6E000EA5
:100B38000E6E000E0D6E7B0E0F6E7F0E106E9AEC11
:100B480015F01A0E0001976F5E0E966F6E0EE82E66
:100B5800FED7962FFCD7972FFAD700F0000E00018A
:100B6800B76F000EB66F000E776F000E766F09EC48
:100B780000F0CBEF05F0B02906E1B129D8A4C7EF02
:100B880005F0C9EF05F0CBEF05F0B2EF05F0430E25
:100B98000001B519D8A4D3EF05F0D5EF05F02BEF78
:100BA80006F0430EB419D8B4DCEF05F0DEEF05F01B
:100BB8002BEF06F0C40E296E7F0E2A6EB5EC11F0ED
:100BC80029C0B2F02AC0B3F00001B22908E1B32964
:100BD800D8B4F1EF05F0F3EF05F01FEF06F0B2C05F
:100BE800D2F0B3C0D3F0000E0C6E010E0B6E000EE7
:100BF8000E6E000E0D6EB90E0F6E7F0E106E9AEC13
:100C080015F01A0E0001976F5E0E966F6E0EE82EA5
:100C1800FED7962FFCD7972FFAD700F0000E0001C9
:100C2800B76F000EB66F000E776F000E766F09EC87
:100C380000F02BEF06F0B22906E1B329D8A427EF7C
:100C480006F029EF06F02BEF06F012EF06F0440E3F
:100C58000001B519D8A433EF06F035EF06F070EFB0
:100C680006F0440EB419D8B43CEF06F03EEF06F097
:100C780070EF06F0000ED76F1E0ED66F000ED56F00
:100C8800320ED46F000ED36F140ED26F000E0C6E9E
:100C9800000E0B6E000E0E6E000E0D6E500E0F6ED7
:100CA8007F0E106E9AEC15F01A0E0001976F5E0E0B
:100CB800966F6E0EE82EFED7962FFCD7972FFAD791
:100CC80000F0000E0001B76F000EB66F000E776FD0
:100CD800000E766F09EC00F025EC14F060C0A2F06D
:100CE80061C0A3F062C0A4F063C0A5F084EC14F066
:100CF80060C0A6F061C0A7F062C0A8F063C0A9F008
:100D0800E3EC14F060C0AAF061C0ABF062C0ACF0D4
:100D180063C0ADF0D6C00AF0D7C00BF0000E0BBE12
:100D2800FF0E0C6E0D6E010E3BEC10F00AC018F0B1
:100D38000BC019F00CC01AF00DC01BF0A2C01CF0BB
:100D4800A3C01DF0A4C01EF0A5C01FF0CAEC12F08D
:100D5800D8A0B1EF06F0B3EF06F0FDEF06F0D4C06F
:100D68000AF0D5C00BF0000E0BBEFF0E0C6E0D6E18
:100D7800010E3BEC10F00AC018F00BC019F00CC0C3
:100D88001AF00DC01BF0A6C01CF0A7C01DF0A8C02B
:100D98001EF0A9C01FF0CAEC12F0D8A0D6EF06F0DA
:100DA800D8EF06F0FDEF06F0D2C00AF0D3C00BF082
:100DB800000E0BBEFF0E0C6E0D6E010E3BEC10F01C
:100DC8000AC018F00BC019F00CC01AF00DC01BF0C7
:100DD800AAC01CF0ABC01DF0ACC01EF0ADC01FF027
:100DE800CAEC12F0D8B0FBEF06F0FDEF06F005EF05
:100DF80007F0000E0B6E010E0A6EFEEC17F00BEFFB
:100E080007F0000E0B6E000E0A6EFEEC17F0D6C04F
:100E18000AF0D7C00BF0000E0BBEFF0E0C6E0D6E65
:100E2800010E3BEC10F00AC018F00BC019F00CC012
:100E38001AF00DC01BF0A2C01CF0A3C01DF0A4C086
:100E48001EF0A5C01FF0CAEC12F0D8B02EEF07F0C4
:100E580030EF07F034EF07F08380828436EF07F035
:100E680083908294D4C00AF0D5C00BF0000E0BBE5C
:100E7800FF0E0C6E0D6E010E3BEC10F00AC018F060
:100E88000BC019F00CC01AF00DC01BF0A6C01CF066
:100E9800A7C01DF0A8C01EF0A9C01FF0CAEC12F030
:100EA800D8B059EF07F05BEF07F064EF07F08382E3
:100EB800000E0B6E010E0A6EFCEC17F06BEF07F0DC
:100EC8008392000E0B6E000E0A6EFCEC17F0D2C077
:100ED8000AF0D3C00BF0000E0BBEFF0E0C6E0D6EA9
:100EE800010E3BEC10F00AC018F00BC019F00CC052
:100EF8001AF00DC01BF0AAC01CF0ABC01DF0ACC0AE
:100F08001EF0ADC01FF0CAEC12F0D8B08EEF07F09B
:100F180090EF07F098EF07F08384000E0B6E0A68D5
:100F2800FDEC17F09FEF07F08394000E0B6E000E98
:100F38000A6EFDEC17F0B5C0B4F080EF04F007EFCF
:100F480000F00D50800B166E0D500D24186E0CAE6F
:100F5800B0EF07F0B2EF07F0B3EF07F018801850C2
:100F6800D8B4B9EF07F0BBEF07F0D0EF07F01828B7
:100F7800D8A4C1EF07F0C3EF07F0CBEF07F0000EDE
:100F88000A6E000E0B6E000E0C6E000E0D6E0C8EAF
:100F9800000E0D6ED8EF07F0000E0A6E000E0B6EF5
:100FA800000E0C6E000E0D6E1150800B176E165051
:100FB8001718D8B4E2EF07F0E4EF07F0E5EF07F011
:100FC800168C11501124176E10AEEDEF07F0EFEFED
:100FD80007F0F0EF07F017801750D8B4F6EF07F0D6
:100FE800F8EF07F00DEF08F01728D8A4FEEF07F088
:100FF80000EF08F008EF08F0000E0E6E000E0F6EFE
:10100800000E106E000E116E108E000E116E15EF90
:1010180008F0000E0E6E000E0F6E000E106E000E21
:10102800116E1850175CD8B01CEF08F01EEF08F0CE
:1010380045EF08F016AC23EF08F025EF08F027EF8E
:1010480008F0800E161A18C019F017C018F019C049
:1010580017F00AC019F00EC00AF019C00EF00BC044
:1010680019F00FC00BF019C00FF00CC019F010C028
:101078000CF019C010F00DC019F011C00DF019C016
:1010880011F0000E196E185017C012F0136A125E94
:10109800000E135A13BE5AEF08F0135009E11A0E46
:1010A800125CD8A05AEF08F05CEF08F093EF08F054
:1010B8000A500B100C100D10D8A465EF08F068EF5B
:1010C80008F0010E69EF08F0000E196E000E0A6EA6
:1010D800000E0B6E000E0C6E000E0D6E17C018F091
:1010E8009CEF08F019A07BEF08F07DEF08F083EF84
:1010F80008F0D89019300109196E85EF08F0D890DA
:1011080019320AA08AEF08F08CEF08F08DEF08F08A
:10111800198E0D340D320C320B320A32182A175040
:10112800185CD8A09AEF08F09CEF08F076EF08F06A
:1011380016BCA1EF08F0A3EF08F0E3EF08F0185091
:10114800D8A4A9EF08F0ABEF08F0B5EF08F0000E4F
:101158000A6E000E0B6E000E0C6E000E0D6E04EF84
:101168000AF00E500A260F500B2210500C22115074
:101178000D220DA0C2EF08F0C4EF08F070EF09F0DF
:1011880019A0C9EF08F0CBEF08F0D1EF08F0D8901C
:1011980019300109196ED3EF08F0D89019320AA056
:1011A800D8EF08F0DAEF08F0DBEF08F0198E0D340D
:1011B8000D320C320B320A32182A70EF09F00E5039
:1011C8000A5C0F500B5810500C580D50800A126EC4
:1011D8001150800A1258D8B0F4EF08F0F6EF08F072
:1011E80021EF09F00A500E5C126E0B500F58136E67
:1011F8000C501058146E0D501158156EFF0E122415
:101208000A6EFF0E13200B6EFF0E14200C6EFF0EDD
:1012180015200D6E800E161A196C1950D8A417EFE8
:1012280009F019EF09F029EF09F0010E0A26000E5E
:101238000B220C220D2229EF09F00E500A5E0F50E6
:101248000B5A10500C5A11500D5A0A500B100C1012
:101258000D10D8A432EF09F034EF09F069EF09F066
:101268001950D8A43AEF09F03CEF09F069EF09F0FA
:10127800000E0A6E000E0B6E000E0C6E000E0D6E48
:1012880004EF0AF0D8900A360B360C360D3619AE34
:1012980050EF09F052EF09F053EF09F00A8019A056
:1012A80058EF09F05AEF09F05EEF09F0D8801936C7
:1012B80060EF09F0D89019361850D8B466EF09F0E5
:1012C80068EF09F069EF09F018060CAE6EEF09F047
:1012D80070EF09F046EF09F0000E176E19AE77EFC0
:1012E80009F079EF09F091EF09F019C012F07F0EBB
:1012F8001216D8B482EF09F084EF09F088EF09F0EC
:10130800010E176E91EF09F00AA08DEF09F08FEF2B
:1013180009F091EF09F084EF09F01750D8B497EF6E
:1013280009F099EF09F0C4EF09F0010E0A26000E42
:101338000B220C220D220DA0A4EF09F0A6EF09F054
:10134800C4EF09F00AC012F00BC013F00CC014F07F
:101358000DC015F01534153214321332123212C082
:101368000AF013C00BF014C00CF015C00DF01828CB
:10137800D8B4C1EF09F0C3EF09F0C4EF09F0182A97
:101388001828D8B4CAEF09F0CCEF09F0D4EF09F067
:101398001850D8A4D2EF09F0D4EF09F0E6EF09F01D
:1013A800000E0A6E000E0B6E000E0C6E000E0D6E17
:1013B8001850D8A4E2EF09F0E4EF09F0E6EF09F0DD
:1013C800000E166E18A0EBEF09F0EDEF09F0F0EF44
:1013D80009F00C8EF1EF09F00C9ED89018300D6EC4
:1013E80016AEF9EF09F0FBEF09F0FCEF09F00D8EEE
:1013F8000AC00AF00BC00BF00CC00CF00DC00DF0C9
:1014080012001B50800B246E1B501B242A6E1AAE30
:1014180010EF0AF012EF0AF013EF0AF02A802A50B0
:10142800D8B419EF0AF01BEF0AF02EEF0AF02A28B9
:10143800D8A421EF0AF023EF0AF02BEF0AF0000EF0
:10144800186E000E196E000E1A6E000E1B6E1A8EA4
:1014580036EF0AF0000E186E000E196E000E1A6EA6
:10146800000E1B6E1F50800B241A1F501F24256E60
:101478001EAE41EF0AF043EF0AF044EF0AF0258070
:101488002550D8B44AEF0AF04CEF0AF05FEF0AF0A3
:101498002528D8A452EF0AF054EF0AF05CEF0AF0BE
:1014A800000E1C6E000E1D6E000E1E6E000E1F6ECE
:1014B8001E8E67EF0AF0000E1C6E000E1D6E000EE9
:1014C8001E6E000E1F6E2550D8B46DEF0AF06FEF38
:1014D8000AF077EF0AF02A50D8A475EF0AF077EFF0
:1014E8000AF081EF0AF0000E186E000E196E000E59
:1014F8001A6E000E1B6E19EF0CF01E501802F3CF77
:101508002FF0F4CF30F02F50266E276A286A296A08
:1015180030502B6E2C6A2D6A2E6A1D501902F3CF9B
:101528002FF0F4CF30F02F502626000E2722282245
:10153800292230502B26000E2C222D222E221C5020
:101548001A02F3CF2FF0F4CF30F02F502626000EDA
:1015580027222822292230502B26000E2C222D2229
:101568002E2228C029F027C028F026C027F0266A96
:101578001C501902F3CF2FF0F4CF30F02F5026264D
:1015880030502722000E2822000E29221D50180252
:10159800F3CF2FF0F4CF30F02F50262630502722EB
:1015A800000E2822000E292228C029F027C028F082
:1015B80026C027F0266A1C501802F3CF2FF0F4CF6C
:1015C80030F02F50262630502722000E2822000EF9
:1015D80029221E501902F3CF2FF0F4CF30F02F50EC
:1015E8002B2630502C22000E2D22000E2E221D50AC
:1015F8001A02F3CF2FF0F4CF30F02F502B263050B3
:101608002C22000E2D22000E2E221E501A02F3CF7D
:101618002FF0F4CF30F02F50206E3050216E226A18
:10162800236A22C023F021C022F020C021F0206AC2
:1016380020502B2621502C2222502D2223502E229E
:1016480026C020F027C021F028C022F029C023F0AE
:10165800190E34EF0BF0D890233222322132203287
:10166800E82E2FEF0BF020502B2621502C22225051
:101678002D2223502E2228C029F027C028F026C06A
:1016880027F0266A25502AC020F0216A2026000E5D
:101698002122820E20242F6EFF0E2120306E6AEF49
:1016A8000BF0D8902B362C362D362E3629AE5FEF20
:1016B8000BF061EF0BF062EF0BF02B80D890263621
:1016C8002736283629362F06D8A030062DAE6FEFDC
:1016D8000BF071EF0BF055EF0BF0000E256E29AEF5
:1016E80078EF0BF07AEF0BF09EEF0BF0FF0E26145D
:1016F800206EFF0E2714216EFF0E2814226E7F0E17
:101708002914236E2050211022102310D8B48FEFF3
:101718000BF091EF0BF095EF0BF0010E256E9EEF9D
:101728000BF02BA09AEF0BF09CEF0BF09EEF0BF059
:1017380091EF0BF02550D8B4A4EF0BF0A6EF0BF007
:10174800CAEF0BF0010E2B26000E2C222D222E2282
:101758002EA0B1EF0BF0B3EF0BF0CAEF0BF02BC0DC
:1017680020F02CC021F02DC022F02EC023F023340D
:10177800233222322132203220C02BF021C02CF01B
:1017880022C02DF023C02EF02F4A302A30BED5EFCC
:101798000BF0305008E12F28D8A0D5EF0BF0D7EF89
:1017A8000BF0E1EF0BF0000E2B6E000E2C6E800E8E
:1017B8002D6E7F0E2E6E0FEF0CF030BEEEEF0BF09D
:1017C800305006E12F04D8B0ECEF0BF0EEEF0BF041
:1017D800FAEF0BF0000E2B6E000E2C6E000E2D6E25
:1017E800000E2E6E000E246E0FEF0CF02FC02AF0A4
:1017F800FF0E2B16FF0E2C167F0E2D16000E2E1622
:101808002AA009EF0CF00BEF0CF00CEF0CF02D8E6A
:10181800D8902A302E6E24502E122BC018F02CC0CF
:1018280019F02DC01AF02EC01BF012003450800B96
:10183800416E34503424486E33AE25EF0CF027EF58
:101848000CF028EF0CF048804850D8B42EEF0CF07C
:1018580030EF0CF045EF0CF04828D8A436EF0CF028
:1018680038EF0CF040EF0CF0000E316E000E326EC7
:10187800000E336E000E346E338E000E346E4DEF54
:101888000CF0000E316E000E326E000E336E000E3C
:10189800346E3850800B411A38503824496E37AEB0
:1018A80058EF0CF05AEF0CF05BEF0CF04980495000
:1018B800D8B461EF0CF063EF0CF078EF0CF0492826
:1018C800D8A469EF0CF06BEF0CF073EF0CF0000E7E
:1018D800356E000E366E000E376E000E386E378E7F
:1018E800000E386E80EF0CF0000E356E000E366E6E
:1018F800000E376E000E386E35503610371038101F
:10190800D8A489EF0CF08BEF0CF0A3EF0CF0000ECD
:10191800316E000E326E000E336E000E346E800E85
:1019280033127F0E34124150341231C031F032C0BC
:1019380032F033C033F034C034F0E6EF0DF04850E5
:10194800D8A4A9EF0CF0ABEF0CF0B5EF0CF0000E3B
:10195800316E000E326E000E336E000E346EE6EFFE
:101968000DF0495048C039F03A6A395E000E3A5ACB
:101978007F0E3924426E000E3A20436E31C03DF08E
:1019880032C03EF033C03FF034C040F0000E316E3C
:10199800000E326E000E336E000E346E000E446E72
:1019A800000E456E000E466E000E476E000E496E24
:1019B80016EF0DF04950D8B4E4EF0CF0E6EF0CF058
:1019C800FDEF0CF0D8903D363E363F364036D89085
:1019D800313632363336343647AEF5EF0CF0F7EFA2
:1019E8000CF0F8EF0CF03180D89044364536463686
:1019F800473635503D5C36503E5837503F58385082
:101A08004058D8A00AEF0DF00CEF0DF015EF0DF0CF
:101A1800478C35503D5E36503E5A37503F5A385005
:101A2800405A492A190E49641CEF0DF01EEF0DF0BB
:101A3800DEEF0CF03D503E103F104010D8B427EFB9
:101A48000DF029EF0DF041EF0DF0448041EF0DF05E
:101A5800D890313632363336343647AE36EF0DF05D
:101A680038EF0DF039EF0DF03180D8904436453617
:101A7800463647364206D8A0430633AE46EF0DF049
:101A880048EF0DF02CEF0DF0000E496E47AE4FEF0A
:101A98000DF051EF0DF075EF0DF0FF0E4414396E97
:101AA800FF0E45143A6EFF0E46143B6E7F0E471428
:101AB8003C6E39503A103B103C10D8B466EF0DF02C
:101AC80068EF0DF06CEF0DF0010E496E75EF0DF03B
:101AD80031A071EF0DF073EF0DF075EF0DF068EFB9
:101AE8000DF04950D8B47BEF0DF07DEF0DF0A1EF6C
:101AF8000DF0010E3126000E32223322342234A09A
:101B080088EF0DF08AEF0DF0A1EF0DF031C039F03C
:101B180032C03AF033C03BF034C03CF03C343C3285
:101B28003B323A32393239C031F03AC032F03BC038
:101B380033F03CC034F0424A432A43BEACEF0DF0C8
:101B4800435008E14228D8A0ACEF0DF0AEEF0DF0FD
:101B5800B9EF0DF0000E436E4268000E316E000EB4
:101B6800326E000E336E000E346E43BEC6EF0DF0BB
:101B7800435006E14204D8B0C4EF0DF0C6EF0DF0B3
:101B8800D4EF0DF0000E436E000E426E000E316E63
:101B9800000E326E000E336E000E346E000E416E73
:101BA80042C048F048A0DBEF0DF0DDEF0DF0E0EFAC
:101BB8000DF0338EE1EF0DF0339ED8904830346E3F
:101BC80097EF0CF01200000E0001756F000E746F95
:101BD80034BEF3EF0DF0F1EF0DF00DEF0EF035C060
:101BE800D9FF36C0DAFF2D0EDF6E354A362A31C0EE
:101BF8000AF032C00BF033C00CF034C00DF092EC98
:101C080017F00AC031F00BC032F00CC033F00DC031
:101C180034F031C00AF032C00BF033C00CF034C0DD
:101C28000DF047EC12F00AC06EF00BC06FF031C037
:101C38001AF032C01BF033C01CF034C01DF06EC067
:101C48000AF06FC00BF0000E0BBEFF0E0C6E0D6E8F
:101C5800010E3BEC10F00AC01EF00BC01FF00CC0C8
:101C680020F00DC021F0CBEC16F01AC031F01BC0EB
:101C780032F01CC033F01DC034F000016E516F11FA
:101C8800D8A449EF0EF04BEF0EF051EF0EF0300EE6
:101C9800606F744B752B8BEF0EF06EC070F06FC0D9
:101CA80071F0000E756F000E746F600E7425D96E9A
:101CB800000E7521DA6E70C00AF071C00BF0000ECC
:101CC8000D6E0A0E0C6E42EC15F00A50300FDF6EE6
:101CD8000001744B752B70C00AF071C00BF0000E38
:101CE8000D6E0A0E0C6EC3EC13F00AC070F00BC038
:101CF80071F0000171BF8BEF0EF0715106E17005B4
:101D0800D8B089EF0EF08BEF0EF059EF0EF0000E01
:101D1800736F000E726FADEF0EF0600E396E000E2D
:101D28003A6E7251395E73513A5A74513926755167
:101D38003A22FF0E3924D96EFF0E3A20DA6E72511C
:101D48003524E16E73513620E26EDFCFE7FF724B28
:101D5800732B7451725D7351800A396E7551800A04
:101D68003958D8A0BAEF0EF0BCEF0EF091EF0EF094
:101D7800745135267551362235C0D9FF36C0DAFF81
:101D88002E0EDF6E354A362A000E736F000E726F04
:101D980029EF0FF031C018F032C019F033C01AF033
:101DA80034C01BF0000E1C6E000E1D6E200E1E6E41
:101DB800410E1F6E05EC0AF018C031F019C032F060
:101DC8001AC033F01BC034F031C00AF032C00BF037
:101DD80033C00CF034C00DF047EC12F00AC06CF0C0
:101DE8000BC06DF000016C51300F35C0D9FF36C003
:101DF800DAFFDF6E354A362A31C01AF032C01BF0DE
:101E080033C01CF034C01DF06CC00AF06DC00BF07C
:101E1800000E0BBEFF0E0C6E0D6E010E3BEC10F0AB
:101E28000AC01EF00BC01FF00CC020F00DC021F03E
:101E3800CBEC16F01AC031F01BC032F01CC033F0E6
:101E48001DC034F00001724B732B3750725D735113
:101E5800800A396E3850800A3958D8A036EF0FF00A
:101E680038EF0FF0CEEF0EF035C0D9FF36C0DAFFED
:101E7800000EDF6E1200070EF66E7F0EF76E20EE74
:101E880018F0070E0900F5CFDEFFE806FBE2AEEC1E
:101E980017F00AC020F00BC021F00CC022F00DC0D2
:101EA80023F0000E256E000E246E25BE65EF0FF0A0
:101EB800255009E1040E245CD8A065EF0FF067EF08
:101EC8000FF069EF0FF033EF10F024C012F0010E9D
:101ED800136E122A72EF0FF0D8901336122E70EF8D
:101EE8000FF01350FF0A8A6E210E126E760EE82E3E
:101EF800FED7122EFCD700D0000E276E000E266EDD
:101F080026C012F0040E1226010E136E122A8FEF4D
:101F18000FF0D8901336122E8DEF0FF01350811456
:101F28000009D8A49AEF0FF09CEF0FF01FEF10F004
:101F3800D8902434D96E2534DA6E180ED926000EBE
:101F4800DA22DECF12F0DDCF13F026C014F027C05E
:101F580015F0D89014361536D89014361536F70E75
:101F6800166E7E0E176E1450162615501722125034
:101F780016261350172216C0F6FF17C0F7FF0800E1
:101F8800F5CF28F054502818D8B4CDEF0FF0CFEF84
:101F98000FF0D9EF0FF020C0C7F021C0C8F022C061
:101FA800C9F023C0CAF028C054F00001C751205C12
:101FB800126EC8512158136EC9512258146ECA5155
:101FC8002358156E15501410131009E1330E125CC6
:101FD800D8A0F1EF0FF0F3EF0FF01CEF10F0C351A2
:101FE800205C126EC4512158136EC5512258146ECC
:101FF800C6512358156E155014100BE12D0E125CA6
:10200800010E1358D8A00BEF10F00DEF10F01CEFD5
:1020180010F020C0C3F021C0C4F022C0C5F023C016
:10202800C6F028C0B9F028C0B8F028503AEF10F030
:10203800000E3AEF10F0264A272A27BE2DEF10F09F
:10204800275009E1040E265CD8A02DEF10F02FEFE1
:1020580010F084EF0FF0244A252A59EF0FF0000EF4
:102068000001B86F000E546E1CEF10F01200126ED3
:102078001250D8B442EF10F044EF10F066EF10F0B1
:102088000DBE4BEF10F049EF10F066EF10F00AC0EC
:102098000EF00BC00FF00CC010F00DC011F00E1EAA
:1020A8000F1E101E111E0E2A000E0F2210221122C2
:1020B8000EC014F00FC015F010C016F011C017F0C4
:1020C8006EEF10F00AC014F00BC015F00CC016F03B
:1020D8000DC017F00A500B100C100D10D8A477EF94
:1020E80010F079EF10F083EF10F0000E0A6E000E7A
:1020F8000B6E000E0C6E000E0D6E14EF11F0960EA6
:10210800136E8DEF10F0132AD8901732163215324D
:102118001432000E14140E6E000E15140F6E000EFD
:102128001614106EFE0E1714116E0E500F101010AC
:102138001110D8A4A2EF10F0A4EF10F087EF10F060
:10214800B2EF10F0132A010E1426000E15221622E3
:102158001722D8901732163215321432000E141482
:102168000E6E000E15140F6E000E1614106EFF0E74
:102178001714116E0E500F1010101110D8A4C7EFBD
:1021880010F0C9EF10F0A6EF10F0D1EF10F0130621
:10219800D890143615361636173616BED6EF10F008
:1021A800D8EF10F0E0EF10F0020E1360DEEF10F041
:1021B800E0EF10F0CBEF10F013B0E5EF10F0E7EF21
:1021C80010F0E8EF10F0169ED890133213C00EF0FE
:1021D8000F6A106A116A0EC011F0106A0F6A0E6A4F
:1021E8000E5014120F5015121050161211501712CB
:1021F8001250D8B402EF11F004EF11F00CEF11F007
:102208000DBE0BEF11F009EF11F00CEF11F0178E66
:1022180014C00AF015C00BF016C00CF017C00DF072
:102228001200000E176E000E166E14501510D8A46A
:1022380020EF11F022EF11F024EF11F0B4EF11F0BC
:1022480012501310D8A42BEF11F02DEF11F03DEF21
:1022580011F014C0D9FF15C0DAFF300EDF6E20EE82
:1022680001F01450D9261550DA22000EDF6EB4EFB3
:1022780011F013BE44EF11F042EF11F052EF11F0DC
:10228800126C131ED8B0132A14C0D9FF15C0DAFF78
:102298002D0EDF6E144A152A164A172A12C018F096
:1022A80013C019F068EF11F018C00AF019C00BF04C
:1022B800000E0D6E0A0E0C6EC3EC13F00AC018F077
:1022C8000BC019F0164A172A19BE75EF11F01950EC
:1022D80006E11804D8B073EF11F075EF11F058EF5C
:1022E80011F016501424D96E17501520DA6E000E0E
:1022F800DF6E12C018F013C019F0A7EF11F0160620
:10230800D8A0170616501424D96E17501520DA6E67
:1023180018C00AF019C00BF0000E0D6E0A0E0C6EF4
:1023280042EC15F00A50300FDF6E18C00AF019C0E1
:102338000BF0000E0D6E0A0E0C6EC3EC13F00AC003
:1023480018F00BC019F019BEB4EF11F0195006E1DE
:102358001804D8B0B2EF11F0B4EF11F083EF11F018
:102368001200000E2D6E000E2E6E000E2F6E000E47
:10237800316E000E306E010E73EC17F00D0E2B6EE1
:10238800FC0EE82EFED72B2EFCD7020E73EC17F0AE
:102398000D0E2B6EFC0EE82EFED72B2EFCD7000E52
:1023A8000C6E000E0B6E000E0E6E000E0D6E29C028
:1023B8000FF02AC010F09AEC15F028EF12F03FEC5D
:1023C8000FF0326E2F0E3264ECEF11F0EEEF11F0D9
:1023D8001BEF12F03A0E3260F4EF11F0F6EF11F045
:1023E8001BEF12F02D0E3024D96E000E3120DA6E5C
:1023F80032C0DFFF000E0C6E010E0B6E30C00DF008
:1024080031C00EF02D0E30240F6E000E3120106EEC
:102418009AEC15F0304A312A060E2C6E130E2B6EEC
:10242800AE0EE82EFED72B2EFCD72C2EFAD7460E52
:102438003218D8A422EF12F024EF12F028EF12F08D
:1024480029682A6846EF12F031BE34EF12F0315095
:1024580009E1020E305CD8A034EF12F036EF12F02A
:10246800E3EF11F02D500A0DF3CF2BF0F4CF2CF041
:102478002E502B26000E2C22F00E2B24296EFD0E3A
:102488002C202A6E12000C340D34136E1350D8A46D
:1024980050EF12F052EF12F05CEF12F0000E0A6EDD
:1024A800000E0B6E000E0C6E000E0D6EC9EF12F0D2
:1024B8000AC00EF00BC00FF00CC010F00DC011F0E8
:1024C800200E6CEF12F0D890113210320F320E320B
:1024D800E82E67EF12F00E50126E0C8EFF0E0A16E1
:1024E800FF0E0B16FF0E0C16000E0D16960E135E41
:1024F80013BE83EF12F081EF12F099EF12F0135030
:10250800800A970FD8B08BEF12F08DEF12F08FEF93
:1025180012F052EF12F0D8900D320C320B320A3210
:10252800133E8FEF12F0B1EF12F01F0E13649FEFFE
:1025380012F0A1EF12F0A9EF12F052EF12F0D890BA
:102548000A360B360C360D3613061350D8A4AFEFE7
:1025580012F0B1EF12F0A3EF12F01250D8B4B7EFA7
:1025680012F0B9EF12F0C1EF12F00D1E0C1E0B1E87
:102578000A6C000E0B220C220D220AC00AF00BC0B6
:102588000BF00CC00CF00DC00DF01200000E18146A
:10259800206E000E1914216E800E1A14226E7F0E02
:1025A8001B14236E2050211022102310D8A4DFEF13
:1025B80012F0E1EF12F0E9EF12F0000E186E000EC3
:1025C800196E000E1A6E000E1B6E000E1C14206E83
:1025D800000E1D14216E800E1E14226E7F0E1F1415
:1025E800236E2050211022102310D8A4FEEF12F0E1
:1025F80000EF13F008EF13F0000E1C6E000E1D6EB6
:10260800000E1E6E000E1F6E1BAE0DEF13F00FEFC7
:1026180013F018EF13F0186C191ED8B0192A1A1EE7
:10262800D8B01A2A800E1B561FAE1DEF13F01FEFED
:1026380013F028EF13F01C6C1D1ED8B01D2A1E1EA7
:10264800D8B01E2A800E1F56000E181A000E191A2E
:10265800000E1A1A800E1B1A000E1C1A000E1D1AE4
:10266800000E1E1A800E1F1A1C50185C1D50195897
:102678001E501A581F501B58D8B045EF13F047EF9B
:1026880013F04AEF13F0D8904BEF13F0D8801200F4
:102698000B6E0F0E83160F0E9516969496909692C3
:1026A8008D948D908D92E0EC17F0300E73EC17F04E
:1026B800D7EC17F0D7EC17F0300E73EC17F0D7EC17
:1026C80017F0D7EC17F0320E73EC17F011EC17F087
:1026D8000009D8A472EF13F074EF13F06AEF13F047
:1026E80011EC17F00009D8A47CEF13F07EEF13F07B
:1026F80074EF13F00B5073EC17F011EC17F000099E
:10270800D8A489EF13F08BEF13F081EF13F0080EC4
:1027180073EC17F011EC17F00009D8A496EF13F03A
:1027280098EF13F08EEF13F00F0E73EC17F011EC17
:1027380017F00009D8A4A3EF13F0A5EF13F09BEF4F
:1027480013F0010E73EC17F011EC17F00009D8A480
:10275800B0EF13F0B2EF13F0A8EF13F0040E73EC20
:1027680017F011EC17F00009D8A4BDEF13F0BFEF74
:1027780013F0B5EF13F0800E34EC17F01200000ED2
:102788000F6E0DBECCEF13F0CAEF13F0D2EF13F0BB
:102798000C6C0D1ED8B00D2A010E0F6E0BBED9EFB2
:1027A80013F0D7EF13F0DFEF13F00A6C0B1ED8B05D
:1027B8000B2A010E0F1A000E116E000E106E0C502F
:1027C8000D10D8B4EAEF13F0ECEF13F014EF14F097
:1027D800010E0E6EF4EF13F0D8900C360D360E2A5B
:1027E8000DAEF9EF13F0FBEF13F0F0EF13F0D89004
:1027F800103611360C500A5C0D500B58D8A007EF54
:1028080014F009EF14F00EEF14F00C500A5E0D509E
:102818000B5A1080D8900D320C320E2EFBEF13F0AD
:102828000F50D8B41AEF14F01CEF14F020EF14F086
:10283800106C111ED8B0112A10C00AF011C00BF08C
:102848001200000E71EC16F00AC06CF00BC06DF0AF
:10285800000E356EC00E366E7F0E376E440E386E23
:10286800000E1C6E000E1D6EA00E1E6E400E1F6E1A
:102878006CC00AF06DC00BF00C6A0D6A000E3BECE0
:1028880010F00AC018F00BC019F00CC01AF00DC0F7
:102898001BF005EC0AF018C031F019C032F01AC06C
:1028A80033F01BC034F01AEC0CF031C068F032C0C1
:1028B80069F033C06AF034C06BF068C031F069C0A9
:1028C80032F06AC033F06BC034F00A0E356ED70EA2
:1028D800366E230E376E3C0E386E1AEC0CF031C093
:1028E80064F032C065F033C066F034C067F064C08D
:1028F80060F065C061F066C062F067C063F0120006
:10290800030E71EC16F00AC06CF00BC06DF0000EEF
:10291800356EC00E366E7F0E376E440E386E000E62
:102928001C6E000E1D6EA00E1E6E400E1F6E6CC03B
:102938000AF06DC00BF00C6A0D6A000E3BEC10F04B
:102948000AC018F00BC019F00CC01AF00DC01BF02B
:1029580005EC0AF018C031F019C032F01AC033F093
:102968001BC034F01AEC0CF031C068F032C069F0CA
:1029780033C06AF034C06BF068C018F069C019F051
:102988006AC01AF06BC01BF0000E1C6E000E1D6EA4
:10299800A00E1E6E410E1F6E05EC0AF018C064F002
:1029A80019C065F01AC066F01BC067F064C060F01B
:1029B80065C061F066C062F067C063F01200020E85
:1029C80071EC16F00AC06CF00BC06DF0000E356E9D
:1029D800C00E366E7F0E376E440E386E000E1C6EBB
:1029E800000E1D6EA00E1E6E400E1F6E6CC00AF00B
:1029F8006DC00BF00C6A0D6A000E3BEC10F00AC0BB
:102A080018F00BC019F00CC01AF00DC01BF005EC43
:102A18000AF018C031F019C032F01AC033F01BC0E8
:102A280034F01AEC0CF031C068F032C069F033C0F1
:102A38006AF034C06BF068C018F069C019F06AC059
:102A48001AF06BC01BF0000E1C6E000E1D6EA00E5F
:102A58001E6E410E1F6E05EC0AF018C064F019C016
:102A680065F01AC066F01BC067F064C060F065C00E
:102A780061F066C062F067C063F01200000E0F6E6E
:102A88000BBE4BEF15F049EF15F051EF15F00A6C3E
:102A98000B1ED8B00B2A010E0F6E0DBE58EF15F0A5
:102AA80056EF15F05CEF15F00C6C0D1ED8B00D2A22
:102AB8000C500D10D8B463EF15F065EF15F089EFE1
:102AC80015F0010E0E6E6DEF15F0D8900C360D3620
:102AD8000E2A0DAE72EF15F074EF15F069EF15F0D0
:102AE8000C500A5C0D500B58D8A07DEF15F07FEF05
:102AF80015F083EF15F00C500A5E0D500B5AD89064
:102B08000D320C320E2E74EF15F00F50D8B48FEF33
:102B180015F091EF15F095EF15F00A6C0B1ED8B073
:102B28000B2A0AC00AF00BC00BF012000B500C1055
:102B3800D8B4A1EF15F0A3EF15F0A9EF15F0000E2A
:102B4800146EC00E136EADEF15F0000E146E800EED
:102B5800136E0D501324116E0E501420126E115066
:102B680073EC17F0CCEF15F00FC0F6FF10C0F7FFAD
:102B7800F86A070EF76403D00800F55005D0F6CFC1
:102B8800E1FFF7CFE2FFE75054EC17F00F4A102AA5
:102B98000FC0F6FF10C0F7FFF86A070EF76403D0FE
:102BA8000800F55005D0F6CFE1FFF7CFE2FFE75078
:102BB8000009D8A4E2EF15F0E4EF15F0B8EF15F02E
:102BC80012000600F2A4EBEF15F0EDEF15F02BEF75
:102BD80016F0640ED66E010E4A26000E4B224C22C9
:102BE8004D224AC001F04BC002F04CC003F04DC06A
:102BF80004F0E80E056E030E066E000E076E000E5A
:102C0800086E2DEC16F00150021003100410D8A421
:102C180010EF16F012EF16F02AEF16F053BE1EEF63
:102C280016F0535009E1020E525CD8A01EEF16F0C0
:102C380020EF16F026EF16F0000E536E000E526EBF
:102C48002AEF16F0000E536E010E526EF294569251
:102C580011000550061007100810D8B436EF16F00A
:102C680038EF16F068EF16F0010E096E42EF16F015
:102C7800D8900536063607360836092A08AE47EFD3
:102C880016F049EF16F03CEF16F00550015C0650BF
:102C980002580750035808500458D8A056EF16F0A9
:102CA80058EF16F060EF16F00550015E0650025A14
:102CB8000750035A0850045AD8900832073206328F
:102CC8000532092E49EF16F001C001F002C002F0EA
:102CD80003C003F004C004F01200106E0C0E106460
:102CE80078EF16F07AEF16F080EF16F0000E0B6E04
:102CF800000E0A6EA7EF16F010C00CF00C460C463A
:102D0800C2500C18C30B0C18C26E0D0E0C6EFC0EC4
:102D1800E82EFED70C2EFCD7C282C2B296EF16F070
:102D280098EF16F091EF16F0C350C4CF0CF00D6A6F
:102D38000CC00DF00C6A0C100E6E0D500F6E0EC00C
:102D48000AF00FC00BF01200F20EF66E2F0EF76E9F
:102D5800000EF86E00EED2F010EE06F00900F5CF86
:102D6800EEFFE550E150FAE100EEB8F01A0EEE6A17
:102D7800E806FDE100EE4AF00C0EEE6AE806FDE119
:102D880056905692000EF86E000164EF04F0000EA3
:102D98001E1A000E1F1A000E201A800E211A1AC0C1
:102DA8000AF01BC00BF01CC00CF01DC00DF01EC0BB
:102DB8000EF01FC00FF020C010F021C011F0A5ECDC
:102DC80007F00AC01AF00BC01BF00CC01CF00DC0B5
:102DD8001DF01200280E4CEC13F0010E73EC17F0E6
:102DE800410E0C6EEE0EE82EFED70C2EFCD700D04E
:102DF800020E73EC17F00D0E0C6EFC0EE82EFED7CB
:102E08000C2EFCD70C0E73EC17F00D0E0C6EFC0E8E
:102E1800E82EFED70C2EFCD712008D848D90F4EC92
:102E280017F08D82F4EC17F083AE1DEF17F01FEF4B
:102E380017F02AEF17F08D92F4EC17F08D82F4EC6E
:102E480017F08D928D94010E33EF17F08D92F4ECFC
:102E580017F08D82F4EC17F08D928D94000E12000D
:102E68000A6E0F0E95160F0E83160A508009F00B86
:102E780083128D948D90F4EC17F08D82F4EC17F09A
:102E88008D920F0E83160A38F00BF00B8312F4ECB8
:102E980017F08D82F4EC17F08D92F00E9512120057
:102EA8000A6E0F0E95160F0E83160A50F00B83123A
:102EB8008D808D94F4EC17F08D82F4EC17F08D92E0
:102EC8000F0E83160A38F00BF00B8312F4EC17F090
:102ED8008D82F4EC17F08D92F00E951212000A6EA6
:102EE8000F0E95160F0E83160A50F00B83128D9451
:102EF8008D90F4EC17F08D82F4EC17F08D920F0E94
:102F080083160A38F00BF00B8312F4EC17F08D825D
:102F1800F4EC17F08D92F00E951212000A500B1077
:102F28000C100D10D8B49BEF17F09DEF17F0A5EF1C
:102F380017F0000E0A1A000E0B1A000E0C1A800E5B
:102F48000D1A0AC00AF00BC00BF00CC00CF00DC033
:102F58000DF01200F29E4AC00EF04BC00FF04CC0AC
:102F680010F04DC011F0F28E0EC00AF00FC00BF039
:102F780010C00CF011C00DF01200F00E936E928686
:102F8800928092849590959294948390839282945F
:102F98001200D08EF28EF28CF184F28AF294F190C3
:102FA800F296F2901200210E0A6E760EE82EFED7E7
:102FB8000A2EFCD700D01200620E0A6E660EE82EAA
:102FC800FED70A2EFCD71200C40ED56E640ED66E3C
:102FD800F29412000B0EC16E950EC06EC2801200E4
:102FE800210EE82EFED700F01200140032001E0059
:062FF8001200120012009D
:107EF600003132334134353642373839434630451E
:107F060044030002000100000048756D696469665B
:107F1600696361646F72204F4E00485F6C696D2023
:107F260065786365646964612100545F6C696D20DE
:107F360065786365646964612100475F6C696D20DB
:107F4600657863656469646F21004C696D207265AC
:107F560073657461646F732100526573667269613B
:107F6600646F72204F4E004D656E7520496E76E146
:107F76006C69646F0048756D69642053616C766F37
:107F860021004C696D6974652054656D703A005422
:107F9600656D702053616C766121004C696D697462
:107FA600652048756D3A004578617573746F722067
:107FB6004F4E004761732053616C766F21004C6908
:107FC6006D697465204761730053697374656D61EB
:107FD600733A004C656974757261730048756D6912
:107FE600643A004C696D3A004761733A0070706DEF
:097FF600004F4B00250043000080
:020000040020DA
:08000000FFFFFFFFFFFFFFFF00
:020000040030CA
:0E000000000C191EFF8080FF0FC00FE00F40A4
:00000001FF
