:020000040000FA
:0400000007EF00F016
:1000080055821FED16F0E2EF16F0E8EC17F00AC083
:1000180086F00BC087F00CC088F00DC089F0000195
:10002800CB51865D786FCC518759796FCD518859FE
:100038007A6FCE5189597B6F7B517A1109E1F40EA1
:10004800785D010E7959D8B02CEF00F02EEF00F052
:1000580032EF00F063EF04F063EF04F086C0CBF0FA
:1000680087C0CCF088C0CDF089C0CEF0010EADECD1
:1000780017F00D0E0001786FFB0EE82EFED7782FD3
:10008800FCD700D05FEC14F060C08AF061C08BF040
:1000980062C08CF063C08DF0BEEC14F060C08EF0CE
:1000A80061C08FF062C090F063C091F01DEC15F054
:1000B80060C092F061C093F062C094F063C095F0A4
:1000C80040EF04F0000E0C6E000E0B6E000E0E6E6C
:1000D800000E0D6E900E0F6E7F0E106ED4EC15F0A4
:1000E8008AC031F08BC032F08CC033F08DC034F050
:1000F8007C0E356E000E366E000E386E010E376EB1
:1001080021EC0EF0000E0C6E000E0B6E000E0E6E43
:10011800060E0D6E7C0E0F6E000E106ED4EC15F0F0
:10012800000E0C6E000E0B6E000E0E6E0B0E0D6E9A
:10013800FD0E0F6E7F0E106ED4EC15F0000E0C6ED7
:10014800010E0B6E000E0E6E000E0D6EEA0E0F6E97
:100158007F0E106ED4EC15F0D6C012F0D7C013F095
:100168007C0E146E000E156E4FEC11F0000E0C6E26
:10017800010E0B6E000E0E6E040E0D6E7C0E0F6ED1
:10018800000E106ED4EC15F063EF04F0000E0C6E48
:10019800000E0B6E000E0E6E000E0D6EE30E0F6E4F
:1001A8007F0E106ED4EC15F08EC031F08FC032F097
:1001B80090C033F091C034F07C0E356E000E366E70
:1001C800000E386E010E376E21EC0EF0000E0C6E2C
:1001D800000E0B6E000E0E6E070E0D6E7C0E0F6E6F
:1001E800000E106ED4EC15F0000E0C6E000E0B6EA7
:1001F800000E0E6E0C0E0D6EFB0E0F6E7F0E106E47
:10020800D4EC15F0000E0C6E010E0B6E000E0E6E87
:10021800000E0D6EEA0E0F6E7F0E106ED4EC15F008
:10022800D4C012F0D5C013F07C0E146E000E156EFB
:100238004FEC11F0BAEF00F0000E0C6E000E0B6ED2
:10024800000E0E6E000E0D6EEF0E0F6E7F0E106E0E
:10025800D4EC15F092C031F093C032F094C033F072
:1002680095C034F07C0E356E000E366E000E386E7A
:10027800010E376E21EC0EF0000E0C6E000E0B6EA8
:10028800000E0E6E050E0D6E7C0E0F6E000E106EBB
:10029800D4EC15F0000E0C6E000E0B6E000E0E6EF8
:1002A8000B0E0D6EF40E0F6E7F0E106ED4EC15F063
:1002B800000E0C6E010E0B6E000E0E6E000E0D6E13
:1002C800EA0E0F6E7F0E106ED4EC15F0D2C012F04D
:1002D800D3C013F07C0E146E000E156E4FEC11F0A7
:1002E800BAEF00F0000E0C6E000E0B6E000E0E6ED4
:1002F800000E0D6EDA0E0F6E7F0E106ED4EC15F038
:10030800D6C00AF0D7C00BF0000E0BBEFF0E0C6E65
:100318000D6E010E75EC10F00AC018F00BC019F044
:100328000CC01AF00DC01BF08AC01CF08BC01DF069
:100338008CC01EF08DC01FF004EC13F0D8A0A7EFFE
:1003480001F0A9EF01F003EF02F0D4C00AF0D5C024
:100358000BF0000E0BBEFF0E0C6E0D6E010E75EC51
:1003680010F00AC018F00BC019F00CC01AF00DC03C
:100378001BF08EC01CF08FC01DF090C01EF091C005
:100388001FF004EC13F0D8A0CCEF01F0CEEF01F091
:1003980003EF02F0D2C00AF0D3C00BF0000E0BBE80
:1003A800FF0E0C6E0D6E010E75EC10F00AC018F001
:1003B8000BC019F00CC01AF00DC01BF092C01CF055
:1003C80093C01DF094C01EF095C01FF004EC13F00C
:1003D800D8A0F1EF01F0F3EF01F003EF02F0000E07
:1003E8000C6E010E0B6E000E0E6E000E0D6EF80EEA
:1003F8000F6E7F0E106ED4EC15F063EF04F0504AC8
:10040800512A51BE11EF02F0515009E1040E505C1F
:10041800D8A011EF02F013EF02F0B8EF02F0000ECF
:10042800516E000E506EB8EF02F0D6C00AF0D7C079
:100438000BF0000E0BBEFF0E0C6E0D6E010E75EC70
:1004480010F00AC018F00BC019F00CC01AF00DC05B
:100458001BF08AC01CF08BC01DF08CC01EF08DC034
:100468001FF004EC13F0D8B03CEF02F03EEF02F0BE
:1004780030EF00F0000E0C6E010E0B6E000E0E6ECB
:10048800000E0D6E300E0F6E7F0E106ED4EC15F050
:1004980063EF04F0D4C00AF0D5C00BF0000E0BBE19
:1004A800FF0E0C6E0D6E010E75EC10F00AC018F000
:1004B8000BC019F00CC01AF00DC01BF08EC01CF058
:1004C8008FC01DF090C01EF091C01FF004EC13F017
:1004D800D8B071EF02F073EF02F030EF00F0000EC9
:1004E8000C6E010E0B6E000E0E6E000E0D6E200EC1
:1004F8000F6E7F0E106ED4EC15F063EF04F0D2C0CF
:100508000AF0D3C00BF0000E0BBEFF0E0C6E0D6E82
:10051800010E75EC10F00AC018F00BC019F00CC0F1
:100528001AF00DC01BF092C01CF093C01DF094C0CF
:100538001EF095C01FF004EC13F0D8B0A6EF02F03F
:10054800A8EF02F030EF00F0000E0C6E010E0B6EFB
:10055800000E0E6E000E0D6E400E0F6E7F0E106EAA
:10056800D4EC15F063EF04F050C078F051C079F086
:1005780000017951000AD8B4C4EF02F063EF04F027
:100588007851000AD8B419EF02F0010AD8B44EEF36
:1005980002F0030AD8B483EF02F063EF04F0000E10
:1005A8000C6E000E0B6E000E0E6E000E0D6ED00E51
:1005B8000F6E7F0E106ED4EC15F0D6C00AF0D7C0BF
:1005C8000BF0000E0BBEFF0E0C6E0D6E010E75ECDF
:1005D80010F00AC018F00BC019F00CC01AF00DC0CA
:1005E8001BF08AC01CF08BC01DF08CC01EF08DC0A3
:1005F8001FF004EC13F0D8A004EF03F006EF03F0AB
:1006080060EF03F0D4C00AF0D5C00BF0000E0BBEAB
:10061800FF0E0C6E0D6E010E75EC10F00AC018F08E
:100628000BC019F00CC01AF00DC01BF08EC01CF0E6
:100638008FC01DF090C01EF091C01FF004EC13F0A5
:10064800D8A029EF03F02BEF03F060EF03F0D2C03E
:100658000AF0D3C00BF0000E0BBEFF0E0C6E0D6E31
:10066800010E75EC10F00AC018F00BC019F00CC0A0
:100678001AF00DC01BF092C01CF093C01DF094C07E
:100688001EF095C01FF004EC13F0D8A04EEF03F055
:1006980050EF03F060EF03F0000E0C6E010E0B6ECE
:1006A800000E0E6E000E0D6EF80E0F6E7F0E106EA1
:1006B800D4EC15F063EF04F04E4A4F2A4FBE6EEFAC
:1006C80003F04F5009E1040E4E5CD8A06EEF03F022
:1006D80070EF03F015EF04F0000E4F6E000E4E6E33
:1006E80015EF04F0D6C00AF0D7C00BF0000E0BBE11
:1006F800FF0E0C6E0D6E010E75EC10F00AC018F0AE
:100708000BC019F00CC01AF00DC01BF08AC01CF009
:100718008BC01DF08CC01EF08DC01FF004EC13F0D0
:10072800D8B099EF03F09BEF03F063EF04F0000EED
:100738000C6E010E0B6E000E0E6E000E0D6E6E0E20
:100748000F6E7F0E106ED4EC15F063EF04F0D4C07A
:100758000AF0D5C00BF0000E0BBEFF0E0C6E0D6E2E
:10076800010E75EC10F00AC018F00BC019F00CC09F
:100778001AF00DC01BF08EC01CF08FC01DF090C089
:100788001EF091C01FF004EC13F0D8B0CEEF03F0C8
:10079800D0EF03F063EF04F0000E0C6E010E0B6E49
:1007A800000E0E6E000E0D6E0F0E0F6E7F0E106E89
:1007B800D4EC15F063EF04F0D2C00AF0D3C00BF00C
:1007C800000E0BBEFF0E0C6E0D6E010E75EC10F0D8
:1007D8000AC018F00BC019F00CC01AF00DC01BF0BD
:1007E80092C01CF093C01DF094C01EF095C01FF07D
:1007F80004EC13F0D8B003EF04F005EF04F063EF56
:1008080004F0000E0C6E010E0B6E000E0E6E000E44
:100818000D6EAE0E0F6E7F0E106ED4EC15F063EFFA
:1008280004F04EC078F04FC079F000017951000A09
:10083800D8B421EF04F063EF04F07851000AD8B47B
:1008480076EF03F0010AD8B4ABEF03F0030AD8B48B
:10085800E0EF03F063EF04F0000E0C6E000E0B6E79
:10086800000E0E6E000E0D6E5F0E0F6E7F0E106E78
:10087800D4EC15F063EF04F076C078F077C079F027
:1008880000017951000AD8B44CEF04F030EF04F0BD
:100898007851000AD8B466EF00F0010AD8B4CAEF5C
:1008A80000F0030AD8B420EF01F0010AD8B476EFBB
:1008B80001F0070AD8B4D3EF02F030EF04F01200C9
:1008C800000E0001B46F000EB76F000EB66F000E79
:1008D8009A6F000E9B6F000E9C6F000E9D6FFBECD5
:1008E80017F02BEC18F028EC17F025EC18F00AECB0
:1008F80018F095909592959479EC0FF00001B56FEA
:10090800E8EC17F00AC09EF00BC09FF00CC0A0F0F6
:100918000DC0A1F000019A519E5D966F9B519F59A1
:10092800976F9C51A059986F9D51A159996F9951F2
:1009380098110BE1F40E965D010E9759D8A0A7EF18
:1009480004F0A9EF04F0B7EF04F0B6C076F0B7C032
:1009580077F009EC00F09EC09AF09FC09BF0A0C011
:100968009CF0A1C09DF0450E0001B519D8A4BFEFB9
:1009780004F0C1EF04F0E4EF04F0450EB419D8B464
:10098800C8EF04F0CAEF04F0E4EF04F0B64BB72B5D
:10099800B7BFD8EF04F0B75109E1050EB65DD8A08E
:1009A800D8EF04F0DAEF04F0DEEF04F0000EB76FD2
:1009B800000EB66FB6C076F0B7C077F009EC00F05D
:1009C800460E0001B519D8A4ECEF04F0EEEF04F0E0
:1009D8000BEF05F0460EB419D8B4F5EF04F0F7EFB5
:1009E80004F00BEF05F0B607D8A0B707B7BF01EFC3
:1009F80005F0FFEF04F005EF05F0000EB76F040EE9
:100A0800B66FB6C076F0B7C077F009EC00F0410ECB
:100A18000001B519D8A413EF05F015EF05F06BEF39
:100A280005F0410EB419D8B41CEF05F01EEF05F01F
:100A38006BEF05F0890E296E7F0E2A6EEFEC11F030
:100A480029C0AEF02AC0AFF00001AE2908E1AF29F5
:100A5800D8B431EF05F033EF05F05FEF05F0AEC025
:100A6800D6F0AFC0D7F0000E0C6E010E0B6E000E64
:100A78000E6E000E0D6E960E0F6E7F0E106ED4EC7D
:100A880015F01A0E0001976F5E0E966F6E0EE82E27
:100A9800FED7962FFCD7972FFAD700F0000E00014B
:100AA800B76F000EB66F000E776F000E766F09EC09
:100AB80000F06BEF05F0AE2906E1AF29D8A467EF87
:100AC80005F069EF05F06BEF05F052EF05F0420E07
:100AD8000001B519D8A473EF05F075EF05F0CBEF59
:100AE80005F0420EB419D8B47CEF05F07EEF05F09E
:100AF800CBEF05F0A20E296E7F0E2A6EEFEC11F0F7
:100B080029C0B0F02AC0B1F00001B02908E1B1292C
:100B1800D8B491EF05F093EF05F0BFEF05F0B0C042
:100B2800D4F0B1C0D5F0000E0C6E010E0B6E000EA5
:100B38000E6E000E0D6E7C0E0F6E7F0E106ED4ECD6
:100B480015F01A0E0001976F5E0E966F6E0EE82E66
:100B5800FED7962FFCD7972FFAD700F0000E00018A
:100B6800B76F000EB66F000E776F000E766F09EC48
:100B780000F0CBEF05F0B02906E1B129D8A4C7EF02
:100B880005F0C9EF05F0CBEF05F0B2EF05F0430E25
:100B98000001B519D8A4D3EF05F0D5EF05F02BEF78
:100BA80006F0430EB419D8B4DCEF05F0DEEF05F01B
:100BB8002BEF06F0C50E296E7F0E2A6EEFEC11F0B2
:100BC80029C0B2F02AC0B3F00001B22908E1B32964
:100BD800D8B4F1EF05F0F3EF05F01FEF06F0B2C05F
:100BE800D2F0B3C0D3F0000E0C6E010E0B6E000EE7
:100BF8000E6E000E0D6EBA0E0F6E7F0E106ED4ECD8
:100C080015F01A0E0001976F5E0E966F6E0EE82EA5
:100C1800FED7962FFCD7972FFAD700F0000E0001C9
:100C2800B76F000EB66F000E776F000E766F09EC87
:100C380000F02BEF06F0B22906E1B329D8A427EF7C
:100C480006F029EF06F02BEF06F012EF06F0440E3F
:100C58000001B519D8A433EF06F035EF06F070EFB0
:100C680006F0440EB419D8B43CEF06F03EEF06F097
:100C780070EF06F0000ED76F1E0ED66F000ED56F00
:100C8800320ED46F000ED36F140ED26F000E0C6E9E
:100C9800000E0B6E000E0E6E000E0D6E500E0F6ED7
:100CA8007F0E106ED4EC15F01A0E0001976F5E0ED1
:100CB800966F6E0EE82EFED7962FFCD7972FFAD791
:100CC80000F0000E0001B76F000EB66F000E776FD0
:100CD800000E766F09EC00F05FEC14F060C0AAF02B
:100CE80061C0ABF062C0ACF063C0ADF0BEEC14F014
:100CF80060C0A2F061C0A3F062C0A4F063C0A5F018
:100D08001DEC15F060C0A6F061C0A7F062C0A8F0A5
:100D180063C0A9F0D6C00AF0D7C00BF0000E0BBE16
:100D2800FF0E0C6E0D6E010E75EC10F00AC018F077
:100D38000BC019F00CC01AF00DC01BF0AAC01CF0B3
:100D4800ABC01DF0ACC01EF0ADC01FF004EC13F03A
:100D5800D8A0B1EF06F0B3EF06F0FDEF06F0D4C06F
:100D68000AF0D5C00BF0000E0BBEFF0E0C6E0D6E18
:100D7800010E75EC10F00AC018F00BC019F00CC089
:100D88001AF00DC01BF0A2C01CF0A3C01DF0A4C037
:100D98001EF0A5C01FF004EC13F0D8A0D6EF06F0A3
:100DA800D8EF06F0FDEF06F0D2C00AF0D3C00BF082
:100DB800000E0BBEFF0E0C6E0D6E010E75EC10F0E2
:100DC8000AC018F00BC019F00CC01AF00DC01BF0C7
:100DD800A6C01CF0A7C01DF0A8C01EF0A9C01FF037
:100DE80004EC13F0D8B0FBEF06F0FDEF06F005EFCA
:100DF80007F0000E0B6E010E0A6E3BEC18F00BEFBD
:100E080007F0000E0B6E000E0A6E3BEC18F0D6C011
:100E18000AF0D7C00BF0000E0BBEFF0E0C6E0D6E65
:100E2800010E75EC10F00AC018F00BC019F00CC0D8
:100E38001AF00DC01BF0AAC01CF0ABC01DF0ACC06E
:100E48001EF0ADC01FF004EC13F0D8B02EEF07F081
:100E580030EF07F034EF07F0838082846EEF07F0FD
:100E6800AAC018F0ABC019F0ACC01AF0ADC01BF0A6
:100E7800F60E0001966FFF0E976FD6C098F0D7C098
:100E880099F0965198279751992398C00AF099C0DC
:100E98000BF0000E0BBEFF0E0C6E0D6E010E75EC06
:100EA80010F00AC01CF00BC01DF00CC01EF00DC0E5
:100EB8001FF004EC13F0D8B064EF07F066EF07F00A
:100EC8006BEF07F08390829482826EEF07F0839035
:100ED80082948292D4C00AF0D5C00BF0000E0BBEEB
:100EE800FF0E0C6E0D6E010E75EC10F00AC018F0B6
:100EF8000BC019F00CC01AF00DC01BF0A2C01CF0FA
:100F0800A3C01DF0A4C01EF0A5C01FF004EC13F090
:100F1800D8B091EF07F093EF07F09CEF07F08382CA
:100F2800000E0B6E010E0A6E39EC18F0A3EF07F0F5
:100F38008392000E0B6E000E0A6E39EC18F0D2C0C8
:100F48000AF0D3C00BF0000E0BBEFF0E0C6E0D6E38
:100F5800010E75EC10F00AC018F00BC019F00CC0A7
:100F68001AF00DC01BF0A6C01CF0A7C01DF0A8C049
:100F78001EF0A9C01FF004EC13F0D8B0C6EF07F0BC
:100F8800C8EF07F0D1EF07F08384000E0B6E0A68F4
:100F98003AEC18F08284D9EF07F08394000E0B6EB8
:100FA800000E0A6E3AEC18F08294B5C0B4F080EFE7
:100FB80004F007EF00F00D50800B166E0D500D2455
:100FC800186E0CAEEAEF07F0ECEF07F0EDEF07F064
:100FD80018801850D8B4F3EF07F0F5EF07F00AEFD0
:100FE80008F01828D8A4FBEF07F0FDEF07F005EF8D
:100FF80008F0000E0A6E000E0B6E000E0C6E000E4E
:101008000D6E0C8E000E0D6E12EF08F0000E0A6EBB
:10101800000E0B6E000E0C6E000E0D6E1150800B44
:10102800176E16501718D8B41CEF08F01EEF08F00A
:101038001FEF08F0168C11501124176E10AE27EF11
:1010480008F029EF08F02AEF08F017801750D8B4F5
:1010580030EF08F032EF08F047EF08F01728D8A46F
:1010680038EF08F03AEF08F042EF08F0000E0E6E85
:10107800000E0F6E000E106E000E116E108E000E18
:10108800116E4FEF08F0000E0E6E000E0F6E000E80
:10109800106E000E116E1850175CD8B056EF08F09D
:1010A80058EF08F07FEF08F016AC5DEF08F05FEF3F
:1010B80008F061EF08F0800E161A18C019F017C072
:1010C80018F019C017F00AC019F00EC00AF019C0BC
:1010D8000EF00BC019F00FC00BF019C00FF00CC0C8
:1010E80019F010C00CF019C010F00DC019F011C0A3
:1010F8000DF019C011F0000E196E185017C012F03B
:10110800136A125E000E135A13BE94EF08F01350C0
:1011180009E11A0E125CD8A094EF08F096EF08F0D7
:10112800CDEF08F00A500B100C100D10D8A49FEF4B
:1011380008F0A2EF08F0010EA3EF08F0000E196EF8
:10114800000E0A6E000E0B6E000E0C6E000E0D6E79
:1011580017C018F0D6EF08F019A0B5EF08F0B7EFF0
:1011680008F0BDEF08F0D89019300109196EBFEFEB
:1011780008F0D89019320AA0C4EF08F0C6EF08F0BA
:10118800C7EF08F0198E0D340D320C320B320A32CB
:10119800182A1750185CD8A0D4EF08F0D6EF08F03A
:1011A800B0EF08F016BCDBEF08F0DDEF08F01DEF3C
:1011B80009F01850D8A4E3EF08F0E5EF08F0EFEFD6
:1011C80008F0000E0A6E000E0B6E000E0C6E000E7C
:1011D8000D6E3EEF0AF00E500A260F500B221050EB
:1011E8000C2211500D220DA0FCEF08F0FEEF08F0C4
:1011F800AAEF09F019A003EF09F005EF09F00BEFCA
:1012080009F0D89019300109196E0DEF09F0D8903E
:1012180019320AA012EF09F014EF09F015EF09F0DE
:10122800198E0D340D320C320B320A32182AAAEFFD
:1012380009F00E500A5C0F500B5810500C580D5006
:10124800800A126E1150800A1258D8B02EEF09F099
:1012580030EF09F05BEF09F00A500E5C126E0B508C
:101268000F58136E0C501058146E0D501158156EFF
:10127800FF0E12240A6EFF0E13200B6EFF0E1420B1
:101288000C6EFF0E15200D6E800E161A196C195073
:10129800D8A451EF09F053EF09F063EF09F0010EFC
:1012A8000A26000E0B220C220D2263EF09F00E50C5
:1012B8000A5E0F500B5A10500C5A11500D5A0A5012
:1012C8000B100C100D10D8A46CEF09F06EEF09F09C
:1012D800A3EF09F01950D8A474EF09F076EF09F0DC
:1012E800A3EF09F0000E0A6E000E0B6E000E0C6ED6
:1012F800000E0D6E3EEF0AF0D8900A360B360C360B
:101308000D3619AE8AEF09F08CEF09F08DEF09F070
:101318000A8019A092EF09F094EF09F098EF09F00C
:10132800D88019369AEF09F0D89019361850D8B4E1
:10133800A0EF09F0A2EF09F0A3EF09F018060CAE30
:10134800A8EF09F0AAEF09F080EF09F0000E176E78
:1013580019AEB1EF09F0B3EF09F0CBEF09F019C0FE
:1013680012F07F0E1216D8B4BCEF09F0BEEF09F0E8
:10137800C2EF09F0010E176ECBEF09F00AA0C7EF14
:1013880009F0C9EF09F0CBEF09F0BEEF09F01750EB
:10139800D8B4D1EF09F0D3EF09F0FEEF09F0010E50
:1013A8000A26000E0B220C220D220DA0DEEF09F0FA
:1013B800E0EF09F0FEEF09F00AC012F00BC013F0DD
:1013C8000CC014F00DC015F0153415321432133258
:1013D800123212C00AF013C00BF014C00CF015C082
:1013E8000DF01828D8B4FBEF09F0FDEF09F0FEEF77
:1013F80009F0182A1828D8B404EF0AF006EF0AF002
:101408000EEF0AF01850D8A40CEF0AF00EEF0AF00D
:1014180020EF0AF0000E0A6E000E0B6E000E0C6E26
:10142800000E0D6E1850D8A41CEF0AF01EEF0AF03B
:1014380020EF0AF0000E166E18A025EF0AF027EF2D
:101448000AF02AEF0AF00C8E2BEF0AF00C9ED890C7
:1014580018300D6E16AE33EF0AF035EF0AF036EF9E
:101468000AF00D8E0AC00AF00BC00BF00CC00CF08D
:101478000DC00DF012001B50800B246E1B501B2456
:101488002A6E1AAE4AEF0AF04CEF0AF04DEF0AF056
:101498002A802A50D8B453EF0AF055EF0AF068EFC3
:1014A8000AF02A28D8A45BEF0AF05DEF0AF065EF8E
:1014B8000AF0000E186E000E196E000E1A6E000E5D
:1014C8001B6E1A8E70EF0AF0000E186E000E196E61
:1014D800000E1A6E000E1B6E1F50800B241A1F5030
:1014E8001F24256E1EAE7BEF0AF07DEF0AF07EEF1B
:1014F8000AF025802550D8B484EF0AF086EF0AF068
:1015080099EF0AF02528D8A48CEF0AF08EEF0AF09C
:1015180096EF0AF0000E1C6E000E1D6E000E1E6E79
:10152800000E1F6E1E8EA1EF0AF0000E1C6E000E3C
:101538001D6E000E1E6E000E1F6E2550D8B4A7EF4C
:101548000AF0A9EF0AF0B1EF0AF02A50D8A4AFEFD9
:101558000AF0B1EF0AF0BBEF0AF0000E186E000EA9
:10156800196E000E1A6E000E1B6E53EF0CF01E5013
:101578001802F3CF2FF0F4CF30F02F50266E276AE1
:10158800286A296A30502B6E2C6A2D6A2E6A1D50E3
:101598001902F3CF2FF0F4CF30F02F502626000E8B
:1015A80027222822292230502B26000E2C222D22D9
:1015B8002E221C501A02F3CF2FF0F4CF30F02F5008
:1015C8002626000E27222822292230502B26000EFC
:1015D8002C222D222E2228C029F027C028F026C030
:1015E80027F0266A1C501902F3CF2FF0F4CF30F001
:1015F8002F50262630502722000E2822000E29229E
:101608001D501802F3CF2FF0F4CF30F02F502626BC
:1016180030502722000E2822000E292228C029F047
:1016280027C028F026C027F0266A1C501802F3CFDE
:101638002FF0F4CF30F02F50262630502722000EFE
:101648002822000E29221E501902F3CF2FF0F4CFC2
:1016580030F02F502B2630502C22000E2D22000E59
:101668002E221D501A02F3CF2FF0F4CF30F02F5056
:101678002B2630502C22000E2D22000E2E221E501A
:101688001A02F3CF2FF0F4CF30F02F50206E3050E5
:10169800216E226A236A22C023F021C022F020C0D2
:1016A80021F0206A20502B2621502C2222502D2256
:1016B80023502E2226C020F027C021F028C022F077
:1016C80029C023F0190E6EEF0BF0D8902332223286
:1016D80021322032E82E69EF0BF020502B262150C2
:1016E8002C2222502D2223502E2228C029F027C038
:1016F80028F026C027F0266A25502AC020F0216A43
:101708002026000E2122820E20242F6EFF0E21207B
:10171800306EA4EF0BF0D8902B362C362D362E36A3
:1017280029AE99EF0BF09BEF0BF09CEF0BF02B80A1
:10173800D89026362736283629362F06D8A03006E0
:101748002DAEA9EF0BF0ABEF0BF08FEF0BF0000E07
:10175800256E29AEB2EF0BF0B4EF0BF0D8EF0BF01B
:10176800FF0E2614206EFF0E2714216EFF0E28147C
:10177800226E7F0E2914236E205021102210231070
:10178800D8B4C9EF0BF0CBEF0BF0CFEF0BF0010E95
:10179800256ED8EF0BF02BA0D4EF0BF0D6EF0BF0A3
:1017A800D8EF0BF0CBEF0BF02550D8B4DEEF0BF0F1
:1017B800E0EF0BF004EF0CF0010E2B26000E2C22AC
:1017C8002D222E222EA0EBEF0BF0EDEF0BF004EF05
:1017D8000CF02BC020F02CC021F02DC022F02EC020
:1017E80023F02334233222322132203220C02BF03E
:1017F80021C02CF022C02DF023C02EF02F4A302A11
:1018080030BE0FEF0CF0305008E12F28D8A00FEFB2
:101818000CF011EF0CF01BEF0CF0000E2B6E000E0D
:101828002C6E800E2D6E7F0E2E6E49EF0CF030BEA2
:1018380028EF0CF0305006E12F04D8B026EF0CF05A
:1018480028EF0CF034EF0CF0000E2B6E000E2C6E0F
:10185800000E2D6E000E2E6E000E246E49EF0CF059
:101868002FC02AF0FF0E2B16FF0E2C167F0E2D16FA
:10187800000E2E162AA043EF0CF045EF0CF046EFB1
:101888000CF02D8ED8902A302E6E24502E122BC09C
:1018980018F02CC019F02DC01AF02EC01BF0120041
:1018A8003450800B416E34503424486E33AE5FEFB1
:1018B8000CF061EF0CF062EF0CF048804850D8B49F
:1018C80068EF0CF06AEF0CF07FEF0CF04828D8A412
:1018D80070EF0CF072EF0CF07AEF0CF0000E316E36
:1018E800000E326E000E336E000E346E338E000E14
:1018F800346E87EF0CF0000E316E000E326E000E63
:10190800336E000E346E3850800B411A385038242C
:10191800496E37AE92EF0CF094EF0CF095EF0CF0A7
:1019280049804950D8B49BEF0CF09DEF0CF0B2EF12
:101938000CF04928D8A4A3EF0CF0A5EF0CF0ADEFFC
:101948000CF0000E356E000E366E000E376E000E6F
:10195800386E378E000E386EBAEF0CF0000E356E0A
:10196800000E366E000E376E000E386E355036108B
:1019780037103810D8A4C3EF0CF0C5EF0CF0DDEF2A
:101988000CF0000E316E000E326E000E336E000E3B
:10199800346E800E33127F0E34124150341231C02F
:1019A80031F032C032F033C033F034C034F020EFBD
:1019B8000EF04850D8A4E3EF0CF0E5EF0CF0EFEF91
:1019C8000CF0000E316E000E326E000E336E000EFB
:1019D800346E20EF0EF0495048C039F03A6A395E4B
:1019E800000E3A5A7F0E3924426E000E3A20436E9A
:1019F80031C03DF032C03EF033C03FF034C040F05B
:101A0800000E316E000E326E000E336E000E346E14
:101A1800000E446E000E456E000E466E000E476EB8
:101A2800000E496E50EF0DF04950D8B41EEF0DF07E
:101A380020EF0DF037EF0DF0D8903D363E363F36AB
:101A48004036D890313632363336343647AE2FEFFB
:101A58000DF031EF0DF032EF0DF03180D8904436B3
:101A680045364636473635503D5C36503E58375039
:101A78003F5838504058D8A044EF0DF046EF0DF0CD
:101A88004FEF0DF0478C35503D5E36503E5A37507B
:101A98003F5A3850405A492A190E496456EF0DF0FA
:101AA80058EF0DF018EF0DF03D503E103F1040106C
:101AB800D8B461EF0DF063EF0DF07BEF0DF04480CB
:101AC8007BEF0DF0D890313632363336343647AEA8
:101AD80070EF0DF072EF0DF073EF0DF03180D890CC
:101AE80044364536463647364206D8A0430633AE16
:101AF80080EF0DF082EF0DF066EF0DF0000E496EED
:101B080047AE89EF0DF08BEF0DF0AFEF0DF0FF0E44
:101B18004414396EFF0E45143A6EFF0E46143B6EA0
:101B28007F0E47143C6E39503A103B103C10D8B425
:101B3800A0EF0DF0A2EF0DF0A6EF0DF0010E496E2B
:101B4800AFEF0DF031A0ABEF0DF0ADEF0DF0AFEF53
:101B58000DF0A2EF0DF04950D8B4B5EF0DF0B7EF86
:101B68000DF0DBEF0DF0010E3126000E322233228C
:101B7800342234A0C2EF0DF0C4EF0DF0DBEF0DF00E
:101B880031C039F032C03AF033C03BF034C03CF0D9
:101B98003C343C323B323A32393239C031F03AC007
:101BA80032F03BC033F03CC034F0424A432A43BED3
:101BB800E6EF0DF0435008E14228D8A0E6EF0DF01B
:101BC800E8EF0DF0F3EF0DF0000E436E4268000EE3
:101BD800316E000E326E000E336E000E346E43BE50
:101BE80000EF0EF0435006E14204D8B0FEEF0DF0CE
:101BF80000EF0EF00EEF0EF0000E436E000E426E78
:101C0800000E316E000E326E000E336E000E346E12
:101C1800000E416E42C048F048A015EF0EF017EFD5
:101C28000EF01AEF0EF0338E1BEF0EF0339ED890A5
:101C38004830346ED1EF0CF01200000E0001756FC1
:101C4800000E746F34BE2DEF0EF02BEF0EF047EF41
:101C58000EF035C0D9FF36C0DAFF2D0EDF6E354ADB
:101C6800362A31C00AF032C00BF033C00CF034C051
:101C78000DF0CCEC17F00AC031F00BC032F00CC0FC
:101C880033F00DC034F031C00AF032C00BF033C06D
:101C98000CF034C00DF081EC12F00AC06EF00BC0ED
:101CA8006FF031C01AF032C01BF033C01CF034C0E2
:101CB8001DF06EC00AF06FC00BF0000E0BBEFF0ED9
:101CC8000C6E0D6E010E75EC10F00AC01EF00BC004
:101CD8001FF00CC020F00DC021F005EC17F01AC061
:101CE80031F01BC032F01CC033F01DC034F00001CD
:101CF8006E516F11D8A483EF0EF085EF0EF08BEFC5
:101D08000EF0300E606F744B752BC5EF0EF06EC081
:101D180070F06FC071F0000E756F000E746F600E7A
:101D28007425D96E000E7521DA6E70C00AF071C084
:101D38000BF0000E0D6E0A0E0C6E7CEC15F00A50BE
:101D4800300FDF6E0001744B752B70C00AF071C044
:101D58000BF0000E0D6E0A0E0C6EFDEC13F00AC0AF
:101D680070F00BC071F0000171BFC5EF0EF071513A
:101D780006E17005D8B0C3EF0EF0C5EF0EF093EF93
:101D88000EF0000E736F000E726FE7EF0EF0600E2C
:101D9800396E000E3A6E7251395E73513A5A745167
:101DA800392675513A22FF0E3924D96EFF0E3A2092
:101DB800DA6E72513524E16E73513620E26EDFCF50
:101DC800E7FF724B732B7451725D7351800A396E41
:101DD8007551800A3958D8A0F4EF0EF0F6EF0EF0DE
:101DE800CBEF0EF0745135267551362235C0D9FF28
:101DF80036C0DAFF2E0EDF6E354A362A000E736FB4
:101E0800000E726F63EF0FF031C018F032C019F096
:101E180033C01AF034C01BF0000E1C6E000E1D6E8D
:101E2800200E1E6E410E1F6E3FEC0AF018C031F0F6
:101E380019C032F01AC033F01BC034F031C00AF0B8
:101E480032C00BF033C00CF034C00DF081EC12F04E
:101E58000AC06CF00BC06DF000016C51300F35C03A
:101E6800D9FF36C0DAFFDF6E354A362A31C01AF09C
:101E780032C01BF033C01CF034C01DF06CC00AF037
:101E88006DC00BF0000E0BBEFF0E0C6E0D6E010E3A
:101E980075EC10F00AC01EF00BC01FF00CC020F04B
:101EA8000DC021F005EC17F01AC031F01BC032F05C
:101EB8001CC033F01DC034F00001724B732B375037
:101EC800725D7351800A396E3850800A3958D8A02B
:101ED80070EF0FF072EF0FF008EF0FF035C0D9FF79
:101EE80036C0DAFF000EDF6E1200070EF66E7F0EA8
:101EF800F76E20EE18F0070E0900F5CFDEFFE806B2
:101F0800FBE2E8EC17F00AC020F00BC021F00CC08F
:101F180022F00DC023F0000E256E000E246E25BEA3
:101F28009FEF0FF0255009E1040E245CD8A09FEF25
:101F38000FF0A1EF0FF0A3EF0FF06DEF10F024C03A
:101F480012F0010E136E122AACEF0FF0D890133670
:101F5800122EAAEF0FF01350FF0A8A6E210E126E8E
:101F6800760EE82EFED7122EFCD700D0000E276E74
:101F7800000E266E26C012F0040E1226010E136EF5
:101F8800122AC9EF0FF0D8901336122EC7EF0FF0B0
:101F9800135081140009D8A4D4EF0FF0D6EF0FF036
:101FA80059EF10F0D8902434D96E2534DA6E180E13
:101FB800D926000EDA22DECF12F0DDCF13F026C0CC
:101FC80014F027C015F0D89014361536D89014366A
:101FD8001536F70E166E7E0E176E1450162615500F
:101FE8001722125016261350172216C0F6FF17C0D4
:101FF800F7FF0800F5CF28F054502818D8B407EF99
:1020080010F009EF10F013EF10F020C0C7F021C056
:10201800C8F022C0C9F023C0CAF028C054F000019B
:10202800C751205C126EC8512158136EC9512258ED
:10203800146ECA512358156E15501410131009E167
:10204800330E125CD8A02BEF10F02DEF10F056EFE6
:1020580010F0C351205C126EC4512158136EC55143
:102068002258146EC6512358156E155014100BE1E2
:102078002D0E125C010E1358D8A045EF10F047EF53
:1020880010F056EF10F020C0C3F021C0C4F022C0F9
:10209800C5F023C0C6F028C0B9F028C0B8F0285051
:1020A80074EF10F0000E74EF10F0264A272A27BEAE
:1020B80067EF10F0275009E1040E265CD8A067EFFF
:1020C80010F069EF10F0BEEF0FF0244A252A93EFC5
:1020D8000FF0000E0001B86F000E546E56EF10F0AE
:1020E8001200126E1250D8B47CEF10F07EEF10F090
:1020F800A0EF10F00DBE85EF10F083EF10F0A0EF09
:1021080010F00AC00EF00BC00FF00CC010F00DC09C
:1021180011F00E1E0F1E101E111E0E2A000E0F2289
:10212800102211220EC014F00FC015F010C016F0C6
:1021380011C017F0A8EF10F00AC014F00BC015F08A
:102148000CC016F00DC017F00A500B100C100D1033
:10215800D8A4B1EF10F0B3EF10F0BDEF10F0000EFF
:102168000A6E000E0B6E000E0C6E000E0D6E4EEF1A
:1021780011F0960E136EC7EF10F0132AD89017328D
:10218800163215321432000E14140E6E000E151489
:102198000F6E000E1614106EFE0E1714116E0E50F0
:1021A8000F1010101110D8A4DCEF10F0DEEF10F0B3
:1021B800C1EF10F0ECEF10F0132A010E1426000EF8
:1021C800152216221722D8901732163215321432D9
:1021D800000E14140E6E000E15140F6E000E161459
:1021E800106EFF0E1714116E0E500F1010101110F4
:1021F800D8A401EF11F003EF11F0E0EF10F00BEFAE
:1022080011F01306D890143615361636173616BE42
:1022180010EF11F012EF11F01AEF11F0020E136027
:1022280018EF11F01AEF11F005EF11F013B01FEFCE
:1022380011F021EF11F022EF11F0169ED890133211
:1022480013C00EF00F6A106A116A0EC011F0106AFE
:102258000F6A0E6A0E5014120F50151210501612F3
:10226800115017121250D8B43CEF11F03EEF11F094
:1022780046EF11F00DBE45EF11F043EF11F046EFB8
:1022880011F0178E14C00AF015C00BF016C00CF030
:1022980017C00DF01200000E176E000E166E1450C7
:1022A8001510D8A45AEF11F05CEF11F05EEF11F0A1
:1022B800EEEF11F012501310D8A465EF11F067EF8C
:1022C80011F077EF11F014C0D9FF15C0DAFF300E06
:1022D800DF6E20EE01F01450D9261550DA22000ED8
:1022E800DF6EEEEF11F013BE7EEF11F07CEF11F010
:1022F8008CEF11F0126C131ED8B0132A14C0D9FF3A
:1023080015C0DAFF2D0EDF6E144A152A164A172A51
:1023180012C018F013C019F0A2EF11F018C00AF09B
:1023280019C00BF0000E0D6E0A0E0C6EFDEC13F0CA
:102338000AC018F00BC019F0164A172A19BEAFEFD9
:1023480011F0195006E11804D8B0ADEF11F0AFEF55
:1023580011F092EF11F016501424D96E1750152071
:10236800DA6E000EDF6E12C018F013C019F0E1EF3C
:1023780011F01606D8A0170616501424D96E175057
:102388001520DA6E18C00AF019C00BF0000E0D6E99
:102398000A0E0C6E7CEC15F00A50300FDF6E18C078
:1023A8000AF019C00BF0000E0D6E0A0E0C6EFDEC53
:1023B80013F00AC018F00BC019F019BEEEEF11F0B7
:1023C800195006E11804D8B0ECEF11F0EEEF11F057
:1023D800BDEF11F01200000E2D6E000E2E6E000ED5
:1023E8002F6E000E316E000E306E010EADEC17F040
:1023F8000D0E2B6EFC0EE82EFED72B2EFCD7020EF0
:10240800ADEC17F00D0E2B6EFC0EE82EFED72B2E22
:10241800FCD7000E0C6E000E0B6E000E0E6E000E3A
:102428000D6E29C00FF02AC010F0D4EC15F062EF41
:1024380012F079EC0FF0326E2F0E326426EF12F0A4
:1024480028EF12F055EF12F03A0E32602EEF12F02C
:1024580030EF12F055EF12F02D0E3024D96E000E29
:102468003120DA6E32C0DFFF000E0C6E010E0B6EEB
:1024780030C00DF031C00EF02D0E30240F6E000E5E
:102488003120106ED4EC15F0304A312A060E2C6E2D
:10249800130E2B6EAE0EE82EFED72B2EFCD72C2E4D
:1024A800FAD7460E3218D8A45CEF12F05EEF12F09D
:1024B80062EF12F029682A6880EF12F031BE6EEFE1
:1024C80012F0315009E1020E305CD8A06EEF12F024
:1024D80070EF12F01DEF12F02D500A0DF3CF2BF014
:1024E800F4CF2CF02E502B26000E2C22F00E2B248D
:1024F800296EFD0E2C202A6E12000C340D34136E3A
:102508001350D8A48AEF12F08CEF12F096EF12F065
:10251800000E0A6E000E0B6E000E0C6E000E0D6E95
:1025280003EF13F00AC00EF00BC00FF00CC010F050
:102538000DC011F0200EA6EF12F0D8901132103213
:102548000F320E32E82EA1EF12F00E50126E0C8EE2
:10255800FF0E0A16FF0E0B16FF0E0C16000E0D16B8
:10256800960E135E13BEBDEF12F0BBEF12F0D3EF61
:1025780012F01350800A970FD8B0C5EF12F0C7EFCA
:1025880012F0C9EF12F08CEF12F0D8900D320C3225
:102598000B320A32133EC9EF12F0EBEF12F01F0EA6
:1025A8001364D9EF12F0DBEF12F0E3EF12F08CEFC7
:1025B80012F0D8900A360B360C360D361306135027
:1025C800D8A4E9EF12F0EBEF12F0DDEF12F01250A1
:1025D800D8B4F1EF12F0F3EF12F0FBEF12F00D1E8A
:1025E8000C1E0B1E0A6C000E0B220C220D220AC0B8
:1025F8000AF00BC00BF00CC00CF00DC00DF012006F
:10260800000E1814206E000E1914216E800E1A1474
:10261800226E7F0E1B14236E2050211022102310CF
:10262800D8A419EF13F01BEF13F023EF13F0000EEB
:10263800186E000E196E000E1A6E000E1B6E000E3C
:102648001C14206E000E1D14216E800E1E14226EA6
:102658007F0E1F14236E2050211022102310D8A49F
:1026680038EF13F03AEF13F042EF13F0000E1C6E40
:10267800000E1D6E000E1E6E000E1F6E1BAE47EF85
:1026880013F049EF13F052EF13F0186C191ED8B07D
:10269800192A1A1ED8B01A2A800E1B561FAE57EFD9
:1026A80013F059EF13F062EF13F01C6C1D1ED8B035
:1026B8001D2A1E1ED8B01E2A800E1F56000E181A7C
:1026C800000E191A000E1A1A800E1B1A000E1C1A78
:1026D800000E1D1A000E1E1A800E1F1A1C50185CC0
:1026E8001D5019581E501A581F501B58D8B07FEF4C
:1026F80013F081EF13F084EF13F0D89085EF13F007
:10270800D88012000B6E0F0E83160F0E9516969436
:10271800969096928D948D908D921DEC18F0300EB7
:10272800ADEC17F014EC18F014EC18F0300EADEC1A
:1027380017F014EC18F014EC18F0320EADEC17F09A
:102748004BEC17F00009D8A4ACEF13F0AEEF13F080
:10275800A4EF13F04BEC17F00009D8A4B6EF13F070
:10276800B8EF13F0AEEF13F00B50ADEC17F04BECE5
:1027780017F00009D8A4C3EF13F0C5EF13F0BBEFAF
:1027880013F0080EADEC17F04BEC17F00009D8A4C5
:10279800D0EF13F0D2EF13F0C8EF13F00F0EADEC3B
:1027A80017F04BEC17F00009D8A4DDEF13F0DFEFBA
:1027B80013F0D5EF13F0010EADEC17F04BEC17F05A
:1027C8000009D8A4EAEF13F0ECEF13F0E2EF13F0EE
:1027D800040EADEC17F04BEC17F00009D8A4F7EF96
:1027E80013F0F9EF13F0EFEF13F0800E6EEC17F023
:1027F8001200000E0F6E0DBE06EF14F004EF14F079
:102808000CEF14F00C6C0D1ED8B00D2A010E0F6ED3
:102818000BBE13EF14F011EF14F019EF14F00A6C5B
:102828000B1ED8B00B2A010E0F1A000E116E000EE7
:10283800106E0C500D10D8B424EF14F026EF14F0DD
:102848004EEF14F0010E0E6E2EEF14F0D8900C36E9
:102858000D360E2A0DAE33EF14F035EF14F02AEFD3
:1028680014F0D890103611360C500A5C0D500B58E5
:10287800D8A041EF14F043EF14F048EF14F00C50D7
:102888000A5E0D500B5A1080D8900D320C320E2E65
:1028980035EF14F00F50D8B454EF14F056EF14F08D
:1028A8005AEF14F0106C111ED8B0112A10C00AF09B
:1028B80011C00BF01200000EABEC16F00AC06CF061
:1028C8000BC06DF0000E356EC00E366E7F0E376E83
:1028D800440E386E000E1C6E000E1D6EA00E1E6E8D
:1028E800400E1F6E6CC00AF06DC00BF00C6A0D6ACA
:1028F800000E75EC10F00AC018F00BC019F00CC0EF
:102908001AF00DC01BF03FEC0AF018C031F019C0E6
:1029180032F01AC033F01BC034F054EC0CF031C064
:1029280068F032C069F033C06AF034C06BF068C038
:1029380031F069C032F06AC033F06BC034F00A0E6F
:10294800356ED70E366E230E376E3C0E386E54EC4D
:102958000CF031C064F032C065F033C066F034C0AA
:1029680067F064C060F065C061F066C062F067C07F
:1029780063F01200030EABEC16F00AC06CF00BC04B
:102988006DF0000E356EC00E366E7F0E376E440E3B
:10299800386E000E1C6E000E1D6EA00E1E6E400ED0
:1029A8001F6E6CC00AF06DC00BF00C6A0D6A000E49
:1029B80075EC10F00AC018F00BC019F00CC01AF032
:1029C8000DC01BF03FEC0AF018C031F019C032F00E
:1029D8001AC033F01BC034F054EC0CF031C068F06E
:1029E80032C069F033C06AF034C06BF068C018F0C8
:1029F80069C019F06AC01AF06BC01BF0000E1C6E9B
:102A0800000E1D6EA00E1E6E410E1F6E3FEC0AF0EA
:102A180018C064F019C065F01AC066F01BC067F0F2
:102A280064C060F065C061F066C062F067C063F0C2
:102A38001200020EABEC16F00AC06CF00BC06DF081
:102A4800000E356EC00E366E7F0E376E440E386E31
:102A5800000E1C6E000E1D6EA00E1E6E400E1F6E28
:102A68006CC00AF06DC00BF00C6A0D6A000E75ECB4
:102A780010F00AC018F00BC019F00CC01AF00DC005
:102A88001BF03FEC0AF018C031F019C032F01AC040
:102A980033F01BC034F054EC0CF031C068F032C095
:102AA80069F033C06AF034C06BF068C018F069C0D0
:102AB80019F06AC01AF06BC01BF0000E1C6E000EF5
:102AC8001D6EA00E1E6E410E1F6E3FEC0AF018C060
:102AD80064F019C065F01AC066F01BC067F064C0E6
:102AE80060F065C061F066C062F067C063F0120014
:102AF800000E0F6E0BBE85EF15F083EF15F08BEF10
:102B080015F00A6C0B1ED8B00B2A010E0F6E0DBE05
:102B180092EF15F090EF15F096EF15F00C6C0D1E76
:102B2800D8B00D2A0C500D10D8B49DEF15F09FEFBA
:102B380015F0C3EF15F0010E0E6EA7EF15F0D89043
:102B48000C360D360E2A0DAEACEF15F0AEEF15F0C3
:102B5800A3EF15F00C500A5C0D500B58D8A0B7EF36
:102B680015F0B9EF15F0BDEF15F00C500A5E0D50D9
:102B78000B5AD8900D320C320E2EAEEF15F00F50C6
:102B8800D8B4C9EF15F0CBEF15F0CFEF15F00A6CFC
:102B98000B1ED8B00B2A0AC00AF00BC00BF01200AB
:102BA8000B500C10D8B4DBEF15F0DDEF15F0E3EFA8
:102BB80015F0000E146EC00E136EE7EF15F0000E40
:102BC800146E800E136E0D501324116E0E501420C7
:102BD800126E1150ADEC17F006EF16F00FC0F6FFAD
:102BE80010C0F7FFF86A070EF76403D00800F55025
:102BF80005D0F6CFE1FFF7CFE2FFE7508EEC17F0F4
:102C08000F4A102A0FC0F6FF10C0F7FFF86A070E28
:102C1800F76403D00800F55005D0F6CFE1FFF7CFF1
:102C2800E2FFE7500009D8A41CEF16F01EEF16F0DB
:102C3800F2EF15F012000600F2A425EF16F027EFC8
:102C480016F065EF16F0640ED66E010E4A26000ED9
:102C58004B224C224D224AC001F04BC002F04CC01E
:102C680003F04DC004F0E80E056E030E066E000E6C
:102C7800076E000E086E67EC16F001500210031084
:102C88000410D8A44AEF16F04CEF16F064EF16F0D3
:102C980053BE58EF16F0535009E1020E525CD8A00B
:102CA80058EF16F05AEF16F060EF16F0000E536E5C
:102CB800000E526E64EF16F0000E536E010E526E47
:102CC800F294559211000550061007100810D8B458
:102CD80070EF16F072EF16F0A2EF16F0010E096E03
:102CE8007CEF16F0D8900536063607360836092ADE
:102CF80008AE81EF16F083EF16F076EF16F0055068
:102D0800015C065002580750035808500458D8A0D0
:102D180090EF16F092EF16F09AEF16F00550015E5C
:102D28000650025A0750035A0850045AD8900832DD
:102D3800073206320532092E83EF16F001C001F082
:102D480002C002F003C003F004C004F01200106EC9
:102D58000C0E1064B2EF16F0B4EF16F0BAEF16F0DE
:102D6800000E0B6E000E0A6EE1EF16F010C00CF0AC
:102D78000C460C46C2500C18C30B0C18C26E0D0E34
:102D88000C6EFC0EE82EFED70C2EFCD7C282C2B207
:102D9800D0EF16F0D2EF16F0CBEF16F0C350C4CF39
:102DA8000CF00D6A0CC00DF00C6A0C100E6E0D5074
:102DB8000F6E0EC00AF00FC00BF012006C0EF66E0C
:102DC800300EF76E000EF86E00EED2F010EE06F040
:102DD8000900F5CFEEFFE550E150FAE100EEB8F05A
:102DE8001A0EEE6AE806FDE100EE4AF00B0EEE6AF6
:102DF800E806FDE155905592000EF86E000164EF6B
:102E080004F0000E1E1A000E1F1A000E201A800E63
:102E1800211A1AC00AF01BC00BF01CC00CF01DC010
:102E28000DF01EC00EF01FC00FF020C010F021C022
:102E380011F0DFEC07F00AC01AF00BC01BF00CC051
:102E48001CF00DC01DF01200280E86EC13F0010EC8
:102E5800ADEC17F0410E0C6EEE0EE82EFED70C2EE0
:102E6800FCD700D0020EADEC17F00D0E0C6EFC0E68
:102E7800E82EFED70C2EFCD70C0EADEC17F00D0E7D
:102E88000C6EFC0EE82EFED70C2EFCD712008D849B
:102E98008D9031EC18F08D8231EC18F083AE57EF3D
:102EA80017F059EF17F064EF17F08D9231EC18F026
:102EB8008D8231EC18F08D928D94010E6DEF17F024
:102EC8008D9231EC18F08D8231EC18F08D928D9442
:102ED800000E12000A6E0F0E95160F0E83160A507A
:102EE8008009F00B83128D948D9031EC18F08D824F
:102EF80031EC18F08D920F0E83160A38F00BF00B98
:102F0800831231EC18F08D8231EC18F08D92F00EAE
:102F1800951212000A6E0F0E95160F0E83160A50A0
:102F2800F00B83128D808D9431EC18F08D8231EC8A
:102F380018F08D920F0E83160A38F00BF00B8312DF
:102F480031EC18F08D8231EC18F08D92F00E95125C
:102F580012000A6E0F0E95160F0E83160A50F00B0C
:102F680083128D948D9031EC18F08D8231EC18F02D
:102F78008D920F0E83160A38F00BF00B831231EC8A
:102F880018F08D8231EC18F08D92F00E9512120027
:102F98000A500B100C100D10D8B4D5EF17F0D7EF5E
:102FA80017F0DFEF17F0000E0A1A000E0B1A000ECA
:102FB8000C1A800E0D1A0AC00AF00BC00BF00CC0D8
:102FC8000CF00DC00DF01200F29E4AC00EF04BC07E
:102FD8000FF04CC010F04DC011F0F28E0EC00AF088
:102FE8000FC00BF010C00CF011C00DF01200F00E65
:102FF800936E9286928092849590959294929494EE
:10300800839083928394829282941200D08EF28E5F
:10301800F28CF184F28AF294F190F296F290120016
:10302800210E0A6E760EE82EFED70A2EFCD700D0A7
:103038001200620E0A6E660EE82EFED70A2EFCD724
:103048001200C40ED56E640ED66EF29412000B0EEA
:10305800C16E950EC06EC2801200210EE82EFED7FA
:1030680000F01200140032001E00120012001200BC
:107EF600003132334134353642373839434630451E
:107F060044030002000100000048756D696469665B
:107F1600696361646F72204F4E00485F6C696D2023
:107F260065786365646964612100545F6C696D20DE
:107F360065786365646964612100475F6C696D20DB
:107F4600657863656469646F21004C696D207265AC
:107F560073657461646F7321004D656E7520496E9B
:107F660076C3A16C69646F00526573667269616459
:107F76006F72204F4E0048756D69642053616C76B0
:107F86006F21004C696D6974652054656D703A0007
:107F960054656D702053616C766121004C696D6982
:107FA60074652048756D3A004578617573746F7213
:107FB600204F4E004761732053616C766F21004C51
:107FC600696D697465204761730053697374656DE3
:107FD60061733A004C656974757261730048756D1A
:107FE60069643A004C696D3A004761733A007070F3
:0A7FF6006D004F4B00250043000012
:020000040020DA
:08000000FFFFFFFFFFFFFFFF00
:020000040030CA
:0E000000000C191EFF8080FF0FC00FE00F40A4
:00000001FF
