:0400000007EF00F016
:100008005682BEED15F081EF16F087EC17F00AC0A6
:1000180086F00BC087F00CC088F00DC089F0000195
:10002800CB51865D786FCC518759796FCD518859FE
:100038007A6FCE5189597B6F7B517A1109E1F40EA1
:10004800785D010E7959D8B02CEF00F02EEF00F052
:1000580032EF00F063EF04F063EF04F086C0CBF0FA
:1000680087C0CCF088C0CDF089C0CEF0010E4CEC32
:1000780017F00D0E0001786FFB0EE82EFED7782FD3
:10008800FCD700D0FEEC13F060C08AF061C08BF0A2
:1000980062C08CF063C08DF05DEC14F060C08EF02F
:1000A80061C08FF062C090F063C091F0BCEC14F0B6
:1000B80060C092F061C093F062C094F063C095F0A4
:1000C80040EF04F0000E0C6E000E0B6E000E0E6E6C
:1000D800000E0D6E830E0F6E7F0E106E73EC15F012
:1000E8008AC031F08BC032F08CC033F08DC034F050
:1000F8007C0E356E000E366E000E386E010E376EB1
:10010800C0EC0DF0000E0C6E000E0B6E000E0E6EA5
:10011800060E0D6E7C0E0F6E000E106E73EC15F051
:10012800000E0C6E000E0B6E000E0E6E0B0E0D6E9A
:10013800FD0E0F6E7F0E106E73EC15F0000E0C6E38
:10014800010E0B6E000E0E6E000E0D6EEA0E0F6E97
:100158007F0E106E73EC15F0D6C012F0D7C013F0F6
:100168007C0E146E000E156EEEEC10F0000E0C6E88
:10017800010E0B6E000E0E6E040E0D6E7C0E0F6ED1
:10018800000E106E73EC15F063EF04F0000E0C6EA9
:10019800000E0B6E000E0E6E000E0D6EE30E0F6E4F
:1001A8007F0E106E73EC15F08EC031F08FC032F0F8
:1001B80090C033F091C034F07C0E356E000E366E70
:1001C800000E386E010E376EC0EC0DF0000E0C6E8E
:1001D800000E0B6E000E0E6E070E0D6E7C0E0F6E6F
:1001E800000E106E73EC15F0000E0C6E000E0B6E08
:1001F800000E0E6E0C0E0D6EFB0E0F6E7F0E106E47
:1002080073EC15F0000E0C6E010E0B6E000E0E6EE8
:10021800000E0D6EEA0E0F6E7F0E106E73EC15F069
:10022800D4C012F0D5C013F07C0E146E000E156EFB
:10023800EEEC10F0BAEF00F0000E0C6E000E0B6E34
:10024800000E0E6E000E0D6EEF0E0F6E7F0E106E0E
:1002580073EC15F092C031F093C032F094C033F0D3
:1002680095C034F07C0E356E000E366E000E386E7A
:10027800010E376EC0EC0DF0000E0C6E000E0B6E0A
:10028800000E0E6E050E0D6E7C0E0F6E000E106EBB
:1002980073EC15F0000E0C6E000E0B6E000E0E6E59
:1002A8000B0E0D6EF40E0F6E7F0E106E73EC15F0C4
:1002B800000E0C6E010E0B6E000E0E6E000E0D6E13
:1002C800EA0E0F6E7F0E106E73EC15F0D2C012F0AE
:1002D800D3C013F07C0E146E000E156EEEEC10F009
:1002E800BAEF00F0000E0C6E000E0B6E000E0E6ED4
:1002F800000E0D6EDA0E0F6E7F0E106E73EC15F099
:10030800D6C00AF0D7C00BF0000E0BBEFF0E0C6E65
:100318000D6E010E14EC10F00AC018F00BC019F0A5
:100328000CC01AF00DC01BF08AC01CF08BC01DF069
:100338008CC01EF08DC01FF0A3EC12F0D8A0A7EF60
:1003480001F0A9EF01F003EF02F0D4C00AF0D5C024
:100358000BF0000E0BBEFF0E0C6E0D6E010E14ECB2
:1003680010F00AC018F00BC019F00CC01AF00DC03C
:100378001BF08EC01CF08FC01DF090C01EF091C005
:100388001FF0A3EC12F0D8A0CCEF01F0CEEF01F0F3
:1003980003EF02F0D2C00AF0D3C00BF0000E0BBE80
:1003A800FF0E0C6E0D6E010E14EC10F00AC018F062
:1003B8000BC019F00CC01AF00DC01BF092C01CF055
:1003C80093C01DF094C01EF095C01FF0A3EC12F06E
:1003D800D8A0F1EF01F0F3EF01F003EF02F0000E07
:1003E8000C6E010E0B6E000E0E6E000E0D6EF80EEA
:1003F8000F6E7F0E106E73EC15F063EF04F0504A29
:10040800512A51BE11EF02F0515009E1040E505C1F
:10041800D8A011EF02F013EF02F0B8EF02F0000ECF
:10042800516E000E506EB8EF02F0D6C00AF0D7C079
:100438000BF0000E0BBEFF0E0C6E0D6E010E14ECD1
:1004480010F00AC018F00BC019F00CC01AF00DC05B
:100458001BF08AC01CF08BC01DF08CC01EF08DC034
:100468001FF0A3EC12F0D8B03CEF02F03EEF02F020
:1004780030EF00F0000E0C6E010E0B6E000E0E6ECB
:10048800000E0D6E320E0F6E7F0E106E73EC15F0AF
:1004980063EF04F0D4C00AF0D5C00BF0000E0BBE19
:1004A800FF0E0C6E0D6E010E14EC10F00AC018F061
:1004B8000BC019F00CC01AF00DC01BF08EC01CF058
:1004C8008FC01DF090C01EF091C01FF0A3EC12F079
:1004D800D8B071EF02F073EF02F030EF00F0000EC9
:1004E8000C6E010E0B6E000E0E6E000E0D6E220EBF
:1004F8000F6E7F0E106E73EC15F063EF04F0D2C030
:100508000AF0D3C00BF0000E0BBEFF0E0C6E0D6E82
:10051800010E14EC10F00AC018F00BC019F00CC052
:100528001AF00DC01BF092C01CF093C01DF094C0CF
:100538001EF095C01FF0A3EC12F0D8B0A6EF02F0A1
:10054800A8EF02F030EF00F0000E0C6E010E0B6EFB
:10055800000E0E6E000E0D6E420E0F6E7F0E106EA8
:1005680073EC15F063EF04F050C078F051C079F0E7
:1005780000017951000AD8B4C4EF02F063EF04F027
:100588007851000AD8B419EF02F0010AD8B44EEF36
:1005980002F0030AD8B483EF02F063EF04F0000E10
:1005A8000C6E000E0B6E000E0E6E000E0D6ED00E51
:1005B8000F6E7F0E106E73EC15F0D6C00AF0D7C020
:1005C8000BF0000E0BBEFF0E0C6E0D6E010E14EC40
:1005D80010F00AC018F00BC019F00CC01AF00DC0CA
:1005E8001BF08AC01CF08BC01DF08CC01EF08DC0A3
:1005F8001FF0A3EC12F0D8A004EF03F006EF03F00D
:1006080060EF03F0D4C00AF0D5C00BF0000E0BBEAB
:10061800FF0E0C6E0D6E010E14EC10F00AC018F0EF
:100628000BC019F00CC01AF00DC01BF08EC01CF0E6
:100638008FC01DF090C01EF091C01FF0A3EC12F007
:10064800D8A029EF03F02BEF03F060EF03F0D2C03E
:100658000AF0D3C00BF0000E0BBEFF0E0C6E0D6E31
:10066800010E14EC10F00AC018F00BC019F00CC001
:100678001AF00DC01BF092C01CF093C01DF094C07E
:100688001EF095C01FF0A3EC12F0D8A04EEF03F0B7
:1006980050EF03F060EF03F0000E0C6E010E0B6ECE
:1006A800000E0E6E000E0D6EF80E0F6E7F0E106EA1
:1006B80073EC15F063EF04F04E4A4F2A4FBE6EEF0D
:1006C80003F04F5009E1040E4E5CD8A06EEF03F022
:1006D80070EF03F015EF04F0000E4F6E000E4E6E33
:1006E80015EF04F0D6C00AF0D7C00BF0000E0BBE11
:1006F800FF0E0C6E0D6E010E14EC10F00AC018F00F
:100708000BC019F00CC01AF00DC01BF08AC01CF009
:100718008BC01DF08CC01EF08DC01FF0A3EC12F032
:10072800D8B099EF03F09BEF03F063EF04F0000EED
:100738000C6E010E0B6E000E0E6E000E0D6E610E2D
:100748000F6E7F0E106E73EC15F063EF04F0D4C0DB
:100758000AF0D5C00BF0000E0BBEFF0E0C6E0D6E2E
:10076800010E14EC10F00AC018F00BC019F00CC000
:100778001AF00DC01BF08EC01CF08FC01DF090C089
:100788001EF091C01FF0A3EC12F0D8B0CEEF03F02A
:10079800D0EF03F063EF04F0000E0C6E010E0B6E49
:1007A800000E0E6E000E0D6E110E0F6E7F0E106E87
:1007B80073EC15F063EF04F0D2C00AF0D3C00BF06D
:1007C800000E0BBEFF0E0C6E0D6E010E14EC10F039
:1007D8000AC018F00BC019F00CC01AF00DC01BF0BD
:1007E80092C01CF093C01DF094C01EF095C01FF07D
:1007F800A3EC12F0D8B003EF04F005EF04F063EFB8
:1008080004F0000E0C6E010E0B6E000E0E6E000E44
:100818000D6EAE0E0F6E7F0E106E73EC15F063EF5B
:1008280004F04EC078F04FC079F000017951000A09
:10083800D8B421EF04F063EF04F07851000AD8B47B
:1008480076EF03F0010AD8B4ABEF03F0030AD8B48B
:10085800E0EF03F063EF04F0000E0C6E000E0B6E79
:10086800000E0E6E000E0D6E890E0F6E7F0E106E4E
:1008780073EC15F063EF04F076C078F077C079F088
:1008880000017951000AD8B44CEF04F030EF04F0BD
:100898007851000AD8B466EF00F0010AD8B4CAEF5C
:1008A80000F0030AD8B420EF01F0010AD8B476EFBB
:1008B80001F0070AD8B4D3EF02F030EF04F01200C9
:1008C800000E0001B46F000EB76F000EB66F000E79
:1008D8009A6F000E9B6F000E9C6F000E9D6F9AEC36
:1008E80017F0C7EC17F0C7EC16F0C1EC17F0A6EC40
:1008F80017F095909592959418EC0FF00001B56F4C
:1009080087EC17F00AC09EF00BC09FF00CC0A0F057
:100918000DC0A1F000019A519E5D966F9B519F59A1
:10092800976F9C51A059986F9D51A159996F9951F2
:1009380098110BE1F40E965D010E9759D8A0A7EF18
:1009480004F0A9EF04F0B7EF04F0B6C076F0B7C032
:1009580077F009EC00F09EC09AF09FC09BF0A0C011
:100968009CF0A1C09DF0450E0001B519D8A4BFEFB9
:1009780004F0C1EF04F0E4EF04F0450EB419D8B464
:10098800C8EF04F0CAEF04F0E4EF04F0B64BB72B5D
:10099800B7BFD8EF04F0B75109E1050EB65DD8A08E
:1009A800D8EF04F0DAEF04F0DEEF04F0000EB76FD2
:1009B800000EB66FB6C076F0B7C077F009EC00F05D
:1009C800410E0001B519D8A4ECEF04F0EEEF04F0E5
:1009D80044EF05F0410EB419D8B4F5EF04F0F7EF81
:1009E80004F044EF05F07C0E296E7F0E2A6E8EEC23
:1009F80011F029C0AEF02AC0AFF00001AE2908E11D
:100A0800AF29D8B40AEF05F00CEF05F038EF05F080
:100A1800AEC0D6F0AFC0D7F0000E0C6E010E0B6E54
:100A2800000E0E6E000E0D6E960E0F6E7F0E106E7F
:100A380073EC15F01A0E0001976F5E0E966F6E0E2E
:100A4800E82EFED7962FFCD7972FFAD700F0000E86
:100A58000001B76F000EB66F000E776F000E766F4D
:100A680009EC00F044EF05F0AE2906E1AF29D8A45F
:100A780040EF05F042EF05F044EF05F02BEF05F0ED
:100A8800420E0001B519D8A44CEF05F04EEF05F061
:100A9800A4EF05F0420EB419D8B455EF05F057EF9E
:100AA80005F0A4EF05F0A20E296E7F0E2A6E8EECDB
:100AB80011F029C0B0F02AC0B1F00001B02908E156
:100AC800B129D8B46AEF05F06CEF05F098EF05F09E
:100AD800B0C0D4F0B1C0D5F0000E0C6E010E0B6E94
:100AE800000E0E6E000E0D6E6F0E0F6E7F0E106EE6
:100AF80073EC15F01A0E0001976F5E0E966F6E0E6E
:100B0800E82EFED7962FFCD7972FFAD700F0000EC5
:100B18000001B76F000EB66F000E776F000E766F8C
:100B280009EC00F0A4EF05F0B02906E1B129D8A43A
:100B3800A0EF05F0A2EF05F0A4EF05F08BEF05F0AC
:100B4800430E0001B519D8A4ACEF05F0AEEF05F0DF
:100B580004EF06F0430EB419D8B4B5EF05F0B7EFBB
:100B680005F004EF06F0C50E296E7F0E2A6E8EEC96
:100B780011F029C0B2F02AC0B3F00001B22908E18F
:100B8800B329D8B4CAEF05F0CCEF05F0F8EF05F0BB
:100B9800B2C0D2F0B3C0D3F0000E0C6E010E0B6ED3
:100BA800000E0E6E000E0D6EBA0E0F6E7F0E106EDA
:100BB80073EC15F01A0E0001976F5E0E966F6E0EAD
:100BC800E82EFED7962FFCD7972FFAD700F0000E05
:100BD8000001B76F000EB66F000E776F000E766FCC
:100BE80009EC00F004EF06F0B22906E1B329D8A415
:100BF80000EF06F002EF06F004EF06F0EBEF05F069
:100C0800440E0001B519D8A40CEF06F00EEF06F05B
:100C180049EF06F0440EB419D8B415EF06F017EFF3
:100C280006F049EF06F0000ED76F1E0ED66F000EC5
:100C3800D56F320ED46F000ED36F140ED26F000E24
:100C48000C6E000E0B6E000E0E6E000E0D6E520E28
:100C58000F6E7F0E106E73EC15F01A0E0001976F71
:100C68005E0E966F6E0EE82EFED7962FFCD7972F46
:100C7800FAD700F0000E0001B76F000EB66F000E35
:100C8800776F000E766F09EC00F0FEEC13F060C091
:100C9800A2F061C0A3F062C0A4F063C0A5F05DEC4F
:100CA80014F060C0A6F061C0A7F062C0A8F063C0ED
:100CB800A9F0BCEC14F060C0AAF061C0ABF062C04F
:100CC800ACF063C0ADF0D6C00AF0D7C00BF0000E90
:100CD8000BBEFF0E0C6E0D6E010E14EC10F00AC068
:100CE80018F00BC019F00CC01AF00DC01BF0A2C010
:100CF8001CF0A3C01DF0A4C01EF0A5C01FF0A3ECFB
:100D080012F0D8A08AEF06F08CEF06F0D6EF06F0C6
:100D1800D4C00AF0D5C00BF0000E0BBEFF0E0C6E4F
:100D28000D6E010E14EC10F00AC018F00BC019F08B
:100D38000CC01AF00DC01BF0A6C01CF0A7C01DF017
:100D4800A8C01EF0A9C01FF0A3EC12F0D8A0AFEF06
:100D580006F0B1EF06F0D6EF06F0D2C00AF0D3C025
:100D68000BF0000E0BBEFF0E0C6E0D6E010E14EC98
:100D780010F00AC018F00BC019F00CC01AF00DC022
:100D88001BF0AAC01CF0ABC01DF0ACC01EF0ADC07B
:100D98001FF0A3EC12F0D8B0D4EF06F0D6EF06F0AF
:100DA800DEEF06F0000E0B6E010E0A6ED7EC17F0A0
:100DB800E4EF06F0000E0B6E000E0A6ED7EC17F08B
:100DC800D6C00AF0D7C00BF0000E0BBEFF0E0C6E9B
:100DD8000D6E010E14EC10F00AC018F00BC019F0DB
:100DE8000CC01AF00DC01BF0A2C01CF0A3C01DF06F
:100DF800A4C01EF0A5C01FF0A3EC12F0D8B007EFF6
:100E080007F009EF07F00DEF07F0838082840FEFFA
:100E180007F083908294D4C00AF0D5C00BF0000E7E
:100E28000BBEFF0E0C6E0D6E010E14EC10F00AC016
:100E380018F00BC019F00CC01AF00DC01BF0A6C0BA
:100E48001CF0A7C01DF0A8C01EF0A9C01FF0A3EC9D
:100E580012F0D8B032EF07F034EF07F03DEF07F0AB
:100E68008382000E0B6E010E0A6ED5EC17F044EF6C
:100E780007F08392000E0B6E000E0A6ED5EC17F089
:100E8800D2C00AF0D3C00BF0000E0BBEFF0E0C6EE2
:100E98000D6E010E14EC10F00AC018F00BC019F01A
:100EA8000CC01AF00DC01BF0AAC01CF0ABC01DF09E
:100EB800ACC01EF0ADC01FF0A3EC12F0D8B067EFC5
:100EC80007F069EF07F071EF07F08384000E0B6EEF
:100ED8000A68D6EC17F078EF07F08394000E0B6ED3
:100EE800000E0A6ED6EC17F0B5C0B4F080EF04F02F
:100EF80007EF00F00D50800B166E0D500D24186E84
:100F08000CAE89EF07F08BEF07F08CEF07F0188035
:100F18001850D8B492EF07F094EF07F0A9EF07F054
:100F28001828D8A49AEF07F09CEF07F0A4EF07F071
:100F3800000E0A6E000E0B6E000E0C6E000E0D6E8B
:100F48000C8E000E0D6EB1EF07F0000E0A6E000E4B
:100F58000B6E000E0C6E000E0D6E1150800B176E8E
:100F680016501718D8B4BBEF07F0BDEF07F0BEEF67
:100F780007F0168C11501124176E10AEC6EF07F04B
:100F8800C8EF07F0C9EF07F017801750D8B4CFEFB4
:100F980007F0D1EF07F0E6EF07F01728D8A4D7EF4E
:100FA80007F0D9EF07F0E1EF07F0000E0E6E000E24
:100FB8000F6E000E106E000E116E108E000E116E68
:100FC800EEEF07F0000E0E6E000E0F6E000E106EA4
:100FD800000E116E1850175CD8B0F5EF07F0F7EF58
:100FE80007F01EEF08F016ACFCEF07F0FEEF07F075
:100FF80000EF08F0800E161A18C019F017C018F084
:1010080019C017F00AC019F00EC00AF019C00EF086
:101018000BC019F00FC00BF019C00FF00CC019F07D
:1010280010C00CF019C010F00DC019F011C00DF06F
:1010380019C011F0000E196E185017C012F0136A7B
:10104800125E000E135A13BE33EF08F0135009E175
:101058001A0E125CD8A033EF08F035EF08F06CEFE9
:1010680008F00A500B100C100D10D8A43EEF08F031
:1010780041EF08F0010E42EF08F0000E196E000E65
:101088000A6E000E0B6E000E0C6E000E0D6E17C071
:1010980018F075EF08F019A054EF08F056EF08F0B3
:1010A8005CEF08F0D89019300109196E5EEF08F06E
:1010B800D89019320AA063EF08F065EF08F066EFE0
:1010C80008F0198E0D340D320C320B320A32182A00
:1010D8001750185CD8A073EF08F075EF08F04FEFC1
:1010E80008F016BC7AEF08F07CEF08F0BCEF08F0C7
:1010F8001850D8A482EF08F084EF08F08EEF08F0BB
:10110800000E0A6E000E0B6E000E0C6E000E0D6EB9
:10111800DDEF09F00E500A260F500B2210500C225A
:1011280011500D220DA09BEF08F09DEF08F049EF3C
:1011380009F019A0A2EF08F0A4EF08F0AAEF08F050
:10114800D89019300109196EACEF08F0D89019320F
:101158000AA0B1EF08F0B3EF08F0B4EF08F0198E69
:101168000D340D320C320B320A32182A49EF09F0CD
:101178000E500A5C0F500B5810500C580D50800A36
:10118800126E1150800A1258D8B0CDEF08F0CFEF88
:1011980008F0FAEF08F00A500E5C126E0B500F5868
:1011A800136E0C501058146E0D501158156EFF0E1A
:1011B80012240A6EFF0E13200B6EFF0E14200C6E05
:1011C800FF0E15200D6E800E161A196C1950D8A432
:1011D800F0EF08F0F2EF08F002EF09F0010E0A262E
:1011E800000E0B220C220D2202EF09F00E500A5EAF
:1011F8000F500B5A10500C5A11500D5A0A500B1020
:101208000C100D10D8A40BEF09F00DEF09F042EF08
:1012180009F01950D8A413EF09F015EF09F042EFBF
:1012280009F0000E0A6E000E0B6E000E0C6E000E1A
:101238000D6EDDEF09F0D8900A360B360C360D36F8
:1012480019AE29EF09F02BEF09F02CEF09F00A800D
:1012580019A031EF09F033EF09F037EF09F0D88022
:10126800193639EF09F0D89019361850D8B43FEF2D
:1012780009F041EF09F042EF09F018060CAE47EF0C
:1012880009F049EF09F01FEF09F0000E176E19AECB
:1012980050EF09F052EF09F06AEF09F019C012F0A7
:1012A8007F0E1216D8B45BEF09F05DEF09F061EF1D
:1012B80009F0010E176E6AEF09F00AA066EF09F04F
:1012C80068EF09F06AEF09F05DEF09F01750D8B43C
:1012D80070EF09F072EF09F09DEF09F0010E0A2690
:1012E800000E0B220C220D220DA07DEF09F07FEFDE
:1012F80009F09DEF09F00AC012F00BC013F00CC002
:1013080014F00DC015F015341532143213321232A0
:1013180012C00AF013C00BF014C00CF015C00DF089
:101328001828D8B49AEF09F09CEF09F09DEF09F05E
:10133800182A1828D8B4A3EF09F0A5EF09F0ADEFE3
:1013480009F01850D8A4ABEF09F0ADEF09F0BFEFE2
:1013580009F0000E0A6E000E0B6E000E0C6E000EE9
:101368000D6E1850D8A4BBEF09F0BDEF09F0BFEF20
:1013780009F0000E166E18A0C4EF09F0C6EF09F0C8
:10138800C9EF09F00C8ECAEF09F00C9ED8901830FE
:101398000D6E16AED2EF09F0D4EF09F0D5EF09F0D3
:1013A8000D8E0AC00AF00BC00BF00CC00CF00DC07B
:1013B8000DF012001B50800B246E1B501B242A6E4C
:1013C8001AAEE9EF09F0EBEF09F0ECEF09F02A802B
:1013D8002A50D8B4F2EF09F0F4EF09F007EF0AF059
:1013E8002A28D8A4FAEF09F0FCEF09F004EF0AF074
:1013F800000E186E000E196E000E1A6E000E1B6E8F
:101408001A8E0FEF0AF0000E186E000E196E000EFD
:101418001A6E000E1B6E1F50800B241A1F501F24BB
:10142800256E1EAE1AEF0AF01CEF0AF01DEF0AF047
:1014380025802550D8B423EF0AF025EF0AF038EFBD
:101448000AF02528D8A42BEF0AF02DEF0AF035EF83
:101458000AF0000E1C6E000E1D6E000E1E6E000EB1
:101468001F6E1E8E40EF0AF0000E1C6E000E1D6EE1
:10147800000E1E6E000E1F6E2550D8B446EF0AF0FF
:1014880048EF0AF050EF0AF02A50D8A44EEF0AF0BD
:1014980050EF0AF05AEF0AF0000E186E000E196E9F
:1014A800000E1A6E000E1B6EF2EF0BF01E501802A3
:1014B800F3CF2FF0F4CF30F02F50266E276A286A2A
:1014C800296A30502B6E2C6A2D6A2E6A1D5019021B
:1014D800F3CF2FF0F4CF30F02F502626000E27221E
:1014E8002822292230502B26000E2C222D222E2293
:1014F8001C501A02F3CF2FF0F4CF30F02F502626CD
:10150800000E27222822292230502B26000E2C22BA
:101518002D222E2228C029F027C028F026C027F027
:10152800266A1C501902F3CF2FF0F4CF30F02F5059
:10153800262630502722000E2822000E29221D5070
:101548001802F3CF2FF0F4CF30F02F50262630506A
:101558002722000E2822000E292228C029F027C0A1
:1015680028F026C027F0266A1C501802F3CF2FF067
:10157800F4CF30F02F50262630502722000E282294
:10158800000E29221E501902F3CF2FF0F4CF30F0AD
:101598002F502B2630502C22000E2D22000E2E22EA
:1015A8001D501A02F3CF2FF0F4CF30F02F502B2616
:1015B80030502C22000E2D22000E2E221E501A0210
:1015C800F3CF2FF0F4CF30F02F50206E3050216E33
:1015D800226A236A22C023F021C022F020C021F011
:1015E800206A20502B2621502C2222502D222350B5
:1015F8002E2226C020F027C021F028C022F029C0C2
:1016080023F0190E0DEF0BF0D8902332223221323D
:101618002032E82E08EF0BF020502B2621502C22E8
:1016280022502D2223502E2228C029F027C028F02E
:1016380026C027F0266A25502AC020F0216A2026D5
:10164800000E2122820E20242F6EFF0E2120306EE4
:1016580043EF0BF0D8902B362C362D362E3629AE8C
:1016680038EF0BF03AEF0BF03BEF0BF02B80D890F4
:1016780026362736283629362F06D8A030062DAE2E
:1016880048EF0BF04AEF0BF02EEF0BF0000E256E33
:1016980029AE51EF0BF053EF0BF077EF0BF0FF0E85
:1016A8002614206EFF0E2714216EFF0E2814226EBA
:1016B8007F0E2914236E2050211022102310D8B435
:1016C80068EF0BF06AEF0BF06EEF0BF0010E256E72
:1016D80077EF0BF02BA073EF0BF075EF0BF077EFB4
:1016E8000BF06AEF0BF02550D8B47DEF0BF07FEFCD
:1016F8000BF0A3EF0BF0010E2B26000E2C222D224F
:101708002E222EA08AEF0BF08CEF0BF0A3EF0BF03C
:101718002BC020F02CC021F02DC022F02EC023F0C9
:101728002334233222322132203220C02BF021C030
:101738002CF022C02DF023C02EF02F4A302A30BEC4
:10174800AEEF0BF0305008E12F28D8A0AEEF0BF029
:10175800B0EF0BF0BAEF0BF0000E2B6E000E2C6EF4
:10176800800E2D6E7F0E2E6EE8EF0BF030BEC7EFA9
:101778000BF0305006E12F04D8B0C5EF0BF0C7EFDF
:101788000BF0D3EF0BF0000E2B6E000E2C6E000E3C
:101798002D6E000E2E6E000E246EE8EF0BF02FC09B
:1017A8002AF0FF0E2B16FF0E2C167F0E2D16000E9C
:1017B8002E162AA0E2EF0BF0E4EF0BF0E5EF0BF0AA
:1017C8002D8ED8902A302E6E24502E122BC018F051
:1017D8002CC019F02DC01AF02EC01BF01200345086
:1017E800800B416E34503424486E33AEFEEF0BF05C
:1017F80000EF0CF001EF0CF048804850D8B407EF28
:101808000CF009EF0CF01EEF0CF04828D8A40FEFED
:101818000CF011EF0CF019EF0CF0000E316E000E09
:10182800326E000E336E000E346E338E000E346E40
:1018380026EF0CF0000E316E000E326E000E336E85
:10184800000E346E3850800B411A38503824496ED7
:1018580037AE31EF0CF033EF0CF034EF0CF0498079
:101868004950D8B43AEF0CF03CEF0CF051EF0CF0C3
:101878004928D8A442EF0CF044EF0CF04CEF0CF0E0
:10188800000E356E000E366E000E376E000E386E86
:10189800378E000E386E59EF0CF0000E356E000EC4
:1018A800366E000E376E000E386E35503610371013
:1018B8003810D8A462EF0CF064EF0CF07CEF0CF059
:1018C800000E316E000E326E000E336E000E346E56
:1018D800800E33127F0E34124150341231C031F071
:1018E80032C032F033C033F034C034F0BFEF0DF003
:1018F8004850D8A482EF0CF084EF0CF08EEF0CF077
:10190800000E316E000E326E000E336E000E346E15
:10191800BFEF0DF0495048C039F03A6A395E000E01
:101928003A5A7F0E3924426E000E3A20436E31C077
:101938003DF032C03EF033C03FF034C040F0000EFE
:10194800316E000E326E000E336E000E346E000ED5
:10195800446E000E456E000E466E000E476E000E79
:10196800496EEFEF0CF04950D8B4BDEF0CF0BFEF63
:101978000CF0D6EF0CF0D8903D363E363F36403668
:10198800D890313632363336343647AECEEF0CF097
:10199800D0EF0CF0D1EF0CF03180D89044364536BA
:1019A8004636473635503D5C36503E5837503F58DE
:1019B80038504058D8A0E3EF0CF0E5EF0CF0EEEF0C
:1019C8000CF0478C35503D5E36503E5A37503F5AE2
:1019D8003850405A492A190E4964F5EF0CF0F7EFD0
:1019E8000CF0B7EF0CF03D503E103F104010D8B44B
:1019F80000EF0DF002EF0DF01AEF0DF044801AEF32
:101A08000DF0D890313632363336343647AE0FEFD4
:101A18000DF011EF0DF012EF0DF03180D890443633
:101A28004536463647364206D8A0430633AE1FEF42
:101A38000DF021EF0DF005EF0DF0000E496E47AEE9
:101A480028EF0DF02AEF0DF04EEF0DF0FF0E4414C5
:101A5800396EFF0E45143A6EFF0E46143B6E7F0E2C
:101A680047143C6E39503A103B103C10D8B43FEF45
:101A78000DF041EF0DF045EF0DF0010E496E4EEF00
:101A88000DF031A04AEF0DF04CEF0DF04EEF0DF0D8
:101A980041EF0DF04950D8B454EF0DF056EF0DF06A
:101AA8007AEF0DF0010E3126000E32223322342255
:101AB80034A061EF0DF063EF0DF07AEF0DF031C057
:101AC80039F032C03AF033C03BF034C03CF03C341B
:101AD8003C323B323A32393239C031F03AC032F016
:101AE8003BC033F03CC034F0424A432A43BE85EF42
:101AF8000DF0435008E14228D8A085EF0DF087EF9C
:101B08000DF092EF0DF0000E436E4268000E316E3C
:101B1800000E326E000E336E000E346E43BE9FEF21
:101B28000DF0435006E14204D8B09DEF0DF09FEF51
:101B38000DF0ADEF0DF0000E436E000E426E000E7C
:101B4800316E000E326E000E336E000E346E000ED3
:101B5800416E42C048F048A0B4EF0DF0B6EF0DF06A
:101B6800B9EF0DF0338EBAEF0DF0339ED8904830B0
:101B7800346E70EF0CF01200000E0001756F000E4D
:101B8800746F34BECCEF0DF0CAEF0DF0E6EF0DF038
:101B980035C0D9FF36C0DAFF2D0EDF6E354A362A3A
:101BA80031C00AF032C00BF033C00CF034C00DF075
:101BB8006BEC17F00AC031F00BC032F00CC033F0F8
:101BC8000DC034F031C00AF032C00BF033C00CF055
:101BD80034C00DF020EC12F00AC06EF00BC06FF0AC
:101BE80031C01AF032C01BF033C01CF034C01DF0F5
:101BF8006EC00AF06FC00BF0000E0BBEFF0E0C6E2D
:101C08000D6E010E14EC10F00AC01EF00BC01FF090
:101C18000CC020F00DC021F0A4EC16F01AC031F071
:101C28001BC032F01CC033F01DC034F000016E51EF
:101C38006F11D8A422EF0EF024EF0EF02AEF0EF069
:101C4800300E606F744B752B64EF0EF06EC070F041
:101C58006FC071F0000E756F000E746F600E742502
:101C6800D96E000E7521DA6E70C00AF071C00BF0E3
:101C7800000E0D6E0A0E0C6E1BEC15F00A50300F9C
:101C8800DF6E0001744B752B70C00AF071C00BF049
:101C9800000E0D6E0A0E0C6E9CEC13F00AC070F06C
:101CA8000BC071F0000171BF64EF0EF0715106E1D5
:101CB8007005D8B062EF0EF064EF0EF032EF0EF060
:101CC800000E736F000E726F86EF0EF0600E396EA5
:101CD800000E3A6E7251395E73513A5A7451392670
:101CE80075513A22FF0E3924D96EFF0E3A20DA6E6A
:101CF80072513524E16E73513620E26EDFCFE7FF73
:101D0800724B732B7451725D7351800A396E755121
:101D1800800A3958D8A093EF0EF095EF0EF06AEFCD
:101D28000EF0745135267551362235C0D9FF36C0AC
:101D3800DAFF2E0EDF6E354A362A000E736F000E5C
:101D4800726F02EF0FF031C018F032C019F033C0D3
:101D58001AF034C01BF0000E1C6E000E1D6E200E13
:101D68001E6E410E1F6EDEEC09F018C031F019C06E
:101D780032F01AC033F01BC034F031C00AF032C060
:101D88000BF033C00CF034C00DF020EC12F00AC098
:101D98006CF00BC06DF000016C51300F35C0D9FFED
:101DA80036C0DAFFDF6E354A362A31C01AF032C043
:101DB8001BF033C01CF034C01DF06CC00AF06DC0BD
:101DC8000BF0000E0BBEFF0E0C6E0D6E010E14EC28
:101DD80010F00AC01EF00BC01FF00CC020F00DC0A0
:101DE80021F0A4EC16F01AC031F01BC032F01CC070
:101DF80033F01DC034F00001724B732B3750725D05
:101E08007351800A396E3850800A3958D8A00FEFBC
:101E18000FF011EF0FF0A7EF0EF035C0D9FF36C065
:101E2800DAFF000EDF6E1200090EF66E7F0EF76EF7
:101E380020EE18F0070E0900F5CFDEFFE806FBE2FA
:101E480087EC17F00AC020F00BC021F00CC022F07C
:101E58000DC023F0000E256E000E246E25BE3EEF49
:101E68000FF0255009E1040E245CD8A03EEF0FF0D6
:101E780040EF0FF042EF0FF00CEF10F024C012F01B
:101E8800010E136E122A4BEF0FF0D8901336122E54
:101E980049EF0FF01350FF0A8A6E210E126E760E6C
:101EA800E82EFED7122EFCD700D0000E276E000EAB
:101EB800266E26C012F0040E1226010E136E122A88
:101EC80068EF0FF0D8901336122E66EF0FF013500C
:101ED80081140009D8A473EF0FF075EF0FF0F8EF35
:101EE8000FF0D8902434D96E2534DA6E180ED9261E
:101EF800000EDA22DECF12F0DDCF13F026C014F088
:101F080027C015F0D89014361536D89014361536E3
:101F1800F90E166E7E0E176E1450162615501722DF
:101F2800125016261350172216C0F6FF17C0F7FFD7
:101F38000800F5CF28F054502818D8B4A6EF0FF0B1
:101F4800A8EF0FF0B2EF0FF020C0C7F021C0C8F023
:101F580022C0C9F023C0CAF028C054F00001C751FC
:101F6800205C126EC8512158136EC9512258146E44
:101F7800CA512358156E15501410131009E1330E69
:101F8800125CD8A0CAEF0FF0CCEF0FF0F5EF0FF00E
:101F9800C351205C126EC4512158136EC55122588A
:101FA800146EC6512358156E155014100BE12D0EE2
:101FB800125C010E1358D8A0E4EF0FF0E6EF0FF013
:101FC800F5EF0FF020C0C3F021C0C4F022C0C5F067
:101FD80023C0C6F028C0B9F028C0B8F0285013EFC5
:101FE80010F0000E13EF10F0264A272A27BE06EF3E
:101FF80010F0275009E1040E265CD8A006EF10F077
:1020080008EF10F05DEF0FF0244A252A32EF0FF0A9
:10201800000E0001B86F000E546EF5EF0FF01200BD
:10202800126E1250D8B41BEF10F01DEF10F03FEFF6
:1020380010F00DBE24EF10F022EF10F03FEF10F07B
:102048000AC00EF00BC00FF00CC010F00DC011F05C
:102058000E1E0F1E101E111E0E2A000E0F22102219
:1020680011220EC014F00FC015F010C016F011C0E8
:1020780017F047EF10F00AC014F00BC015F00CC0B1
:1020880016F00DC017F00A500B100C100D10D8A444
:1020980050EF10F052EF10F05CEF10F0000E0A6EE7
:1020A800000E0B6E000E0C6E000E0D6EEDEF10F0B4
:1020B800960E136E66EF10F0132AD8901732163268
:1020C80015321432000E14140E6E000E15140F6E15
:1020D800000E1614106EFE0E1714116E0E500F100F
:1020E80010101110D8A47BEF10F07DEF10F060EF06
:1020F80010F08BEF10F0132A010E1426000E152293
:1021080016221722D8901732163215321432000EC2
:1021180014140E6E000E15140F6E000E1614106EA9
:10212800FF0E1714116E0E500F1010101110D8A4B6
:10213800A0EF10F0A2EF10F07FEF10F0AAEF10F070
:102148001306D890143615361636173616BEAFEF66
:1021580010F0B1EF10F0B9EF10F0020E1360B7EF06
:1021680010F0B9EF10F0A4EF10F013B0BEEF10F0BC
:10217800C0EF10F0C1EF10F0169ED890133213C0C4
:102188000EF00F6A106A116A0EC011F0106A0F6A19
:102198000E6A0E5014120F501512105016121150CC
:1021A80017121250D8B4DBEF10F0DDEF10F0E5EFA6
:1021B80010F00DBEE4EF10F0E2EF10F0E5EF10F0D4
:1021C800178E14C00AF015C00BF016C00CF017C01B
:1021D8000DF01200000E176E000E166E145015103A
:1021E800D8A4F9EF10F0FBEF10F0FDEF10F08DEF31
:1021F80011F012501310D8A404EF11F006EF11F0EB
:1022080016EF11F014C0D9FF15C0DAFF300EDF6EDB
:1022180020EE01F01450D9261550DA22000EDF6E98
:102228008DEF11F013BE1DEF11F01BEF11F02BEF26
:1022380011F0126C131ED8B0132A14C0D9FF15C0A0
:10224800DAFF2D0EDF6E144A152A164A172A12C015
:1022580018F013C019F041EF11F018C00AF019C0B6
:102268000BF0000E0D6E0A0E0C6E9CEC13F00AC0FB
:1022780018F00BC019F0164A172A19BE4EEF11F0C4
:10228800195006E11804D8B04CEF11F04EEF11F0D8
:1022980031EF11F016501424D96E17501520DA6E4C
:1022A800000EDF6E12C018F013C019F080EF11F0A5
:1022B8001606D8A0170616501424D96E17501520E4
:1022C800DA6E18C00AF019C00BF0000E0D6E0A0E77
:1022D8000C6E1BEC15F00A50300FDF6E18C00AF0B8
:1022E80019C00BF0000E0D6E0A0E0C6E9CEC13F06C
:1022F8000AC018F00BC019F019BE8DEF11F0195073
:1023080006E11804D8B08BEF11F08DEF11F05CEFF7
:1023180011F01200000E2D6E000E2E6E000E2F6EA4
:10232800000E316E000E306E010E4CEC17F00D0EE3
:102338002B6EFC0EE82EFED72B2EFCD7020E4CEC93
:1023480017F00D0E2B6EFC0EE82EFED72B2EFCD7A9
:10235800000E0C6E000E0B6E000E0E6E000E0D6E53
:1023680029C00FF02AC010F073EC15F001EF12F03D
:1023780018EC0FF0326E2F0E3264C5EF11F0C7EF74
:1023880011F0F4EF11F03A0E3260CDEF11F0CFEF0B
:1023980011F0F4EF11F02D0E3024D96E000E31201B
:1023A800DA6E32C0DFFF000E0C6E010E0B6E30C00D
:1023B8000DF031C00EF02D0E30240F6E000E3120BE
:1023C800106E73EC15F0304A312A060E2C6E130E7F
:1023D8002B6EAE0EE82EFED72B2EFCD72C2EFAD75E
:1023E800460E3218D8A4FBEF11F0FDEF11F001EF03
:1023F80012F029682A681FEF12F031BE0DEF12F0B3
:10240800315009E1020E305CD8A00DEF12F00FEF49
:1024180012F0BCEF11F02D500A0DF3CF2BF0F4CFD2
:102428002CF02E502B26000E2C22F00E2B24296E79
:10243800FD0E2C202A6E12000C340D34136E13502E
:10244800D8A429EF12F02BEF12F035EF12F0000E9E
:102458000A6E000E0B6E000E0C6E000E0D6EA2EFD3
:1024680012F00AC00EF00BC00FF00CC010F00DC037
:1024780011F0200E45EF12F0D890113210320F32C1
:102488000E32E82E40EF12F00E50126E0C8EFF0E38
:102498000A16FF0E0B16FF0E0C16000E0D16960EE2
:1024A800135E13BE5CEF12F05AEF12F072EF12F0E7
:1024B8001350800A970FD8B064EF12F066EF12F04D
:1024C80068EF12F02BEF12F0D8900D320C320B326D
:1024D8000A32133E68EF12F08AEF12F01F0E1364EF
:1024E80078EF12F07AEF12F082EF12F02BEF12F081
:1024F800D8900A360B360C360D3613061350D8A46E
:1025080088EF12F08AEF12F07CEF12F01250D8B474
:1025180090EF12F092EF12F09AEF12F00D1E0C1ECF
:102528000B1E0A6C000E0B220C220D220AC00AF0A8
:102538000BC00BF00CC00CF00DC00DF01200000E1B
:102548001814206E000E1914216E800E1A14226EB3
:102558007F0E1B14236E2050211022102310D8A4A4
:10256800B8EF12F0BAEF12F0C2EF12F0000E186EC8
:10257800000E196E000E1A6E000E1B6E000E1C1453
:10258800206E000E1D14216E800E1E14226E7F0E0A
:102598001F14236E2050211022102310D8A4D7EF27
:1025A80012F0D9EF12F0E1EF12F0000E1C6E000EDF
:1025B8001D6E000E1E6E000E1F6E1BAEE6EF12F0B3
:1025C800E8EF12F0F1EF12F0186C191ED8B0192AC2
:1025D8001A1ED8B01A2A800E1B561FAEF6EF12F03C
:1025E800F8EF12F001EF13F01C6C1D1ED8B01D2A75
:1025F8001E1ED8B01E2A800E1F56000E181A000E76
:10260800191A000E1A1A800E1B1A000E1C1A000E38
:102618001D1A000E1E1A800E1F1A1C50185C1D5021
:1026280019581E501A581F501B58D8B01EEF13F0D7
:1026380020EF13F023EF13F0D89024EF13F0D88095
:1026480012000B6E0F0E83160F0E95169694969029
:1026580096928D948D908D92B9EC17F0300E4CECCB
:1026680017F0B0EC17F0B0EC17F0300E4CEC17F098
:10267800B0EC17F0B0EC17F0320E4CEC17F0EAECB7
:1026880016F00009D8A44BEF13F04DEF13F043EF09
:1026980013F0EAEC16F00009D8A455EF13F057EF41
:1026A80013F04DEF13F00B504CEC17F0EAEC16F06A
:1026B8000009D8A462EF13F064EF13F05AEF13F097
:1026C800080E4CEC17F0EAEC16F00009D8A46FEFEE
:1026D80013F071EF13F067EF13F00F0E4CEC17F0D7
:1026E800EAEC16F00009D8A47CEF13F07EEF13F0A3
:1026F80074EF13F0010E4CEC17F0EAEC16F0000939
:10270800D8A489EF13F08BEF13F081EF13F0040EC8
:102718004CEC17F0EAEC16F00009D8A496EF13F089
:1027280098EF13F08EEF13F0800E0DEC17F01200F7
:10273800000E0F6E0DBEA5EF13F0A3EF13F0ABEF75
:1027480013F00C6C0D1ED8B00D2A010E0F6E0BBEC7
:10275800B2EF13F0B0EF13F0B8EF13F00A6C0B1EE2
:10276800D8B00B2A010E0F1A000E116E000E106E53
:102778000C500D10D8B4C3EF13F0C5EF13F0EDEF04
:1027880013F0010E0E6ECDEF13F0D8900C360D3607
:102798000E2A0DAED2EF13F0D4EF13F0C9EF13F0F9
:1027A800D890103611360C500A5C0D500B58D8A032
:1027B800E0EF13F0E2EF13F0E7EF13F00C500A5ECE
:1027C8000D500B5A1080D8900D320C320E2ED4EFCB
:1027D80013F00F50D8B4F3EF13F0F5EF13F0F9EF4F
:1027E80013F0106C111ED8B0112A10C00AF011C0D5
:1027F8000BF01200000E4AEC16F00AC06CF00BC089
:102808006DF0000E356EC00E366E7F0E376E440EBC
:10281800386E000E1C6E000E1D6EA00E1E6E400E51
:102828001F6E6CC00AF06DC00BF00C6A0D6A000ECA
:1028380014EC10F00AC018F00BC019F00CC01AF014
:102848000DC01BF0DEEC09F018C031F019C032F0F1
:102858001AC033F01BC034F0F3EC0BF031C068F051
:1028680032C069F033C06AF034C06BF068C031F030
:1028780069C032F06AC033F06BC034F00A0E356EAE
:10288800D70E366E230E376E3C0E386EF3EC0BF017
:1028980031C064F032C065F033C066F034C067F010
:1028A80064C060F065C061F066C062F067C063F044
:1028B8001200030E4AEC16F00AC06CF00BC06DF063
:1028C800000E356EC00E366E7F0E376E440E386EB3
:1028D800000E1C6E000E1D6EA00E1E6E400E1F6EAA
:1028E8006CC00AF06DC00BF00C6A0D6A000E14EC97
:1028F80010F00AC018F00BC019F00CC01AF00DC087
:102908001BF0DEEC09F018C031F019C032F01AC023
:1029180033F01BC034F0F3EC0BF031C068F032C078
:1029280069F033C06AF034C06BF068C018F069C051
:1029380019F06AC01AF06BC01BF0000E1C6E000E76
:102948001D6EA00E1E6E410E1F6EDEEC09F018C043
:1029580064F019C065F01AC066F01BC067F064C067
:1029680060F065C061F066C062F067C063F0120095
:10297800020E4AEC16F00AC06CF00BC06DF0000EA7
:10298800356EC00E366E7F0E376E440E386E000EF2
:102998001C6E000E1D6EA00E1E6E400E1F6E6CC0CB
:1029A8000AF06DC00BF00C6A0D6A000E14EC10F002
:1029B8000AC018F00BC019F00CC01AF00DC01BF0BB
:1029C800DEEC09F018C031F019C032F01AC033F04B
:1029D8001BC034F0F3EC0BF031C068F032C069F082
:1029E80033C06AF034C06BF068C018F069C019F0E1
:1029F8006AC01AF06BC01BF0000E1C6E000E1D6E34
:102A0800A00E1E6E410E1F6EDEEC09F018C064F0B9
:102A180019C065F01AC066F01BC067F064C060F0AA
:102A280065C061F066C062F067C063F01200000E16
:102A38000F6E0BBE24EF15F022EF15F02AEF15F0FC
:102A48000A6C0B1ED8B00B2A010E0F6E0DBE31EFAB
:102A580015F02FEF15F035EF15F00C6C0D1ED8B0F2
:102A68000D2A0C500D10D8B43CEF15F03EEF15F0C0
:102A780062EF15F0010E0E6E46EF15F0D8900C3689
:102A88000D360E2A0DAE4BEF15F04DEF15F042EF57
:102A980015F00C500A5C0D500B58D8A056EF15F0E5
:102AA80058EF15F05CEF15F00C500A5E0D500B5AFC
:102AB800D8900D320C320E2E4DEF15F00F50D8B4C1
:102AC80068EF15F06AEF15F06EEF15F00A6C0B1E43
:102AD800D8B00B2A0AC00AF00BC00BF012000B503A
:102AE8000C10D8B47AEF15F07CEF15F082EF15F0E2
:102AF800000E146EC00E136E86EF15F0000E146EE5
:102B0800800E136E0D501324116E0E501420126E89
:102B180011504CEC17F0A5EF15F00FC0F6FF10C0E0
:102B2800F7FFF86A070EF76403D00800F55005D0E0
:102B3800F6CFE1FFF7CFE2FFE7502DEC17F00F4A91
:102B4800102A0FC0F6FF10C0F7FFF86A070EF764E7
:102B580003D00800F55005D0F6CFE1FFF7CFE2FF2C
:102B6800E7500009D8A4BBEF15F0BDEF15F091EFC1
:102B780015F012000600F2A4C4EF15F0C6EF15F028
:102B880004EF16F0640ED66E010E4A26000E4B2294
:102B98004C224D224AC001F04BC002F04CC003F059
:102BA8004DC004F0E80E056E030E066E000E076EAB
:102BB800000E086E06EC16F0015002100310041007
:102BC800D8A4E9EF15F0EBEF15F003EF16F053BEBC
:102BD800F7EF15F0535009E1020E525CD8A0F7EF59
:102BE80015F0F9EF15F0FFEF15F0000E536E000E1B
:102BF800526E03EF16F0000E536E010E526EF294F1
:102C0800569211000550061007100810D8B40FEF9F
:102C180016F011EF16F041EF16F0010E096E1BEFDA
:102C280016F0D8900536063607360836092A08AE53
:102C380020EF16F022EF16F015EF16F00550015CA4
:102C4800065002580750035808500458D8A02FEFD0
:102C580016F031EF16F039EF16F00550015E065008
:102C6800025A0750035A0850045AD89008320732BB
:102C780006320532092E22EF16F001C001F002C01B
:102C880002F003C003F004C004F01200106E0C0E32
:102C9800106451EF16F053EF16F059EF16F0000ECE
:102CA8000B6E000E0A6E80EF16F010C00CF00C468A
:102CB8000C46C2500C18C30B0C18C26E0D0E0C6ECD
:102CC800FC0EE82EFED70C2EFCD7C282C2B26FEFE4
:102CD80016F071EF16F06AEF16F0C350C4CF0CF07F
:102CE8000D6A0CC00DF00C6A0C100E6E0D500F6EB4
:102CF8000EC00AF00FC00BF01200A40EF66E2F0ED5
:102D0800F76E000EF86E00EED2F010EE06F0090035
:102D1800F5CFEEFFE550E150FAE100EEB8F01A0EFB
:102D2800EE6AE806FDE100EE4AF00C0EEE6AE806EF
:102D3800FDE156905692000EF86E000164EF04F023
:102D4800000E1E1A000E1F1A000E201A800E211ADD
:102D58001AC00AF01BC00BF01CC00CF01DC00DF00F
:102D68001EC00EF01FC00FF020C010F021C011F0DF
:102D78007EEC07F00AC01AF00BC01BF00CC01CF068
:102D88000DC01DF01200280E25EC13F0010E4CECBE
:102D980017F0410E0C6EEE0EE82EFED70C2EFCD767
:102DA80000D0020E4CEC17F00D0E0C6EFC0EE82E47
:102DB800FED70C2EFCD70C0E4CEC17F00D0E0C6E3B
:102DC800FC0EE82EFED70C2EFCD712008D848D90B9
:102DD800CDEC17F08D82CDEC17F083AEF6EF16F040
:102DE800F8EF16F003EF17F08D92CDEC17F08D8207
:102DF800CDEC17F08D928D94010E0CEF17F08D929B
:102E0800CDEC17F08D82CDEC17F08D928D94000EDD
:102E180012000A6E0F0E95160F0E83160A508009BF
:102E2800F00B83128D948D90CDEC17F08D82CDEC44
:102E380017F08D920F0E83160A38F00BF00B8312E1
:102E4800CDEC17F08D82CDEC17F08D92F00E951227
:102E580012000A6E0F0E95160F0E83160A50F00B0D
:102E680083128D808D94CDEC17F08D82CDEC17F008
:102E78008D920F0E83160A38F00BF00B8312CDECEF
:102E880017F08D82CDEC17F08D92F00E951212008E
:102E98000A6E0F0E95160F0E83160A50F00B83124A
:102EA8008D948D90CDEC17F08D82CDEC17F08D922E
:102EB8000F0E83160A38F00BF00B8312CDEC17F0C7
:102EC8008D82CDEC17F08D92F00E951212000A50FB
:102ED8000B100C100D10D8B474EF17F076EF17F034
:102EE8007EEF17F0000E0A1A000E0B1A000E0C1ACD
:102EF800800E0D1A0AC00AF00BC00BF00CC00CF0C3
:102F08000DC00DF01200F29E4AC00EF04BC00FF03B
:102F18004CC010F04DC011F0F28E0EC00AF00FC078
:102F28000BF010C00CF011C00DF01200F00E936EF3
:102F380092869280928495909592949483908392AD
:102F480082941200D08EF28EF28CF184F28AF2947E
:102F5800F190F296F2901200210E0A6E760EE82E8B
:102F6800FED70A2EFCD700D01200620E0A6E660E3B
:102F7800E82EFED70A2EFCD71200C40ED56E640EBA
:102F8800D66EF29412000B0EC16E950EC06EC28002
:102F98001200210EE82EFED700F0120014003200B5
:082FA8001E00120012001200CD
:107EF800003132334134353642373839434630451C
:107F080044030002000100000048756D6964696659
:107F1800696361646F72204F4E00485F6C696D2021
:107F280065786365646964612100545F6C696D20DC
:107F380065786365646964612100475F6C696D20D9
:107F4800657863656469646F21004C696D207265AA
:107F580073657461646F7321005265736672696139
:107F6800646F72204F4E0048756D69642053616CD0
:107F7800766F21004C696D6974652054656D703A9F
:107F880000496E76616C6964204D656E75005465B4
:107F98006D702053616C766121004C696D69746560
:107FA8002048756D3A004578617573746F72204F7B
:107FB8004E004761732053616C766F21004C696DE8
:107FC800697465204761730053697374656D6173E3
:107FD8003A004C656974757261730048756D69641F
:107FE8003A004C696D3A004761733A0070706D0051
:087FF8004F4B0025004300007F
:020000040020DA
:08000000FFFFFFFFFFFFFFFF00
:020000040030CA
:0E000000000C191EFF8080FF0FC00FE00F40A4
:00000001FF
