:0400000007EF00F016
:10000800558259ED15F01CEF16F022EC17F00AC0D6
:1000180086F00BC087F00CC088F00DC089F0000195
:10002800C351865D786FC4518759796FC551885916
:100038007A6FC65189597B6F7B517A1109E1F40EA9
:10004800785D010E7959D8B02CEF00F02EEF00F052
:1000580032EF00F063EF04F063EF04F086C0C3F002
:1000680087C0C4F088C0C5F089C0C6F0010EE7ECAF
:1000780016F00D0E0001786FFB0EE82EFED7782FD4
:10008800FCD700D099EC13F060C08AF061C08BF007
:1000980062C08CF063C08DF0F8EC13F060C08EF095
:1000A80061C08FF062C090F063C091F057EC14F01B
:1000B80060C092F061C093F062C094F063C095F0A4
:1000C80040EF04F0000E0C6E000E0B6E000E0E6E6C
:1000D800000E0D6E830E0F6E7F0E106E0EEC15F077
:1000E8008AC031F08BC032F08CC033F08DC034F050
:1000F8007C0E356E000E366E000E386E010E376EB1
:1001080059EC0DF0000E0C6E000E0B6E000E0E6E0C
:10011800060E0D6E7C0E0F6E000E106E0EEC15F0B6
:10012800000E0C6E000E0B6E000E0E6E0B0E0D6E9A
:10013800FD0E0F6E7F0E106E0EEC15F0000E0C6E9D
:10014800010E0B6E000E0E6E000E0D6EEA0E0F6E97
:100158007F0E106E0EEC15F0D0C012F0D1C013F067
:100168007C0E146E000E156E89EC10F0000E0C6EED
:10017800010E0B6E000E0E6E040E0D6E7C0E0F6ED1
:10018800000E106E0EEC15F063EF04F0000E0C6E0E
:10019800000E0B6E000E0E6E000E0D6EE30E0F6E4F
:1001A8007F0E106E0EEC15F08EC031F08FC032F05D
:1001B80090C033F091C034F07C0E356E000E366E70
:1001C800000E386E010E376E59EC0DF0000E0C6EF5
:1001D800000E0B6E000E0E6E070E0D6E7C0E0F6E6F
:1001E800000E106E0EEC15F0000E0C6E000E0B6E6D
:1001F800000E0E6E0C0E0D6EFB0E0F6E7F0E106E47
:100208000EEC15F0000E0C6E010E0B6E000E0E6E4D
:10021800000E0D6EEA0E0F6E7F0E106E0EEC15F0CE
:10022800CEC012F0CFC013F07C0E146E000E156E07
:1002380089EC10F0BAEF00F0000E0C6E000E0B6E99
:10024800000E0E6E000E0D6EEF0E0F6E7F0E106E0E
:100258000EEC15F092C031F093C032F094C033F038
:1002680095C034F07C0E356E000E366E000E386E7A
:10027800010E376E59EC0DF0000E0C6E000E0B6E71
:10028800000E0E6E050E0D6E7C0E0F6E000E106EBB
:100298000EEC15F0000E0C6E000E0B6E000E0E6EBE
:1002A8000B0E0D6EF40E0F6E7F0E106E0EEC15F029
:1002B800000E0C6E010E0B6E000E0E6E000E0D6E13
:1002C800EA0E0F6E7F0E106E0EEC15F0CCC012F019
:1002D800CDC013F07C0E146E000E156E89EC10F074
:1002E800BAEF00F0000E0C6E000E0B6E000E0E6ED4
:1002F800000E0D6EDA0E0F6E7F0E106E0EEC15F0FE
:10030800D0C00AF0D1C00BF0000E0BBEFF0E0C6E71
:100318000D6E010EAFEC0FF00AC018F00BC019F00B
:100328000CC01AF00DC01BF08AC01CF08BC01DF069
:100338008CC01EF08DC01FF03EEC12F0D8A0A7EFC5
:1003480001F0A9EF01F003EF02F0CEC00AF0CFC030
:100358000BF0000E0BBEFF0E0C6E0D6E010EAFEC17
:100368000FF00AC018F00BC019F00CC01AF00DC03D
:100378001BF08EC01CF08FC01DF090C01EF091C005
:100388001FF03EEC12F0D8A0CCEF01F0CEEF01F058
:1003980003EF02F0CCC00AF0CDC00BF0000E0BBE8C
:1003A800FF0E0C6E0D6E010EAFEC0FF00AC018F0C8
:1003B8000BC019F00CC01AF00DC01BF092C01CF055
:1003C80093C01DF094C01EF095C01FF03EEC12F0D3
:1003D800D8A0F1EF01F0F3EF01F003EF02F0000E07
:1003E8000C6E010E0B6E000E0E6E000E0D6EF80EEA
:1003F8000F6E7F0E106E0EEC15F063EF04F0504A8E
:10040800512A51BE11EF02F0515009E1040E505C1F
:10041800D8A011EF02F013EF02F0B8EF02F0000ECF
:10042800516E000E506EB8EF02F0D0C00AF0D1C085
:100438000BF0000E0BBEFF0E0C6E0D6E010EAFEC36
:100448000FF00AC018F00BC019F00CC01AF00DC05C
:100458001BF08AC01CF08BC01DF08CC01EF08DC034
:100468001FF03EEC12F0D8B03CEF02F03EEF02F085
:1004780030EF00F0000E0C6E010E0B6E000E0E6ECB
:10048800000E0D6E320E0F6E7F0E106E0EEC15F014
:1004980063EF04F0CEC00AF0CFC00BF0000E0BBE25
:1004A800FF0E0C6E0D6E010EAFEC0FF00AC018F0C7
:1004B8000BC019F00CC01AF00DC01BF08EC01CF058
:1004C8008FC01DF090C01EF091C01FF03EEC12F0DE
:1004D800D8B071EF02F073EF02F030EF00F0000EC9
:1004E8000C6E010E0B6E000E0E6E000E0D6E220EBF
:1004F8000F6E7F0E106E0EEC15F063EF04F0CCC09B
:100508000AF0CDC00BF0000E0BBEFF0E0C6E0D6E88
:10051800010EAFEC0FF00AC018F00BC019F00CC0B8
:100528001AF00DC01BF092C01CF093C01DF094C0CF
:100538001EF095C01FF03EEC12F0D8B0A6EF02F006
:10054800A8EF02F030EF00F0000E0C6E010E0B6EFB
:10055800000E0E6E000E0D6E420E0F6E7F0E106EA8
:100568000EEC15F063EF04F050C078F051C079F04C
:1005780000017951000AD8B4C4EF02F063EF04F027
:100588007851000AD8B419EF02F0010AD8B44EEF36
:1005980002F0030AD8B483EF02F063EF04F0000E10
:1005A8000C6E000E0B6E000E0E6E000E0D6ED00E51
:1005B8000F6E7F0E106E0EEC15F0D0C00AF0D1C091
:1005C8000BF0000E0BBEFF0E0C6E0D6E010EAFECA5
:1005D8000FF00AC018F00BC019F00CC01AF00DC0CB
:1005E8001BF08AC01CF08BC01DF08CC01EF08DC0A3
:1005F8001FF03EEC12F0D8A004EF03F006EF03F072
:1006080060EF03F0CEC00AF0CFC00BF0000E0BBEB7
:10061800FF0E0C6E0D6E010EAFEC0FF00AC018F055
:100628000BC019F00CC01AF00DC01BF08EC01CF0E6
:100638008FC01DF090C01EF091C01FF03EEC12F06C
:10064800D8A029EF03F02BEF03F060EF03F0CCC044
:100658000AF0CDC00BF0000E0BBEFF0E0C6E0D6E37
:10066800010EAFEC0FF00AC018F00BC019F00CC067
:100678001AF00DC01BF092C01CF093C01DF094C07E
:100688001EF095C01FF03EEC12F0D8A04EEF03F01C
:1006980050EF03F060EF03F0000E0C6E010E0B6ECE
:1006A800000E0E6E000E0D6EF80E0F6E7F0E106EA1
:1006B8000EEC15F063EF04F00001CA4BCB2BCBBF57
:1006C8006FEF03F0CB5109E1040ECA5DD8A06FEFBC
:1006D80003F071EF03F016EF04F0000ECB6F000E7D
:1006E800CA6F16EF04F0D0C00AF0D1C00BF0000EAC
:1006F8000BBEFF0E0C6E0D6E010EAFEC0FF00AC0B4
:1007080018F00BC019F00CC01AF00DC01BF08AC00D
:100718001CF08BC01DF08CC01EF08DC01FF03EEC8D
:1007280012F0D8B09AEF03F09CEF03F063EF04F0F7
:10073800000E0C6E010E0B6E000E0E6E000E0D6E8E
:10074800610E0F6E7F0E106E0EEC15F063EF04F065
:10075800CEC00AF0CFC00BF0000E0BBEFF0E0C6E21
:100768000D6E010EAFEC0FF00AC018F00BC019F0B7
:100778000CC01AF00DC01BF08EC01CF08FC01DF00D
:1007880090C01EF091C01FF03EEC12F0D8B0CFEF31
:1007980003F0D1EF03F063EF04F0000E0C6E010ECE
:1007A8000B6E000E0E6E000E0D6E110E0F6E7F0E8C
:1007B800106E0EEC15F063EF04F0CCC00AF0CDC05B
:1007C8000BF0000E0BBEFF0E0C6E0D6E010EAFECA3
:1007D8000FF00AC018F00BC019F00CC01AF00DC0C9
:1007E8001BF092C01CF093C01DF094C01EF095C081
:1007F8001FF03EEC12F0D8B004EF04F006EF04F05E
:1008080063EF04F0000E0C6E010E0B6E000E0E6E00
:10081800000E0D6EAE0E0F6E7F0E106E0EEC15F004
:1008280063EF04F0CAC078F0CBC079F07951000AC0
:10083800D8B421EF04F063EF04F07851000AD8B47B
:1008480077EF03F0010AD8B4ACEF03F0030AD8B489
:10085800E1EF03F063EF04F0000E0C6E000E0B6E78
:10086800000E0E6E000E0D6E890E0F6E7F0E106E4E
:100878000EEC15F063EF04F04AC078F04BC079F045
:1008880000017951000AD8B44CEF04F030EF04F0BD
:100898007851000AD8B466EF00F0010AD8B4CAEF5C
:1008A80000F0030AD8B420EF01F0010AD8B476EFBB
:1008B80001F0070AD8B4D3EF02F030EF04F01200C9
:1008C80048EC17F05FEC17F062EC16F059EC17F0F3
:1008D80035EC17F0959095929594000E0001B66F3F
:1008E800000EB56F000EB46F000E9A6F000E9B6F6E
:1008F800000E9C6F000E9D6F9DEC0EF00001B76F0F
:1009080022EC17F00AC09EF00BC09FF00CC0A0F0BC
:100918000DC0A1F000019A519E5D966F9B519F59A1
:10092800976F9C51A059986F9D51A159996F9951F2
:1009380098110BE1F40E965D010E9759D8A0A7EF18
:1009480004F0A9EF04F0B7EF04F0B4C04AF0B5C062
:100958004BF009EC00F09EC09AF09FC09BF0A0C03D
:100968009CF0A1C09DF0450E0001B719D8A4BFEFB7
:1009780004F0C1EF04F0E4EF04F0450EB619D8B462
:10098800C8EF04F0CAEF04F0E4EF04F0B44BB52B61
:10099800B5BFD8EF04F0B55109E1050EB45DD8A094
:1009A800D8EF04F0DAEF04F0DEEF04F0000EB56FD4
:1009B800000EB46FB4C04AF0B5C04BF009EC00F0BB
:1009C800410E0001B719D8A4ECEF04F0EEEF04F0E3
:1009D8003DEF05F0410EB619D8B4F5EF04F0F7EF86
:1009E80004F03DEF05F07C0E296E7F0E2A6E29EC8F
:1009F80011F029C0B2F02AC0B3F00001B22908E111
:100A0800B329D8B40AEF05F00CEF05F029EF05F08B
:100A1800B2C0D0F0B3C0D1F0000E0C6E010E0B6E58
:100A2800000E0E6E000E0D6E960E0F6E7F0E106E7F
:100A38000EEC15F0410E0001966FEE0EE82EFED773
:100A4800962FFCD700F03DEF05F0B22906E1B32957
:100A5800D8A431EF05F033EF05F03DEF05F0000EB7
:100A6800B56F000EB46F000E4B6E000E4A6E09ECA7
:100A780000F0420E0001B719D8A445EF05F047EF82
:100A880005F080EF05F0420EB619D8B44EEF05F028
:100A980050EF05F080EF05F0A20E296E7F0E2A6E4A
:100AA80029EC11F029C0AEF02AC0AFF00001AE2940
:100AB80008E1AF29D8B463EF05F065EF05F080EFE2
:100AC80005F0AEC0CEF0AFC0CFF0000E0C6E010E38
:100AD8000B6E000E0E6E000E0D6E6F0E0F6E7F0EFB
:100AE800106E0EEC15F0410E0001966FEE0EE82E1A
:100AF800FED7962FFCD700F0430E0001B719D8A4F3
:100B080088EF05F08AEF05F0C3EF05F0430EB6193C
:100B1800D8B491EF05F093EF05F0C3EF05F0C50EDB
:100B2800296E7F0E2A6E29EC11F029C0B0F02AC078
:100B3800B1F00001B02908E1B129D8B4A6EF05F059
:100B4800A8EF05F0C3EF05F0B0C0CCF0B1C0CDF010
:100B5800000E0C6E010E0B6E000E0E6E000E0D6E6A
:100B6800BA0E0F6E7F0E106E0EEC15F0410E0001DE
:100B7800966FEE0EE82EFED7962FFCD700F0440EA7
:100B88000001B719D8A4CBEF05F0CDEF05F0F9EFC8
:100B980005F0440EB619D8B4D4EF05F0D6EF05F039
:100BA800F9EF05F0000ED16F1E0ED06F000ECF6F5B
:100BB800320ECE6F000ECD6F140ECC6F000E0C6E81
:100BC800000E0B6E000E0E6E000E0D6E520E0F6EA6
:100BD8007F0E106E0EEC15F0410E0001966FEE0EB2
:100BE800E82EFED7962FFCD700F099EC13F060C0E2
:100BF800A2F061C0A3F062C0A4F063C0A5F0F8EC55
:100C080013F060C0A6F061C0A7F062C0A8F063C08E
:100C1800A9F057EC14F060C0AAF061C0ABF062C054
:100C2800ACF063C0ADF0D0C00AF0D1C00BF0000E3C
:100C38000BBEFF0E0C6E0D6E010EAFEC0FF00AC06E
:100C480018F00BC019F00CC01AF00DC01BF0A2C0B0
:100C58001CF0A3C01DF0A4C01EF0A5C01FF03EEC00
:100C680012F0D8A03AEF06F03CEF06F086EF06F057
:100C7800CEC00AF0CFC00BF0000E0BBEFF0E0C6EFC
:100C88000D6E010EAFEC0FF00AC018F00BC019F092
:100C98000CC01AF00DC01BF0A6C01CF0A7C01DF0B8
:100CA800A8C01EF0A9C01FF03EEC12F0D8A05FEF5C
:100CB80006F061EF06F086EF06F0CCC00AF0CDC072
:100CC8000BF0000E0BBEFF0E0C6E0D6E010EAFEC9E
:100CD8000FF00AC018F00BC019F00CC01AF00DC0C4
:100CE8001BF0AAC01CF0ABC01DF0ACC01EF0ADC01C
:100CF8001FF03EEC12F0D8B084EF06F086EF06F055
:100D08008EEF06F0000E0B6E010E0A6E6DEC17F0FA
:100D180094EF06F0000E0B6E000E0A6E6DEC17F0E5
:100D2800D0C00AF0D1C00BF0000E0BBEFF0E0C6E47
:100D38000D6E010EAFEC0FF00AC018F00BC019F0E1
:100D48000CC01AF00DC01BF0A2C01CF0A3C01DF00F
:100D5800A4C01EF0A5C01FF03EEC12F0D8B0B7EF4B
:100D680006F0B9EF06F0BDEF06F083808284BFEF8E
:100D780006F083908294CEC00AF0CFC00BF0000E2C
:100D88000BBEFF0E0C6E0D6E010EAFEC0FF00AC01D
:100D980018F00BC019F00CC01AF00DC01BF0A6C05B
:100DA8001CF0A7C01DF0A8C01EF0A9C01FF03EECA3
:100DB80012F0D8B0E2EF06F0E4EF06F0E7EF06F045
:100DC8008382E8EF06F08392CCC00AF0CDC00BF026
:100DD800000E0BBEFF0E0C6E0D6E010EAFEC0FF089
:100DE8000AC018F00BC019F00CC01AF00DC01BF0A7
:100DF800AAC01CF0ABC01DF0ACC01EF0ADC01FF007
:100E08003EEC12F0D8B00BEF07F00DEF07F010EF43
:100E180007F0838411EF07F08394B7C0B6F080EF32
:100E280004F007EF00F00D50800B166E0D500D24E6
:100E3800186E0CAE22EF07F024EF07F025EF07F04D
:100E480018801850D8B42BEF07F02DEF07F042EFB9
:100E580007F01828D8A433EF07F035EF07F03DEF77
:100E680007F0000E0A6E000E0B6E000E0C6E000EE0
:100E78000D6E0C8E000E0D6E4AEF07F0000E0A6E16
:100E8800000E0B6E000E0C6E000E0D6E1150800BD6
:100E9800176E16501718D8B454EF07F056EF07F02E
:100EA80057EF07F0168C11501124176E10AE5FEF34
:100EB80007F061EF07F062EF07F017801750D8B41A
:100EC80068EF07F06AEF07F07FEF07F01728D8A45C
:100ED80070EF07F072EF07F07AEF07F0000E0E6E72
:100EE800000E0F6E000E106E000E116E108E000EAA
:100EF800116E87EF07F0000E0E6E000E0F6E000EDB
:100F0800106E000E116E1850175CD8B08EEF07F0F7
:100F180090EF07F0B7EF07F016AC95EF07F097EFF3
:100F280007F099EF07F0800E161A18C019F017C0CD
:100F380018F019C017F00AC019F00EC00AF019C04D
:100F48000EF00BC019F00FC00BF019C00FF00CC059
:100F580019F010C00CF019C010F00DC019F011C034
:100F68000DF019C011F0000E196E185017C012F0CC
:100F7800136A125E000E135A13BECCEF07F013501B
:100F880009E11A0E125CD8A0CCEF07F0CEEF07F0FB
:100F980005EF08F00A500B100C100D10D8A4D7EF6D
:100FA80007F0DAEF07F0010EDBEF07F0000E196E1D
:100FB800000E0A6E000E0B6E000E0C6E000E0D6E0B
:100FC80017C018F00EEF08F019A0EDEF07F0EFEFDB
:100FD80007F0F5EF07F0D89019300109196EF7EF0F
:100FE80007F0D89019320AA0FCEF07F0FEEF07F0DF
:100FF800FFEF07F0198E0D340D320C320B320A3226
:10100800182A1750185CD8A00CEF08F00EEF08F05B
:10101800E8EF07F016BC13EF08F015EF08F055EFEE
:1010280008F01850D8A41BEF08F01DEF08F027EFC0
:1010380008F0000E0A6E000E0B6E000E0C6E000E0D
:101048000D6E76EF09F00E500A260F500B22105045
:101058000C2211500D220DA034EF08F036EF08F0E5
:10106800E2EF08F019A03BEF08F03DEF08F043EF7E
:1010780008F0D89019300109196E45EF08F0D8909A
:1010880019320AA04AEF08F04CEF08F04DEF08F0CB
:10109800198E0D340D320C320B320A32182AE2EF57
:1010A80008F00E500A5C0F500B5810500C580D5099
:1010B800800A126E1150800A1258D8B066EF08F0F4
:1010C80068EF08F093EF08F00A500E5C126E0B50B0
:1010D8000F58136E0C501058146E0D501158156E91
:1010E800FF0E12240A6EFF0E13200B6EFF0E142043
:1010F8000C6EFF0E15200D6E800E161A196C195005
:10110800D8A489EF08F08BEF08F09BEF08F0010EE8
:101118000A26000E0B220C220D229BEF08F00E501F
:101128000A5E0F500B5A10500C5A11500D5A0A50A3
:101138000B100C100D10D8A4A4EF08F0A6EF08F0BF
:10114800DBEF08F01950D8A4ACEF08F0AEEF08F0C8
:10115800DBEF08F0000E0A6E000E0B6E000E0C6E30
:10116800000E0D6E76EF09F0D8900A360B360C3665
:101178000D3619AEC2EF08F0C4EF08F0C5EF08F05D
:101188000A8019A0CAEF08F0CCEF08F0D0EF08F0F9
:10119800D8801936D2EF08F0D89019361850D8B43C
:1011A800D8EF08F0DAEF08F0DBEF08F018060CAE1D
:1011B800E0EF08F0E2EF08F0B8EF08F0000E176E65
:1011C80019AEE9EF08F0EBEF08F003EF09F019C0EA
:1011D80012F07F0E1216D8B4F4EF08F0F6EF08F00C
:1011E800FAEF08F0010E176E03EF09F00AA0FFEFFF
:1011F80008F001EF09F003EF09F0F6EF08F01750D7
:10120800D8B409EF09F00BEF09F036EF09F0010E39
:101218000A26000E0B220C220D220DA016EF09F053
:1012280018EF09F036EF09F00AC012F00BC013F0FE
:101238000CC014F00DC015F01534153214321332E9
:10124800123212C00AF013C00BF014C00CF015C013
:101258000DF01828D8B433EF09F035EF09F036EF60
:1012680009F0182A1828D8B43CEF09F03EEF09F025
:1012780046EF09F01850D8A444EF09F046EF09F0FA
:1012880058EF09F0000E0A6E000E0B6E000E0C6E81
:10129800000E0D6E1850D8A454EF09F056EF09F05F
:1012A80058EF09F0000E166E18A05DEF09F05FEF19
:1012B80009F062EF09F00C8E63EF09F00C9ED890EC
:1012C80018300D6E16AE6BEF09F06DEF09F06EEF8A
:1012D80009F00D8E0AC00AF00BC00BF00CC00CF020
:1012E8000DC00DF012001B50800B246E1B501B24E8
:1012F8002A6E1AAE82EF09F084EF09F085EF09F043
:101308002A802A50D8B48BEF09F08DEF09F0A0EFAE
:1013180009F02A28D8A493EF09F095EF09F09DEF7A
:1013280009F0000E186E000E196E000E1A6E000EEF
:101338001B6E1A8EA8EF09F0000E186E000E196EBB
:10134800000E1A6E000E1B6E1F50800B241A1F50C1
:101358001F24256E1EAEB3EF09F0B5EF09F0B6EF06
:1013680009F025802550D8B4BCEF09F0BEEF09F08C
:10137800D1EF09F02528D8A4C4EF09F0C6EF09F089
:10138800CEEF09F0000E1C6E000E1D6E000E1E6ED4
:10139800000E1F6E1E8ED9EF09F0000E1C6E000E97
:1013A8001D6E000E1E6E000E1F6E2550D8B4DFEFA6
:1013B80009F0E1EF09F0E9EF09F02A50D8A4E7EFC6
:1013C80009F0E9EF09F0F3EF09F0000E186E000ECE
:1013D800196E000E1A6E000E1B6E8BEF0BF01E506E
:1013E8001802F3CF2FF0F4CF30F02F50266E276A73
:1013F800286A296A30502B6E2C6A2D6A2E6A1D5075
:101408001902F3CF2FF0F4CF30F02F502626000E1C
:1014180027222822292230502B26000E2C222D226A
:101428002E221C501A02F3CF2FF0F4CF30F02F5099
:101438002626000E27222822292230502B26000E8D
:101448002C222D222E2228C029F027C028F026C0C1
:1014580027F0266A1C501902F3CF2FF0F4CF30F092
:101468002F50262630502722000E2822000E29222F
:101478001D501802F3CF2FF0F4CF30F02F5026264E
:1014880030502722000E2822000E292228C029F0D9
:1014980027C028F026C027F0266A1C501802F3CF70
:1014A8002FF0F4CF30F02F50262630502722000E90
:1014B8002822000E29221E501902F3CF2FF0F4CF54
:1014C80030F02F502B2630502C22000E2D22000EEB
:1014D8002E221D501A02F3CF2FF0F4CF30F02F50E8
:1014E8002B2630502C22000E2D22000E2E221E50AC
:1014F8001A02F3CF2FF0F4CF30F02F50206E305077
:10150800216E226A236A22C023F021C022F020C063
:1015180021F0206A20502B2621502C2222502D22E7
:1015280023502E2226C020F027C021F028C022F008
:1015380029C023F0190EA6EF0AF0D89023322232E0
:1015480021322032E82EA1EF0AF020502B2621501C
:101558002C2222502D2223502E2228C029F027C0C9
:1015680028F026C027F0266A25502AC020F0216AD4
:101578002026000E2122820E20242F6EFF0E21200D
:10158800306EDCEF0AF0D8902B362C362D362E36FE
:1015980029AED1EF0AF0D3EF0AF0D4EF0AF02B808E
:1015A800D89026362736283629362F06D8A0300672
:1015B8002DAEE1EF0AF0E3EF0AF0C7EF0AF0000EF4
:1015C800256E29AEEAEF0AF0ECEF0AF010EF0BF007
:1015D800FF0E2614206EFF0E2714216EFF0E28140E
:1015E800226E7F0E2914236E205021102210231002
:1015F800D8B401EF0BF003EF0BF007EF0BF0010E7F
:10160800256E10EF0BF02BA00CEF0BF00EEF0BF08C
:1016180010EF0BF003EF0BF02550D8B416EF0BF0DA
:1016280018EF0BF03CEF0BF0010E2B26000E2C22CE
:101638002D222E222EA023EF0BF025EF0BF03CEFEE
:101648000BF02BC020F02CC021F02DC022F02EC0B2
:1016580023F02334233222322132203220C02BF0CF
:1016680021C02CF022C02DF023C02EF02F4A302AA2
:1016780030BE47EF0BF0305008E12F28D8A047EFD5
:101688000BF049EF0BF053EF0BF0000E2B6E000E32
:101698002C6E800E2D6E7F0E2E6E81EF0BF030BEFD
:1016A80060EF0BF0305006E12F04D8B05EEF0BF07E
:1016B80060EF0BF06CEF0BF0000E2B6E000E2C6E33
:1016C800000E2D6E000E2E6E000E246E81EF0BF0B4
:1016D8002FC02AF0FF0E2B16FF0E2C167F0E2D168C
:1016E800000E2E162AA07BEF0BF07DEF0BF07EEF9D
:1016F8000BF02D8ED8902A302E6E24502E122BC02F
:1017080018F02CC019F02DC01AF02EC01BF01200D2
:101718003450800B416E34503424486E33AE97EF0A
:101728000BF099EF0BF09AEF0BF048804850D8B4C3
:10173800A0EF0BF0A2EF0BF0B7EF0BF04828D8A4FE
:10174800A8EF0BF0AAEF0BF0B2EF0BF0000E316E22
:10175800000E326E000E336E000E346E338E000EA5
:10176800346EBFEF0BF0000E316E000E326E000EBD
:10177800336E000E346E3850800B411A38503824BE
:10178800496E37AECAEF0BF0CCEF0BF0CDEF0BF094
:1017980049804950D8B4D3EF0BF0D5EF0BF0EAEFFE
:1017A8000BF04928D8A4DBEF0BF0DDEF0BF0E5EFE9
:1017B8000BF0000E356E000E366E000E376E000E02
:1017C800386E378E000E386EF2EF0BF0000E356E65
:1017D800000E366E000E376E000E386E355036101D
:1017E80037103810D8A4FBEF0BF0FDEF0BF015EF16
:1017F8000CF0000E316E000E326E000E336E000ECD
:10180800346E800E33127F0E34124150341231C0C0
:1018180031F032C032F033C033F034C034F058EF16
:101828000DF04850D8A41BEF0CF01DEF0CF027EF7B
:101838000CF0000E316E000E326E000E336E000E8C
:10184800346E58EF0DF0495048C039F03A6A395EA5
:10185800000E3A5A7F0E3924426E000E3A20436E2B
:1018680031C03DF032C03EF033C03FF034C040F0EC
:10187800000E316E000E326E000E336E000E346EA6
:10188800000E446E000E456E000E466E000E476E4A
:10189800000E496E88EF0CF04950D8B456EF0CF0A2
:1018A80058EF0CF06FEF0CF0D8903D363E363F36CF
:1018B8004036D890313632363336343647AE67EF55
:1018C8000CF069EF0CF06AEF0CF03180D8904436D8
:1018D80045364636473635503D5C36503E583750CB
:1018E8003F5838504058D8A07CEF0CF07EEF0CF0F1
:1018F80087EF0CF0478C35503D5E36503E5A3750D6
:101908003F5A3850405A492A190E49648EEF0CF054
:1019180090EF0CF050EF0CF03D503E103F1040108F
:10192800D8B499EF0CF09BEF0CF0B3EF0CF04480B7
:10193800B3EF0CF0D890313632363336343647AE02
:10194800A8EF0CF0AAEF0CF0ABEF0CF03180D890B8
:1019580044364536463647364206D8A0430633AEA7
:10196800B8EF0CF0BAEF0CF09EEF0CF0000E496ED9
:1019780047AEC1EF0CF0C3EF0CF0E7EF0CF0FF0E31
:101988004414396EFF0E45143A6EFF0E46143B6E32
:101998007F0E47143C6E39503A103B103C10D8B4B7
:1019A800D8EF0CF0DAEF0CF0DEEF0CF0010E496E18
:1019B800E7EF0CF031A0E3EF0CF0E5EF0CF0E7EF08
:1019C8000CF0DAEF0CF04950D8B4EDEF0CF0EFEF73
:1019D8000CF013EF0DF0010E3126000E32223322E7
:1019E800342234A0FAEF0CF0FCEF0CF013EF0DF0FA
:1019F80031C039F032C03AF033C03BF034C03CF06B
:101A08003C343C323B323A32393239C031F03AC098
:101A180032F03BC033F03CC034F0424A432A43BE64
:101A28001EEF0DF0435008E14228D8A01EEF0DF03C
:101A380020EF0DF02BEF0DF0000E436E4268000E04
:101A4800316E000E326E000E336E000E346E43BEE1
:101A580038EF0DF0435006E14204D8B036EF0DF0F0
:101A680038EF0DF046EF0DF0000E436E000E426E9B
:101A7800000E316E000E326E000E336E000E346EA4
:101A8800000E416E42C048F048A04DEF0DF04FEFF8
:101A98000DF052EF0DF0338E53EF0DF0339ED890CA
:101AA8004830346E09EF0CF0120034BE60EF0DF0D0
:101AB8005EEF0DF07AEF0DF035C0D9FF36C0DAFFD2
:101AC8002D0EDF6E354A362A31C00AF032C00BF0CF
:101AD80033C00CF034C00DF006EC17F00AC031F03A
:101AE8000BC032F00CC033F00DC034F031C00AF036
:101AF80032C00BF033C00CF034C00DF0BBEC11F069
:101B08000AC06EF00BC06FF031C01AF032C01BF083
:101B180033C01CF034C01DF06EC00AF06FC00BF06B
:101B2800000E0BBEFF0E0C6E0D6E010EAFEC0FF02B
:101B38000AC01EF00BC01FF00CC020F00DC021F031
:101B48003FEC16F01AC031F01BC032F01CC033F065
:101B58001DC034F06EC072F06FC073F0000E00014B
:101B6800776F000E766F600E7625D96E000E77219E
:101B7800DA6E72C00AF073C00BF0000E0D6E0A0E1A
:101B88000C6EB6EC14F00A50300FDF6E0001764B85
:101B9800772B72C00AF073C00BF0000E0D6E0A0EA0
:101BA8000C6E37EC13F00AC072F00BC073F0000132
:101BB80073BFE9EF0DF0735106E17205D8B0E7EF96
:101BC8000DF0E9EF0DF0B7EF0DF0000E756F000E98
:101BD800746F0BEF0EF0600E396E000E3A6E745192
:101BE800395E75513A5A7651392677513A22FF0EA5
:101BF8003924D96EFF0E3A20DA6E74513524E16E1D
:101C080075513620E26EDFCFE7FF744B752B7651A6
:101C1800745D7551800A396E7751800A3958D8A099
:101C280018EF0EF01AEF0EF0EFEF0DF076513526A3
:101C38007751362235C0D9FF36C0DAFF2E0EDF6E57
:101C4800354A362A000E6D6F000E6C6F87EF0EF066
:101C580031C018F032C019F033C01AF034C01BF08C
:101C6800000E1C6E000E1D6E200E1E6E410E1F6EA5
:101C780077EC09F018C031F019C032F01AC033F00F
:101C88001BC034F031C00AF032C00BF033C00CF086
:101C980034C00DF0BBEC11F00AC070F00BC071F04D
:101CA80000017051300F35C0D9FF36C0DAFFDF6E42
:101CB800354A362A31C01AF032C01BF033C01CF046
:101CC80034C01DF070C00AF071C00BF0000E0BBEDE
:101CD800FF0E0C6E0D6E010EAFEC0FF00AC01EF079
:101CE8000BC01FF00CC020F00DC021F03FEC16F027
:101CF8001AC031F01BC032F01CC033F01DC034F0E4
:101D080000016C4B6D2B37506C5D6D51800A396E3C
:101D18003850800A3958D8A094EF0EF096EF0EF09C
:101D28002CEF0EF035C0D9FF36C0DAFF000EDF6E9B
:101D38001200090EF66E7F0EF76E20EE18F0070EF1
:101D48000900F5CFDEFFE806FBE222EC17F00AC037
:101D580024F00BC025F00CC026F00DC027F0000EB3
:101D6800216E000E206E21BEC3EF0EF0215009E156
:101D7800040E205CD8A0C3EF0EF0C5EF0EF0C7EF3D
:101D88000EF0A7EF0FF020C012F0010E136E122A0A
:101D9800D0EF0EF0D8901336122ECEEF0EF013506F
:101DA800FF0A8A6E210E126E760EE82EFED7122ECC
:101DB800FCD700D0000E236E000E226E22C012F057
:101DC800040E1226010E136E122AEDEF0EF0D890B3
:101DD8001336122EEBEF0EF0135081140009D8A41D
:101DE800F8EF0EF0FAEF0EF093EF0FF0D8902034E2
:101DF800D96E2134DA6E180ED926000EDA22DECF1B
:101E080012F0DDCF13F022C014F023C015F0D890E3
:101E180014361536D89014361536F90E166E7E0E11
:101E2800176E1450162615501722125016261350E6
:101E3800172216C0F6FF17C0F7FF0800F5CF28F0E5
:101E480028500001B819D8B42CEF0FF02EEF0FF07E
:101E58003FEF0FF028C0B9F028C0B8F0000EBA6FF5
:101E680024C0BBF025C0BCF026C0BDF027C0BEF022
:101E78002850AEEF0FF0BA51D8A445EF0FF047EF56
:101E88000FF06DEF0FF0BB51245C126EBC5125585A
:101E9800136EBD512658146EBE512758156E155035
:101EA80014100BE1F50E125C010E1358D8A05FEF69
:101EB8000FF061EF0FF06DEF0FF0BA2B24C0BFF0F9
:101EC80025C0C0F026C0C1F027C0C2F02850AEEF30
:101ED8000FF0BA51D8B473EF0FF075EF0FF090EF21
:101EE8000FF0BF51245C126EC0512558136EC151BA
:101EF8002658146EC2512758156E15501410131019
:101F080009E1650E125CD8A08CEF0FF08EEF0FF090
:101F180090EF0FF062EF0FF0000EAEEF0FF0224AD5
:101F2800232A23BEA1EF0FF0235009E1040E225CFF
:101F3800D8A0A1EF0FF0A3EF0FF0E2EF0EF0204AC8
:101F4800212AB7EF0EF0000E0001B86F000EBA6F2D
:101F580090EF0FF01200126E1250D8B4B6EF0FF0D7
:101F6800B8EF0FF0DAEF0FF00DBEBFEF0FF0BDEFD7
:101F78000FF0DAEF0FF00AC00EF00BC00FF00CC034
:101F880010F00DC011F00E1E0F1E101E111E0E2A8D
:101F9800000E0F22102211220EC014F00FC015F0EF
:101FA80010C016F011C017F0E2EF0FF00AC014F0DD
:101FB8000BC015F00CC016F00DC017F00A500B102E
:101FC8000C100D10D8A4EBEF0FF0EDEF0FF0F7EFBA
:101FD8000FF0000E0A6E000E0B6E000E0C6E000E57
:101FE8000D6E88EF10F0960E136E01EF10F0132AA5
:101FF800D8901732163215321432000E14140E6EA1
:10200800000E15140F6E000E1614106EFE0E171427
:10201800116E0E500F1010101110D8A416EF10F0FA
:1020280018EF10F0FBEF0FF026EF10F0132A010E57
:102038001426000E152216221722D89017321632AF
:1020480015321432000E14140E6E000E15140F6E95
:10205800000E1614106EFF0E1714116E0E500F108E
:1020680010101110D8A43BEF10F03DEF10F01AEF4C
:1020780010F045EF10F01306D890143615361636C2
:10208800173616BE4AEF10F04CEF10F054EF10F070
:10209800020E136052EF10F054EF10F03FEF10F003
:1020A80013B059EF10F05BEF10F05CEF10F0169ED4
:1020B800D890133213C00EF00F6A106A116A0EC05E
:1020C80011F0106A0F6A0E6A0E5014120F50151292
:1020D80010501612115017121250D8B476EF10F093
:1020E80078EF10F080EF10F00DBE7FEF10F07DEF6D
:1020F80010F080EF10F0178E14C00AF015C00BF026
:1021080016C00CF017C00DF01200000E176E000E6E
:10211800166E14501510D8A494EF10F096EF10F026
:1021280098EF10F028EF11F012501310D8A49FEF79
:1021380010F0A1EF10F0B1EF10F014C0D9FF15C0E6
:10214800DAFF300EDF6E20EE01F01450D92615505C
:10215800DA22000EDF6E28EF11F013BEB8EF10F090
:10216800B6EF10F0C6EF10F0126C131ED8B0132A99
:1021780014C0D9FF15C0DAFF2D0EDF6E144A152AD8
:10218800164A172A12C018F013C019F0DCEF10F025
:1021980018C00AF019C00BF0000E0D6E0A0E0C6E76
:1021A80037EC13F00AC018F00BC019F0164A172ABA
:1021B80019BEE9EF10F0195006E11804D8B0E7EF9E
:1021C80010F0E9EF10F0CCEF10F016501424D96E8F
:1021D80017501520DA6E000EDF6E12C018F013C00B
:1021E80019F01BEF11F01606D8A017061650142484
:1021F800D96E17501520DA6E18C00AF019C00BF006
:10220800000E0D6E0A0E0C6EB6EC14F00A50300F6C
:10221800DF6E18C00AF019C00BF0000E0D6E0A0E22
:102228000C6E37EC13F00AC018F00BC019F019BE89
:1022380028EF11F0195006E11804D8B026EF11F074
:1022480028EF11F0F7EF10F01200000E2D6E000EBF
:102258002E6E000E2F6E000E316E000E306E010EC7
:10226800E7EC16F00D0E2B6EFC0EE82EFED72B2E8B
:10227800FCD7020EE7EC16F00D0E2B6EFC0EE82EC6
:10228800FED72B2EFCD7000E0C6E000E0B6E000E28
:102298000E6E000E0D6E29C00FF02AC010F00EEC65
:1022A80015F09CEF11F09DEC0EF0326E2F0E32649B
:1022B80060EF11F062EF11F08FEF11F03A0E32601B
:1022C80068EF11F06AEF11F08FEF11F02D0E302446
:1022D800D96E000E3120DA6E32C0DFFF000E0C6EB0
:1022E800010E0B6E30C00DF031C00EF02D0E3024F3
:1022F8000F6E000E3120106E0EEC15F0304A312AA8
:10230800060E2C6E130E2B6EAE0EE82EFED72B2E5D
:10231800FCD72C2EFAD7460E3218D8A496EF11F017
:1023280098EF11F09CEF11F029682A68BAEF11F0C4
:1023380031BEA8EF11F0315009E1020E305CD8A08F
:10234800A8EF11F0AAEF11F057EF11F02D500A0D78
:10235800F3CF2BF0F4CF2CF02E502B26000E2C228E
:10236800F00E2B24296EFD0E2C202A6E12000C3440
:102378000D34136E1350D8A4C4EF11F0C6EF11F04A
:10238800D0EF11F0000E0A6E000E0B6E000E0C6EF0
:10239800000E0D6E3DEF12F00AC00EF00BC00FF0EC
:1023A8000CC010F00DC011F0200EE0EF11F0D89025
:1023B800113210320F320E32E82EDBEF11F00E50D0
:1023C800126E0C8EFF0E0A16FF0E0B16FF0E0C1661
:1023D800000E0D16960E135E13BEF7EF11F0F5EF13
:1023E80011F00DEF12F01350800A970FD8B0FFEFDD
:1023F80011F001EF12F003EF12F0C6EF11F0D890D0
:102408000D320C320B320A32133E03EF12F025EF75
:1024180012F01F0E136413EF12F015EF12F01DEFF8
:1024280012F0C6EF11F0D8900A360B360C360D367E
:1024380013061350D8A423EF12F025EF12F017EF6C
:1024480012F01250D8B42BEF12F02DEF12F035EF36
:1024580012F00D1E0C1E0B1E0A6C000E0B220C2215
:102468000D220AC00AF00BC00BF00CC00CF00DC016
:102478000DF01200000E1814206E000E1914216EB3
:10248800800E1A14226E7F0E1B14236E205021100A
:1024980022102310D8A453EF12F055EF12F05DEF7D
:1024A80012F0000E186E000E196E000E1A6E000E55
:1024B8001B6E000E1C14206E000E1D14216E800E63
:1024C8001E14226E7F0E1F14236E2050211022101E
:1024D8002310D8A472EF12F074EF12F07CEF12F010
:1024E800000E1C6E000E1D6E000E1E6E000E1F6E7E
:1024F8001BAE81EF12F083EF12F08CEF12F0186C24
:10250800191ED8B0192A1A1ED8B01A2A800E1B56BE
:102518001FAE91EF12F093EF12F09CEF12F01C6CCB
:102528001D1ED8B01D2A1E1ED8B01E2A800E1F568A
:10253800000E181A000E191A000E1A1A800E1B1A0D
:10254800000E1C1A000E1D1A000E1E1A800E1F1AED
:102558001C50185C1D5019581E501A581F501B58F3
:10256800D8B0B9EF12F0BBEF12F0BEEF12F0D8906E
:10257800BFEF12F0D88012000B6E0F0E83160F0EED
:1025880095169694969096928D948D908D9251EC86
:1025980017F0300EE7EC16F03FEC17F03FEC17F0B1
:1025A800300EE7EC16F03FEC17F03FEC17F0320E68
:1025B800E7EC16F085EC16F00009D8A4E6EF12F067
:1025C800E8EF12F0DEEF12F085EC16F00009D8A45F
:1025D800F0EF12F0F2EF12F0E8EF12F00B50E7EC28
:1025E80016F085EC16F00009D8A4FDEF12F0FFEF05
:1025F80012F0F5EF12F0080EE7EC16F085EC16F085
:102608000009D8A40AEF13F00CEF13F002EF13F04F
:102618000F0EE7EC16F085EC16F00009D8A417EFBA
:1026280013F019EF13F00FEF13F0010EE7EC16F0AB
:1026380085EC16F00009D8A424EF13F026EF13F068
:102648001CEF13F0040EE7EC16F085EC16F0000909
:10265800D8A431EF13F033EF13F029EF13F0800E05
:10266800A8EC16F01200000E0F6E0DBE40EF13F02E
:102678003EEF13F046EF13F00C6C0D1ED8B00D2A88
:10268800010E0F6E0BBE4DEF13F04BEF13F053EF2F
:1026980013F00A6C0B1ED8B00B2A010E0F1A000E8D
:1026A800116E000E106E0C500D10D8B45EEF13F0C2
:1026B80060EF13F088EF13F0010E0E6E68EF13F061
:1026C800D8900C360D360E2A0DAE6DEF13F06FEF65
:1026D80013F064EF13F0D890103611360C500A5CE2
:1026E8000D500B58D8A07BEF13F07DEF13F082EF5D
:1026F80013F00C500A5E0D500B5A1080D8900D3212
:102708000C320E2E6FEF13F00F50D8B48EEF13F07B
:1027180090EF13F094EF13F0106C111ED8B0112A3B
:1027280010C00AF011C00BF01200000EE5EC15F015
:102738000AC06CF00BC06DF0000E356EC00E366E20
:102748007F0E376E440E386E000E1C6E000E1D6E26
:10275800A00E1E6E400E1F6E6CC00AF06DC00BF00E
:102768000C6A0D6A000EAFEC0FF00AC018F00BC02F
:1027780019F00CC01AF00DC01BF077EC09F018C066
:1027880031F019C032F01AC033F01BC034F08CECB1
:102798000BF031C068F032C069F033C06AF034C061
:1027A8006BF068C031F069C032F06AC033F06BC0BA
:1027B80034F00A0E356ED70E366E230E376E3C0E89
:1027C800386E8CEC0BF031C064F032C065F033C069
:1027D80066F034C067F064C060F065C061F066C040
:1027E80062F067C063F01200030EE5EC15F00AC052
:1027F8006CF00BC06DF0000E356EC00E366E7F0E9D
:10280800376E440E386E000E1C6E000E1D6EA00E44
:102818001E6E400E1F6E6CC00AF06DC00BF00C6A85
:102828000D6A000EAFEC0FF00AC018F00BC019F0DB
:102838000CC01AF00DC01BF077EC09F018C031F08D
:1028480019C032F01AC033F01BC034F08CEC0BF016
:1028580031C068F032C069F033C06AF034C06BF040
:1028680068C018F069C019F06AC01AF06BC01BF094
:10287800000E1C6E000E1D6EA00E1E6E410E1F6E09
:1028880077EC09F018C064F019C065F01AC066F05A
:102898001BC067F064C060F065C061F066C062F09C
:1028A80067C063F01200020EE5EC15F00AC06CF088
:1028B8000BC06DF0000E356EC00E366E7F0E376E93
:1028C800440E386E000E1C6E000E1D6EA00E1E6E9D
:1028D800400E1F6E6CC00AF06DC00BF00C6A0D6ADA
:1028E800000EAFEC0FF00AC018F00BC019F00CC0C6
:1028F8001AF00DC01BF077EC09F018C031F019C0C0
:1029080032F01AC033F01BC034F08CEC0BF031C03D
:1029180068F032C069F033C06AF034C06BF068C048
:1029280018F069C019F06AC01AF06BC01BF0000EED
:102938001C6E000E1D6EA00E1E6E410E1F6E77ECF3
:1029480009F018C064F019C065F01AC066F01BC021
:1029580067F064C060F065C061F066C062F067C08F
:1029680063F01200000E0F6E0BBEBFEF14F0BDEF48
:1029780014F0C5EF14F00A6C0B1ED8B00B2A010E28
:102988000F6E0DBECCEF14F0CAEF14F0D0EF14F0B8
:102998000C6C0D1ED8B00D2A0C500D10D8B4D7EF02
:1029A80014F0D9EF14F0FDEF14F0010E0E6EE1EF04
:1029B80014F0D8900C360D360E2A0DAEE6EF14F052
:1029C800E8EF14F0DDEF14F00C500A5C0D500B58D2
:1029D800D8A0F1EF14F0F3EF14F0F7EF14F00C5067
:1029E8000A5E0D500B5AD8900D320C320E2EE8EFBD
:1029F80014F00F50D8B403EF15F005EF15F009EFF8
:102A080015F00A6C0B1ED8B00B2A0AC00AF00BC0CE
:102A18000BF012000B500C10D8B415EF15F017EF8F
:102A280015F01DEF15F0000E146EC00E136E21EF99
:102A380015F0000E146E800E136E0D501324116ED7
:102A48000E501420126E1150E7EC16F040EF15F0FE
:102A58000FC0F6FF10C0F7FFF86A070EF76403D03F
:102A68000800F55005D0F6CFE1FFF7CFE2FFE750B9
:102A7800C8EC16F00F4A102A0FC0F6FF10C0F7FF77
:102A8800F86A070EF76403D00800F55005D0F6CFB2
:102A9800E1FFF7CFE2FFE7500009D8A456EF15F0A1
:102AA80058EF15F02CEF15F012000600F2A45FEFB6
:102AB80015F061EF15F09FEF15F0640ED66E010E5C
:102AC8004C26000E4D224E224F224CC001F04DC024
:102AD80002F04EC003F04FC004F0E80E056E030E7E
:102AE800066E000E076E000E086EA1EC15F0015080
:102AF800021003100410D8A484EF15F086EF15F027
:102B08009EEF15F053BE92EF15F0535009E1020EF7
:102B1800525CD8A092EF15F094EF15F09AEF15F0EB
:102B2800000E536E000E526E9EEF15F0000E536E9F
:102B3800010E526EF29455921100055006100710BE
:102B48000810D8B4AAEF15F0ACEF15F0DCEF15F0CB
:102B5800010E096EB6EF15F0D89005360636073621
:102B68000836092A08AEBBEF15F0BDEF15F0B0EF37
:102B780015F00550015C06500258075003580850DC
:102B88000458D8A0CAEF15F0CCEF15F0D4EF15F023
:102B98000550015E0650025A0750035A0850045A5D
:102BA800D8900832073206320532092EBDEF15F0EB
:102BB80001C001F002C002F003C003F004C004F039
:102BC8001200106E0C0E1064ECEF15F0EEEF15F01D
:102BD800F4EF15F0000E0B6E000E0A6E1BEF16F0E8
:102BE80010C00CF00C460C46C2500C18C30B0C1845
:102BF800C26E0D0E0C6EFC0EE82EFED70C2EFCD706
:102C0800C282C2B20AEF16F00CEF16F005EF16F00A
:102C1800C350C4CF0CF00D6A0CC00DF00C6A0C1038
:102C28000E6E0D500F6E0EC00AF00FC00BF01200A2
:102C3800D40EF66E2E0EF76E000EF86E00EECCF087
:102C480010EE06F00900F5CFEEFFE550E150FAE18D
:102C580000EEB8F0140EEE6AE806FDE100EE4CF066
:102C6800090EEE6AE806FDE155905592000EF86EE1
:102C7800000164EF04F0000E1E1A000E1F1A000E69
:102C8800201A800E211A1AC00AF01BC00BF01CC0B3
:102C98000CF01DC00DF01EC00EF01FC00FF020C0BC
:102CA80010F021C011F017EC07F00AC01AF00BC0A1
:102CB8001BF00CC01CF00DC01DF01200280EC0EC5B
:102CC80012F0010EE7EC16F0410E0C6EEE0EE82E37
:102CD800FED70C2EFCD700D0020EE7EC16F00D0E36
:102CE8000C6EFC0EE82EFED70C2EFCD70C0EE7EC73
:102CF80016F00D0E0C6EFC0EE82EFED70C2EFCD72F
:102D080012008D848D9065EC17F08D8265EC17F0BC
:102D180083AE91EF16F093EF16F09EEF16F08D92BA
:102D280065EC17F08D8265EC17F08D928D94010E8D
:102D3800A7EF16F08D9265EC17F08D8265EC17F011
:102D48008D928D94000E12000A6E0F0E95160F0EBE
:102D580083160A508009F00B83128D948D9065ECD0
:102D680017F08D8265EC17F08D920F0E83160A38D6
:102D7800F00BF00B831265EC17F08D8265EC17F001
:102D88008D92F00E951212000A6E0F0E95160F0E08
:102D980083160A50F00B83128D808D9465EC17F022
:102DA8008D8265EC17F08D920F0E83160A38F00BA2
:102DB800F00B831265EC17F08D8265EC17F08D929D
:102DC800F00E951212000A6E0F0E95160F0E83164E
:102DD8000A50F00B83128D948D9065EC17F08D825C
:102DE80065EC17F08D920F0E83160A38F00BF00B76
:102DF800831265EC17F08D8265EC17F08D92F00E5A
:102E0800951212000A500B100C100D10D8B40FEFC9
:102E180017F011EF17F019EF17F0000E0A1A000E4D
:102E28000B1A000E0C1A800E0D1A0AC00AF00BC0FD
:102E38000BF00CC00CF00DC00DF01200F29E4CC04F
:102E48000EF04DC00FF04EC010F04FC011F0F28ED2
:102E58000EC00AF00FC00BF010C00CF011C00DF03E
:102E68001200D08EF28EF28CF184F28AF294F190F4
:102E7800F286F2901200210E0A6E760EE82EFED728
:102E88000A2EFCD700D01200F00E936E9286959011
:102E980095929494839083921200620E0A6E660E45
:102EA800E82EFED70A2EFCD71200C40ED56E640E8B
:102EB800D66EF29412000B0EC16E950EC06EC280D3
:102EC8001200210EE82EFED700F012001400320086
:042ED8001E001200C6
:107EF800003132334134353642373839434630451C
:107F080044030002000100000048756D6964696659
:107F1800696361646F72204F4E00485F6C696D2021
:107F280065786365646964612100545F6C696D20DC
:107F380065786365646964612100475F6C696D20D9
:107F4800657863656469646F21004C696D207265AA
:107F580073657461646F7321005265736672696139
:107F6800646F72204F4E0048756D69642053616CD0
:107F7800766F21004C696D6974652054656D703A9F
:107F880000496E76616C6964204D656E75005465B4
:107F98006D702053616C766121004C696D69746560
:107FA8002048756D3A004578617573746F72204F7B
:107FB8004E004761732053616C766F21004C696DE8
:107FC800697465204761730053697374656D6173E3
:107FD8003A004C656974757261730048756D69641F
:107FE8003A004C696D3A004761733A0070706D0051
:087FF8004F4B0025004300007F
:020000040020DA
:08000000FFFFFFFFFFFFFFFF00
:020000040030CA
:0E000000000C191EFF8080FF0FC00FE00F40A4
:00000001FF
