:0400000007EF00F016
:100008005682A9ED15F06CEF16F072EC17F00AC0E5
:1000180086F00BC087F00CC088F00DC089F0000195
:10002800CB51865D786FCC518759796FCD518859FE
:100038007A6FCE5189597B6F7B517A1109E1F40EA1
:10004800785D010E7959D8B02CEF00F02EEF00F052
:1000580032EF00F063EF04F063EF04F086C0CBF0FA
:1000680087C0CCF088C0CDF089C0CEF0010E37EC47
:1000780017F00D0E0001786FFB0EE82EFED7782FD3
:10008800FCD700D0E9EC13F060C08AF061C08BF0B7
:1000980062C08CF063C08DF048EC14F060C08EF044
:1000A80061C08FF062C090F063C091F0A7EC14F0CB
:1000B80060C092F061C093F062C094F063C095F0A4
:1000C80040EF04F0000E0C6E000E0B6E000E0E6E6C
:1000D800000E0D6E830E0F6E7F0E106E5EEC15F027
:1000E8008AC031F08BC032F08CC033F08DC034F050
:1000F8007C0E356E000E366E000E386E010E376EB1
:10010800BBEC0EF0000E0C6E000E0B6E000E0E6EA9
:10011800060E0D6E7C0E0F6E000E106E5EEC15F066
:10012800000E0C6E000E0B6E000E0E6E0B0E0D6E9A
:10013800FD0E0F6E7F0E106E5EEC15F0000E0C6E4D
:10014800010E0B6E000E0E6E000E0D6EEA0E0F6E97
:100158007F0E106E5EEC15F0D8C012F0D9C013F007
:100168007C0E146E000E156ED9EC10F0000E0C6E9D
:10017800010E0B6E000E0E6E040E0D6E7C0E0F6ED1
:10018800000E106E5EEC15F063EF04F0000E0C6EBE
:10019800000E0B6E000E0E6E000E0D6EE30E0F6E4F
:1001A8007F0E106E5EEC15F08EC031F08FC032F00D
:1001B80090C033F091C034F07C0E356E000E366E70
:1001C800000E386E010E376EBBEC0EF0000E0C6E92
:1001D800000E0B6E000E0E6E070E0D6E7C0E0F6E6F
:1001E800000E106E5EEC15F0000E0C6E000E0B6E1D
:1001F800000E0E6E0C0E0D6EFB0E0F6E7F0E106E47
:100208005EEC15F0000E0C6E010E0B6E000E0E6EFD
:10021800000E0D6EEA0E0F6E7F0E106E5EEC15F07E
:10022800D6C012F0D7C013F07C0E146E000E156EF7
:10023800D9EC10F0BAEF00F0000E0C6E000E0B6E49
:10024800000E0E6E000E0D6EEF0E0F6E7F0E106E0E
:100258005EEC15F092C031F093C032F094C033F0E8
:1002680095C034F07C0E356E000E366E000E386E7A
:10027800010E376EBBEC0EF0000E0C6E000E0B6E0E
:10028800000E0E6E050E0D6E7C0E0F6E000E106EBB
:100298005EEC15F0000E0C6E000E0B6E000E0E6E6E
:1002A8000B0E0D6EF40E0F6E7F0E106E5EEC15F0D9
:1002B800000E0C6E010E0B6E000E0E6E000E0D6E13
:1002C800EA0E0F6E7F0E106E5EEC15F0D4C012F0C1
:1002D800D5C013F07C0E146E000E156ED9EC10F01C
:1002E800BAEF00F0000E0C6E000E0B6E000E0E6ED4
:1002F800000E0D6EDA0E0F6E7F0E106E5EEC15F0AE
:10030800D8C00AF0D9C00BF0000E0BBEFF0E0C6E61
:100318000D6E010EFFEC0FF00AC018F00BC019F0BB
:100328000CC01AF00DC01BF08AC01CF08BC01DF069
:100338008CC01EF08DC01FF08EEC12F0D8A0A7EF75
:1003480001F0A9EF01F003EF02F0D6C00AF0D7C020
:100358000BF0000E0BBEFF0E0C6E0D6E010EFFECC7
:100368000FF00AC018F00BC019F00CC01AF00DC03D
:100378001BF08EC01CF08FC01DF090C01EF091C005
:100388001FF08EEC12F0D8A0CCEF01F0CEEF01F008
:1003980003EF02F0D4C00AF0D5C00BF0000E0BBE7C
:1003A800FF0E0C6E0D6E010EFFEC0FF00AC018F078
:1003B8000BC019F00CC01AF00DC01BF092C01CF055
:1003C80093C01DF094C01EF095C01FF08EEC12F083
:1003D800D8A0F1EF01F0F3EF01F003EF02F0000E07
:1003E8000C6E010E0B6E000E0E6E000E0D6EF80EEA
:1003F8000F6E7F0E106E5EEC15F063EF04F0504A3E
:10040800512A51BE11EF02F0515009E1040E505C1F
:10041800D8A011EF02F013EF02F0B8EF02F0000ECF
:10042800516E000E506EB8EF02F0D8C00AF0D9C075
:100438000BF0000E0BBEFF0E0C6E0D6E010EFFECE6
:100448000FF00AC018F00BC019F00CC01AF00DC05C
:100458001BF08AC01CF08BC01DF08CC01EF08DC034
:100468001FF08EEC12F0D8B03CEF02F03EEF02F035
:1004780030EF00F0000E0C6E010E0B6E000E0E6ECB
:10048800000E0D6E320E0F6E7F0E106E5EEC15F0C4
:1004980063EF04F0D6C00AF0D7C00BF0000E0BBE15
:1004A800FF0E0C6E0D6E010EFFEC0FF00AC018F077
:1004B8000BC019F00CC01AF00DC01BF08EC01CF058
:1004C8008FC01DF090C01EF091C01FF08EEC12F08E
:1004D800D8B071EF02F073EF02F030EF00F0000EC9
:1004E8000C6E010E0B6E000E0E6E000E0D6E220EBF
:1004F8000F6E7F0E106E5EEC15F063EF04F0D4C043
:100508000AF0D5C00BF0000E0BBEFF0E0C6E0D6E80
:10051800010EFFEC0FF00AC018F00BC019F00CC068
:100528001AF00DC01BF092C01CF093C01DF094C0CF
:100538001EF095C01FF08EEC12F0D8B0A6EF02F0B6
:10054800A8EF02F030EF00F0000E0C6E010E0B6EFB
:10055800000E0E6E000E0D6E420E0F6E7F0E106EA8
:100568005EEC15F063EF04F050C078F051C079F0FC
:1005780000017951000AD8B4C4EF02F063EF04F027
:100588007851000AD8B419EF02F0010AD8B44EEF36
:1005980002F0030AD8B483EF02F063EF04F0000E10
:1005A8000C6E000E0B6E000E0E6E000E0D6ED00E51
:1005B8000F6E7F0E106E5EEC15F0D8C00AF0D9C031
:1005C8000BF0000E0BBEFF0E0C6E0D6E010EFFEC55
:1005D8000FF00AC018F00BC019F00CC01AF00DC0CB
:1005E8001BF08AC01CF08BC01DF08CC01EF08DC0A3
:1005F8001FF08EEC12F0D8A004EF03F006EF03F022
:1006080060EF03F0D6C00AF0D7C00BF0000E0BBEA7
:10061800FF0E0C6E0D6E010EFFEC0FF00AC018F005
:100628000BC019F00CC01AF00DC01BF08EC01CF0E6
:100638008FC01DF090C01EF091C01FF08EEC12F01C
:10064800D8A029EF03F02BEF03F060EF03F0D4C03C
:100658000AF0D5C00BF0000E0BBEFF0E0C6E0D6E2F
:10066800010EFFEC0FF00AC018F00BC019F00CC017
:100678001AF00DC01BF092C01CF093C01DF094C07E
:100688001EF095C01FF08EEC12F0D8A04EEF03F0CC
:1006980050EF03F060EF03F0000E0C6E010E0B6ECE
:1006A800000E0E6E000E0D6EF80E0F6E7F0E106EA1
:1006B8005EEC15F063EF04F00001D24BD32BD3BFEF
:1006C8006FEF03F0D35109E1040ED25DD8A06FEFAC
:1006D80003F071EF03F016EF04F0000ED36F000E75
:1006E800D26F16EF04F0D8C00AF0D9C00BF0000E94
:1006F8000BBEFF0E0C6E0D6E010EFFEC0FF00AC064
:1007080018F00BC019F00CC01AF00DC01BF08AC00D
:100718001CF08BC01DF08CC01EF08DC01FF08EEC3D
:1007280012F0D8B09AEF03F09CEF03F063EF04F0F7
:10073800000E0C6E010E0B6E000E0E6E000E0D6E8E
:10074800610E0F6E7F0E106E5EEC15F063EF04F015
:10075800D6C00AF0D7C00BF0000E0BBEFF0E0C6E11
:100768000D6E010EFFEC0FF00AC018F00BC019F067
:100778000CC01AF00DC01BF08EC01CF08FC01DF00D
:1007880090C01EF091C01FF08EEC12F0D8B0CFEFE1
:1007980003F0D1EF03F063EF04F0000E0C6E010ECE
:1007A8000B6E000E0E6E000E0D6E110E0F6E7F0E8C
:1007B800106E5EEC15F063EF04F0D4C00AF0D5C0FB
:1007C8000BF0000E0BBEFF0E0C6E0D6E010EFFEC53
:1007D8000FF00AC018F00BC019F00CC01AF00DC0C9
:1007E8001BF092C01CF093C01DF094C01EF095C081
:1007F8001FF08EEC12F0D8B004EF04F006EF04F00E
:1008080063EF04F0000E0C6E010E0B6E000E0E6E00
:10081800000E0D6EAE0E0F6E7F0E106E5EEC15F0B4
:1008280063EF04F0D2C078F0D3C079F07951000AB0
:10083800D8B421EF04F063EF04F07851000AD8B47B
:1008480077EF03F0010AD8B4ACEF03F0030AD8B489
:10085800E1EF03F063EF04F0000E0C6E000E0B6E78
:10086800000E0E6E000E0D6E890E0F6E7F0E106E4E
:100878005EEC15F063EF04F04AC078F04BC079F0F5
:1008880000017951000AD8B44CEF04F030EF04F0BD
:100898007851000AD8B466EF00F0010AD8B4CAEF5C
:1008A80000F0030AD8B420EF01F0010AD8B476EFBB
:1008B80001F0070AD8B4D3EF02F030EF04F01200C9
:1008C80098EC17F0AFEC17F0B2EC16F0A9EC17F0B3
:1008D80085EC17F0959095929594000E0001B66FEF
:1008E800000EB56F000EB46F000E9A6F000E9B6F6E
:1008F800000E9C6F000E9D6F59EC0DF00001B76F54
:1009080072EC17F00AC09EF00BC09FF00CC0A0F06C
:100918000DC0A1F000019A519E5D966F9B519F59A1
:10092800976F9C51A059986F9D51A159996F9951F2
:1009380098110BE1F40E965D010E9759D8A0A7EF18
:1009480004F0A9EF04F0B7EF04F0B4C04AF0B5C062
:100958004BF009EC00F09EC09AF09FC09BF0A0C03D
:100968009CF0A1C09DF0450E0001B719D8A4BFEFB7
:1009780004F0C1EF04F0E4EF04F0450EB619D8B462
:10098800C8EF04F0CAEF04F0E4EF04F0B44BB52B61
:10099800B5BFD8EF04F0B55109E1050EB45DD8A094
:1009A800D8EF04F0DAEF04F0DEEF04F0000EB56FD4
:1009B800000EB46FB4C04AF0B5C04BF009EC00F0BB
:1009C800410E0001B719D8A4ECEF04F0EEEF04F0E3
:1009D8003DEF05F0410EB619D8B4F5EF04F0F7EF86
:1009E80004F03DEF05F07C0E296E7F0E2A6E79EC3F
:1009F80011F029C0B2F02AC0B3F00001B22908E111
:100A0800B329D8B40AEF05F00CEF05F029EF05F08B
:100A1800B2C0D8F0B3C0D9F0000E0C6E010E0B6E48
:100A2800000E0E6E000E0D6E960E0F6E7F0E106E7F
:100A38005EEC15F0410E0001966FEE0EE82EFED723
:100A4800962FFCD700F03DEF05F0B22906E1B32957
:100A5800D8A431EF05F033EF05F03DEF05F0000EB7
:100A6800B56F000EB46F000E4B6E000E4A6E09ECA7
:100A780000F0420E0001B719D8A445EF05F047EF82
:100A880005F080EF05F0420EB619D8B44EEF05F028
:100A980050EF05F080EF05F0A20E296E7F0E2A6E4A
:100AA80079EC11F029C0AEF02AC0AFF00001AE29F0
:100AB80008E1AF29D8B463EF05F065EF05F080EFE2
:100AC80005F0AEC0D6F0AFC0D7F0000E0C6E010E28
:100AD8000B6E000E0E6E000E0D6E6F0E0F6E7F0EFB
:100AE800106E5EEC15F0410E0001966FEE0EE82ECA
:100AF800FED7962FFCD700F0430E0001B719D8A4F3
:100B080088EF05F08AEF05F0C3EF05F0430EB6193C
:100B1800D8B491EF05F093EF05F0C3EF05F0C50EDB
:100B2800296E7F0E2A6E79EC11F029C0B0F02AC028
:100B3800B1F00001B02908E1B129D8B4A6EF05F059
:100B4800A8EF05F0C3EF05F0B0C0D4F0B1C0D5F000
:100B5800000E0C6E010E0B6E000E0E6E000E0D6E6A
:100B6800BA0E0F6E7F0E106E5EEC15F0410E00018E
:100B7800966FEE0EE82EFED7962FFCD700F0440EA7
:100B88000001B719D8A4CBEF05F0CDEF05F0F9EFC8
:100B980005F0440EB619D8B4D4EF05F0D6EF05F039
:100BA800F9EF05F0000ED96F1E0ED86F000ED76F43
:100BB800320ED66F000ED56F140ED46F000E0C6E69
:100BC800000E0B6E000E0E6E000E0D6E520E0F6EA6
:100BD8007F0E106E5EEC15F0410E0001966FEE0E62
:100BE800E82EFED7962FFCD700F0E9EC13F060C092
:100BF800A2F061C0A3F062C0A4F063C0A5F048EC05
:100C080014F060C0A6F061C0A7F062C0A8F063C08D
:100C1800A9F0A7EC14F060C0AAF061C0ABF062C004
:100C2800ACF063C0ADF0D8C00AF0D9C00BF0000E2C
:100C38000BBEFF0E0C6E0D6E010EFFEC0FF00AC01E
:100C480018F00BC019F00CC01AF00DC01BF0A2C0B0
:100C58001CF0A3C01DF0A4C01EF0A5C01FF08EECB0
:100C680012F0D8A03AEF06F03CEF06F086EF06F057
:100C7800D6C00AF0D7C00BF0000E0BBEFF0E0C6EEC
:100C88000D6E010EFFEC0FF00AC018F00BC019F042
:100C98000CC01AF00DC01BF0A6C01CF0A7C01DF0B8
:100CA800A8C01EF0A9C01FF08EEC12F0D8A05FEF0C
:100CB80006F061EF06F086EF06F0D4C00AF0D5C062
:100CC8000BF0000E0BBEFF0E0C6E0D6E010EFFEC4E
:100CD8000FF00AC018F00BC019F00CC01AF00DC0C4
:100CE8001BF0AAC01CF0ABC01DF0ACC01EF0ADC01C
:100CF8001FF08EEC12F0D8B084EF06F086EF06F005
:100D08008EEF06F0000E0B6E010E0A6EBDEC17F0AA
:100D180094EF06F0000E0B6E000E0A6EBDEC17F095
:100D2800D8C00AF0D9C00BF0000E0BBEFF0E0C6E37
:100D38000D6E010EFFEC0FF00AC018F00BC019F091
:100D48000CC01AF00DC01BF0A2C01CF0A3C01DF00F
:100D5800A4C01EF0A5C01FF08EEC12F0D8B0B7EFFB
:100D680006F0B9EF06F0BDEF06F083808284BFEF8E
:100D780006F083908294D6C00AF0D7C00BF0000E1C
:100D88000BBEFF0E0C6E0D6E010EFFEC0FF00AC0CD
:100D980018F00BC019F00CC01AF00DC01BF0A6C05B
:100DA8001CF0A7C01DF0A8C01EF0A9C01FF08EEC53
:100DB80012F0D8B0E2EF06F0E4EF06F0E7EF06F045
:100DC8008382E8EF06F08392D4C00AF0D5C00BF016
:100DD800000E0BBEFF0E0C6E0D6E010EFFEC0FF039
:100DE8000AC018F00BC019F00CC01AF00DC01BF0A7
:100DF800AAC01CF0ABC01DF0ACC01EF0ADC01FF007
:100E08008EEC12F0D8B00BEF07F00DEF07F010EFF3
:100E180007F0838411EF07F08394B7C0B6F080EF32
:100E280004F007EF00F00D50800B166E0D500D24E6
:100E3800186E0CAE22EF07F024EF07F025EF07F04D
:100E480018801850D8B42BEF07F02DEF07F042EFB9
:100E580007F01828D8A433EF07F035EF07F03DEF77
:100E680007F0000E0A6E000E0B6E000E0C6E000EE0
:100E78000D6E0C8E000E0D6E4AEF07F0000E0A6E16
:100E8800000E0B6E000E0C6E000E0D6E1150800BD6
:100E9800176E16501718D8B454EF07F056EF07F02E
:100EA80057EF07F0168C11501124176E10AE5FEF34
:100EB80007F061EF07F062EF07F017801750D8B41A
:100EC80068EF07F06AEF07F07FEF07F01728D8A45C
:100ED80070EF07F072EF07F07AEF07F0000E0E6E72
:100EE800000E0F6E000E106E000E116E108E000EAA
:100EF800116E87EF07F0000E0E6E000E0F6E000EDB
:100F0800106E000E116E1850175CD8B08EEF07F0F7
:100F180090EF07F0B7EF07F016AC95EF07F097EFF3
:100F280007F099EF07F0800E161A18C019F017C0CD
:100F380018F019C017F00AC019F00EC00AF019C04D
:100F48000EF00BC019F00FC00BF019C00FF00CC059
:100F580019F010C00CF019C010F00DC019F011C034
:100F68000DF019C011F0000E196E185017C012F0CC
:100F7800136A125E000E135A13BECCEF07F013501B
:100F880009E11A0E125CD8A0CCEF07F0CEEF07F0FB
:100F980005EF08F00A500B100C100D10D8A4D7EF6D
:100FA80007F0DAEF07F0010EDBEF07F0000E196E1D
:100FB800000E0A6E000E0B6E000E0C6E000E0D6E0B
:100FC80017C018F00EEF08F019A0EDEF07F0EFEFDB
:100FD80007F0F5EF07F0D89019300109196EF7EF0F
:100FE80007F0D89019320AA0FCEF07F0FEEF07F0DF
:100FF800FFEF07F0198E0D340D320C320B320A3226
:10100800182A1750185CD8A00CEF08F00EEF08F05B
:10101800E8EF07F016BC13EF08F015EF08F055EFEE
:1010280008F01850D8A41BEF08F01DEF08F027EFC0
:1010380008F0000E0A6E000E0B6E000E0C6E000E0D
:101048000D6E76EF09F00E500A260F500B22105045
:101058000C2211500D220DA034EF08F036EF08F0E5
:10106800E2EF08F019A03BEF08F03DEF08F043EF7E
:1010780008F0D89019300109196E45EF08F0D8909A
:1010880019320AA04AEF08F04CEF08F04DEF08F0CB
:10109800198E0D340D320C320B320A32182AE2EF57
:1010A80008F00E500A5C0F500B5810500C580D5099
:1010B800800A126E1150800A1258D8B066EF08F0F4
:1010C80068EF08F093EF08F00A500E5C126E0B50B0
:1010D8000F58136E0C501058146E0D501158156E91
:1010E800FF0E12240A6EFF0E13200B6EFF0E142043
:1010F8000C6EFF0E15200D6E800E161A196C195005
:10110800D8A489EF08F08BEF08F09BEF08F0010EE8
:101118000A26000E0B220C220D229BEF08F00E501F
:101128000A5E0F500B5A10500C5A11500D5A0A50A3
:101138000B100C100D10D8A4A4EF08F0A6EF08F0BF
:10114800DBEF08F01950D8A4ACEF08F0AEEF08F0C8
:10115800DBEF08F0000E0A6E000E0B6E000E0C6E30
:10116800000E0D6E76EF09F0D8900A360B360C3665
:101178000D3619AEC2EF08F0C4EF08F0C5EF08F05D
:101188000A8019A0CAEF08F0CCEF08F0D0EF08F0F9
:10119800D8801936D2EF08F0D89019361850D8B43C
:1011A800D8EF08F0DAEF08F0DBEF08F018060CAE1D
:1011B800E0EF08F0E2EF08F0B8EF08F0000E176E65
:1011C80019AEE9EF08F0EBEF08F003EF09F019C0EA
:1011D80012F07F0E1216D8B4F4EF08F0F6EF08F00C
:1011E800FAEF08F0010E176E03EF09F00AA0FFEFFF
:1011F80008F001EF09F003EF09F0F6EF08F01750D7
:10120800D8B409EF09F00BEF09F036EF09F0010E39
:101218000A26000E0B220C220D220DA016EF09F053
:1012280018EF09F036EF09F00AC012F00BC013F0FE
:101238000CC014F00DC015F01534153214321332E9
:10124800123212C00AF013C00BF014C00CF015C013
:101258000DF01828D8B433EF09F035EF09F036EF60
:1012680009F0182A1828D8B43CEF09F03EEF09F025
:1012780046EF09F01850D8A444EF09F046EF09F0FA
:1012880058EF09F0000E0A6E000E0B6E000E0C6E81
:10129800000E0D6E1850D8A454EF09F056EF09F05F
:1012A80058EF09F0000E166E18A05DEF09F05FEF19
:1012B80009F062EF09F00C8E63EF09F00C9ED890EC
:1012C80018300D6E16AE6BEF09F06DEF09F06EEF8A
:1012D80009F00D8E0AC00AF00BC00BF00CC00CF020
:1012E8000DC00DF012001B50800B246E1B501B24E8
:1012F8002A6E1AAE82EF09F084EF09F085EF09F043
:101308002A802A50D8B48BEF09F08DEF09F0A0EFAE
:1013180009F02A28D8A493EF09F095EF09F09DEF7A
:1013280009F0000E186E000E196E000E1A6E000EEF
:101338001B6E1A8EA8EF09F0000E186E000E196EBB
:10134800000E1A6E000E1B6E1F50800B241A1F50C1
:101358001F24256E1EAEB3EF09F0B5EF09F0B6EF06
:1013680009F025802550D8B4BCEF09F0BEEF09F08C
:10137800D1EF09F02528D8A4C4EF09F0C6EF09F089
:10138800CEEF09F0000E1C6E000E1D6E000E1E6ED4
:10139800000E1F6E1E8ED9EF09F0000E1C6E000E97
:1013A8001D6E000E1E6E000E1F6E2550D8B4DFEFA6
:1013B80009F0E1EF09F0E9EF09F02A50D8A4E7EFC6
:1013C80009F0E9EF09F0F3EF09F0000E186E000ECE
:1013D800196E000E1A6E000E1B6E8BEF0BF01E506E
:1013E8001802F3CF2FF0F4CF30F02F50266E276A73
:1013F800286A296A30502B6E2C6A2D6A2E6A1D5075
:101408001902F3CF2FF0F4CF30F02F502626000E1C
:1014180027222822292230502B26000E2C222D226A
:101428002E221C501A02F3CF2FF0F4CF30F02F5099
:101438002626000E27222822292230502B26000E8D
:101448002C222D222E2228C029F027C028F026C0C1
:1014580027F0266A1C501902F3CF2FF0F4CF30F092
:101468002F50262630502722000E2822000E29222F
:101478001D501802F3CF2FF0F4CF30F02F5026264E
:1014880030502722000E2822000E292228C029F0D9
:1014980027C028F026C027F0266A1C501802F3CF70
:1014A8002FF0F4CF30F02F50262630502722000E90
:1014B8002822000E29221E501902F3CF2FF0F4CF54
:1014C80030F02F502B2630502C22000E2D22000EEB
:1014D8002E221D501A02F3CF2FF0F4CF30F02F50E8
:1014E8002B2630502C22000E2D22000E2E221E50AC
:1014F8001A02F3CF2FF0F4CF30F02F50206E305077
:10150800216E226A236A22C023F021C022F020C063
:1015180021F0206A20502B2621502C2222502D22E7
:1015280023502E2226C020F027C021F028C022F008
:1015380029C023F0190EA6EF0AF0D89023322232E0
:1015480021322032E82EA1EF0AF020502B2621501C
:101558002C2222502D2223502E2228C029F027C0C9
:1015680028F026C027F0266A25502AC020F0216AD4
:101578002026000E2122820E20242F6EFF0E21200D
:10158800306EDCEF0AF0D8902B362C362D362E36FE
:1015980029AED1EF0AF0D3EF0AF0D4EF0AF02B808E
:1015A800D89026362736283629362F06D8A0300672
:1015B8002DAEE1EF0AF0E3EF0AF0C7EF0AF0000EF4
:1015C800256E29AEEAEF0AF0ECEF0AF010EF0BF007
:1015D800FF0E2614206EFF0E2714216EFF0E28140E
:1015E800226E7F0E2914236E205021102210231002
:1015F800D8B401EF0BF003EF0BF007EF0BF0010E7F
:10160800256E10EF0BF02BA00CEF0BF00EEF0BF08C
:1016180010EF0BF003EF0BF02550D8B416EF0BF0DA
:1016280018EF0BF03CEF0BF0010E2B26000E2C22CE
:101638002D222E222EA023EF0BF025EF0BF03CEFEE
:101648000BF02BC020F02CC021F02DC022F02EC0B2
:1016580023F02334233222322132203220C02BF0CF
:1016680021C02CF022C02DF023C02EF02F4A302AA2
:1016780030BE47EF0BF0305008E12F28D8A047EFD5
:101688000BF049EF0BF053EF0BF0000E2B6E000E32
:101698002C6E800E2D6E7F0E2E6E81EF0BF030BEFD
:1016A80060EF0BF0305006E12F04D8B05EEF0BF07E
:1016B80060EF0BF06CEF0BF0000E2B6E000E2C6E33
:1016C800000E2D6E000E2E6E000E246E81EF0BF0B4
:1016D8002FC02AF0FF0E2B16FF0E2C167F0E2D168C
:1016E800000E2E162AA07BEF0BF07DEF0BF07EEF9D
:1016F8000BF02D8ED8902A302E6E24502E122BC02F
:1017080018F02CC019F02DC01AF02EC01BF01200D2
:101718003450800B416E34503424486E33AE97EF0A
:101728000BF099EF0BF09AEF0BF048804850D8B4C3
:10173800A0EF0BF0A2EF0BF0B7EF0BF04828D8A4FE
:10174800A8EF0BF0AAEF0BF0B2EF0BF0000E316E22
:10175800000E326E000E336E000E346E338E000EA5
:10176800346EBFEF0BF0000E316E000E326E000EBD
:10177800336E000E346E3850800B411A38503824BE
:10178800496E37AECAEF0BF0CCEF0BF0CDEF0BF094
:1017980049804950D8B4D3EF0BF0D5EF0BF0EAEFFE
:1017A8000BF04928D8A4DBEF0BF0DDEF0BF0E5EFE9
:1017B8000BF0000E356E000E366E000E376E000E02
:1017C800386E378E000E386EF2EF0BF0000E356E65
:1017D800000E366E000E376E000E386E355036101D
:1017E80037103810D8A4FBEF0BF0FDEF0BF015EF16
:1017F8000CF0000E316E000E326E000E336E000ECD
:10180800346E800E33127F0E34124150341231C0C0
:1018180031F032C032F033C033F034C034F058EF16
:101828000DF04850D8A41BEF0CF01DEF0CF027EF7B
:101838000CF0000E316E000E326E000E336E000E8C
:10184800346E58EF0DF0495048C039F03A6A395EA5
:10185800000E3A5A7F0E3924426E000E3A20436E2B
:1018680031C03DF032C03EF033C03FF034C040F0EC
:10187800000E316E000E326E000E336E000E346EA6
:10188800000E446E000E456E000E466E000E476E4A
:10189800000E496E88EF0CF04950D8B456EF0CF0A2
:1018A80058EF0CF06FEF0CF0D8903D363E363F36CF
:1018B8004036D890313632363336343647AE67EF55
:1018C8000CF069EF0CF06AEF0CF03180D8904436D8
:1018D80045364636473635503D5C36503E583750CB
:1018E8003F5838504058D8A07CEF0CF07EEF0CF0F1
:1018F80087EF0CF0478C35503D5E36503E5A3750D6
:101908003F5A3850405A492A190E49648EEF0CF054
:1019180090EF0CF050EF0CF03D503E103F1040108F
:10192800D8B499EF0CF09BEF0CF0B3EF0CF04480B7
:10193800B3EF0CF0D890313632363336343647AE02
:10194800A8EF0CF0AAEF0CF0ABEF0CF03180D890B8
:1019580044364536463647364206D8A0430633AEA7
:10196800B8EF0CF0BAEF0CF09EEF0CF0000E496ED9
:1019780047AEC1EF0CF0C3EF0CF0E7EF0CF0FF0E31
:101988004414396EFF0E45143A6EFF0E46143B6E32
:101998007F0E47143C6E39503A103B103C10D8B4B7
:1019A800D8EF0CF0DAEF0CF0DEEF0CF0010E496E18
:1019B800E7EF0CF031A0E3EF0CF0E5EF0CF0E7EF08
:1019C8000CF0DAEF0CF04950D8B4EDEF0CF0EFEF73
:1019D8000CF013EF0DF0010E3126000E32223322E7
:1019E800342234A0FAEF0CF0FCEF0CF013EF0DF0FA
:1019F80031C039F032C03AF033C03BF034C03CF06B
:101A08003C343C323B323A32393239C031F03AC098
:101A180032F03BC033F03CC034F0424A432A43BE64
:101A28001EEF0DF0435008E14228D8A01EEF0DF03C
:101A380020EF0DF02BEF0DF0000E436E4268000E04
:101A4800316E000E326E000E336E000E346E43BEE1
:101A580038EF0DF0435006E14204D8B036EF0DF0F0
:101A680038EF0DF046EF0DF0000E436E000E426E9B
:101A7800000E316E000E326E000E336E000E346EA4
:101A8800000E416E42C048F048A04DEF0DF04FEFF8
:101A98000DF052EF0DF0338E53EF0DF0339ED890CA
:101AA8004830346E09EF0CF01200090EF66E7F0E06
:101AB800F76E20EE18F0070E0900F5CFDEFFE806F6
:101AC800FBE272EC17F00AC025F00BC026F00CC040
:101AD80027F00DC028F0000E216E000E206E21BEEA
:101AE8007FEF0DF0215009E1040E205CD8A07FEFB4
:101AF8000DF081EF0DF083EF0DF0B1EF0EF020C087
:101B080012F0010E136E122A8CEF0DF0D8901336D6
:101B1800122E8AEF0DF01350FF0A8A6E210E126EF4
:101B2800760EE82EFED7122EFCD700D0000E236EBC
:101B3800000E226E22C012F0040E1226010E136E41
:101B4800122AA9EF0DF0D8901336122EA7EF0DF038
:101B5800135081140009D8A4B4EF0DF0B6EF0DF0BE
:101B68009DEF0EF0D8902034D96E2134DA6E180E1D
:101B7800D926000EDA22DECF12F0DDCF13F022C014
:101B880014F023C015F0D89014361536D8901436B2
:101B98001536F90E166E7E0E176E14501626155051
:101BA8001722125016261350172216C0F6FF17C018
:101BB800F7FF0800F5CF24F054502418D8B4E7EF05
:101BC8000DF0E9EF0DF0F3EF0DF025C0C7F026C0DA
:101BD800C8F027C0C9F028C0CAF024C054F00001DA
:101BE800C751255C126EC8512658136EC951275823
:101BF800146ECA512858156E15501410131009E1A7
:101C0800330E125CD8A00BEF0EF00DEF0EF09AEF2A
:101C18000EF0C351255C126EC4512658136EC5517F
:101C28002758146EC6512858156E155014100BE11C
:101C38002D0E125C010E1358D8A025EF0EF027EFD9
:101C48000EF09AEF0EF025C0C3F026C0C4F027C0EE
:101C5800C5F028C0C6F02450B819D8B436EF0EF035
:101C680038EF0EF049EF0EF024C0B9F024C0B8F0F8
:101C7800000EBA6F25C0BBF026C0BCF027C0BDF06F
:101C880028C0BEF02450BAEF0EF0BA51D8A44FEFD6
:101C98000EF051EF0EF077EF0EF0BB51255C126E8F
:101CA800BC512658136EBD512758146EBE51285882
:101CB800156E155014100BE1F50E125C010E135839
:101CC800D8A069EF0EF06BEF0EF077EF0EF0BA2B9D
:101CD80025C0BFF026C0C0F027C0C1F028C0C2F0A0
:101CE8002450BAEF0EF0BA51D8B47DEF0EF07FEF62
:101CF8000EF09AEF0EF0BF51255C126EC0512658B7
:101D0800136EC1512758146EC2512858156E1550BC
:101D18001410131009E1650E125CD8A096EF0EF0AE
:101D280098EF0EF09AEF0EF06CEF0EF0000EBAEF8F
:101D38000EF0224A232A23BEABEF0EF0235009E10E
:101D4800040E225CD8A0ABEF0EF0ADEF0EF09EEFC4
:101D58000DF0204A212A73EF0DF0000E0001B86F34
:101D6800000EBA6F000E546E9AEF0EF0120034BED9
:101D7800C2EF0EF0C0EF0EF0DCEF0EF035C0D9FF69
:101D880036C0DAFF2D0EDF6E354A362A31C00AF02A
:101D980032C00BF033C00CF034C00DF056EC17F025
:101DA8000AC031F00BC032F00CC033F00DC034F073
:101DB80031C00AF032C00BF033C00CF034C00DF063
:101DC8000BEC12F00AC06EF00BC06FF031C01AF0C5
:101DD80032C01BF033C01CF034C01DF06EC00AF0D6
:101DE8006FC00BF0000E0BBEFF0E0C6E0D6E010ED9
:101DF800FFEC0FF00AC01EF00BC01FF00CC020F063
:101E08000DC021F08FEC16F01AC031F01BC032F073
:101E18001CC033F01DC034F06EC072F06FC073F098
:101E2800000E0001776F000E766F600E7625D96E72
:101E3800000E7721DA6E72C00AF073C00BF0000E44
:101E48000D6E0A0E0C6E06EC15F00A50300FDF6EA0
:101E58000001764B772B72C00AF073C00BF0000EAE
:101E68000D6E0A0E0C6E87EC13F00AC072F00BC0F0
:101E780073F0000173BF4BEF0FF0735106E1720569
:101E8800D8B049EF0FF04BEF0FF019EF0FF0000E3D
:101E9800756F000E746F6DEF0FF0600E396E000EE7
:101EA8003A6E7451395E75513A5A765139267751DE
:101EB8003A22FF0E3924D96EFF0E3A20DA6E745199
:101EC8003524E16E75513620E26EDFCFE7FF744BA3
:101ED800752B7651745D7551800A396E7751800A79
:101EE8003958D8A07AEF0FF07CEF0FF051EF0FF0D0
:101EF800765135267751362235C0D9FF36C0DAFFFC
:101F08002E0EDF6E354A362A000E6D6F000E6C6F8E
:101F1800E9EF0FF031C018F032C019F033C01AF0F1
:101F280034C01BF0000E1C6E000E1D6E200E1E6EBF
:101F3800410E1F6E77EC09F018C031F019C032F06D
:101F48001AC033F01BC034F031C00AF032C00BF0B5
:101F580033C00CF034C00DF00BEC12F00AC070F076
:101F68000BC071F000017051300F35C0D9FF36C079
:101F7800DAFFDF6E354A362A31C01AF032C01BF05C
:101F880033C01CF034C01DF070C00AF071C00BF0F3
:101F9800000E0BBEFF0E0C6E0D6E010EFFEC0FF067
:101FA8000AC01EF00BC01FF00CC020F00DC021F0BD
:101FB8008FEC16F01AC031F01BC032F01CC033F0A1
:101FC8001DC034F000016C4B6D2B37506C5D6D51AA
:101FD800800A396E3850800A3958D8A0F6EF0FF0C9
:101FE800F8EF0FF08EEF0FF035C0D9FF36C0DAFFEB
:101FF800000EDF6E1200126E1250D8B406EF10F009
:1020080008EF10F02AEF10F00DBE0FEF10F00DEFF3
:1020180010F02AEF10F00AC00EF00BC00FF00CC041
:1020280010F00DC011F00E1E0F1E101E111E0E2AEC
:10203800000E0F22102211220EC014F00FC015F04E
:1020480010C016F011C017F032EF10F00AC014F0EB
:102058000BC015F00CC016F00DC017F00A500B108D
:102068000C100D10D8A43BEF10F03DEF10F047EF27
:1020780010F0000E0A6E000E0B6E000E0C6E000EB5
:102088000D6ED8EF10F0960E136E51EF10F0132A64
:10209800D8901732163215321432000E14140E6E00
:1020A800000E15140F6E000E1614106EFE0E171487
:1020B800116E0E500F1010101110D8A466EF10F00A
:1020C80068EF10F04BEF10F076EF10F0132A010EC6
:1020D8001426000E152216221722D890173216320F
:1020E80015321432000E14140E6E000E15140F6EF5
:1020F800000E1614106EFF0E1714116E0E500F10EE
:1021080010101110D8A48BEF10F08DEF10F06AEFBB
:1021180010F095EF10F01306D890143615361636D1
:10212800173616BE9AEF10F09CEF10F0A4EF10F0DF
:10213800020E1360A2EF10F0A4EF10F08FEF10F072
:1021480013B0A9EF10F0ABEF10F0ACEF10F0169E43
:10215800D890133213C00EF00F6A106A116A0EC0BD
:1021680011F0106A0F6A0E6A0E5014120F501512F1
:1021780010501612115017121250D8B4C6EF10F0A2
:10218800C8EF10F0D0EF10F00DBECFEF10F0CDEF8C
:1021980010F0D0EF10F0178E14C00AF015C00BF035
:1021A80016C00CF017C00DF01200000E176E000ECE
:1021B800166E14501510D8A4E4EF10F0E6EF10F0E6
:1021C800E8EF10F078EF11F012501310D8A4EFEFE9
:1021D80010F0F1EF10F001EF11F014C0D9FF15C0A5
:1021E800DAFF300EDF6E20EE01F01450D9261550BC
:1021F800DA22000EDF6E78EF11F013BE08EF11F04F
:1022080006EF11F016EF11F0126C131ED8B0132A56
:1022180014C0D9FF15C0DAFF2D0EDF6E144A152A37
:10222800164A172A12C018F013C019F02CEF11F033
:1022380018C00AF019C00BF0000E0D6E0A0E0C6ED5
:1022480087EC13F00AC018F00BC019F0164A172AC9
:1022580019BE39EF11F0195006E11804D8B037EF5C
:1022680011F039EF11F01CEF11F016501424D96E4B
:1022780017501520DA6E000EDF6E12C018F013C06A
:1022880019F06BEF11F01606D8A017061650142493
:10229800D96E17501520DA6E18C00AF019C00BF065
:1022A800000E0D6E0A0E0C6E06EC15F00A50300F7B
:1022B800DF6E18C00AF019C00BF0000E0D6E0A0E82
:1022C8000C6E87EC13F00AC018F00BC019F019BE99
:1022D80078EF11F0195006E11804D8B076EF11F034
:1022E80078EF11F047EF11F01200000E2D6E000E7E
:1022F8002E6E000E2F6E000E316E000E306E010E27
:1023080037EC17F00D0E2B6EFC0EE82EFED72B2E99
:10231800FCD7020E37EC17F00D0E2B6EFC0EE82ED4
:10232800FED72B2EFCD7000E0C6E000E0B6E000E87
:102338000E6E000E0D6E29C00FF02AC010F05EEC74
:1023480015F0ECEF11F059EC0DF0326E2F0E3264EF
:10235800B0EF11F0B2EF11F0DFEF11F03A0E32608A
:10236800B8EF11F0BAEF11F0DFEF11F02D0E3024B5
:10237800D96E000E3120DA6E32C0DFFF000E0C6E0F
:10238800010E0B6E30C00DF031C00EF02D0E302452
:102398000F6E000E3120106E5EEC15F0304A312AB7
:1023A800060E2C6E130E2B6EAE0EE82EFED72B2EBD
:1023B800FCD72C2EFAD7460E3218D8A4E6EF11F027
:1023C800E8EF11F0ECEF11F029682A680AEF12F033
:1023D80031BEF8EF11F0315009E1020E305CD8A09F
:1023E800F8EF11F0FAEF11F0A7EF11F02D500A0DE8
:1023F800F3CF2BF0F4CF2CF02E502B26000E2C22EE
:10240800F00E2B24296EFD0E2C202A6E12000C349F
:102418000D34136E1350D8A414EF12F016EF12F007
:1024280020EF12F0000E0A6E000E0B6E000E0C6EFE
:10243800000E0D6E8DEF12F00AC00EF00BC00FF0FB
:102448000CC010F00DC011F0200E30EF12F0D89033
:10245800113210320F320E32E82E2BEF12F00E50DE
:10246800126E0C8EFF0E0A16FF0E0B16FF0E0C16C0
:10247800000E0D16960E135E13BE47EF12F045EFD1
:1024880012F05DEF12F01350800A970FD8B04FEF9B
:1024980012F051EF12F053EF12F016EF12F0D8903D
:1024A8000D320C320B320A32133E53EF12F075EF35
:1024B80012F01F0E136463EF12F065EF12F06DEF68
:1024C80012F016EF12F0D8900A360B360C360D368D
:1024D80013061350D8A473EF12F075EF12F067EFDC
:1024E80012F01250D8B47BEF12F07DEF12F085EFA6
:1024F80012F00D1E0C1E0B1E0A6C000E0B220C2275
:102508000D220AC00AF00BC00BF00CC00CF00DC075
:102518000DF01200000E1814206E000E1914216E12
:10252800800E1A14226E7F0E1B14236E2050211069
:1025380022102310D8A4A3EF12F0A5EF12F0ADEFEC
:1025480012F0000E186E000E196E000E1A6E000EB4
:102558001B6E000E1C14206E000E1D14216E800EC2
:102568001E14226E7F0E1F14236E2050211022107D
:102578002310D8A4C2EF12F0C4EF12F0CCEF12F07F
:10258800000E1C6E000E1D6E000E1E6E000E1F6EDD
:102598001BAED1EF12F0D3EF12F0DCEF12F0186C93
:1025A800191ED8B0192A1A1ED8B01A2A800E1B561E
:1025B8001FAEE1EF12F0E3EF12F0ECEF12F01C6C3B
:1025C8001D1ED8B01D2A1E1ED8B01E2A800E1F56EA
:1025D800000E181A000E191A000E1A1A800E1B1A6D
:1025E800000E1C1A000E1D1A000E1E1A800E1F1A4D
:1025F8001C50185C1D5019581E501A581F501B5853
:10260800D8B009EF13F00BEF13F00EEF13F0D890DA
:102618000FEF13F0D88012000B6E0F0E83160F0EFB
:1026280095169694969096928D948D908D92A1EC95
:1026380017F0300E37EC17F08FEC17F08FEC17F01F
:10264800300E37EC17F08FEC17F08FEC17F0320ED6
:1026580037EC17F0D5EC16F00009D8A436EF13F0D4
:1026680038EF13F02EEF13F0D5EC16F00009D8A4CC
:1026780040EF13F042EF13F038EF13F00B5037EC44
:1026880017F0D5EC16F00009D8A44DEF13F04FEF72
:1026980013F045EF13F0080E37EC17F0D5EC16F0F1
:1026A8000009D8A45AEF13F05CEF13F052EF13F0BF
:1026B8000F0E37EC17F0D5EC16F00009D8A467EF29
:1026C80013F069EF13F05FEF13F0010E37EC17F01A
:1026D800D5EC16F00009D8A474EF13F076EF13F0D8
:1026E8006CEF13F0040E37EC17F0D5EC16F0000978
:1026F800D8A481EF13F083EF13F079EF13F0800E75
:10270800F8EC16F01200000E0F6E0DBE90EF13F0ED
:102718008EEF13F096EF13F00C6C0D1ED8B00D2A47
:10272800010E0F6E0BBE9DEF13F09BEF13F0A3EF9E
:1027380013F00A6C0B1ED8B00B2A010E0F1A000EEC
:10274800116E000E106E0C500D10D8B4AEEF13F0D1
:10275800B0EF13F0D8EF13F0010E0E6EB8EF13F0D0
:10276800D8900C360D360E2A0DAEBDEF13F0BFEF24
:1027780013F0B4EF13F0D890103611360C500A5CF1
:102788000D500B58D8A0CBEF13F0CDEF13F0D2EFCC
:1027980013F00C500A5E0D500B5A1080D8900D3271
:1027A8000C320E2EBFEF13F00F50D8B4DEEF13F03B
:1027B800E0EF13F0E4EF13F0106C111ED8B0112AFB
:1027C80010C00AF011C00BF01200000E35EC16F024
:1027D8000AC06CF00BC06DF0000E356EC00E366E80
:1027E8007F0E376E440E386E000E1C6E000E1D6E86
:1027F800A00E1E6E400E1F6E6CC00AF06DC00BF06E
:102808000C6A0D6A000EFFEC0FF00AC018F00BC03E
:1028180019F00CC01AF00DC01BF077EC09F018C0C5
:1028280031F019C032F01AC033F01BC034F08CEC10
:102838000BF031C068F032C069F033C06AF034C0C0
:102848006BF068C031F069C032F06AC033F06BC019
:1028580034F00A0E356ED70E366E230E376E3C0EE8
:10286800386E8CEC0BF031C064F032C065F033C0C8
:1028780066F034C067F064C060F065C061F066C09F
:1028880062F067C063F01200030E35EC16F00AC060
:102898006CF00BC06DF0000E356EC00E366E7F0EFC
:1028A800376E440E386E000E1C6E000E1D6EA00EA4
:1028B8001E6E400E1F6E6CC00AF06DC00BF00C6AE5
:1028C8000D6A000EFFEC0FF00AC018F00BC019F0EB
:1028D8000CC01AF00DC01BF077EC09F018C031F0ED
:1028E80019C032F01AC033F01BC034F08CEC0BF076
:1028F80031C068F032C069F033C06AF034C06BF0A0
:1029080068C018F069C019F06AC01AF06BC01BF0F3
:10291800000E1C6E000E1D6EA00E1E6E410E1F6E68
:1029280077EC09F018C064F019C065F01AC066F0B9
:102938001BC067F064C060F065C061F066C062F0FB
:1029480067C063F01200020E35EC16F00AC06CF096
:102958000BC06DF0000E356EC00E366E7F0E376EF2
:10296800440E386E000E1C6E000E1D6EA00E1E6EFC
:10297800400E1F6E6CC00AF06DC00BF00C6A0D6A39
:10298800000EFFEC0FF00AC018F00BC019F00CC0D5
:102998001AF00DC01BF077EC09F018C031F019C01F
:1029A80032F01AC033F01BC034F08CEC0BF031C09D
:1029B80068F032C069F033C06AF034C06BF068C0A8
:1029C80018F069C019F06AC01AF06BC01BF0000E4D
:1029D8001C6E000E1D6EA00E1E6E410E1F6E77EC53
:1029E80009F018C064F019C065F01AC066F01BC081
:1029F80067F064C060F065C061F066C062F067C0EF
:102A080063F01200000E0F6E0BBE0FEF15F00DEF06
:102A180015F015EF15F00A6C0B1ED8B00B2A010E35
:102A28000F6E0DBE1CEF15F01AEF15F020EF15F024
:102A38000C6C0D1ED8B00D2A0C500D10D8B427EF11
:102A480015F029EF15F04DEF15F0010E0E6E31EF70
:102A580015F0D8900C360D360E2A0DAE36EF15F05F
:102A680038EF15F02DEF15F00C500A5C0D500B588F
:102A7800D8A041EF15F043EF15F047EF15F00C50D3
:102A88000A5E0D500B5AD8900D320C320E2E38EFCC
:102A980015F00F50D8B453EF15F055EF15F059EF66
:102AA80015F00A6C0B1ED8B00B2A0AC00AF00BC02E
:102AB8000BF012000B500C10D8B465EF15F067EF4F
:102AC80015F06DEF15F0000E146EC00E136E71EF59
:102AD80015F0000E146E800E136E0D501324116E37
:102AE8000E501420126E115037EC17F090EF15F0BD
:102AF8000FC0F6FF10C0F7FFF86A070EF76403D09F
:102B08000800F55005D0F6CFE1FFF7CFE2FFE75018
:102B180018EC17F00F4A102A0FC0F6FF10C0F7FF85
:102B2800F86A070EF76403D00800F55005D0F6CF11
:102B3800E1FFF7CFE2FFE7500009D8A4A6EF15F0B0
:102B4800A8EF15F07CEF15F012000600F2A4AFEF25
:102B580015F0B1EF15F0EFEF15F0640ED66E010E1B
:102B68004C26000E4D224E224F224CC001F04DC083
:102B780002F04EC003F04FC004F0E80E056E030EDD
:102B8800066E000E076E000E086EF1EC15F001508F
:102B9800021003100410D8A4D4EF15F0D6EF15F0E6
:102BA800EEEF15F053BEE2EF15F0535009E1020EB7
:102BB800525CD8A0E2EF15F0E4EF15F0EAEF15F05B
:102BC800000E536E000E526EEEEF15F0000E536EAF
:102BD800010E526EF294569211000550061007101D
:102BE8000810D8B4FAEF15F0FCEF15F02CEF16F03A
:102BF800010E096E06EF16F0D89005360636073630
:102C08000836092A08AE0BEF16F00DEF16F000EFA4
:102C180016F00550015C065002580750035808503A
:102C28000458D8A01AEF16F01CEF16F024EF16F08F
:102C38000550015E0650025A0750035A0850045ABC
:102C4800D8900832073206320532092E0DEF16F0F9
:102C580001C001F002C002F003C003F004C004F098
:102C68001200106E0C0E10643CEF16F03EEF16F0DA
:102C780044EF16F0000E0B6E000E0A6E6BEF16F0A6
:102C880010C00CF00C460C46C2500C18C30B0C18A4
:102C9800C26E0D0E0C6EFC0EE82EFED70C2EFCD765
:102CA800C282C2B25AEF16F05CEF16F055EF16F07A
:102CB800C350C4CF0CF00D6A0CC00DF00C6A0C1098
:102CC8000E6E0D500F6E0EC00AF00FC00BF0120002
:102CD800740EF66E2F0EF76E000EF86E00EED4F03E
:102CE80010EE06F00900F5CFEEFFE550E150FAE1ED
:102CF80000EEB8F01C0EEE6AE806FDE100EE4CF0BE
:102D08000A0EEE6AE806FDE156905692000EF86E3D
:102D1800000164EF04F0000E1E1A000E1F1A000EC8
:102D2800201A800E211A1AC00AF01BC00BF01CC012
:102D38000CF01DC00DF01EC00EF01FC00FF020C01B
:102D480010F021C011F017EC07F00AC01AF00BC000
:102D58001BF00CC01CF00DC01DF01200280E10EC6A
:102D680013F0010E37EC17F0410E0C6EEE0EE82E44
:102D7800FED70C2EFCD700D0020E37EC17F00D0E44
:102D88000C6EFC0EE82EFED70C2EFCD70C0E37EC82
:102D980017F00D0E0C6EFC0EE82EFED70C2EFCD78D
:102DA80012008D848D90B5EC17F08D82B5EC17F07C
:102DB80083AEE1EF16F0E3EF16F0EEEF16F08D922A
:102DC800B5EC17F08D82B5EC17F08D928D94010E4D
:102DD800F7EF16F08D92B5EC17F08D82B5EC17F081
:102DE8008D928D94000E12000A6E0F0E95160F0E1E
:102DF80083160A508009F00B83128D948D90B5ECE0
:102E080017F08D82B5EC17F08D920F0E83160A38E5
:102E1800F00BF00B8312B5EC17F08D82B5EC17F0C0
:102E28008D92F00E951212000A6E0F0E95160F0E67
:102E380083160A50F00B83128D808D94B5EC17F031
:102E48008D82B5EC17F08D920F0E83160A38F00BB1
:102E5800F00B8312B5EC17F08D82B5EC17F08D925C
:102E6800F00E951212000A6E0F0E95160F0E8316AD
:102E78000A50F00B83128D948D90B5EC17F08D826B
:102E8800B5EC17F08D920F0E83160A38F00BF00B85
:102E98008312B5EC17F08D82B5EC17F08D92F00E19
:102EA800951212000A500B100C100D10D8B45FEFD9
:102EB80017F061EF17F069EF17F0000E0A1A000E0D
:102EC8000B1A000E0C1A800E0D1A0AC00AF00BC05D
:102ED8000BF00CC00CF00DC00DF01200F29E4CC0AF
:102EE8000EF04DC00FF04EC010F04FC011F0F28E32
:102EF8000EC00AF00FC00BF010C00CF011C00DF09E
:102F08001200D08EF28EF28CF184F28AF294F19053
:102F1800F286F2901200210E0A6E760EE82EFED787
:102F28000A2EFCD700D01200F00E936E9286959070
:102F380095929494839083921200620E0A6E660EA4
:102F4800E82EFED70A2EFCD71200C40ED56E640EEA
:102F5800D66EF29412000B0EC16E950EC06EC28032
:102F68001200210EE82EFED700F0120014003200E5
:042F78001E00120025
:107EF800003132334134353642373839434630451C
:107F080044030002000100000048756D6964696659
:107F1800696361646F72204F4E00485F6C696D2021
:107F280065786365646964612100545F6C696D20DC
:107F380065786365646964612100475F6C696D20D9
:107F4800657863656469646F21004C696D207265AA
:107F580073657461646F7321005265736672696139
:107F6800646F72204F4E0048756D69642053616CD0
:107F7800766F21004C696D6974652054656D703A9F
:107F880000496E76616C6964204D656E75005465B4
:107F98006D702053616C766121004C696D69746560
:107FA8002048756D3A004578617573746F72204F7B
:107FB8004E004761732053616C766F21004C696DE8
:107FC800697465204761730053697374656D6173E3
:107FD8003A004C656974757261730048756D69641F
:107FE8003A004C696D3A004761733A0070706D0051
:087FF8004F4B0025004300007F
:020000040020DA
:08000000FFFFFFFFFFFFFFFF00
:020000040030CA
:0E000000000C191EFF8080FF0FC00FE00F40A4
:00000001FF
