:020000040000FA
:0400000007EF00F016
:0A000800428210ED0FF01FEF11F01F
:10080000003132334134353642373839434630458A
:10081000440300020001000000436F756E74646FB2
:10082000776E3A004C45443A4F6E20004C45443AAE
:0B0830004F6666002056696E3A00001B
:10083C002150800B2A6E215021242C6E20AE29EFE2
:10084C0004F02BEF04F02CEF04F02C802C50D8B4D7
:10085C0032EF04F034EF04F049EF04F02C28D8A464
:10086C003AEF04F03CEF04F044EF04F0000E1E6E7F
:10087C00000E1F6E000E206E000E216E208E000EDC
:10088C00216E51EF04F0000E1E6E000E1F6E000E56
:10089C00206E000E216E2550800B2B6E2A502B18CB
:1008AC00D8B45BEF04F05DEF04F05EEF04F02A8C3B
:1008BC00255025242B6E24AE66EF04F068EF04F06F
:1008CC0069EF04F02B802B50D8B46FEF04F071EF6C
:1008DC0004F086EF04F02B28D8A477EF04F079EF1E
:1008EC0004F081EF04F0000E226E000E236E000E59
:1008FC00246E000E256E248E000E256E8EEF04F0F5
:10090C00000E226E000E236E000E246E000E256E5D
:10091C002C502B5CD8B095EF04F097EF04F0BEEFA1
:10092C0004F02AAC9CEF04F09EEF04F0A0EF04F06E
:10093C00800E2A1A2CC02DF02BC02CF02DC02BF0C1
:10094C001EC02DF022C01EF02DC022F01FC02DF0B5
:10095C0023C01FF02DC023F020C02DF024C020F0A8
:10096C002DC024F021C02DF025C021F02DC025F084
:10097C00000E2D6E2C502BC026F0276A265E000E22
:10098C00275A27BED3EF04F0275009E11A0E265C34
:10099C00D8A0D3EF04F0D5EF04F00CEF05F01E5007
:1009AC001F1020102110D8A4DEEF04F0E1EF04F0AA
:1009BC00010EE2EF04F0000E2D6E000E1E6E000E06
:1009CC001F6E000E206E000E216E2BC02CF015EF4A
:1009DC0005F02DA0F4EF04F0F6EF04F0FCEF04F0BA
:1009EC00D8902D3001092D6EFEEF04F0D8902D32E9
:1009FC001EA003EF05F005EF05F006EF05F02D8EB8
:100A0C002134213220321F321E322C2A2B502C5CE6
:100A1C00D8A013EF05F015EF05F0EFEF04F02ABCAA
:100A2C001AEF05F01CEF05F05CEF05F02C50D8A484
:100A3C0022EF05F024EF05F02EEF05F0000E1E6EF0
:100A4C00000E1F6E000E206E000E216E7DEF06F064
:100A5C0022501E2623501F222450202225502122B2
:100A6C0021A03BEF05F03DEF05F0E9EF05F02DA0DF
:100A7C0042EF05F044EF05F04AEF05F0D8902D3029
:100A8C0001092D6E4CEF05F0D8902D321EA051EFC0
:100A9C0005F053EF05F054EF05F02D8E2134213283
:100AAC0020321F321E322C2AE9EF05F022501E5C38
:100ABC0023501F58245020582150800A266E255050
:100ACC00800A2658D8B06DEF05F06FEF05F09AEF5D
:100ADC0005F01E50225C266E1F502358276E2050A6
:100AEC002458286E21502558296EFF0E26241E6E80
:100AFC00FF0E27201F6EFF0E2820206EFF0E2920D0
:100B0C00216E800E2A1A2D6C2D50D8A490EF05F072
:100B1C0092EF05F0A2EF05F0010E1E26000E1F222B
:100B2C0020222122A2EF05F022501E5E23501F5AD4
:100B3C002450205A2550215A1E501F1020102110CD
:100B4C00D8A4ABEF05F0ADEF05F0E2EF05F02D50BA
:100B5C00D8A4B3EF05F0B5EF05F0E2EF05F0000E09
:100B6C001E6E000E1F6E000E206E000E216E7DEFAD
:100B7C0006F0D8901E361F36203621362DAEC9EF22
:100B8C0005F0CBEF05F0CCEF05F01E802DA0D1EFDA
:100B9C0005F0D3EF05F0D7EF05F0D8802D36D9EF5F
:100BAC0005F0D8902D362C50D8B4DFEF05F0E1EFDE
:100BBC0005F0E2EF05F02C0620AEE7EF05F0E9EFCB
:100BCC0005F0BFEF05F0000E2B6E2DAEF0EF05F02B
:100BDC00F2EF05F00AEF06F02DC026F07F0E261678
:100BEC00D8B4FBEF05F0FDEF05F001EF06F0010EB8
:100BFC002B6E0AEF06F01EA006EF06F008EF06F0CB
:100C0C000AEF06F0FDEF05F02B50D8B410EF06F00C
:100C1C0012EF06F03DEF06F0010E1E26000E1F220D
:100C2C002022212221A01DEF06F01FEF06F03DEF40
:100C3C0006F01EC026F01FC027F020C028F021C0EF
:100C4C0029F02934293228322732263226C01EF0C8
:100C5C0027C01FF028C020F029C021F02C28D8B4C0
:100C6C003AEF06F03CEF06F03DEF06F02C2A2C286C
:100C7C00D8B443EF06F045EF06F04DEF06F02C50DC
:100C8C00D8A44BEF06F04DEF06F05FEF06F0000E28
:100C9C001E6E000E1F6E000E206E000E216E2C506C
:100CAC00D8A45BEF06F05DEF06F05FEF06F0000EE8
:100CBC002A6E2CA064EF06F066EF06F069EF06F0E2
:100CCC00208E6AEF06F0209ED8902C30216E2AAE32
:100CDC0072EF06F074EF06F075EF06F0218E1EC071
:100CEC001EF01FC01FF020C020F021C021F0120008
:100CFC0000017051800B796F705170257F6F6FAF51
:100D0C008AEF06F08CEF06F08DEF06F07F817F51B5
:100D1C00D8B493EF06F095EF06F0A8EF06F07F2914
:100D2C00D8A49BEF06F09DEF06F0A5EF06F0000EA1
:100D3C006D6F000E6E6F000E6F6F000E706F6F8F09
:100D4C00B0EF06F0000E6D6F000E6E6F000E6F6F41
:100D5C00000E706F7451800B791B745174257A6F6F
:100D6C0073AFBBEF06F0BDEF06F0BEEF06F07A8175
:100D7C007A51D8B4C4EF06F0C6EF06F0D9EF06F0FE
:100D8C007A29D8A4CCEF06F0CEEF06F0D6EF06F019
:100D9C00000E716F000E726F000E736F000E746F89
:100DAC00738FE1EF06F0000E716F000E726F000E84
:100DBC00736F000E746F7A51D8B4E7EF06F0E9EF59
:100DCC0006F0F1EF06F07F51D8A4EFEF06F0F1EF4B
:100DDC0006F0FBEF06F0000E6D6F000E6E6F000E4E
:100DEC006F6F000E706F93EF08F073516D03F3CFBC
:100DFC0084F0F4CF85F084517B6F7C6B7D6B7E6BC4
:100E0C008551806F816B826B836B72516E03F3CF54
:100E1C0084F0F4CF85F084517B27000E7C237D2356
:100E2C007E2385518027000E8123822383237151D9
:100E3C006F03F3CF84F0F4CF85F084517B27000E41
:100E4C007C237D237E2385518027000E81238223E2
:100E5C0083237DC07EF07CC07DF07BC07CF07B6BFF
:100E6C0071516E03F3CF84F0F4CF85F084517B275E
:100E7C0085517C23000E7D23000E7E2372516D0361
:100E8C00F3CF84F0F4CF85F084517B2785517C23FC
:100E9C00000E7D23000E7E237DC07EF07CC07DF095
:100EAC007BC07CF07B6B71516D03F3CF84F0F4CF7E
:100EBC0085F084517B2785517C23000E7D23000E09
:100ECC007E2373516E03F3CF84F0F4CF85F08451FD
:100EDC00802785518123000E8223000E83237251BB
:100EEC006F03F3CF84F0F4CF85F0845180278551C4
:100EFC008123000E8223000E832373516F03F3CFE3
:100F0C0084F0F4CF85F08451756F8551766F776BD3
:100F1C00786B77C078F076C077F075C076F0756B2B
:100F2C007551802776518123775182237851832301
:100F3C007BC075F07CC076F07DC077F07EC078F019
:100F4C00190EAEEF07F0D8907833773376337533CC
:100F5C00E82EA9EF07F07551802776518123775140
:100F6C008223785183237DC07EF07CC07DF07BC0D2
:100F7C007CF07B6B7A517FC075F0766B7527000E19
:100F8C007623820E7525846FFF0E7621856FE4EF34
:100F9C0007F0D89080378137823783377EAFD9EF0F
:100FAC0007F0DBEF07F0DCEF07F08081D8907B37A0
:100FBC007C377D377E378407D8A0850782AFE9EF71
:100FCC0007F0EBEF07F0CFEF07F0000E7A6F7EAF74
:100FDC00F2EF07F0F4EF07F018EF08F0FF0E7B15B7
:100FEC00756FFF0E7C15766FFF0E7D15776F7F0E7C
:100FFC007E15786F7551761177117811D8B409EF89
:10100C0008F00BEF08F00FEF08F0010E7A6F18EFF5
:10101C0008F080A114EF08F016EF08F018EF08F0B4
:10102C000BEF08F07A51D8B41EEF08F020EF08F05F
:10103C0044EF08F0010E8027000E812382238323C6
:10104C0083A12BEF08F02DEF08F044EF08F080C0DF
:10105C0075F081C076F082C077F083C078F0783577
:10106C00783377337633753375C080F076C081F082
:10107C0077C082F078C083F0844B852B85BF4FEF0F
:10108C0008F0855108E18429D8A04FEF08F051EF02
:10109C0008F05BEF08F0000E806F000E816F800E81
:1010AC00826F7F0E836F89EF08F085BF68EF08F0C1
:1010BC00855106E18405D8B066EF08F068EF08F0BA
:1010CC0074EF08F0000E806F000E816F000E826FBF
:1010DC00000E836F000E796F89EF08F084C07FF0EB
:1010EC00FF0E8017FF0E81177F0E8217000E8317DD
:1010FC007FA183EF08F085EF08F086EF08F0828F70
:10110C00D8907F31836F7951831380C06DF081C08B
:10111C006EF082C06FF083C070F012002F50800B05
:10112C000001646F2F502F246B6F2EAEA0EF08F0D0
:10113C00A2EF08F0A3EF08F06B816B51D8B4A9EFC4
:10114C0008F0ABEF08F0C0EF08F06B29D8A4B1EFB2
:10115C0008F0B3EF08F0BBEF08F0000E2C6E000E99
:10116C002D6E000E2E6E000E2F6E2E8E000E2F6E1C
:10117C00C8EF08F0000E2C6E000E2D6E000E2E6EB9
:10118C00000E2F6E3350800B641B335033246C6F66
:10119C0032AED3EF08F0D5EF08F0D6EF08F06C8143
:1011AC006C51D8B4DCEF08F0DEEF08F0F3EF08F088
:1011BC006C29D8A4E4EF08F0E6EF08F0EEEF08F0A5
:1011CC00000E306E000E316E000E326E000E336E5D
:1011DC00328E000E336EFBEF08F0000E306E000EF8
:1011EC00316E000E326E000E336E305031103210F4
:1011FC003310D8A404EF09F006EF09F01EEF09F044
:10120C00000E2C6E000E2D6E000E2E6E000E2F6E2C
:10121C00800E2E127F0E2F1264512F122CC02CF028
:10122C002DC02DF02EC02EF02FC02FF061EF0AF044
:10123C006B51D8A424EF09F026EF09F030EF09F038
:10124C00000E2C6E000E2D6E000E2E6E000E2F6EEC
:10125C0061EF0AF06C516BC034F0356A345E000EED
:10126C00355A7F0E3424656F000E3520666F2CC006
:10127C0060F02DC061F02EC062F02FC063F0000E44
:10128C002C6E000E2D6E000E2E6E000E2F6E000EAC
:10129C00676F000E686F000E696F000E6A6F000EAC
:1012AC006C6F91EF09F06C51D8B45FEF09F061EFFE
:1012BC0009F078EF09F0D8906037613762376337FF
:1012CC00D8902C362D362E362F366AAF70EF09F0AB
:1012DC0072EF09F073EF09F02C80D89067376837FC
:1012EC0069376A373050605D3150615932506259FC
:1012FC0033506359D8A085EF09F087EF09F090EFD0
:10130C0009F06A8D3050605F3150615B3250625B26
:10131C003350635B6C2B190E6C6597EF09F099EFEA
:10132C0009F059EF09F06051611162116311D8B4E1
:10133C00A2EF09F0A4EF09F0BCEF09F06781BCEF54
:10134C0009F0D8902C362D362E362F366AAFB1EFE9
:10135C0009F0B3EF09F0B4EF09F02C80D89067379F
:10136C00683769376A376507D8A066072EAEC1EFB4
:10137C0009F0C3EF09F0A7EF09F0000E6C6F6AAF2C
:10138C00CAEF09F0CCEF09F0F0EF09F0FF0E67158A
:10139C00346EFF0E6815356EFF0E6915366E7F0EB6
:1013AC006A15376E3450351036103710D8B4E1EF5B
:1013BC0009F0E3EF09F0E7EF09F0010E6C6FF0EFC5
:1013CC0009F02CA0ECEF09F0EEEF09F0F0EF09F0CA
:1013DC00E3EF09F06C51D8B4F6EF09F0F8EF09F02F
:1013EC001CEF0AF0010E2C26000E2D222E222F228D
:1013FC002FA003EF0AF005EF0AF01CEF0AF02CC047
:10140C0034F02DC035F02EC036F02FC037F0373405
:10141C00373236323532343234C02CF035C02DF000
:10142C0036C02EF037C02FF0654B662B66BF27EF0A
:10143C000AF0665108E16529D8A027EF0AF029EFD8
:10144C000AF034EF0AF0000E666F6569000E2C6E20
:10145C00000E2D6E000E2E6E000E2F6E66BF41EF2D
:10146C000AF0665106E16505D8B03FEF0AF041EF8E
:10147C000AF04FEF0AF0000E666F000E656F000E5B
:10148C002C6E000E2D6E000E2E6E000E2F6E000EAA
:10149C00646F65C06BF06BA156EF0AF058EF0AF061
:1014AC005BEF0AF02E8E5CEF0AF02E9ED8906B311B
:1014BC002F6E12EF09F01200266E2650D8B469EF89
:1014CC000AF06BEF0AF08DEF0AF021BE72EF0AF012
:1014DC0070EF0AF08DEF0AF01EC022F01FC023F04F
:1014EC0020C024F021C025F0221E231E241E251E00
:1014FC00222A000E23222422252222C028F023C0D7
:10150C0029F024C02AF025C02BF095EF0AF01EC05C
:10151C0028F01FC029F020C02AF021C02BF01E504B
:10152C001F1020102110D8A49EEF0AF0A0EF0AF093
:10153C00AAEF0AF0000E1E6E000E1F6E000E206E3B
:10154C00000E216E3BEF0BF0960E276EB4EF0AF0F7
:10155C00272AD8902B322A3229322832000E28140E
:10156C00226E000E2914236E000E2A14246EFE0E19
:10157C002B14256E2250231024102510D8A4C9EF4B
:10158C000AF0CBEF0AF0AEEF0AF0D9EF0AF0272AF7
:10159C00010E2826000E29222A222B22D8902B322B
:1015AC002A3229322832000E2814226E000E2914F9
:1015BC00236E000E2A14246EFF0E2B14256E22505F
:1015CC00231024102510D8A4EEEF0AF0F0EF0AF047
:1015DC00CDEF0AF0F8EF0AF02706D8902836293616
:1015EC002A362B362ABEFDEF0AF0FFEF0AF007EF82
:1015FC000BF0020E276005EF0BF007EF0BF0F2EF8C
:10160C000AF027B00CEF0BF00EEF0BF00FEF0BF016
:10161C002A9ED890273227C022F0236A246A256A92
:10162C0022C025F0246A236A226A225028122350F1
:10163C00291224502A1225502B122650D8B429EFE7
:10164C000BF02BEF0BF033EF0BF021BE32EF0BF066
:10165C0030EF0BF033EF0BF02B8E28C01EF029C0AF
:10166C001FF02AC020F02BC021F01200F2940EECD7
:10167C0012F01DEC12F016EC12F0FEEC11F0EBEC8B
:10168C0011F0EBEC0BF000019E6F2FEC10F086C00C
:10169C009AF087C09BF088C09CF089C09DF09AC0DE
:1016AC008EF09BC08FF09CC090F09DC091F000011B
:1016BC009E511BEC0EF09AC01EF09BC01FF09CC0FC
:1016CC0020F09DC021F0000E226E000E236E400E05
:1016DC00246E400E256E99EC0DF0D8B078EF0BF01F
:1016EC007AEF0BF086EF0BF08380C00ECCEC11F090
:1016FC00240E1F6E080E206EB4EC10F090EF0BF061
:10170C008390C00ECCEC11F02C0E1F6E080E206EC8
:10171C00B4EC10F000019F51A011D8B498EF0BF06D
:10172C009AEF0BF0AAEF0BF0A151A211D8B4A1EFD4
:10173C000BF0A3EF0BF0AAEF0BF0A107D8A0A207B8
:10174C00000EA06F000E9F6FA25109E10A0EA15D61
:10175C00D8A0B3EF0BF0B5EF0BF0B9EF0BF0000E18
:10176C00A26F090EA16F800ECCEC11F0190E1F6E3A
:10177C00080E206EB4EC10F0A1C01EF0A2C01FF039
:10178C00000E216E0A0E206E7AEC10F01E50300FF7
:10179C000001966FA1C01EF0A2C01FF0000E216EBA
:1017AC000A0E206EEDEC10F01E50300F0001976FFA
:1017BC008B0ECCEC11F0960E1F6E000E206EB4EC5E
:1017CC0010F047EF0BF007EF00F0110EF66E080E5D
:1017DC00F76E20EE24F0070E0900F5CFDEFFE806C9
:1017EC00FBE2000E2D6E000E2C6E2DBE07EF0CF0E2
:1017FC002D5009E1040E2C5CD8A007EF0CF009EF7A
:10180C000CF00BEF0CF068EF0CF02CC01EF0010E7E
:10181C001F6E1E2A14EF0CF0D8901F361E2E12EFDE
:10182C000CF01F50FF0A8A6E210E1E6E760EE82EEB
:10183C00FED71E2EFCD700D0000E2F6E000E2E6E83
:10184C002EC01EF0040E1E26010E1F6E1E2A31EF36
:10185C000CF0D8901F361E2E2FEF0CF01F50811459
:10186C000009D8A43CEF0CF03EEF0CF06BEF0CF041
:10187C00D8902C34D96E2D34DA6E240ED926000E65
:10188C00DA22DECF1EF0DDCF1FF02EC020F02FC0ED
:10189C0021F0D89020362136D89020362136010EF2
:1018AC00226E080E236E20502226215023221E5019
:1018BC0022261F50232222C0F6FF23C0F7FF080068
:1018CC00F5CF3EF03E507FEF0CF02E4A2F2A2FBE64
:1018DC0079EF0CF02F5009E1040E2E5CD8A079EFB3
:1018EC000CF07BEF0CF026EF0CF02C4A2D2AFBEFC2
:1018FC000BF01200110EF66E080EF76E20EE07F0CC
:10190C00070E0900F5CFDEFFE806FBE2000E106EB5
:10191C00000E0F6E10BE9CEF0CF0105009E1040E7F
:10192C000F5CD8A09CEF0CF09EEF0CF0A0EF0CF02D
:10193C00FDEF0CF00FC001F0010E026E012AA9EFB1
:10194C000CF0D8900236012EA7EF0CF00250FF0AD3
:10195C008A6E210E016E760EE82EFED7012EFCD774
:10196C0000D0000E126E000E116E11C001F0040EAC
:10197C000126010E026E012AC6EF0CF0D890023639
:10198C00012EC4EF0CF0025081140009D8A4D1EF41
:10199C000CF0D3EF0CF000EF0DF0D8900F34D96EA3
:1019AC001034DA6E070ED926000EDA22DECF01F0E3
:1019BC00DDCF02F011C003F012C004F0D890033652
:1019CC000436D89003360436010E056E080E066EEA
:1019DC00035005260450062201500526025006220B
:1019EC0005C0F6FF06C0F7FF0800F5CF3EF03E50ED
:1019FC0014EF0DF0114A122A12BE0EEF0DF0125018
:101A0C0009E1040E115CD8A00EEF0DF010EF0DF0F3
:101A1C00BBEF0CF00F4A102A90EF0CF012000001F3
:101A2C0088358935396E3950D8A41FEF0DF021EF68
:101A3C000DF02BEF0DF0000E866F000E876F000E71
:101A4C00886F000E896F98EF0DF086C08AF087C002
:101A5C008BF088C08CF089C08DF0200E3BEF0DF020
:101A6C00D8908D338C338B338A33E82E36EF0DF0D0
:101A7C008A51386E888FFF0E8617FF0E8717FF0E60
:101A8C008817000E8917960E395E39BE52EF0DF08D
:101A9C0050EF0DF068EF0DF03950800A970FD8B069
:101AAC005AEF0DF05CEF0DF05EEF0DF021EF0DF045
:101ABC00D8908933883387338633393E5EEF0DF007
:101ACC0080EF0DF01F0E39646EEF0DF070EF0DF01E
:101ADC0078EF0DF021EF0DF0D890863787378837E7
:101AEC00893739063950D8A47EEF0DF080EF0DF010
:101AFC0072EF0DF03850D8B486EF0DF088EF0DF082
:101B0C0090EF0DF0891F881F871F866D000E8723AD
:101B1C008823892386C086F087C087F088C088F028
:101B2C0089C089F01200000E1E14266E000E1F14C0
:101B3C00276E800E2014286E7F0E2114296E2650DD
:101B4C00271028102910D8A4AEEF0DF0B0EF0DF02F
:101B5C00B8EF0DF0000E1E6E000E1F6E000E206E04
:101B6C00000E216E000E2214266E000E2314276E1A
:101B7C00800E2414286E7F0E2514296E26502710F3
:101B8C0028102910D8A4CDEF0DF0CFEF0DF0D7EF22
:101B9C000DF0000E226E000E236E000E246E000E51
:101BAC00256E21AEDCEF0DF0DEEF0DF0E7EF0DF062
:101BBC001E6C1F1ED8B01F2A201ED8B0202A800EE3
:101BCC00215625AEECEF0DF0EEEF0DF0F7EF0DF02A
:101BDC00226C231ED8B0232A241ED8B0242A800EAF
:101BEC002556000E1E1A000E1F1A000E201A800E0B
:101BFC00211A000E221A000E231A000E241A800E2F
:101C0C00251A22501E5C23501F5824502058255052
:101C1C002158D8B014EF0EF016EF0EF019EF0EF0AD
:101C2C00D8901AEF0EF0D88012008EC086F08FC0BC
:101C3C0087F090C088F091C089F015EC0DF086C04B
:101C4C0092F087C093F0000E0001716F000E726F5E
:101C5C00C80E736F420E746F92C01EF093C01FF0CB
:101C6C00000E1FBEFF0E206E216E010E62EC0AF0FC
:101C7C001EC032F01FC033F020C034F021C035F04C
:101C8C008EC02EF08FC02FF090C030F091C031F08C
:101C9C0047EC11F02EC06DF02FC06EF030C06FF01D
:101CAC0031C070F07EEC06F06DC086F06EC087F02F
:101CBC006FC088F070C089F015EC0DF086C094F000
:101CCC0087C095F0C70ECCEC11F0340E1F6E080EC9
:101CDC00206EB4EC10F0CC0ECCEC11F00001925153
:101CEC00300FADEC11F02E0EADEC11F094C01EF0D7
:101CFC0095C01FF0000E216E0A0E206E75EC0FF0D1
:101D0C001E50300FADEC11F094C01EF095C01FF0BA
:101D1C00000E216E0A0E206ED7EC0FF01E50300F05
:101D2C00ADEC11F012001F6E0F0E83160F0E9516F0
:101D3C009694969096928D948D908D9206EC12F0CE
:101D4C00300ECCEC11F0F5EC11F0F5EC11F0300E8E
:101D5C00CCEC11F0F5EC11F0F5EC11F0320ECCEC02
:101D6C0011F06AEC11F00009D8A4BFEF0EF0C1EF2E
:101D7C000EF0B7EF0EF06AEC11F00009D8A4C9EF21
:101D8C000EF0CBEF0EF0C1EF0EF01F50CCEC11F0BB
:101D9C006AEC11F00009D8A4D6EF0EF0D8EF0EF0D3
:101DAC00CEEF0EF0080ECCEC11F06AEC11F000093D
:101DBC00D8A4E3EF0EF0E5EF0EF0DBEF0EF00F0E14
:101DCC00CCEC11F06AEC11F00009D8A4F0EF0EF095
:101DDC00F2EF0EF0E8EF0EF0010ECCEC11F06AEC25
:101DEC0011F00009D8A4FDEF0EF0FFEF0EF0F5EFA7
:101DFC000EF0040ECCEC11F06AEC11F00009D8A432
:101E0C000AEF0FF00CEF0FF002EF0FF0800E8DECDD
:101E1C0011F012000600D9CF17F0DACF18F0F6CF78
:101E2C0019F0F7CF1AF0F8CF1BF0F5CF1CF0F2A495
:101E3C0022EF0FF024EF0FF03FEF0FF0C20ED76E32
:101E4C00F70ED66E3A4A3B2A3B5009E10A0E3A5C31
:101E5C00D8A033EF0FF035EF0FF03EEF0FF0000E80
:101E6C003B6E000E3A6E000E0001A06F010E9F6FCC
:101E7C00F294F2A044EF0FF046EF0FF067EF0FF083
:101E8C0080EC0CF01D6ED00E136EFF0E146E1D50F8
:101E9C00156E166A1350152614501622165007E1AB
:101EAC000A0E155CD8B05DEF0FF05FEF0FF066EF28
:101EBC000FF0D00E1D240001A16FA26BFF0EA22308
:101ECC00F2901CC0F5FF1BC0F8FF1AC0F7FF19C039
:101EDC00F6FF18C0DAFF17C0D9FF42921100000EAE
:101EEC00236E21BE7EEF0FF07CEF0FF084EF0FF02E
:101EFC00206C211ED8B0212A010E236E1FBE8BEF41
:101F0C000FF089EF0FF091EF0FF01E6C1F1ED8B081
:101F1C001F2A010E231A000E256E000E246E20506F
:101F2C002110D8B49CEF0FF09EEF0FF0C6EF0FF01E
:101F3C00010E226EA6EF0FF0D89020362136222A01
:101F4C0021AEABEF0FF0ADEF0FF0A2EF0FF0D8908A
:101F5C002436253620501E5C21501F58D8A0B9EFCE
:101F6C000FF0BBEF0FF0C0EF0FF020501E5E2150B2
:101F7C001F5A2480D89021322032222EADEF0FF040
:101F8C002350D8B4CCEF0FF0CEEF0FF0D2EF0FF010
:101F9C00246C251ED8B0252A24C01EF025C01FF0A5
:101FAC001200000E236E1FBEE0EF0FF0DEEF0FF0FD
:101FBC00E6EF0FF01E6C1F1ED8B01F2A010E236E09
:101FCC0021BEEDEF0FF0EBEF0FF0F1EF0FF0206C07
:101FDC00211ED8B0212A20502110D8B4F8EF0FF0D0
:101FEC00FAEF0FF01EEF10F0010E226E02EF10F060
:101FFC00D89020362136222A21AE07EF10F009EFB7
:10200C0010F0FEEF0FF020501E5C21501F58D8A08E
:10201C0012EF10F014EF10F018EF10F020501E5EBD
:10202C0021501F5AD89021322032222E09EF10F065
:10203C002350D8B424EF10F026EF10F02AEF10F054
:10204C001E6C1F1ED8B01F2A1EC01EF01FC01FF012
:10205C001200C282C2B235EF10F037EF10F030EF41
:10206C0010F0C350C4CF38F0396A38C039F0386A30
:10207C00381000018A6F39508B6F000E306EC00E15
:10208C00316E7F0E326E440E336E8AC01EF08BC0E2
:10209C001FF0206A216A000E62EC0AF01EC02CF0C0
:1020AC001FC02DF020C02EF021C02FF094EC08F0B2
:1020BC002CC06DF02DC06EF02EC06FF02FC070F0E4
:1020CC00000E0001716F000E726FA00E736F400E48
:1020DC00746F7EEC06F06DC086F06EC087F06FC03A
:1020EC0088F070C089F01200000E236E000E226E74
:1020FC0020502110D8B485EF10F087EF10F0AFEF1F
:10210C0010F0010E246E8FEF10F0D890203621368F
:10211C00242A21AE94EF10F096EF10F08BEF10F014
:10212C00D8902236233620501E5C21501F58D8A040
:10213C00A2EF10F0A4EF10F0A9EF10F020501E5EEB
:10214C0021501F5A2280D89021322032242E96EF13
:10215C0010F022C01EF023C01FF01200D4EF10F0BC
:10216C006AEC11F00009D8A4BEEF10F0C0EF10F02B
:10217C00B6EF10F01FC0F6FF20C0F7FFF86A070E8D
:10218C00F76403D00800F55005D0F6CFE9FFF7CF80
:10219C00EAFFEF50ADEC11F01F4A202A1FC0F6FFEA
:1021AC0020C0F7FFF86A070EF76403D00800F5505B
:1021BC0005D0F6CFE9FFF7CFEAFFEF500009D8A41E
:1021CC00EAEF10F0ECEF10F0B6EF10F01200205028
:1021DC002110D8B4F4EF10F0F6EF10F01AEF11F064
:1021EC00010E226EFEEF10F0D89020362136222AF6
:1021FC0021AE03EF11F005EF11F0FAEF10F02050C3
:10220C001E5C21501F58D8A00EEF11F010EF11F0EA
:10221C0014EF11F020501E5E21501F5AD89021321D
:10222C002032222E05EF11F01EC01EF01FC01FF031
:10223C001200540EF66E240EF76E000EF86E0900A6
:10224C00F5CFA1F00900F5CFA2F0520EF66E240ED8
:10225C00F76E000EF86E0900F5CF40F00900F5CFCF
:10226C0041F00001A06B9F6B3F6A3E6A3D6A3C6A7D
:10227C003B6A3A6A42904292000EF86E00013CEFC3
:10228C000BF0000E321A000E331A000E341A800EA8
:10229C00351A2EC01EF02FC01FF030C020F031C0F8
:1022AC0021F032C022F033C023F034C024F035C00A
:1022BC0025F01EEC04F01EC02EF01FC02FF020C025
:1022CC0030F021C031F012008D848D9024EC12F08E
:1022DC008D8224EC12F083AE76EF11F078EF11F0D2
:1022EC0083EF11F08D9224EC12F08D8224EC12F01D
:1022FC008D928D94010E8CEF11F08D9224EC12F0D6
:10230C008D8224EC12F08D928D94000E12001E6EB4
:10231C000F0E95160F0E83161E508009F00B8312AC
:10232C008D948D9024EC12F08D8224EC12F08D9211
:10233C000F0E83161E38F00BF00B831224EC12F0E8
:10234C008D8224EC12F08D92F00E951212001E6EFE
:10235C000F0E95160F0E83161E50F00B83128D80E8
:10236C008D9424EC12F08D8224EC12F08D920F0ED1
:10237C0083161E38F00BF00B831224EC12F08D82B6
:10238C0024EC12F08D92F00E951212001E6E0F0EB0
:10239C0095160F0E83161E50F00B83128D948D9094
:1023AC0024EC12F08D8224EC12F08D920F0E831619
:1023BC001E38F00BF00B831224EC12F08D8224ECFF
:1023CC0012F08D92F00E95121200D08EF28EF28CCD
:1023DC00F184F28AF294F190F286F2901200210EBE
:1023EC001E6E760EE82EFED71E2EFCD700D01200E5
:1023FC00840ED56EC20ED76EF70ED66EF294120006
:10240C00620E1E6E660EE82EFED71E2EFCD7120034
:10241C00F00E936E92869590959283908392120013
:10242C00280E99EC0EF0010ECCEC11F012000B0EF4
:10243C00C16E0D0EC26E950EC06E1200210EE82EEE
:0A244C00FED700F0120003000900A3
:020000040020DA
:08000000FFFFFFFFFFFFFFFF00
:020000040030CA
:0E000000000C191EFF8080FF0FC00FE00F40A4
:00000001FF
